{
	"contracts/BtcEcRecover.sol": {
		"BtcEcRecover": {
			"abi": [
				{
					"constant": true,
					"inputs": [
						{
							"name": "hash",
							"type": "bytes32"
						},
						{
							"name": "signature",
							"type": "bytes"
						}
					],
					"name": "recover",
					"outputs": [
						{
							"name": "",
							"type": "bytes"
						}
					],
					"payable": false,
					"stateMutability": "view",
					"type": "function"
				}
			],
			"devdoc": {
				"methods": {}
			},
			"evm": {
				"assembly": "    /* \"contracts/BtcEcRecover.sol\":134:2641  contract BtcEcRecover {\r... */\n  mstore(0x40, 0x80)\n  callvalue\n    /* \"--CODEGEN--\":8:17   */\n  dup1\n    /* \"--CODEGEN--\":5:7   */\n  iszero\n  tag_1\n  jumpi\n    /* \"--CODEGEN--\":30:31   */\n  0x0\n    /* \"--CODEGEN--\":27:28   */\n  dup1\n    /* \"--CODEGEN--\":20:32   */\n  revert\n    /* \"--CODEGEN--\":5:7   */\ntag_1:\n    /* \"contracts/BtcEcRecover.sol\":134:2641  contract BtcEcRecover {\r... */\n  pop\n  dataSize(sub_0)\n  dup1\n  dataOffset(sub_0)\n  0x0\n  codecopy\n  0x0\n  return\nstop\n\nsub_0: assembly {\n        /* \"contracts/BtcEcRecover.sol\":134:2641  contract BtcEcRecover {\r... */\n      mstore(0x40, 0x80)\n      jumpi(tag_1, lt(calldatasize, 0x4))\n      calldataload(0x0)\n      0x100000000000000000000000000000000000000000000000000000000\n      swap1\n      div\n      0xffffffff\n      and\n      dup1\n      0x19045a25\n      eq\n      tag_2\n      jumpi\n    tag_1:\n      0x0\n      dup1\n      revert\n        /* \"contracts/BtcEcRecover.sol\":547:1163  function recover(bytes32 hash, bytes memory signature) public view returns (bytes memory) {\r... */\n    tag_2:\n      callvalue\n        /* \"--CODEGEN--\":8:17   */\n      dup1\n        /* \"--CODEGEN--\":5:7   */\n      iszero\n      tag_3\n      jumpi\n        /* \"--CODEGEN--\":30:31   */\n      0x0\n        /* \"--CODEGEN--\":27:28   */\n      dup1\n        /* \"--CODEGEN--\":20:32   */\n      revert\n        /* \"--CODEGEN--\":5:7   */\n    tag_3:\n        /* \"contracts/BtcEcRecover.sol\":547:1163  function recover(bytes32 hash, bytes memory signature) public view returns (bytes memory) {\r... */\n      pop\n      tag_4\n      0x4\n      dup1\n      calldatasize\n      sub\n      dup2\n      add\n      swap1\n      dup1\n      dup1\n      calldataload\n      not(0x0)\n      and\n      swap1\n      0x20\n      add\n      swap1\n      swap3\n      swap2\n      swap1\n      dup1\n      calldataload\n      swap1\n      0x20\n      add\n      swap1\n      dup3\n      add\n      dup1\n      calldataload\n      swap1\n      0x20\n      add\n      swap1\n      dup1\n      dup1\n      0x1f\n      add\n      0x20\n      dup1\n      swap2\n      div\n      mul\n      0x20\n      add\n      mload(0x40)\n      swap1\n      dup2\n      add\n      0x40\n      mstore\n      dup1\n      swap4\n      swap3\n      swap2\n      swap1\n      dup2\n      dup2\n      mstore\n      0x20\n      add\n      dup4\n      dup4\n      dup1\n      dup3\n      dup5\n      calldatacopy\n      dup3\n      add\n      swap2\n      pop\n      pop\n      pop\n      pop\n      pop\n      pop\n      swap2\n      swap3\n      swap2\n      swap3\n      swap1\n      pop\n      pop\n      pop\n      jump(tag_5)\n    tag_4:\n      mload(0x40)\n      dup1\n      dup1\n      0x20\n      add\n      dup3\n      dup2\n      sub\n      dup3\n      mstore\n      dup4\n      dup2\n      dup2\n      mload\n      dup2\n      mstore\n      0x20\n      add\n      swap2\n      pop\n      dup1\n      mload\n      swap1\n      0x20\n      add\n      swap1\n      dup1\n      dup4\n      dup4\n        /* \"--CODEGEN--\":23:24   */\n      0x0\n        /* \"--CODEGEN--\":8:108   */\n    tag_6:\n        /* \"--CODEGEN--\":33:36   */\n      dup4\n        /* \"--CODEGEN--\":30:31   */\n      dup2\n        /* \"--CODEGEN--\":27:37   */\n      lt\n        /* \"--CODEGEN--\":8:108   */\n      iszero\n      tag_7\n      jumpi\n        /* \"--CODEGEN--\":99:100   */\n      dup1\n        /* \"--CODEGEN--\":94:97   */\n      dup3\n        /* \"--CODEGEN--\":90:101   */\n      add\n        /* \"--CODEGEN--\":84:102   */\n      mload\n        /* \"--CODEGEN--\":80:81   */\n      dup2\n        /* \"--CODEGEN--\":75:78   */\n      dup5\n        /* \"--CODEGEN--\":71:82   */\n      add\n        /* \"--CODEGEN--\":64:103   */\n      mstore\n        /* \"--CODEGEN--\":52:54   */\n      0x20\n        /* \"--CODEGEN--\":49:50   */\n      dup2\n        /* \"--CODEGEN--\":45:55   */\n      add\n        /* \"--CODEGEN--\":40:55   */\n      swap1\n      pop\n        /* \"--CODEGEN--\":8:108   */\n      jump(tag_6)\n    tag_7:\n        /* \"--CODEGEN--\":12:26   */\n      pop\n        /* \"contracts/BtcEcRecover.sol\":547:1163  function recover(bytes32 hash, bytes memory signature) public view returns (bytes memory) {\r... */\n      pop\n      pop\n      pop\n      swap1\n      pop\n      swap1\n      dup2\n      add\n      swap1\n      0x1f\n      and\n      dup1\n      iszero\n      tag_9\n      jumpi\n      dup1\n      dup3\n      sub\n      dup1\n      mload\n      0x1\n      dup4\n      0x20\n      sub\n      0x100\n      exp\n      sub\n      not\n      and\n      dup2\n      mstore\n      0x20\n      add\n      swap2\n      pop\n    tag_9:\n      pop\n      swap3\n      pop\n      pop\n      pop\n      mload(0x40)\n      dup1\n      swap2\n      sub\n      swap1\n      return\n    tag_5:\n        /* \"contracts/BtcEcRecover.sol\":623:628  bytes */\n      0x60\n        /* \"contracts/BtcEcRecover.sol\":722:731  bytes32 r */\n      0x0\n        /* \"contracts/BtcEcRecover.sol\":742:751  bytes32 s */\n      dup1\n        /* \"contracts/BtcEcRecover.sol\":762:769  uint8 v */\n      0x0\n        /* \"contracts/BtcEcRecover.sol\":672:674  65 */\n      0x41\n        /* \"contracts/BtcEcRecover.sol\":652:661  signature */\n      dup6\n        /* \"contracts/BtcEcRecover.sol\":652:668  signature.length */\n      mload\n        /* \"contracts/BtcEcRecover.sol\":652:674  signature.length != 65 */\n      eq\n      iszero\n        /* \"contracts/BtcEcRecover.sol\":648:712  if (signature.length != 65) {\r... */\n      iszero\n      tag_11\n      jumpi\n        /* \"contracts/BtcEcRecover.sol\":691:700  return \"\" */\n      0x20\n      mload(0x40)\n      swap1\n      dup2\n      add\n      0x40\n      mstore\n      dup1\n      0x0\n      dup2\n      mstore\n      pop\n      swap4\n      pop\n      jump(tag_10)\n        /* \"contracts/BtcEcRecover.sol\":648:712  if (signature.length != 65) {\r... */\n    tag_11:\n        /* \"contracts/BtcEcRecover.sol\":838:842  0x20 */\n      0x20\n        /* \"contracts/BtcEcRecover.sol\":827:836  signature */\n      dup6\n        /* \"contracts/BtcEcRecover.sol\":823:843  add(signature, 0x20) */\n      add\n        /* \"contracts/BtcEcRecover.sol\":817:844  mload(add(signature, 0x20)) */\n      mload\n        /* \"contracts/BtcEcRecover.sol\":814:815  0 */\n      0x0\n        /* \"contracts/BtcEcRecover.sol\":809:845  byte(0, mload(add(signature, 0x20))) */\n      byte\n        /* \"contracts/BtcEcRecover.sol\":804:845  v := byte(0, mload(add(signature, 0x20))) */\n      swap1\n      pop\n        /* \"contracts/BtcEcRecover.sol\":885:889  0x21 */\n      0x21\n        /* \"contracts/BtcEcRecover.sol\":874:883  signature */\n      dup6\n        /* \"contracts/BtcEcRecover.sol\":870:890  add(signature, 0x21) */\n      add\n        /* \"contracts/BtcEcRecover.sol\":864:891  mload(add(signature, 0x21)) */\n      mload\n        /* \"contracts/BtcEcRecover.sol\":859:891  r := mload(add(signature, 0x21)) */\n      swap3\n      pop\n        /* \"contracts/BtcEcRecover.sol\":931:935  0x41 */\n      0x41\n        /* \"contracts/BtcEcRecover.sol\":920:929  signature */\n      dup6\n        /* \"contracts/BtcEcRecover.sol\":916:936  add(signature, 0x41) */\n      add\n        /* \"contracts/BtcEcRecover.sol\":910:937  mload(add(signature, 0x41)) */\n      mload\n        /* \"contracts/BtcEcRecover.sol\":905:937  s := mload(add(signature, 0x41)) */\n      swap2\n      pop\n        /* \"contracts/BtcEcRecover.sol\":979:980  2 */\n      0x2\n        /* \"contracts/BtcEcRecover.sol\":278:344  0xfffffffffffffffffffffffffffffffebaaedce6af48a03bbfd25e8cd0364141 */\n      0xfffffffffffffffffffffffffffffffebaaedce6af48a03bbfd25e8cd0364141\n        /* \"contracts/BtcEcRecover.sol\":975:980  n / 2 */\n      dup2\n      iszero\n      iszero\n      tag_12\n      jumpi\n      invalid\n    tag_12:\n      div\n        /* \"contracts/BtcEcRecover.sol\":970:971  s */\n      dup3\n        /* \"contracts/BtcEcRecover.sol\":962:972  uint256(s) */\n      0x1\n      swap1\n      div\n        /* \"contracts/BtcEcRecover.sol\":962:980  uint256(s) > n / 2 */\n      gt\n        /* \"contracts/BtcEcRecover.sol\":958:1018  if (uint256(s) > n / 2) {\r... */\n      iszero\n      tag_13\n      jumpi\n        /* \"contracts/BtcEcRecover.sol\":997:1006  return \"\" */\n      0x20\n      mload(0x40)\n      swap1\n      dup2\n      add\n      0x40\n      mstore\n      dup1\n      0x0\n      dup2\n      mstore\n      pop\n      swap4\n      pop\n      jump(tag_10)\n        /* \"contracts/BtcEcRecover.sol\":958:1018  if (uint256(s) > n / 2) {\r... */\n    tag_13:\n        /* \"contracts/BtcEcRecover.sol\":1037:1039  27 */\n      0x1b\n        /* \"contracts/BtcEcRecover.sol\":1032:1033  v */\n      dup2\n        /* \"contracts/BtcEcRecover.sol\":1032:1039  v != 27 */\n      0xff\n      and\n      eq\n      iszero\n        /* \"contracts/BtcEcRecover.sol\":1032:1050  v != 27 && v != 28 */\n      dup1\n      iszero\n      tag_14\n      jumpi\n      pop\n        /* \"contracts/BtcEcRecover.sol\":1048:1050  28 */\n      0x1c\n        /* \"contracts/BtcEcRecover.sol\":1043:1044  v */\n      dup2\n        /* \"contracts/BtcEcRecover.sol\":1043:1050  v != 28 */\n      0xff\n      and\n      eq\n      iszero\n        /* \"contracts/BtcEcRecover.sol\":1032:1050  v != 27 && v != 28 */\n    tag_14:\n        /* \"contracts/BtcEcRecover.sol\":1032:1061  v != 27 && v != 28 && v != 31 */\n      dup1\n      iszero\n      tag_15\n      jumpi\n      pop\n        /* \"contracts/BtcEcRecover.sol\":1059:1061  31 */\n      0x1f\n        /* \"contracts/BtcEcRecover.sol\":1054:1055  v */\n      dup2\n        /* \"contracts/BtcEcRecover.sol\":1054:1061  v != 31 */\n      0xff\n      and\n      eq\n      iszero\n        /* \"contracts/BtcEcRecover.sol\":1032:1061  v != 27 && v != 28 && v != 31 */\n    tag_15:\n        /* \"contracts/BtcEcRecover.sol\":1032:1072  v != 27 && v != 28 && v != 31 && v != 32 */\n      dup1\n      iszero\n      tag_16\n      jumpi\n      pop\n        /* \"contracts/BtcEcRecover.sol\":1070:1072  32 */\n      0x20\n        /* \"contracts/BtcEcRecover.sol\":1065:1066  v */\n      dup2\n        /* \"contracts/BtcEcRecover.sol\":1065:1072  v != 32 */\n      0xff\n      and\n      eq\n      iszero\n        /* \"contracts/BtcEcRecover.sol\":1032:1072  v != 27 && v != 28 && v != 31 && v != 32 */\n    tag_16:\n        /* \"contracts/BtcEcRecover.sol\":1028:1110  if (v != 27 && v != 28 && v != 31 && v != 32) {\r... */\n      iszero\n      tag_17\n      jumpi\n        /* \"contracts/BtcEcRecover.sol\":1089:1098  return \"\" */\n      0x20\n      mload(0x40)\n      swap1\n      dup2\n      add\n      0x40\n      mstore\n      dup1\n      0x0\n      dup2\n      mstore\n      pop\n      swap4\n      pop\n      jump(tag_10)\n        /* \"contracts/BtcEcRecover.sol\":1028:1110  if (v != 27 && v != 28 && v != 31 && v != 32) {\r... */\n    tag_17:\n        /* \"contracts/BtcEcRecover.sol\":1127:1155  btc_ecrecover(hash, v, r, s) */\n      tag_18\n        /* \"contracts/BtcEcRecover.sol\":1141:1145  hash */\n      dup7\n        /* \"contracts/BtcEcRecover.sol\":1147:1148  v */\n      dup3\n        /* \"contracts/BtcEcRecover.sol\":1150:1151  r */\n      dup6\n        /* \"contracts/BtcEcRecover.sol\":1153:1154  s */\n      dup6\n        /* \"contracts/BtcEcRecover.sol\":1127:1140  btc_ecrecover */\n      tag_19\n        /* \"contracts/BtcEcRecover.sol\":1127:1155  btc_ecrecover(hash, v, r, s) */\n      jump\t// in\n    tag_18:\n        /* \"contracts/BtcEcRecover.sol\":1120:1155  return btc_ecrecover(hash, v, r, s) */\n      swap4\n      pop\n        /* \"contracts/BtcEcRecover.sol\":547:1163  function recover(bytes32 hash, bytes memory signature) public view returns (bytes memory) {\r... */\n    tag_10:\n      pop\n      pop\n      pop\n      swap3\n      swap2\n      pop\n      pop\n      jump\t// out\n        /* \"contracts/BtcEcRecover.sol\":1169:2087  function btc_ecrecover(bytes32 msgh, uint8 v, bytes32 r, bytes32 s) private view returns (bytes memory) {\r... */\n    tag_19:\n        /* \"contracts/BtcEcRecover.sol\":1259:1264  bytes */\n      0x60\n        /* \"contracts/BtcEcRecover.sol\":1284:1290  uint i */\n      0x0\n        /* \"contracts/BtcEcRecover.sol\":1305:1315  uint256 rr */\n      dup1\n        /* \"contracts/BtcEcRecover.sol\":1339:1349  uint256 ss */\n      0x0\n        /* \"contracts/BtcEcRecover.sol\":1373:1384  bool isYOdd */\n      dup1\n        /* \"contracts/BtcEcRecover.sol\":1417:1433  bool isSecondKey */\n      0x0\n        /* \"contracts/BtcEcRecover.sol\":1466:1483  bool isCompressed */\n      dup1\n        /* \"contracts/BtcEcRecover.sol\":1663:1682  uint256[3] memory P */\n      tag_20\n      jump\t// in(tag_21)\n    tag_20:\n        /* \"contracts/BtcEcRecover.sol\":1849:1871  bytes memory publicKey */\n      0x60\n        /* \"contracts/BtcEcRecover.sol\":1293:1294  0 */\n      0x0\n        /* \"contracts/BtcEcRecover.sol\":1284:1294  uint i = 0 */\n      swap8\n      pop\n        /* \"contracts/BtcEcRecover.sol\":1326:1327  r */\n      dup11\n        /* \"contracts/BtcEcRecover.sol\":1318:1328  uint256(r) */\n      0x1\n      swap1\n      div\n        /* \"contracts/BtcEcRecover.sol\":1305:1328  uint256 rr = uint256(r) */\n      swap7\n      pop\n        /* \"contracts/BtcEcRecover.sol\":1360:1361  s */\n      dup10\n        /* \"contracts/BtcEcRecover.sol\":1352:1362  uint256(s) */\n      0x1\n      swap1\n      div\n        /* \"contracts/BtcEcRecover.sol\":1339:1362  uint256 ss = uint256(s) */\n      swap6\n      pop\n        /* \"contracts/BtcEcRecover.sol\":1405:1406  0 */\n      0x0\n        /* \"contracts/BtcEcRecover.sol\":1399:1400  1 */\n      0x1\n        /* \"contracts/BtcEcRecover.sol\":1393:1395  27 */\n      0x1b\n        /* \"contracts/BtcEcRecover.sol\":1389:1390  v */\n      dup15\n        /* \"contracts/BtcEcRecover.sol\":1389:1395  v - 27 */\n      sub\n        /* \"contracts/BtcEcRecover.sol\":1388:1400  (v - 27) & 1 */\n      and\n        /* \"contracts/BtcEcRecover.sol\":1387:1406  ((v - 27) & 1) != 0 */\n      0xff\n      and\n      eq\n      iszero\n        /* \"contracts/BtcEcRecover.sol\":1373:1406  bool isYOdd = ((v - 27) & 1) != 0 */\n      swap5\n      pop\n        /* \"contracts/BtcEcRecover.sol\":1454:1455  0 */\n      0x0\n        /* \"contracts/BtcEcRecover.sol\":1448:1449  2 */\n      0x2\n        /* \"contracts/BtcEcRecover.sol\":1442:1444  27 */\n      0x1b\n        /* \"contracts/BtcEcRecover.sol\":1438:1439  v */\n      dup15\n        /* \"contracts/BtcEcRecover.sol\":1438:1444  v - 27 */\n      sub\n        /* \"contracts/BtcEcRecover.sol\":1437:1449  (v - 27) & 2 */\n      and\n        /* \"contracts/BtcEcRecover.sol\":1436:1455  ((v - 27) & 2) != 0 */\n      0xff\n      and\n      eq\n      iszero\n        /* \"contracts/BtcEcRecover.sol\":1417:1455  bool isSecondKey = ((v - 27) & 2) != 0 */\n      swap4\n      pop\n        /* \"contracts/BtcEcRecover.sol\":1504:1505  0 */\n      0x0\n        /* \"contracts/BtcEcRecover.sol\":1498:1499  4 */\n      0x4\n        /* \"contracts/BtcEcRecover.sol\":1492:1494  27 */\n      0x1b\n        /* \"contracts/BtcEcRecover.sol\":1488:1489  v */\n      dup15\n        /* \"contracts/BtcEcRecover.sol\":1488:1494  v - 27 */\n      sub\n        /* \"contracts/BtcEcRecover.sol\":1487:1499  (v - 27) & 4 */\n      and\n        /* \"contracts/BtcEcRecover.sol\":1486:1505  ((v - 27) & 4) != 0 */\n      0xff\n      and\n      eq\n      iszero\n        /* \"contracts/BtcEcRecover.sol\":1466:1505  bool isCompressed = ((v - 27) & 4) != 0 */\n      swap3\n      pop\n        /* \"contracts/BtcEcRecover.sol\":1521:1533  isCompressed */\n      dup3\n        /* \"contracts/BtcEcRecover.sol\":1520:1533  !isCompressed */\n      iszero\n        /* \"contracts/BtcEcRecover.sol\":1516:1571  if (!isCompressed) {\r... */\n      iszero\n      tag_23\n      jumpi\n        /* \"contracts/BtcEcRecover.sol\":1550:1559  return \"\" */\n      0x20\n      mload(0x40)\n      swap1\n      dup2\n      add\n      0x40\n      mstore\n      dup1\n      0x0\n      dup2\n      mstore\n      pop\n      swap9\n      pop\n      jump(tag_22)\n        /* \"contracts/BtcEcRecover.sol\":1516:1571  if (!isCompressed) {\r... */\n    tag_23:\n        /* \"contracts/BtcEcRecover.sol\":278:344  0xfffffffffffffffffffffffffffffffebaaedce6af48a03bbfd25e8cd0364141 */\n      0xfffffffffffffffffffffffffffffffebaaedce6af48a03bbfd25e8cd0364141\n        /* \"contracts/BtcEcRecover.sol\":184:250  0xfffffffffffffffffffffffffffffffffffffffffffffffffffffffefffffc2f */\n      0xfffffffffffffffffffffffffffffffffffffffffffffffffffffffefffffc2f\n        /* \"contracts/BtcEcRecover.sol\":1593:1598  p % n */\n      dup2\n      iszero\n      iszero\n      tag_24\n      jumpi\n      invalid\n    tag_24:\n      mod\n        /* \"contracts/BtcEcRecover.sol\":1587:1589  rr */\n      dup8\n        /* \"contracts/BtcEcRecover.sol\":1587:1598  rr >= p % n */\n      lt\n      iszero\n        /* \"contracts/BtcEcRecover.sol\":1587:1613  rr >= p % n && isSecondKey */\n      dup1\n      iszero\n      tag_25\n      jumpi\n      pop\n        /* \"contracts/BtcEcRecover.sol\":1602:1613  isSecondKey */\n      dup4\n        /* \"contracts/BtcEcRecover.sol\":1587:1613  rr >= p % n && isSecondKey */\n    tag_25:\n        /* \"contracts/BtcEcRecover.sol\":1583:1651  if (rr >= p % n && isSecondKey) {\r... */\n      iszero\n      tag_26\n      jumpi\n        /* \"contracts/BtcEcRecover.sol\":1630:1639  return \"\" */\n      0x20\n      mload(0x40)\n      swap1\n      dup2\n      add\n      0x40\n      mstore\n      dup1\n      0x0\n      dup2\n      mstore\n      pop\n      swap9\n      pop\n      jump(tag_22)\n        /* \"contracts/BtcEcRecover.sol\":1583:1651  if (rr >= p % n && isSecondKey) {\r... */\n    tag_26:\n        /* \"contracts/BtcEcRecover.sol\":1685:1738  _getPoint(uint256(msgh), rr, ss, isYOdd, isSecondKey) */\n      tag_27\n        /* \"contracts/BtcEcRecover.sol\":1703:1707  msgh */\n      dup14\n        /* \"contracts/BtcEcRecover.sol\":1695:1708  uint256(msgh) */\n      0x1\n      swap1\n      div\n        /* \"contracts/BtcEcRecover.sol\":1710:1712  rr */\n      dup9\n        /* \"contracts/BtcEcRecover.sol\":1714:1716  ss */\n      dup9\n        /* \"contracts/BtcEcRecover.sol\":1718:1724  isYOdd */\n      dup9\n        /* \"contracts/BtcEcRecover.sol\":1726:1737  isSecondKey */\n      dup9\n        /* \"contracts/BtcEcRecover.sol\":1685:1694  _getPoint */\n      tag_28\n        /* \"contracts/BtcEcRecover.sol\":1685:1738  _getPoint(uint256(msgh), rr, ss, isYOdd, isSecondKey) */\n      jump\t// in\n    tag_27:\n        /* \"contracts/BtcEcRecover.sol\":1663:1738  uint256[3] memory P = _getPoint(uint256(msgh), rr, ss, isYOdd, isSecondKey) */\n      swap2\n      pop\n        /* \"contracts/BtcEcRecover.sol\":1761:1762  0 */\n      0x0\n        /* \"contracts/BtcEcRecover.sol\":1753:1754  P */\n      dup3\n        /* \"contracts/BtcEcRecover.sol\":1755:1756  2 */\n      0x2\n        /* \"contracts/BtcEcRecover.sol\":1753:1757  P[2] */\n      0x3\n      dup2\n      lt\n      iszero\n      iszero\n      tag_29\n      jumpi\n      invalid\n    tag_29:\n      0x20\n      mul\n      add\n      mload\n        /* \"contracts/BtcEcRecover.sol\":1753:1762  P[2] == 0 */\n      eq\n        /* \"contracts/BtcEcRecover.sol\":1749:1800  if (P[2] == 0) {\r... */\n      iszero\n      tag_30\n      jumpi\n        /* \"contracts/BtcEcRecover.sol\":1779:1788  return \"\" */\n      0x20\n      mload(0x40)\n      swap1\n      dup2\n      add\n      0x40\n      mstore\n      dup1\n      0x0\n      dup2\n      mstore\n      pop\n      swap9\n      pop\n      jump(tag_22)\n        /* \"contracts/BtcEcRecover.sol\":1749:1800  if (P[2] == 0) {\r... */\n    tag_30:\n        /* \"contracts/BtcEcRecover.sol\":1820:1838  ECCMath.toZ1(P, p) */\n      tag_31\n        /* \"contracts/BtcEcRecover.sol\":1833:1834  P */\n      dup3\n        /* \"contracts/BtcEcRecover.sol\":184:250  0xfffffffffffffffffffffffffffffffffffffffffffffffffffffffefffffc2f */\n      0xfffffffffffffffffffffffffffffffffffffffffffffffffffffffefffffc2f\n        /* \"contracts/BtcEcRecover.sol\":1820:1832  ECCMath.toZ1 */\n      tag_32\n        /* \"contracts/BtcEcRecover.sol\":1820:1838  ECCMath.toZ1(P, p) */\n      jump\t// in\n    tag_31:\n        /* \"contracts/BtcEcRecover.sol\":1884:1886  33 */\n      0x21\n        /* \"contracts/BtcEcRecover.sol\":1874:1887  new bytes(33) */\n      mload(0x40)\n      swap1\n      dup1\n      dup3\n      mstore\n      dup1\n      0x1f\n      add\n      not(0x1f)\n      and\n      0x20\n      add\n      dup3\n      add\n      0x40\n      mstore\n      dup1\n      iszero\n      tag_33\n      jumpi\n      dup2\n      0x20\n      add\n        /* \"--CODEGEN--\":29:31   */\n      0x20\n        /* \"--CODEGEN--\":21:27   */\n      dup3\n        /* \"--CODEGEN--\":17:32   */\n      mul\n        /* \"--CODEGEN--\":117:121   */\n      dup1\n        /* \"--CODEGEN--\":105:115   */\n      codesize\n        /* \"--CODEGEN--\":97:103   */\n      dup4\n        /* \"--CODEGEN--\":88:122   */\n      codecopy\n        /* \"--CODEGEN--\":148:152   */\n      dup1\n        /* \"--CODEGEN--\":140:146   */\n      dup3\n        /* \"--CODEGEN--\":136:153   */\n      add\n        /* \"--CODEGEN--\":126:153   */\n      swap2\n      pop\n        /* \"--CODEGEN--\":0:157   */\n      pop\n        /* \"contracts/BtcEcRecover.sol\":1874:1887  new bytes(33) */\n      swap1\n      pop\n    tag_33:\n      pop\n        /* \"contracts/BtcEcRecover.sol\":1849:1887  bytes memory publicKey = new bytes(33) */\n      swap1\n      pop\n        /* \"contracts/BtcEcRecover.sol\":1930:1931  0 */\n      0x0\n        /* \"contracts/BtcEcRecover.sol\":1925:1926  2 */\n      0x2\n        /* \"contracts/BtcEcRecover.sol\":1918:1919  P */\n      dup4\n        /* \"contracts/BtcEcRecover.sol\":1920:1921  1 */\n      0x1\n        /* \"contracts/BtcEcRecover.sol\":1918:1922  P[1] */\n      0x3\n      dup2\n      lt\n      iszero\n      iszero\n      tag_34\n      jumpi\n      invalid\n    tag_34:\n      0x20\n      mul\n      add\n      mload\n        /* \"contracts/BtcEcRecover.sol\":1918:1926  P[1] % 2 */\n      dup2\n      iszero\n      iszero\n      tag_35\n      jumpi\n      invalid\n    tag_35:\n      mod\n        /* \"contracts/BtcEcRecover.sol\":1918:1931  P[1] % 2 == 0 */\n      eq\n        /* \"contracts/BtcEcRecover.sol\":1918:1939  P[1] % 2 == 0 ? 2 : 3 */\n      tag_36\n      jumpi\n        /* \"contracts/BtcEcRecover.sol\":1938:1939  3 */\n      0x3\n        /* \"contracts/BtcEcRecover.sol\":1918:1939  P[1] % 2 == 0 ? 2 : 3 */\n      jump(tag_37)\n    tag_36:\n        /* \"contracts/BtcEcRecover.sol\":1934:1935  2 */\n      0x2\n        /* \"contracts/BtcEcRecover.sol\":1918:1939  P[1] % 2 == 0 ? 2 : 3 */\n    tag_37:\n        /* \"contracts/BtcEcRecover.sol\":1913:1940  byte(P[1] % 2 == 0 ? 2 : 3) */\n      0x100000000000000000000000000000000000000000000000000000000000000\n      mul\n        /* \"contracts/BtcEcRecover.sol\":1898:1907  publicKey */\n      dup2\n        /* \"contracts/BtcEcRecover.sol\":1908:1909  0 */\n      0x0\n        /* \"contracts/BtcEcRecover.sol\":1898:1910  publicKey[0] */\n      dup2\n      mload\n      dup2\n      lt\n      iszero\n      iszero\n      tag_38\n      jumpi\n      invalid\n    tag_38:\n      swap1\n      0x20\n      add\n      add\n        /* \"contracts/BtcEcRecover.sol\":1898:1940  publicKey[0] = byte(P[1] % 2 == 0 ? 2 : 3) */\n      swap1\n      not(0xffffffffffffffffffffffffffffffffffffffffffffffffffffffffffffff)\n      and\n      swap1\n      dup2\n      0x0\n      byte\n      swap1\n      mstore8\n      pop\n        /* \"contracts/BtcEcRecover.sol\":1960:1961  0 */\n      0x0\n        /* \"contracts/BtcEcRecover.sol\":1956:1961  i = 0 */\n      swap8\n      pop\n        /* \"contracts/BtcEcRecover.sol\":1951:2053  for (i = 0; i < 32; ++i) {\r... */\n    tag_39:\n        /* \"contracts/BtcEcRecover.sol\":1967:1969  32 */\n      0x20\n        /* \"contracts/BtcEcRecover.sol\":1963:1964  i */\n      dup9\n        /* \"contracts/BtcEcRecover.sol\":1963:1969  i < 32 */\n      lt\n        /* \"contracts/BtcEcRecover.sol\":1951:2053  for (i = 0; i < 32; ++i) {\r... */\n      iszero\n      tag_40\n      jumpi\n        /* \"contracts/BtcEcRecover.sol\":2036:2040  0xff */\n      0xff\n        /* \"contracts/BtcEcRecover.sol\":2030:2031  i */\n      dup9\n        /* \"contracts/BtcEcRecover.sol\":2026:2027  8 */\n      0x8\n        /* \"contracts/BtcEcRecover.sol\":2026:2031  8 * i */\n      mul\n        /* \"contracts/BtcEcRecover.sol\":2017:2018  P */\n      dup4\n        /* \"contracts/BtcEcRecover.sol\":2019:2020  0 */\n      0x0\n        /* \"contracts/BtcEcRecover.sol\":2017:2021  P[0] */\n      0x3\n      dup2\n      lt\n      iszero\n      iszero\n      tag_42\n      jumpi\n      invalid\n    tag_42:\n      0x20\n      mul\n      add\n      mload\n        /* \"contracts/BtcEcRecover.sol\":2017:2032  P[0] >> (8 * i) */\n      swap1\n      0x2\n      exp\n      swap1\n      div\n        /* \"contracts/BtcEcRecover.sol\":2016:2040  (P[0] >> (8 * i)) & 0xff */\n      and\n        /* \"contracts/BtcEcRecover.sol\":2011:2041  byte((P[0] >> (8 * i)) & 0xff) */\n      0x100000000000000000000000000000000000000000000000000000000000000\n      mul\n        /* \"contracts/BtcEcRecover.sol\":1991:2000  publicKey */\n      dup2\n        /* \"contracts/BtcEcRecover.sol\":2006:2007  i */\n      dup10\n        /* \"contracts/BtcEcRecover.sol\":2001:2003  32 */\n      0x20\n        /* \"contracts/BtcEcRecover.sol\":2001:2007  32 - i */\n      sub\n        /* \"contracts/BtcEcRecover.sol\":1991:2008  publicKey[32 - i] */\n      dup2\n      mload\n      dup2\n      lt\n      iszero\n      iszero\n      tag_43\n      jumpi\n      invalid\n    tag_43:\n      swap1\n      0x20\n      add\n      add\n        /* \"contracts/BtcEcRecover.sol\":1991:2041  publicKey[32 - i] = byte((P[0] >> (8 * i)) & 0xff) */\n      swap1\n      not(0xffffffffffffffffffffffffffffffffffffffffffffffffffffffffffffff)\n      and\n      swap1\n      dup2\n      0x0\n      byte\n      swap1\n      mstore8\n      pop\n        /* \"contracts/BtcEcRecover.sol\":1971:1974  ++i */\n      dup8\n      0x1\n      add\n      swap8\n      pop\n        /* \"contracts/BtcEcRecover.sol\":1951:2053  for (i = 0; i < 32; ++i) {\r... */\n      jump(tag_39)\n    tag_40:\n        /* \"contracts/BtcEcRecover.sol\":2070:2079  publicKey */\n      dup1\n        /* \"contracts/BtcEcRecover.sol\":2063:2079  return publicKey */\n      swap9\n      pop\n        /* \"contracts/BtcEcRecover.sol\":1169:2087  function btc_ecrecover(bytes32 msgh, uint8 v, bytes32 r, bytes32 s) private view returns (bytes memory) {\r... */\n    tag_22:\n      pop\n      pop\n      pop\n      pop\n      pop\n      pop\n      pop\n      pop\n      swap5\n      swap4\n      pop\n      pop\n      pop\n      pop\n      jump\t// out\n        /* \"contracts/BtcEcRecover.sol\":2093:2638  function _getPoint(uint256 msgh, uint256 r, uint256 s, bool isYOdd,bool isSecondKey) internal view returns (uint256[3] memory) {\r... */\n    tag_28:\n        /* \"contracts/BtcEcRecover.sol\":2201:2211  uint256[3] */\n      tag_44\n      jump\t// in(tag_21)\n    tag_44:\n        /* \"contracts/BtcEcRecover.sol\":2231:2241  uint256 rx */\n      0x0\n        /* \"contracts/BtcEcRecover.sol\":2278:2288  uint256 ry */\n      dup1\n        /* \"contracts/BtcEcRecover.sol\":2437:2449  uint256 invR */\n      0x0\n        /* \"contracts/BtcEcRecover.sol\":2244:2255  isSecondKey */\n      dup5\n        /* \"contracts/BtcEcRecover.sol\":2244:2267  isSecondKey ? r + n : r */\n      tag_46\n      jumpi\n        /* \"contracts/BtcEcRecover.sol\":2266:2267  r */\n      dup8\n        /* \"contracts/BtcEcRecover.sol\":2244:2267  isSecondKey ? r + n : r */\n      jump(tag_47)\n    tag_46:\n        /* \"contracts/BtcEcRecover.sol\":278:344  0xfffffffffffffffffffffffffffffffebaaedce6af48a03bbfd25e8cd0364141 */\n      0xfffffffffffffffffffffffffffffffebaaedce6af48a03bbfd25e8cd0364141\n        /* \"contracts/BtcEcRecover.sol\":2258:2259  r */\n      dup9\n        /* \"contracts/BtcEcRecover.sol\":2258:2263  r + n */\n      add\n        /* \"contracts/BtcEcRecover.sol\":2244:2267  isSecondKey ? r + n : r */\n    tag_47:\n        /* \"contracts/BtcEcRecover.sol\":2231:2267  uint256 rx = isSecondKey ? r + n : r */\n      swap3\n      pop\n        /* \"contracts/BtcEcRecover.sol\":2291:2349  ECCMath.expmod(ECCMath.expmod(rx, 3, p) + 7, p / 4 + 1, p) */\n      tag_48\n        /* \"contracts/BtcEcRecover.sol\":2333:2334  7 */\n      0x7\n        /* \"contracts/BtcEcRecover.sol\":2306:2330  ECCMath.expmod(rx, 3, p) */\n      tag_49\n        /* \"contracts/BtcEcRecover.sol\":2321:2323  rx */\n      dup6\n        /* \"contracts/BtcEcRecover.sol\":2325:2326  3 */\n      0x3\n        /* \"contracts/BtcEcRecover.sol\":184:250  0xfffffffffffffffffffffffffffffffffffffffffffffffffffffffefffffc2f */\n      0xfffffffffffffffffffffffffffffffffffffffffffffffffffffffefffffc2f\n        /* \"contracts/BtcEcRecover.sol\":2306:2320  ECCMath.expmod */\n      tag_50\n        /* \"contracts/BtcEcRecover.sol\":2306:2330  ECCMath.expmod(rx, 3, p) */\n      jump\t// in\n    tag_49:\n        /* \"contracts/BtcEcRecover.sol\":2306:2334  ECCMath.expmod(rx, 3, p) + 7 */\n      add\n        /* \"contracts/BtcEcRecover.sol\":2344:2345  1 */\n      0x1\n        /* \"contracts/BtcEcRecover.sol\":2340:2341  4 */\n      0x4\n        /* \"contracts/BtcEcRecover.sol\":184:250  0xfffffffffffffffffffffffffffffffffffffffffffffffffffffffefffffc2f */\n      0xfffffffffffffffffffffffffffffffffffffffffffffffffffffffefffffc2f\n        /* \"contracts/BtcEcRecover.sol\":2336:2341  p / 4 */\n      dup2\n      iszero\n      iszero\n      tag_51\n      jumpi\n      invalid\n    tag_51:\n      div\n        /* \"contracts/BtcEcRecover.sol\":2336:2345  p / 4 + 1 */\n      add\n        /* \"contracts/BtcEcRecover.sol\":184:250  0xfffffffffffffffffffffffffffffffffffffffffffffffffffffffefffffc2f */\n      0xfffffffffffffffffffffffffffffffffffffffffffffffffffffffefffffc2f\n        /* \"contracts/BtcEcRecover.sol\":2291:2305  ECCMath.expmod */\n      tag_50\n        /* \"contracts/BtcEcRecover.sol\":2291:2349  ECCMath.expmod(ECCMath.expmod(rx, 3, p) + 7, p / 4 + 1, p) */\n      jump\t// in\n    tag_48:\n        /* \"contracts/BtcEcRecover.sol\":2278:2349  uint256 ry = ECCMath.expmod(ECCMath.expmod(rx, 3, p) + 7, p / 4 + 1, p) */\n      swap2\n      pop\n        /* \"contracts/BtcEcRecover.sol\":2385:2386  1 */\n      0x1\n        /* \"contracts/BtcEcRecover.sol\":2380:2381  2 */\n      0x2\n        /* \"contracts/BtcEcRecover.sol\":2375:2377  ry */\n      dup4\n        /* \"contracts/BtcEcRecover.sol\":2375:2381  ry % 2 */\n      dup2\n      iszero\n      iszero\n      tag_52\n      jumpi\n      invalid\n    tag_52:\n      mod\n        /* \"contracts/BtcEcRecover.sol\":2375:2386  ry % 2 == 1 */\n      eq\n        /* \"contracts/BtcEcRecover.sol\":2364:2387  isYOdd != (ry % 2 == 1) */\n      iszero\n      iszero\n        /* \"contracts/BtcEcRecover.sol\":2364:2370  isYOdd */\n      dup7\n        /* \"contracts/BtcEcRecover.sol\":2364:2387  isYOdd != (ry % 2 == 1) */\n      iszero\n      iszero\n      eq\n      iszero\n        /* \"contracts/BtcEcRecover.sol\":2360:2427  if (isYOdd != (ry % 2 == 1)) {\r... */\n      iszero\n      tag_53\n      jumpi\n        /* \"contracts/BtcEcRecover.sol\":2413:2415  ry */\n      dup2\n        /* \"contracts/BtcEcRecover.sol\":184:250  0xfffffffffffffffffffffffffffffffffffffffffffffffffffffffefffffc2f */\n      0xfffffffffffffffffffffffffffffffffffffffffffffffffffffffefffffc2f\n        /* \"contracts/BtcEcRecover.sol\":2409:2415  p - ry */\n      sub\n        /* \"contracts/BtcEcRecover.sol\":2404:2415  ry = p - ry */\n      swap2\n      pop\n        /* \"contracts/BtcEcRecover.sol\":2360:2427  if (isYOdd != (ry % 2 == 1)) {\r... */\n    tag_53:\n        /* \"contracts/BtcEcRecover.sol\":2452:2472  ECCMath.invmod(r, n) */\n      tag_54\n        /* \"contracts/BtcEcRecover.sol\":2467:2468  r */\n      dup9\n        /* \"contracts/BtcEcRecover.sol\":278:344  0xfffffffffffffffffffffffffffffffebaaedce6af48a03bbfd25e8cd0364141 */\n      0xfffffffffffffffffffffffffffffffebaaedce6af48a03bbfd25e8cd0364141\n        /* \"contracts/BtcEcRecover.sol\":2452:2466  ECCMath.invmod */\n      tag_55\n        /* \"contracts/BtcEcRecover.sol\":2452:2472  ECCMath.invmod(r, n) */\n      jump\t// in\n    tag_54:\n        /* \"contracts/BtcEcRecover.sol\":2437:2472  uint256 invR = ECCMath.invmod(r, n) */\n      swap1\n      pop\n        /* \"contracts/BtcEcRecover.sol\":2490:2630  Secp256k1._add(\r... */\n      tag_56\n        /* \"contracts/BtcEcRecover.sol\":2519:2570  Secp256k1._mul(n - mulmod(msgh, invR, n), [gx, gy]) */\n      tag_57\n        /* \"contracts/BtcEcRecover.sol\":278:344  0xfffffffffffffffffffffffffffffffebaaedce6af48a03bbfd25e8cd0364141 */\n      0xfffffffffffffffffffffffffffffffebaaedce6af48a03bbfd25e8cd0364141\n        /* \"contracts/BtcEcRecover.sol\":2538:2559  mulmod(msgh, invR, n) */\n      dup1\n      iszero\n      iszero\n      tag_58\n      jumpi\n      invalid\n    tag_58:\n        /* \"contracts/BtcEcRecover.sol\":2551:2555  invR */\n      dup4\n        /* \"contracts/BtcEcRecover.sol\":2545:2549  msgh */\n      dup13\n        /* \"contracts/BtcEcRecover.sol\":2538:2559  mulmod(msgh, invR, n) */\n      mulmod\n        /* \"contracts/BtcEcRecover.sol\":278:344  0xfffffffffffffffffffffffffffffffebaaedce6af48a03bbfd25e8cd0364141 */\n      0xfffffffffffffffffffffffffffffffebaaedce6af48a03bbfd25e8cd0364141\n        /* \"contracts/BtcEcRecover.sol\":2534:2559  n - mulmod(msgh, invR, n) */\n      sub\n        /* \"contracts/BtcEcRecover.sol\":2519:2570  Secp256k1._mul(n - mulmod(msgh, invR, n), [gx, gy]) */\n      0x40\n      dup1\n      mload\n      swap1\n      dup2\n      add\n      0x40\n      mstore\n      dup1\n        /* \"contracts/BtcEcRecover.sol\":373:439  0x79be667ef9dcbbac55a06295ce870b07029bfcdb2dce28d959f2815b16f81798 */\n      0x79be667ef9dcbbac55a06295ce870b07029bfcdb2dce28d959f2815b16f81798\n        /* \"contracts/BtcEcRecover.sol\":2519:2570  Secp256k1._mul(n - mulmod(msgh, invR, n), [gx, gy]) */\n      dup2\n      mstore\n      0x20\n      add\n        /* \"contracts/BtcEcRecover.sol\":468:534  0x483ada7726a3c4655da4fbfc0e1108a8fd17b448a68554199c47d08ffb10d4b8 */\n      0x483ada7726a3c4655da4fbfc0e1108a8fd17b448a68554199c47d08ffb10d4b8\n        /* \"contracts/BtcEcRecover.sol\":2519:2570  Secp256k1._mul(n - mulmod(msgh, invR, n), [gx, gy]) */\n      dup2\n      mstore\n      pop\n        /* \"contracts/BtcEcRecover.sol\":2519:2533  Secp256k1._mul */\n      tag_59\n        /* \"contracts/BtcEcRecover.sol\":2519:2570  Secp256k1._mul(n - mulmod(msgh, invR, n), [gx, gy]) */\n      jump\t// in\n    tag_57:\n        /* \"contracts/BtcEcRecover.sol\":2585:2629  Secp256k1._mul(mulmod(s, invR, n), [rx, ry]) */\n      tag_60\n        /* \"contracts/BtcEcRecover.sol\":278:344  0xfffffffffffffffffffffffffffffffebaaedce6af48a03bbfd25e8cd0364141 */\n      0xfffffffffffffffffffffffffffffffebaaedce6af48a03bbfd25e8cd0364141\n        /* \"contracts/BtcEcRecover.sol\":2600:2618  mulmod(s, invR, n) */\n      dup1\n      iszero\n      iszero\n      tag_61\n      jumpi\n      invalid\n    tag_61:\n        /* \"contracts/BtcEcRecover.sol\":2610:2614  invR */\n      dup5\n        /* \"contracts/BtcEcRecover.sol\":2607:2608  s */\n      dup12\n        /* \"contracts/BtcEcRecover.sol\":2600:2618  mulmod(s, invR, n) */\n      mulmod\n        /* \"contracts/BtcEcRecover.sol\":2585:2629  Secp256k1._mul(mulmod(s, invR, n), [rx, ry]) */\n      0x40\n      dup1\n      mload\n      swap1\n      dup2\n      add\n      0x40\n      mstore\n      dup1\n        /* \"contracts/BtcEcRecover.sol\":2621:2623  rx */\n      dup9\n        /* \"contracts/BtcEcRecover.sol\":2585:2629  Secp256k1._mul(mulmod(s, invR, n), [rx, ry]) */\n      dup2\n      mstore\n      0x20\n      add\n        /* \"contracts/BtcEcRecover.sol\":2625:2627  ry */\n      dup8\n        /* \"contracts/BtcEcRecover.sol\":2585:2629  Secp256k1._mul(mulmod(s, invR, n), [rx, ry]) */\n      dup2\n      mstore\n      pop\n        /* \"contracts/BtcEcRecover.sol\":2585:2599  Secp256k1._mul */\n      tag_59\n        /* \"contracts/BtcEcRecover.sol\":2585:2629  Secp256k1._mul(mulmod(s, invR, n), [rx, ry]) */\n      jump\t// in\n    tag_60:\n        /* \"contracts/BtcEcRecover.sol\":2490:2504  Secp256k1._add */\n      tag_62\n        /* \"contracts/BtcEcRecover.sol\":2490:2630  Secp256k1._add(\r... */\n      jump\t// in\n    tag_56:\n        /* \"contracts/BtcEcRecover.sol\":2483:2630  return Secp256k1._add(\r... */\n      swap4\n      pop\n        /* \"contracts/BtcEcRecover.sol\":2093:2638  function _getPoint(uint256 msgh, uint256 r, uint256 s, bool isYOdd,bool isSecondKey) internal view returns (uint256[3] memory) {\r... */\n      pop\n      pop\n      pop\n      swap6\n      swap5\n      pop\n      pop\n      pop\n      pop\n      pop\n      jump\t// out\n        /* \"contracts/lib/crypto/ECCMath.sol\":2680:2963  function toZ1(uint[3] PJ, uint prime) internal constant {... */\n    tag_32:\n        /* \"contracts/lib/crypto/ECCMath.sol\":2746:2755  uint zInv */\n      0x0\n        /* \"contracts/lib/crypto/ECCMath.sol\":2788:2798  uint zInv2 */\n      dup1\n        /* \"contracts/lib/crypto/ECCMath.sol\":2758:2778  invmod(PJ[2], prime) */\n      tag_64\n        /* \"contracts/lib/crypto/ECCMath.sol\":2765:2767  PJ */\n      dup5\n        /* \"contracts/lib/crypto/ECCMath.sol\":2768:2769  2 */\n      0x2\n        /* \"contracts/lib/crypto/ECCMath.sol\":2765:2770  PJ[2] */\n      0x3\n      dup2\n      lt\n      iszero\n      iszero\n      tag_65\n      jumpi\n      invalid\n    tag_65:\n      0x20\n      mul\n      add\n      mload\n        /* \"contracts/lib/crypto/ECCMath.sol\":2772:2777  prime */\n      dup5\n        /* \"contracts/lib/crypto/ECCMath.sol\":2758:2764  invmod */\n      tag_55\n        /* \"contracts/lib/crypto/ECCMath.sol\":2758:2778  invmod(PJ[2], prime) */\n      jump\t// in\n    tag_64:\n        /* \"contracts/lib/crypto/ECCMath.sol\":2746:2778  uint zInv = invmod(PJ[2], prime) */\n      swap2\n      pop\n        /* \"contracts/lib/crypto/ECCMath.sol\":2820:2825  prime */\n      dup3\n        /* \"contracts/lib/crypto/ECCMath.sol\":2801:2826  mulmod(zInv, zInv, prime) */\n      dup1\n      iszero\n      iszero\n      tag_66\n      jumpi\n      invalid\n    tag_66:\n        /* \"contracts/lib/crypto/ECCMath.sol\":2814:2818  zInv */\n      dup3\n        /* \"contracts/lib/crypto/ECCMath.sol\":2808:2812  zInv */\n      dup4\n        /* \"contracts/lib/crypto/ECCMath.sol\":2801:2826  mulmod(zInv, zInv, prime) */\n      mulmod\n        /* \"contracts/lib/crypto/ECCMath.sol\":2788:2826  uint zInv2 = mulmod(zInv, zInv, prime) */\n      swap1\n      pop\n        /* \"contracts/lib/crypto/ECCMath.sol\":2865:2870  prime */\n      dup3\n        /* \"contracts/lib/crypto/ECCMath.sol\":2844:2871  mulmod(PJ[0], zInv2, prime) */\n      dup1\n      iszero\n      iszero\n      tag_67\n      jumpi\n      invalid\n    tag_67:\n        /* \"contracts/lib/crypto/ECCMath.sol\":2858:2863  zInv2 */\n      dup2\n        /* \"contracts/lib/crypto/ECCMath.sol\":2851:2853  PJ */\n      dup6\n        /* \"contracts/lib/crypto/ECCMath.sol\":2854:2855  0 */\n      0x0\n        /* \"contracts/lib/crypto/ECCMath.sol\":2851:2856  PJ[0] */\n      0x3\n      dup2\n      lt\n      iszero\n      iszero\n      tag_68\n      jumpi\n      invalid\n    tag_68:\n      0x20\n      mul\n      add\n      mload\n        /* \"contracts/lib/crypto/ECCMath.sol\":2844:2871  mulmod(PJ[0], zInv2, prime) */\n      mulmod\n        /* \"contracts/lib/crypto/ECCMath.sol\":2836:2838  PJ */\n      dup5\n        /* \"contracts/lib/crypto/ECCMath.sol\":2839:2840  0 */\n      0x0\n        /* \"contracts/lib/crypto/ECCMath.sol\":2836:2841  PJ[0] */\n      0x3\n      dup2\n      lt\n      iszero\n      iszero\n      tag_69\n      jumpi\n      invalid\n    tag_69:\n      0x20\n      mul\n      add\n        /* \"contracts/lib/crypto/ECCMath.sol\":2836:2871  PJ[0] = mulmod(PJ[0], zInv2, prime) */\n      dup2\n      dup2\n      mstore\n      pop\n      pop\n        /* \"contracts/lib/crypto/ECCMath.sol\":2931:2936  prime */\n      dup3\n        /* \"contracts/lib/crypto/ECCMath.sol\":2889:2937  mulmod(PJ[1], mulmod(zInv, zInv2, prime), prime) */\n      dup1\n      iszero\n      iszero\n      tag_70\n      jumpi\n      invalid\n    tag_70:\n        /* \"contracts/lib/crypto/ECCMath.sol\":2923:2928  prime */\n      dup4\n        /* \"contracts/lib/crypto/ECCMath.sol\":2903:2929  mulmod(zInv, zInv2, prime) */\n      dup1\n      iszero\n      iszero\n      tag_71\n      jumpi\n      invalid\n    tag_71:\n        /* \"contracts/lib/crypto/ECCMath.sol\":2916:2921  zInv2 */\n      dup3\n        /* \"contracts/lib/crypto/ECCMath.sol\":2910:2914  zInv */\n      dup5\n        /* \"contracts/lib/crypto/ECCMath.sol\":2903:2929  mulmod(zInv, zInv2, prime) */\n      mulmod\n        /* \"contracts/lib/crypto/ECCMath.sol\":2896:2898  PJ */\n      dup6\n        /* \"contracts/lib/crypto/ECCMath.sol\":2899:2900  1 */\n      0x1\n        /* \"contracts/lib/crypto/ECCMath.sol\":2896:2901  PJ[1] */\n      0x3\n      dup2\n      lt\n      iszero\n      iszero\n      tag_72\n      jumpi\n      invalid\n    tag_72:\n      0x20\n      mul\n      add\n      mload\n        /* \"contracts/lib/crypto/ECCMath.sol\":2889:2937  mulmod(PJ[1], mulmod(zInv, zInv2, prime), prime) */\n      mulmod\n        /* \"contracts/lib/crypto/ECCMath.sol\":2881:2883  PJ */\n      dup5\n        /* \"contracts/lib/crypto/ECCMath.sol\":2884:2885  1 */\n      0x1\n        /* \"contracts/lib/crypto/ECCMath.sol\":2881:2886  PJ[1] */\n      0x3\n      dup2\n      lt\n      iszero\n      iszero\n      tag_73\n      jumpi\n      invalid\n    tag_73:\n      0x20\n      mul\n      add\n        /* \"contracts/lib/crypto/ECCMath.sol\":2881:2937  PJ[1] = mulmod(PJ[1], mulmod(zInv, zInv2, prime), prime) */\n      dup2\n      dup2\n      mstore\n      pop\n      pop\n        /* \"contracts/lib/crypto/ECCMath.sol\":2955:2956  1 */\n      0x1\n        /* \"contracts/lib/crypto/ECCMath.sol\":2947:2949  PJ */\n      dup5\n        /* \"contracts/lib/crypto/ECCMath.sol\":2950:2951  2 */\n      0x2\n        /* \"contracts/lib/crypto/ECCMath.sol\":2947:2952  PJ[2] */\n      0x3\n      dup2\n      lt\n      iszero\n      iszero\n      tag_74\n      jumpi\n      invalid\n    tag_74:\n      0x20\n      mul\n      add\n        /* \"contracts/lib/crypto/ECCMath.sol\":2947:2956  PJ[2] = 1 */\n      dup2\n      dup2\n      mstore\n      pop\n      pop\n        /* \"contracts/lib/crypto/ECCMath.sol\":2680:2963  function toZ1(uint[3] PJ, uint prime) internal constant {... */\n      pop\n      pop\n      pop\n      pop\n      jump\t// out\n        /* \"contracts/lib/crypto/ECCMath.sol\":1181:1961  function expmod(uint b, uint e, uint m) internal constant returns (uint r) {... */\n    tag_50:\n        /* \"contracts/lib/crypto/ECCMath.sol\":1248:1254  uint r */\n      0x0\n        /* \"contracts/lib/crypto/ECCMath.sol\":1404:1412  uint bit */\n      dup1\n        /* \"contracts/lib/crypto/ECCMath.sol\":1275:1276  0 */\n      0x0\n        /* \"contracts/lib/crypto/ECCMath.sol\":1270:1271  b */\n      dup6\n        /* \"contracts/lib/crypto/ECCMath.sol\":1270:1276  b == 0 */\n      eq\n        /* \"contracts/lib/crypto/ECCMath.sol\":1266:1298  if (b == 0)... */\n      iszero\n      tag_76\n      jumpi\n        /* \"contracts/lib/crypto/ECCMath.sol\":1297:1298  0 */\n      0x0\n        /* \"contracts/lib/crypto/ECCMath.sol\":1290:1298  return 0 */\n      swap2\n      pop\n      jump(tag_75)\n        /* \"contracts/lib/crypto/ECCMath.sol\":1266:1298  if (b == 0)... */\n    tag_76:\n        /* \"contracts/lib/crypto/ECCMath.sol\":1317:1318  0 */\n      0x0\n        /* \"contracts/lib/crypto/ECCMath.sol\":1312:1313  e */\n      dup5\n        /* \"contracts/lib/crypto/ECCMath.sol\":1312:1318  e == 0 */\n      eq\n        /* \"contracts/lib/crypto/ECCMath.sol\":1308:1340  if (e == 0)... */\n      iszero\n      tag_77\n      jumpi\n        /* \"contracts/lib/crypto/ECCMath.sol\":1339:1340  1 */\n      0x1\n        /* \"contracts/lib/crypto/ECCMath.sol\":1332:1340  return 1 */\n      swap2\n      pop\n      jump(tag_75)\n        /* \"contracts/lib/crypto/ECCMath.sol\":1308:1340  if (e == 0)... */\n    tag_77:\n        /* \"contracts/lib/crypto/ECCMath.sol\":1359:1360  0 */\n      0x0\n        /* \"contracts/lib/crypto/ECCMath.sol\":1354:1355  m */\n      dup4\n        /* \"contracts/lib/crypto/ECCMath.sol\":1354:1360  m == 0 */\n      eq\n        /* \"contracts/lib/crypto/ECCMath.sol\":1350:1379  if (m == 0)... */\n      iszero\n      tag_78\n      jumpi\n        /* \"contracts/lib/crypto/ECCMath.sol\":1374:1379  throw */\n      0x0\n      dup1\n      revert\n        /* \"contracts/lib/crypto/ECCMath.sol\":1350:1379  if (m == 0)... */\n    tag_78:\n        /* \"contracts/lib/crypto/ECCMath.sol\":1393:1394  1 */\n      0x1\n        /* \"contracts/lib/crypto/ECCMath.sol\":1389:1394  r = 1 */\n      swap2\n      pop\n        /* \"contracts/lib/crypto/ECCMath.sol\":1415:1423  2 ** 255 */\n      0x8000000000000000000000000000000000000000000000000000000000000000\n        /* \"contracts/lib/crypto/ECCMath.sol\":1404:1423  uint bit = 2 ** 255 */\n      swap1\n      pop\n        /* \"contracts/lib/crypto/ECCMath.sol\":1456:1460  loop */\n    tag_79:\n        /* \"contracts/lib/crypto/ECCMath.sol\":1496:1499  bit */\n      dup1\n        /* \"contracts/lib/crypto/ECCMath.sol\":1489:1500  iszero(bit) */\n      iszero\n        /* \"contracts/lib/crypto/ECCMath.sol\":1484:1487  end */\n      tag_80\n        /* \"contracts/lib/crypto/ECCMath.sol\":1478:1501  jumpi(end, iszero(bit)) */\n      jumpi\n        /* \"contracts/lib/crypto/ECCMath.sol\":1584:1585  m */\n      dup3\n        /* \"contracts/lib/crypto/ECCMath.sol\":1575:1578  bit */\n      dup2\n        /* \"contracts/lib/crypto/ECCMath.sol\":1572:1573  e */\n      dup6\n        /* \"contracts/lib/crypto/ECCMath.sol\":1568:1579  and(e, bit) */\n      and\n        /* \"contracts/lib/crypto/ECCMath.sol\":1561:1580  iszero(and(e, bit)) */\n      iszero\n        /* \"contracts/lib/crypto/ECCMath.sol\":1554:1581  iszero(iszero(and(e, bit))) */\n      iszero\n        /* \"contracts/lib/crypto/ECCMath.sol\":1551:1552  b */\n      dup7\n        /* \"contracts/lib/crypto/ECCMath.sol\":1547:1582  exp(b, iszero(iszero(and(e, bit)))) */\n      exp\n        /* \"contracts/lib/crypto/ECCMath.sol\":1543:1544  m */\n      dup5\n        /* \"contracts/lib/crypto/ECCMath.sol\":1540:1541  r */\n      dup5\n        /* \"contracts/lib/crypto/ECCMath.sol\":1537:1538  r */\n      dup6\n        /* \"contracts/lib/crypto/ECCMath.sol\":1530:1545  mulmod(r, r, m) */\n      mulmod\n        /* \"contracts/lib/crypto/ECCMath.sol\":1523:1586  mulmod(mulmod(r, r, m), exp(b, iszero(iszero(and(e, bit)))), m) */\n      mulmod\n        /* \"contracts/lib/crypto/ECCMath.sol\":1518:1586  r := mulmod(mulmod(r, r, m), exp(b, iszero(iszero(and(e, bit)))), m) */\n      swap2\n      pop\n        /* \"contracts/lib/crypto/ECCMath.sol\":1677:1678  m */\n      dup3\n        /* \"contracts/lib/crypto/ECCMath.sol\":1669:1670  2 */\n      0x2\n        /* \"contracts/lib/crypto/ECCMath.sol\":1664:1667  bit */\n      dup3\n        /* \"contracts/lib/crypto/ECCMath.sol\":1660:1671  div(bit, 2) */\n      div\n        /* \"contracts/lib/crypto/ECCMath.sol\":1657:1658  e */\n      dup6\n        /* \"contracts/lib/crypto/ECCMath.sol\":1653:1672  and(e, div(bit, 2)) */\n      and\n        /* \"contracts/lib/crypto/ECCMath.sol\":1646:1673  iszero(and(e, div(bit, 2))) */\n      iszero\n        /* \"contracts/lib/crypto/ECCMath.sol\":1639:1674  iszero(iszero(and(e, div(bit, 2)))) */\n      iszero\n        /* \"contracts/lib/crypto/ECCMath.sol\":1636:1637  b */\n      dup7\n        /* \"contracts/lib/crypto/ECCMath.sol\":1632:1675  exp(b, iszero(iszero(and(e, div(bit, 2))))) */\n      exp\n        /* \"contracts/lib/crypto/ECCMath.sol\":1628:1629  m */\n      dup5\n        /* \"contracts/lib/crypto/ECCMath.sol\":1625:1626  r */\n      dup5\n        /* \"contracts/lib/crypto/ECCMath.sol\":1622:1623  r */\n      dup6\n        /* \"contracts/lib/crypto/ECCMath.sol\":1615:1630  mulmod(r, r, m) */\n      mulmod\n        /* \"contracts/lib/crypto/ECCMath.sol\":1608:1679  mulmod(mulmod(r, r, m), exp(b, iszero(iszero(and(e, div(bit, 2))))), m) */\n      mulmod\n        /* \"contracts/lib/crypto/ECCMath.sol\":1603:1679  r := mulmod(mulmod(r, r, m), exp(b, iszero(iszero(and(e, div(bit, 2))))), m) */\n      swap2\n      pop\n        /* \"contracts/lib/crypto/ECCMath.sol\":1770:1771  m */\n      dup3\n        /* \"contracts/lib/crypto/ECCMath.sol\":1762:1763  4 */\n      0x4\n        /* \"contracts/lib/crypto/ECCMath.sol\":1757:1760  bit */\n      dup3\n        /* \"contracts/lib/crypto/ECCMath.sol\":1753:1764  div(bit, 4) */\n      div\n        /* \"contracts/lib/crypto/ECCMath.sol\":1750:1751  e */\n      dup6\n        /* \"contracts/lib/crypto/ECCMath.sol\":1746:1765  and(e, div(bit, 4)) */\n      and\n        /* \"contracts/lib/crypto/ECCMath.sol\":1739:1766  iszero(and(e, div(bit, 4))) */\n      iszero\n        /* \"contracts/lib/crypto/ECCMath.sol\":1732:1767  iszero(iszero(and(e, div(bit, 4)))) */\n      iszero\n        /* \"contracts/lib/crypto/ECCMath.sol\":1729:1730  b */\n      dup7\n        /* \"contracts/lib/crypto/ECCMath.sol\":1725:1768  exp(b, iszero(iszero(and(e, div(bit, 4))))) */\n      exp\n        /* \"contracts/lib/crypto/ECCMath.sol\":1721:1722  m */\n      dup5\n        /* \"contracts/lib/crypto/ECCMath.sol\":1718:1719  r */\n      dup5\n        /* \"contracts/lib/crypto/ECCMath.sol\":1715:1716  r */\n      dup6\n        /* \"contracts/lib/crypto/ECCMath.sol\":1708:1723  mulmod(r, r, m) */\n      mulmod\n        /* \"contracts/lib/crypto/ECCMath.sol\":1701:1772  mulmod(mulmod(r, r, m), exp(b, iszero(iszero(and(e, div(bit, 4))))), m) */\n      mulmod\n        /* \"contracts/lib/crypto/ECCMath.sol\":1696:1772  r := mulmod(mulmod(r, r, m), exp(b, iszero(iszero(and(e, div(bit, 4))))), m) */\n      swap2\n      pop\n        /* \"contracts/lib/crypto/ECCMath.sol\":1863:1864  m */\n      dup3\n        /* \"contracts/lib/crypto/ECCMath.sol\":1855:1856  8 */\n      0x8\n        /* \"contracts/lib/crypto/ECCMath.sol\":1850:1853  bit */\n      dup3\n        /* \"contracts/lib/crypto/ECCMath.sol\":1846:1857  div(bit, 8) */\n      div\n        /* \"contracts/lib/crypto/ECCMath.sol\":1843:1844  e */\n      dup6\n        /* \"contracts/lib/crypto/ECCMath.sol\":1839:1858  and(e, div(bit, 8)) */\n      and\n        /* \"contracts/lib/crypto/ECCMath.sol\":1832:1859  iszero(and(e, div(bit, 8))) */\n      iszero\n        /* \"contracts/lib/crypto/ECCMath.sol\":1825:1860  iszero(iszero(and(e, div(bit, 8)))) */\n      iszero\n        /* \"contracts/lib/crypto/ECCMath.sol\":1822:1823  b */\n      dup7\n        /* \"contracts/lib/crypto/ECCMath.sol\":1818:1861  exp(b, iszero(iszero(and(e, div(bit, 8))))) */\n      exp\n        /* \"contracts/lib/crypto/ECCMath.sol\":1814:1815  m */\n      dup5\n        /* \"contracts/lib/crypto/ECCMath.sol\":1811:1812  r */\n      dup5\n        /* \"contracts/lib/crypto/ECCMath.sol\":1808:1809  r */\n      dup6\n        /* \"contracts/lib/crypto/ECCMath.sol\":1801:1816  mulmod(r, r, m) */\n      mulmod\n        /* \"contracts/lib/crypto/ECCMath.sol\":1794:1865  mulmod(mulmod(r, r, m), exp(b, iszero(iszero(and(e, div(bit, 8))))), m) */\n      mulmod\n        /* \"contracts/lib/crypto/ECCMath.sol\":1789:1865  r := mulmod(mulmod(r, r, m), exp(b, iszero(iszero(and(e, div(bit, 8))))), m) */\n      swap2\n      pop\n        /* \"contracts/lib/crypto/ECCMath.sol\":1898:1900  16 */\n      0x10\n        /* \"contracts/lib/crypto/ECCMath.sol\":1893:1896  bit */\n      dup2\n        /* \"contracts/lib/crypto/ECCMath.sol\":1889:1901  div(bit, 16) */\n      div\n        /* \"contracts/lib/crypto/ECCMath.sol\":1882:1901  bit := div(bit, 16) */\n      swap1\n      pop\n        /* \"contracts/lib/crypto/ECCMath.sol\":1923:1927  loop */\n      tag_79\n        /* \"contracts/lib/crypto/ECCMath.sol\":1918:1928  jump(loop) */\n      jump\n        /* \"contracts/lib/crypto/ECCMath.sol\":1941:1944  end */\n    tag_80:\n        /* \"contracts/lib/crypto/ECCMath.sol\":1442:1955  {... */\n    tag_75:\n      pop\n      swap4\n      swap3\n      pop\n      pop\n      pop\n      jump\t// out\n        /* \"contracts/lib/crypto/ECCMath.sol\":387:868  function invmod(uint a, uint p) internal constant returns (uint) {... */\n    tag_55:\n        /* \"contracts/lib/crypto/ECCMath.sol\":446:450  uint */\n      0x0\n        /* \"contracts/lib/crypto/ECCMath.sol\":563:569  int t1 */\n      dup1\n        /* \"contracts/lib/crypto/ECCMath.sol\":579:585  int t2 */\n      0x0\n        /* \"contracts/lib/crypto/ECCMath.sol\":599:606  uint r1 */\n      dup1\n        /* \"contracts/lib/crypto/ECCMath.sol\":620:627  uint r2 */\n      0x0\n        /* \"contracts/lib/crypto/ECCMath.sol\":641:647  uint q */\n      dup1\n        /* \"contracts/lib/crypto/ECCMath.sol\":471:472  0 */\n      0x0\n        /* \"contracts/lib/crypto/ECCMath.sol\":466:467  a */\n      dup9\n        /* \"contracts/lib/crypto/ECCMath.sol\":466:472  a == 0 */\n      eq\n        /* \"contracts/lib/crypto/ECCMath.sol\":466:482  a == 0 || a == p */\n      dup1\n      tag_82\n      jumpi\n      pop\n        /* \"contracts/lib/crypto/ECCMath.sol\":481:482  p */\n      dup7\n        /* \"contracts/lib/crypto/ECCMath.sol\":476:477  a */\n      dup9\n        /* \"contracts/lib/crypto/ECCMath.sol\":476:482  a == p */\n      eq\n        /* \"contracts/lib/crypto/ECCMath.sol\":466:482  a == 0 || a == p */\n    tag_82:\n        /* \"contracts/lib/crypto/ECCMath.sol\":466:492  a == 0 || a == p || p == 0 */\n      dup1\n      tag_83\n      jumpi\n      pop\n        /* \"contracts/lib/crypto/ECCMath.sol\":491:492  0 */\n      0x0\n        /* \"contracts/lib/crypto/ECCMath.sol\":486:487  p */\n      dup8\n        /* \"contracts/lib/crypto/ECCMath.sol\":486:492  p == 0 */\n      eq\n        /* \"contracts/lib/crypto/ECCMath.sol\":466:492  a == 0 || a == p || p == 0 */\n    tag_83:\n        /* \"contracts/lib/crypto/ECCMath.sol\":462:511  if (a == 0 || a == p || p == 0)... */\n      iszero\n      tag_84\n      jumpi\n        /* \"contracts/lib/crypto/ECCMath.sol\":506:511  throw */\n      0x0\n      dup1\n      revert\n        /* \"contracts/lib/crypto/ECCMath.sol\":462:511  if (a == 0 || a == p || p == 0)... */\n    tag_84:\n        /* \"contracts/lib/crypto/ECCMath.sol\":529:530  p */\n      dup7\n        /* \"contracts/lib/crypto/ECCMath.sol\":525:526  a */\n      dup9\n        /* \"contracts/lib/crypto/ECCMath.sol\":525:530  a > p */\n      gt\n        /* \"contracts/lib/crypto/ECCMath.sol\":521:553  if (a > p)... */\n      iszero\n      tag_85\n      jumpi\n        /* \"contracts/lib/crypto/ECCMath.sol\":552:553  p */\n      dup7\n        /* \"contracts/lib/crypto/ECCMath.sol\":548:549  a */\n      dup9\n        /* \"contracts/lib/crypto/ECCMath.sol\":548:553  a % p */\n      dup2\n      iszero\n      iszero\n      tag_86\n      jumpi\n      invalid\n    tag_86:\n      mod\n        /* \"contracts/lib/crypto/ECCMath.sol\":544:553  a = a % p */\n      swap8\n      pop\n        /* \"contracts/lib/crypto/ECCMath.sol\":521:553  if (a > p)... */\n    tag_85:\n        /* \"contracts/lib/crypto/ECCMath.sol\":588:589  1 */\n      0x1\n        /* \"contracts/lib/crypto/ECCMath.sol\":579:589  int t2 = 1 */\n      swap4\n      pop\n        /* \"contracts/lib/crypto/ECCMath.sol\":609:610  p */\n      dup7\n        /* \"contracts/lib/crypto/ECCMath.sol\":599:610  uint r1 = p */\n      swap3\n      pop\n        /* \"contracts/lib/crypto/ECCMath.sol\":630:631  a */\n      dup8\n        /* \"contracts/lib/crypto/ECCMath.sol\":620:631  uint r2 = a */\n      swap2\n      pop\n        /* \"contracts/lib/crypto/ECCMath.sol\":657:781  while (r2 != 0) {... */\n    tag_87:\n        /* \"contracts/lib/crypto/ECCMath.sol\":670:671  0 */\n      0x0\n        /* \"contracts/lib/crypto/ECCMath.sol\":664:666  r2 */\n      dup3\n        /* \"contracts/lib/crypto/ECCMath.sol\":664:671  r2 != 0 */\n      eq\n      iszero\n        /* \"contracts/lib/crypto/ECCMath.sol\":657:781  while (r2 != 0) {... */\n      iszero\n      tag_88\n      jumpi\n        /* \"contracts/lib/crypto/ECCMath.sol\":696:698  r2 */\n      dup2\n        /* \"contracts/lib/crypto/ECCMath.sol\":691:693  r1 */\n      dup4\n        /* \"contracts/lib/crypto/ECCMath.sol\":691:698  r1 / r2 */\n      dup2\n      iszero\n      iszero\n      tag_89\n      jumpi\n      invalid\n    tag_89:\n      div\n        /* \"contracts/lib/crypto/ECCMath.sol\":687:698  q = r1 / r2 */\n      swap1\n      pop\n        /* \"contracts/lib/crypto/ECCMath.sol\":732:734  t2 */\n      dup4\n        /* \"contracts/lib/crypto/ECCMath.sol\":750:752  t2 */\n      dup5\n        /* \"contracts/lib/crypto/ECCMath.sol\":745:746  q */\n      dup3\n        /* \"contracts/lib/crypto/ECCMath.sol\":741:752  int(q) * t2 */\n      mul\n        /* \"contracts/lib/crypto/ECCMath.sol\":736:738  t1 */\n      dup7\n        /* \"contracts/lib/crypto/ECCMath.sol\":736:752  t1 - int(q) * t2 */\n      sub\n        /* \"contracts/lib/crypto/ECCMath.sol\":754:756  r2 */\n      dup4\n        /* \"contracts/lib/crypto/ECCMath.sol\":767:769  r2 */\n      dup5\n        /* \"contracts/lib/crypto/ECCMath.sol\":763:764  q */\n      dup5\n        /* \"contracts/lib/crypto/ECCMath.sol\":763:769  q * r2 */\n      mul\n        /* \"contracts/lib/crypto/ECCMath.sol\":758:760  r1 */\n      dup7\n        /* \"contracts/lib/crypto/ECCMath.sol\":758:769  r1 - q * r2 */\n      sub\n        /* \"contracts/lib/crypto/ECCMath.sol\":712:770  (t1, t2, r1, r2) = (t2, t1 - int(q) * t2, r2, r1 - q * r2) */\n      dup1\n      swap6\n      pop\n      dup2\n      swap7\n      pop\n      dup3\n      swap8\n      pop\n      dup4\n      swap9\n      pop\n      pop\n      pop\n      pop\n      pop\n        /* \"contracts/lib/crypto/ECCMath.sol\":657:781  while (r2 != 0) {... */\n      jump(tag_87)\n    tag_88:\n        /* \"contracts/lib/crypto/ECCMath.sol\":799:800  0 */\n      0x0\n        /* \"contracts/lib/crypto/ECCMath.sol\":794:796  t1 */\n      dup6\n        /* \"contracts/lib/crypto/ECCMath.sol\":794:800  t1 < 0 */\n      slt\n        /* \"contracts/lib/crypto/ECCMath.sol\":790:836  if (t1 < 0)... */\n      iszero\n      tag_90\n      jumpi\n        /* \"contracts/lib/crypto/ECCMath.sol\":832:834  t1 */\n      dup5\n        /* \"contracts/lib/crypto/ECCMath.sol\":831:834  -t1 */\n      0x0\n      sub\n        /* \"contracts/lib/crypto/ECCMath.sol\":822:823  p */\n      dup8\n        /* \"contracts/lib/crypto/ECCMath.sol\":822:835  p - uint(-t1) */\n      sub\n        /* \"contracts/lib/crypto/ECCMath.sol\":814:836  return (p - uint(-t1)) */\n      swap6\n      pop\n      jump(tag_81)\n        /* \"contracts/lib/crypto/ECCMath.sol\":790:836  if (t1 < 0)... */\n    tag_90:\n        /* \"contracts/lib/crypto/ECCMath.sol\":858:860  t1 */\n      dup5\n        /* \"contracts/lib/crypto/ECCMath.sol\":846:861  return uint(t1) */\n      swap6\n      pop\n        /* \"contracts/lib/crypto/ECCMath.sol\":387:868  function invmod(uint a, uint p) internal constant returns (uint) {... */\n    tag_81:\n      pop\n      pop\n      pop\n      pop\n      pop\n      swap3\n      swap2\n      pop\n      pop\n      jump\t// out\n        /* \"contracts/lib/crypto/Secp256k1.sol\":8610:11500  function _mul(uint d, uint[2] memory P) internal constant returns (uint[3] memory Q) {... */\n    tag_59:\n        /* \"contracts/lib/crypto/Secp256k1.sol\":8677:8693  uint[3] memory Q */\n      tag_91\n      jump\t// in(tag_21)\n    tag_91:\n        /* \"contracts/lib/crypto/Secp256k1.sol\":8705:8711  uint p */\n      0x0\n        /* \"contracts/lib/crypto/Secp256k1.sol\":8774:8784  uint dwPtr */\n      dup1\n        /* \"contracts/lib/crypto/Secp256k1.sol\":8834:8840  uint i */\n      0x0\n        /* \"contracts/lib/crypto/Secp256k1.sol\":9485:9507  uint[3][8] memory PREC */\n      tag_92\n      jump\t// in(tag_93)\n    tag_92:\n        /* \"contracts/lib/crypto/Secp256k1.sol\":9588:9593  var X */\n      tag_94\n      jump\t// in(tag_21)\n    tag_94:\n        /* \"contracts/lib/crypto/Secp256k1.sol\":9874:9893  uint[16] memory INV */\n      tag_95\n      jump\t// in(tag_96)\n    tag_95:\n        /* \"contracts/lib/crypto/Secp256k1.sol\":10546:10552  uint k */\n      0x0\n        /* \"contracts/lib/crypto/Secp256k1.sol\":10984:10991  uint dj */\n      dup1\n        /* \"contracts/lib/crypto/Secp256k1.sol\":11005:11014  uint pIdx */\n      0x0\n        /* \"contracts/lib/crypto/Secp256k1.sol\":487:553  0xFFFFFFFFFFFFFFFFFFFFFFFFFFFFFFFFFFFFFFFFFFFFFFFFFFFFFFFEFFFFFC2F */\n      0xfffffffffffffffffffffffffffffffffffffffffffffffffffffffefffffc2f\n        /* \"contracts/lib/crypto/Secp256k1.sol\":8705:8716  uint p = pp */\n      swap9\n      pop\n        /* \"contracts/lib/crypto/Secp256k1.sol\":8735:8736  0 */\n      0x0\n        /* \"contracts/lib/crypto/Secp256k1.sol\":8730:8731  d */\n      dup13\n        /* \"contracts/lib/crypto/Secp256k1.sol\":8730:8736  d == 0 */\n      eq\n        /* \"contracts/lib/crypto/Secp256k1.sol\":8726:8765  if (d == 0) // TODO... */\n      iszero\n      tag_98\n      jumpi\n        /* \"contracts/lib/crypto/Secp256k1.sol\":8758:8765  return; */\n      jump(tag_97)\n        /* \"contracts/lib/crypto/Secp256k1.sol\":8726:8765  if (d == 0) // TODO... */\n    tag_98:\n        /* \"contracts/lib/crypto/Secp256k1.sol\":8912:8913  0 */\n      0x0\n        /* \"contracts/lib/crypto/Secp256k1.sol\":8945:8949  0x40 */\n      0x40\n        /* \"contracts/lib/crypto/Secp256k1.sol\":8939:8950  mload(0x40) */\n      mload\n        /* \"contracts/lib/crypto/Secp256k1.sol\":8930:8950  dwPtr := mload(0x40) */\n      swap9\n      pop\n        /* \"contracts/lib/crypto/Secp256k1.sol\":8991:8994  512 */\n      0x200\n        /* \"contracts/lib/crypto/Secp256k1.sol\":8984:8989  dwPtr */\n      dup10\n        /* \"contracts/lib/crypto/Secp256k1.sol\":8980:8995  add(dwPtr, 512) */\n      add\n        /* \"contracts/lib/crypto/Secp256k1.sol\":8974:8978  0x40 */\n      0x40\n        /* \"contracts/lib/crypto/Secp256k1.sol\":8967:8996  mstore(0x40, add(dwPtr, 512)) */\n      mstore\n        /* \"contracts/lib/crypto/Secp256k1.sol\":9031:9035  loop */\n    tag_99:\n        /* \"contracts/lib/crypto/Secp256k1.sol\":9076:9077  d */\n      dup13\n        /* \"contracts/lib/crypto/Secp256k1.sol\":9069:9078  iszero(d) */\n      iszero\n        /* \"contracts/lib/crypto/Secp256k1.sol\":9059:9067  loop_end */\n      tag_100\n        /* \"contracts/lib/crypto/Secp256k1.sol\":9053:9079  jumpi(loop_end, iszero(d)) */\n      jumpi\n        /* \"contracts/lib/crypto/Secp256k1.sol\":9122:9123  1 */\n      0x1\n        /* \"contracts/lib/crypto/Secp256k1.sol\":9119:9120  d */\n      dup14\n        /* \"contracts/lib/crypto/Secp256k1.sol\":9115:9124  and(d, 1) */\n      and\n        /* \"contracts/lib/crypto/Secp256k1.sol\":9108:9125  iszero(and(d, 1)) */\n      iszero\n        /* \"contracts/lib/crypto/Secp256k1.sol\":9102:9106  even */\n      tag_101\n        /* \"contracts/lib/crypto/Secp256k1.sol\":9096:9126  jumpi(even, iszero(and(d, 1))) */\n      jumpi\n        /* \"contracts/lib/crypto/Secp256k1.sol\":9156:9158  32 */\n      0x20\n        /* \"contracts/lib/crypto/Secp256k1.sol\":9153:9154  d */\n      dup14\n        /* \"contracts/lib/crypto/Secp256k1.sol\":9149:9159  mod(d, 32) */\n      mod\n        /* \"contracts/lib/crypto/Secp256k1.sol\":9143:9159  dm := mod(d, 32) */\n      swap1\n      pop\n        /* \"contracts/lib/crypto/Secp256k1.sol\":9199:9201  dm */\n      dup1\n        /* \"contracts/lib/crypto/Secp256k1.sol\":9195:9196  i */\n      dup9\n        /* \"contracts/lib/crypto/Secp256k1.sol\":9188:9193  dwPtr */\n      dup11\n        /* \"contracts/lib/crypto/Secp256k1.sol\":9184:9197  add(dwPtr, i) */\n      add\n        /* \"contracts/lib/crypto/Secp256k1.sol\":9176:9202  mstore8(add(dwPtr, i), dm) */\n      mstore8\n        /* \"contracts/lib/crypto/Secp256k1.sol\":9305:9307  32 */\n      0x20\n        /* \"contracts/lib/crypto/Secp256k1.sol\":9300:9302  16 */\n      0x10\n        /* \"contracts/lib/crypto/Secp256k1.sol\":9296:9298  dm */\n      dup3\n        /* \"contracts/lib/crypto/Secp256k1.sol\":9293:9303  gt(dm, 16) */\n      gt\n        /* \"contracts/lib/crypto/Secp256k1.sol\":9289:9308  mul(gt(dm, 16), 32) */\n      mul\n        /* \"contracts/lib/crypto/Secp256k1.sol\":9284:9286  dm */\n      dup2\n        /* \"contracts/lib/crypto/Secp256k1.sol\":9281:9282  d */\n      dup15\n        /* \"contracts/lib/crypto/Secp256k1.sol\":9277:9287  sub(d, dm) */\n      sub\n        /* \"contracts/lib/crypto/Secp256k1.sol\":9273:9309  add(sub(d, dm), mul(gt(dm, 16), 32)) */\n      add\n        /* \"contracts/lib/crypto/Secp256k1.sol\":9268:9309  d := add(sub(d, dm), mul(gt(dm, 16), 32)) */\n      swap13\n      pop\n        /* \"contracts/lib/crypto/Secp256k1.sol\":9322:9326  even */\n    tag_101:\n        /* \"contracts/lib/crypto/Secp256k1.sol\":9356:9357  2 */\n      0x2\n        /* \"contracts/lib/crypto/Secp256k1.sol\":9353:9354  d */\n      dup14\n        /* \"contracts/lib/crypto/Secp256k1.sol\":9349:9358  div(d, 2) */\n      div\n        /* \"contracts/lib/crypto/Secp256k1.sol\":9344:9358  d := div(d, 2) */\n      swap13\n      pop\n        /* \"contracts/lib/crypto/Secp256k1.sol\":9387:9388  1 */\n      0x1\n        /* \"contracts/lib/crypto/Secp256k1.sol\":9384:9385  i */\n      dup9\n        /* \"contracts/lib/crypto/Secp256k1.sol\":9380:9389  add(i, 1) */\n      add\n        /* \"contracts/lib/crypto/Secp256k1.sol\":9375:9389  i := add(i, 1) */\n      swap8\n      pop\n        /* \"contracts/lib/crypto/Secp256k1.sol\":9411:9415  loop */\n      tag_99\n        /* \"contracts/lib/crypto/Secp256k1.sol\":9406:9416  jump(loop) */\n      jump\n        /* \"contracts/lib/crypto/Secp256k1.sol\":9429:9437  loop_end */\n    tag_100:\n        /* \"contracts/lib/crypto/Secp256k1.sol\":8884:9448  {... */\n      pop\n        /* \"contracts/lib/crypto/Secp256k1.sol\":9553:9578  PREC[0] = [P[0], P[1], 1] */\n      0x60\n      mload(0x40)\n      swap1\n      dup2\n      add\n      0x40\n      mstore\n      dup1\n        /* \"contracts/lib/crypto/Secp256k1.sol\":9564:9565  P */\n      dup13\n        /* \"contracts/lib/crypto/Secp256k1.sol\":9566:9567  0 */\n      0x0\n        /* \"contracts/lib/crypto/Secp256k1.sol\":9564:9568  P[0] */\n      0x2\n      dup2\n      lt\n      iszero\n      iszero\n      tag_102\n      jumpi\n      invalid\n    tag_102:\n      0x20\n      mul\n      add\n      mload\n        /* \"contracts/lib/crypto/Secp256k1.sol\":9553:9578  PREC[0] = [P[0], P[1], 1] */\n      dup2\n      mstore\n      0x20\n      add\n        /* \"contracts/lib/crypto/Secp256k1.sol\":9570:9571  P */\n      dup13\n        /* \"contracts/lib/crypto/Secp256k1.sol\":9572:9573  1 */\n      0x1\n        /* \"contracts/lib/crypto/Secp256k1.sol\":9570:9574  P[1] */\n      0x2\n      dup2\n      lt\n      iszero\n      iszero\n      tag_103\n      jumpi\n      invalid\n    tag_103:\n      0x20\n      mul\n      add\n      mload\n        /* \"contracts/lib/crypto/Secp256k1.sol\":9553:9578  PREC[0] = [P[0], P[1], 1] */\n      dup2\n      mstore\n      0x20\n      add\n        /* \"contracts/lib/crypto/Secp256k1.sol\":9576:9577  1 */\n      0x1\n        /* \"contracts/lib/crypto/Secp256k1.sol\":9553:9578  PREC[0] = [P[0], P[1], 1] */\n      dup2\n      mstore\n      pop\n        /* \"contracts/lib/crypto/Secp256k1.sol\":9553:9557  PREC */\n      dup7\n        /* \"contracts/lib/crypto/Secp256k1.sol\":9558:9559  0 */\n      0x0\n        /* \"contracts/lib/crypto/Secp256k1.sol\":9553:9560  PREC[0] */\n      0x8\n      dup2\n      lt\n      iszero\n      iszero\n      tag_104\n      jumpi\n      invalid\n    tag_104:\n      0x20\n      mul\n      add\n        /* \"contracts/lib/crypto/Secp256k1.sol\":9553:9578  PREC[0] = [P[0], P[1], 1] */\n      dup2\n      swap1\n      mstore\n      pop\n        /* \"contracts/lib/crypto/Secp256k1.sol\":9596:9612  _double(PREC[0]) */\n      tag_105\n        /* \"contracts/lib/crypto/Secp256k1.sol\":9604:9608  PREC */\n      dup7\n        /* \"contracts/lib/crypto/Secp256k1.sol\":9609:9610  0 */\n      0x0\n        /* \"contracts/lib/crypto/Secp256k1.sol\":9604:9611  PREC[0] */\n      0x8\n      dup2\n      lt\n      iszero\n      iszero\n      tag_106\n      jumpi\n      invalid\n    tag_106:\n      0x20\n      mul\n      add\n      mload\n        /* \"contracts/lib/crypto/Secp256k1.sol\":9596:9603  _double */\n      tag_107\n        /* \"contracts/lib/crypto/Secp256k1.sol\":9596:9612  _double(PREC[0]) */\n      jump\t// in\n    tag_105:\n        /* \"contracts/lib/crypto/Secp256k1.sol\":9588:9612  var X = _double(PREC[0]) */\n      swap5\n      pop\n        /* \"contracts/lib/crypto/Secp256k1.sol\":9632:9647  _addMixed(X, P) */\n      tag_108\n        /* \"contracts/lib/crypto/Secp256k1.sol\":9642:9643  X */\n      dup6\n        /* \"contracts/lib/crypto/Secp256k1.sol\":9645:9646  P */\n      dup13\n        /* \"contracts/lib/crypto/Secp256k1.sol\":9632:9641  _addMixed */\n      tag_109\n        /* \"contracts/lib/crypto/Secp256k1.sol\":9632:9647  _addMixed(X, P) */\n      jump\t// in\n    tag_108:\n        /* \"contracts/lib/crypto/Secp256k1.sol\":9622:9626  PREC */\n      dup7\n        /* \"contracts/lib/crypto/Secp256k1.sol\":9627:9628  1 */\n      0x1\n        /* \"contracts/lib/crypto/Secp256k1.sol\":9622:9629  PREC[1] */\n      0x8\n      dup2\n      lt\n      iszero\n      iszero\n      tag_110\n      jumpi\n      invalid\n    tag_110:\n      0x20\n      mul\n      add\n        /* \"contracts/lib/crypto/Secp256k1.sol\":9622:9647  PREC[1] = _addMixed(X, P) */\n      dup2\n      swap1\n      mstore\n      pop\n        /* \"contracts/lib/crypto/Secp256k1.sol\":9667:9683  _add(X, PREC[1]) */\n      tag_111\n        /* \"contracts/lib/crypto/Secp256k1.sol\":9672:9673  X */\n      dup6\n        /* \"contracts/lib/crypto/Secp256k1.sol\":9675:9679  PREC */\n      dup8\n        /* \"contracts/lib/crypto/Secp256k1.sol\":9680:9681  1 */\n      0x1\n        /* \"contracts/lib/crypto/Secp256k1.sol\":9675:9682  PREC[1] */\n      0x8\n      dup2\n      lt\n      iszero\n      iszero\n      tag_112\n      jumpi\n      invalid\n    tag_112:\n      0x20\n      mul\n      add\n      mload\n        /* \"contracts/lib/crypto/Secp256k1.sol\":9667:9671  _add */\n      tag_62\n        /* \"contracts/lib/crypto/Secp256k1.sol\":9667:9683  _add(X, PREC[1]) */\n      jump\t// in\n    tag_111:\n        /* \"contracts/lib/crypto/Secp256k1.sol\":9657:9661  PREC */\n      dup7\n        /* \"contracts/lib/crypto/Secp256k1.sol\":9662:9663  2 */\n      0x2\n        /* \"contracts/lib/crypto/Secp256k1.sol\":9657:9664  PREC[2] */\n      0x8\n      dup2\n      lt\n      iszero\n      iszero\n      tag_113\n      jumpi\n      invalid\n    tag_113:\n      0x20\n      mul\n      add\n        /* \"contracts/lib/crypto/Secp256k1.sol\":9657:9683  PREC[2] = _add(X, PREC[1]) */\n      dup2\n      swap1\n      mstore\n      pop\n        /* \"contracts/lib/crypto/Secp256k1.sol\":9703:9719  _add(X, PREC[2]) */\n      tag_114\n        /* \"contracts/lib/crypto/Secp256k1.sol\":9708:9709  X */\n      dup6\n        /* \"contracts/lib/crypto/Secp256k1.sol\":9711:9715  PREC */\n      dup8\n        /* \"contracts/lib/crypto/Secp256k1.sol\":9716:9717  2 */\n      0x2\n        /* \"contracts/lib/crypto/Secp256k1.sol\":9711:9718  PREC[2] */\n      0x8\n      dup2\n      lt\n      iszero\n      iszero\n      tag_115\n      jumpi\n      invalid\n    tag_115:\n      0x20\n      mul\n      add\n      mload\n        /* \"contracts/lib/crypto/Secp256k1.sol\":9703:9707  _add */\n      tag_62\n        /* \"contracts/lib/crypto/Secp256k1.sol\":9703:9719  _add(X, PREC[2]) */\n      jump\t// in\n    tag_114:\n        /* \"contracts/lib/crypto/Secp256k1.sol\":9693:9697  PREC */\n      dup7\n        /* \"contracts/lib/crypto/Secp256k1.sol\":9698:9699  3 */\n      0x3\n        /* \"contracts/lib/crypto/Secp256k1.sol\":9693:9700  PREC[3] */\n      0x8\n      dup2\n      lt\n      iszero\n      iszero\n      tag_116\n      jumpi\n      invalid\n    tag_116:\n      0x20\n      mul\n      add\n        /* \"contracts/lib/crypto/Secp256k1.sol\":9693:9719  PREC[3] = _add(X, PREC[2]) */\n      dup2\n      swap1\n      mstore\n      pop\n        /* \"contracts/lib/crypto/Secp256k1.sol\":9739:9755  _add(X, PREC[3]) */\n      tag_117\n        /* \"contracts/lib/crypto/Secp256k1.sol\":9744:9745  X */\n      dup6\n        /* \"contracts/lib/crypto/Secp256k1.sol\":9747:9751  PREC */\n      dup8\n        /* \"contracts/lib/crypto/Secp256k1.sol\":9752:9753  3 */\n      0x3\n        /* \"contracts/lib/crypto/Secp256k1.sol\":9747:9754  PREC[3] */\n      0x8\n      dup2\n      lt\n      iszero\n      iszero\n      tag_118\n      jumpi\n      invalid\n    tag_118:\n      0x20\n      mul\n      add\n      mload\n        /* \"contracts/lib/crypto/Secp256k1.sol\":9739:9743  _add */\n      tag_62\n        /* \"contracts/lib/crypto/Secp256k1.sol\":9739:9755  _add(X, PREC[3]) */\n      jump\t// in\n    tag_117:\n        /* \"contracts/lib/crypto/Secp256k1.sol\":9729:9733  PREC */\n      dup7\n        /* \"contracts/lib/crypto/Secp256k1.sol\":9734:9735  4 */\n      0x4\n        /* \"contracts/lib/crypto/Secp256k1.sol\":9729:9736  PREC[4] */\n      0x8\n      dup2\n      lt\n      iszero\n      iszero\n      tag_119\n      jumpi\n      invalid\n    tag_119:\n      0x20\n      mul\n      add\n        /* \"contracts/lib/crypto/Secp256k1.sol\":9729:9755  PREC[4] = _add(X, PREC[3]) */\n      dup2\n      swap1\n      mstore\n      pop\n        /* \"contracts/lib/crypto/Secp256k1.sol\":9775:9791  _add(X, PREC[4]) */\n      tag_120\n        /* \"contracts/lib/crypto/Secp256k1.sol\":9780:9781  X */\n      dup6\n        /* \"contracts/lib/crypto/Secp256k1.sol\":9783:9787  PREC */\n      dup8\n        /* \"contracts/lib/crypto/Secp256k1.sol\":9788:9789  4 */\n      0x4\n        /* \"contracts/lib/crypto/Secp256k1.sol\":9783:9790  PREC[4] */\n      0x8\n      dup2\n      lt\n      iszero\n      iszero\n      tag_121\n      jumpi\n      invalid\n    tag_121:\n      0x20\n      mul\n      add\n      mload\n        /* \"contracts/lib/crypto/Secp256k1.sol\":9775:9779  _add */\n      tag_62\n        /* \"contracts/lib/crypto/Secp256k1.sol\":9775:9791  _add(X, PREC[4]) */\n      jump\t// in\n    tag_120:\n        /* \"contracts/lib/crypto/Secp256k1.sol\":9765:9769  PREC */\n      dup7\n        /* \"contracts/lib/crypto/Secp256k1.sol\":9770:9771  5 */\n      0x5\n        /* \"contracts/lib/crypto/Secp256k1.sol\":9765:9772  PREC[5] */\n      0x8\n      dup2\n      lt\n      iszero\n      iszero\n      tag_122\n      jumpi\n      invalid\n    tag_122:\n      0x20\n      mul\n      add\n        /* \"contracts/lib/crypto/Secp256k1.sol\":9765:9791  PREC[5] = _add(X, PREC[4]) */\n      dup2\n      swap1\n      mstore\n      pop\n        /* \"contracts/lib/crypto/Secp256k1.sol\":9811:9827  _add(X, PREC[5]) */\n      tag_123\n        /* \"contracts/lib/crypto/Secp256k1.sol\":9816:9817  X */\n      dup6\n        /* \"contracts/lib/crypto/Secp256k1.sol\":9819:9823  PREC */\n      dup8\n        /* \"contracts/lib/crypto/Secp256k1.sol\":9824:9825  5 */\n      0x5\n        /* \"contracts/lib/crypto/Secp256k1.sol\":9819:9826  PREC[5] */\n      0x8\n      dup2\n      lt\n      iszero\n      iszero\n      tag_124\n      jumpi\n      invalid\n    tag_124:\n      0x20\n      mul\n      add\n      mload\n        /* \"contracts/lib/crypto/Secp256k1.sol\":9811:9815  _add */\n      tag_62\n        /* \"contracts/lib/crypto/Secp256k1.sol\":9811:9827  _add(X, PREC[5]) */\n      jump\t// in\n    tag_123:\n        /* \"contracts/lib/crypto/Secp256k1.sol\":9801:9805  PREC */\n      dup7\n        /* \"contracts/lib/crypto/Secp256k1.sol\":9806:9807  6 */\n      0x6\n        /* \"contracts/lib/crypto/Secp256k1.sol\":9801:9808  PREC[6] */\n      0x8\n      dup2\n      lt\n      iszero\n      iszero\n      tag_125\n      jumpi\n      invalid\n    tag_125:\n      0x20\n      mul\n      add\n        /* \"contracts/lib/crypto/Secp256k1.sol\":9801:9827  PREC[6] = _add(X, PREC[5]) */\n      dup2\n      swap1\n      mstore\n      pop\n        /* \"contracts/lib/crypto/Secp256k1.sol\":9847:9863  _add(X, PREC[6]) */\n      tag_126\n        /* \"contracts/lib/crypto/Secp256k1.sol\":9852:9853  X */\n      dup6\n        /* \"contracts/lib/crypto/Secp256k1.sol\":9855:9859  PREC */\n      dup8\n        /* \"contracts/lib/crypto/Secp256k1.sol\":9860:9861  6 */\n      0x6\n        /* \"contracts/lib/crypto/Secp256k1.sol\":9855:9862  PREC[6] */\n      0x8\n      dup2\n      lt\n      iszero\n      iszero\n      tag_127\n      jumpi\n      invalid\n    tag_127:\n      0x20\n      mul\n      add\n      mload\n        /* \"contracts/lib/crypto/Secp256k1.sol\":9847:9851  _add */\n      tag_62\n        /* \"contracts/lib/crypto/Secp256k1.sol\":9847:9863  _add(X, PREC[6]) */\n      jump\t// in\n    tag_126:\n        /* \"contracts/lib/crypto/Secp256k1.sol\":9837:9841  PREC */\n      dup7\n        /* \"contracts/lib/crypto/Secp256k1.sol\":9842:9843  7 */\n      0x7\n        /* \"contracts/lib/crypto/Secp256k1.sol\":9837:9844  PREC[7] */\n      0x8\n      dup2\n      lt\n      iszero\n      iszero\n      tag_128\n      jumpi\n      invalid\n    tag_128:\n      0x20\n      mul\n      add\n        /* \"contracts/lib/crypto/Secp256k1.sol\":9837:9863  PREC[7] = _add(X, PREC[6]) */\n      dup2\n      swap1\n      mstore\n      pop\n        /* \"contracts/lib/crypto/Secp256k1.sol\":9912:9916  PREC */\n      dup6\n        /* \"contracts/lib/crypto/Secp256k1.sol\":9917:9918  1 */\n      0x1\n        /* \"contracts/lib/crypto/Secp256k1.sol\":9912:9919  PREC[1] */\n      0x8\n      dup2\n      lt\n      iszero\n      iszero\n      tag_129\n      jumpi\n      invalid\n    tag_129:\n      0x20\n      mul\n      add\n      mload\n        /* \"contracts/lib/crypto/Secp256k1.sol\":9920:9921  2 */\n      0x2\n        /* \"contracts/lib/crypto/Secp256k1.sol\":9912:9922  PREC[1][2] */\n      0x3\n      dup2\n      lt\n      iszero\n      iszero\n      tag_130\n      jumpi\n      invalid\n    tag_130:\n      0x20\n      mul\n      add\n      mload\n        /* \"contracts/lib/crypto/Secp256k1.sol\":9903:9906  INV */\n      dup5\n        /* \"contracts/lib/crypto/Secp256k1.sol\":9907:9908  0 */\n      0x0\n        /* \"contracts/lib/crypto/Secp256k1.sol\":9903:9909  INV[0] */\n      0x10\n      dup2\n      lt\n      iszero\n      iszero\n      tag_131\n      jumpi\n      invalid\n    tag_131:\n      0x20\n      mul\n      add\n        /* \"contracts/lib/crypto/Secp256k1.sol\":9903:9922  INV[0] = PREC[1][2] */\n      dup2\n      dup2\n      mstore\n      pop\n      pop\n        /* \"contracts/lib/crypto/Secp256k1.sol\":10001:10002  p */\n      dup9\n        /* \"contracts/lib/crypto/Secp256k1.sol\":9974:10003  mulmod(PREC[2][2], INV[0], p) */\n      dup1\n      iszero\n      iszero\n      tag_132\n      jumpi\n      invalid\n    tag_132:\n        /* \"contracts/lib/crypto/Secp256k1.sol\":9993:9996  INV */\n      dup5\n        /* \"contracts/lib/crypto/Secp256k1.sol\":9997:9998  0 */\n      0x0\n        /* \"contracts/lib/crypto/Secp256k1.sol\":9993:9999  INV[0] */\n      0x10\n      dup2\n      lt\n      iszero\n      iszero\n      tag_133\n      jumpi\n      invalid\n    tag_133:\n      0x20\n      mul\n      add\n      mload\n        /* \"contracts/lib/crypto/Secp256k1.sol\":9981:9985  PREC */\n      dup8\n        /* \"contracts/lib/crypto/Secp256k1.sol\":9986:9987  2 */\n      0x2\n        /* \"contracts/lib/crypto/Secp256k1.sol\":9981:9988  PREC[2] */\n      0x8\n      dup2\n      lt\n      iszero\n      iszero\n      tag_134\n      jumpi\n      invalid\n    tag_134:\n      0x20\n      mul\n      add\n      mload\n        /* \"contracts/lib/crypto/Secp256k1.sol\":9989:9990  2 */\n      0x2\n        /* \"contracts/lib/crypto/Secp256k1.sol\":9981:9991  PREC[2][2] */\n      0x3\n      dup2\n      lt\n      iszero\n      iszero\n      tag_135\n      jumpi\n      invalid\n    tag_135:\n      0x20\n      mul\n      add\n      mload\n        /* \"contracts/lib/crypto/Secp256k1.sol\":9974:10003  mulmod(PREC[2][2], INV[0], p) */\n      mulmod\n        /* \"contracts/lib/crypto/Secp256k1.sol\":9965:9968  INV */\n      dup5\n        /* \"contracts/lib/crypto/Secp256k1.sol\":9969:9970  1 */\n      0x1\n        /* \"contracts/lib/crypto/Secp256k1.sol\":9965:9971  INV[1] */\n      0x10\n      dup2\n      lt\n      iszero\n      iszero\n      tag_136\n      jumpi\n      invalid\n    tag_136:\n      0x20\n      mul\n      add\n        /* \"contracts/lib/crypto/Secp256k1.sol\":9965:10003  INV[1] = mulmod(PREC[2][2], INV[0], p) */\n      dup2\n      dup2\n      mstore\n      pop\n      pop\n        /* \"contracts/lib/crypto/Secp256k1.sol\":10063:10064  p */\n      dup9\n        /* \"contracts/lib/crypto/Secp256k1.sol\":10036:10065  mulmod(PREC[3][2], INV[1], p) */\n      dup1\n      iszero\n      iszero\n      tag_137\n      jumpi\n      invalid\n    tag_137:\n        /* \"contracts/lib/crypto/Secp256k1.sol\":10055:10058  INV */\n      dup5\n        /* \"contracts/lib/crypto/Secp256k1.sol\":10059:10060  1 */\n      0x1\n        /* \"contracts/lib/crypto/Secp256k1.sol\":10055:10061  INV[1] */\n      0x10\n      dup2\n      lt\n      iszero\n      iszero\n      tag_138\n      jumpi\n      invalid\n    tag_138:\n      0x20\n      mul\n      add\n      mload\n        /* \"contracts/lib/crypto/Secp256k1.sol\":10043:10047  PREC */\n      dup8\n        /* \"contracts/lib/crypto/Secp256k1.sol\":10048:10049  3 */\n      0x3\n        /* \"contracts/lib/crypto/Secp256k1.sol\":10043:10050  PREC[3] */\n      0x8\n      dup2\n      lt\n      iszero\n      iszero\n      tag_139\n      jumpi\n      invalid\n    tag_139:\n      0x20\n      mul\n      add\n      mload\n        /* \"contracts/lib/crypto/Secp256k1.sol\":10051:10052  2 */\n      0x2\n        /* \"contracts/lib/crypto/Secp256k1.sol\":10043:10053  PREC[3][2] */\n      0x3\n      dup2\n      lt\n      iszero\n      iszero\n      tag_140\n      jumpi\n      invalid\n    tag_140:\n      0x20\n      mul\n      add\n      mload\n        /* \"contracts/lib/crypto/Secp256k1.sol\":10036:10065  mulmod(PREC[3][2], INV[1], p) */\n      mulmod\n        /* \"contracts/lib/crypto/Secp256k1.sol\":10027:10030  INV */\n      dup5\n        /* \"contracts/lib/crypto/Secp256k1.sol\":10031:10032  2 */\n      0x2\n        /* \"contracts/lib/crypto/Secp256k1.sol\":10027:10033  INV[2] */\n      0x10\n      dup2\n      lt\n      iszero\n      iszero\n      tag_141\n      jumpi\n      invalid\n    tag_141:\n      0x20\n      mul\n      add\n        /* \"contracts/lib/crypto/Secp256k1.sol\":10027:10065  INV[2] = mulmod(PREC[3][2], INV[1], p) */\n      dup2\n      dup2\n      mstore\n      pop\n      pop\n        /* \"contracts/lib/crypto/Secp256k1.sol\":10125:10126  p */\n      dup9\n        /* \"contracts/lib/crypto/Secp256k1.sol\":10098:10127  mulmod(PREC[4][2], INV[2], p) */\n      dup1\n      iszero\n      iszero\n      tag_142\n      jumpi\n      invalid\n    tag_142:\n        /* \"contracts/lib/crypto/Secp256k1.sol\":10117:10120  INV */\n      dup5\n        /* \"contracts/lib/crypto/Secp256k1.sol\":10121:10122  2 */\n      0x2\n        /* \"contracts/lib/crypto/Secp256k1.sol\":10117:10123  INV[2] */\n      0x10\n      dup2\n      lt\n      iszero\n      iszero\n      tag_143\n      jumpi\n      invalid\n    tag_143:\n      0x20\n      mul\n      add\n      mload\n        /* \"contracts/lib/crypto/Secp256k1.sol\":10105:10109  PREC */\n      dup8\n        /* \"contracts/lib/crypto/Secp256k1.sol\":10110:10111  4 */\n      0x4\n        /* \"contracts/lib/crypto/Secp256k1.sol\":10105:10112  PREC[4] */\n      0x8\n      dup2\n      lt\n      iszero\n      iszero\n      tag_144\n      jumpi\n      invalid\n    tag_144:\n      0x20\n      mul\n      add\n      mload\n        /* \"contracts/lib/crypto/Secp256k1.sol\":10113:10114  2 */\n      0x2\n        /* \"contracts/lib/crypto/Secp256k1.sol\":10105:10115  PREC[4][2] */\n      0x3\n      dup2\n      lt\n      iszero\n      iszero\n      tag_145\n      jumpi\n      invalid\n    tag_145:\n      0x20\n      mul\n      add\n      mload\n        /* \"contracts/lib/crypto/Secp256k1.sol\":10098:10127  mulmod(PREC[4][2], INV[2], p) */\n      mulmod\n        /* \"contracts/lib/crypto/Secp256k1.sol\":10089:10092  INV */\n      dup5\n        /* \"contracts/lib/crypto/Secp256k1.sol\":10093:10094  3 */\n      0x3\n        /* \"contracts/lib/crypto/Secp256k1.sol\":10089:10095  INV[3] */\n      0x10\n      dup2\n      lt\n      iszero\n      iszero\n      tag_146\n      jumpi\n      invalid\n    tag_146:\n      0x20\n      mul\n      add\n        /* \"contracts/lib/crypto/Secp256k1.sol\":10089:10127  INV[3] = mulmod(PREC[4][2], INV[2], p) */\n      dup2\n      dup2\n      mstore\n      pop\n      pop\n        /* \"contracts/lib/crypto/Secp256k1.sol\":10187:10188  p */\n      dup9\n        /* \"contracts/lib/crypto/Secp256k1.sol\":10160:10189  mulmod(PREC[5][2], INV[3], p) */\n      dup1\n      iszero\n      iszero\n      tag_147\n      jumpi\n      invalid\n    tag_147:\n        /* \"contracts/lib/crypto/Secp256k1.sol\":10179:10182  INV */\n      dup5\n        /* \"contracts/lib/crypto/Secp256k1.sol\":10183:10184  3 */\n      0x3\n        /* \"contracts/lib/crypto/Secp256k1.sol\":10179:10185  INV[3] */\n      0x10\n      dup2\n      lt\n      iszero\n      iszero\n      tag_148\n      jumpi\n      invalid\n    tag_148:\n      0x20\n      mul\n      add\n      mload\n        /* \"contracts/lib/crypto/Secp256k1.sol\":10167:10171  PREC */\n      dup8\n        /* \"contracts/lib/crypto/Secp256k1.sol\":10172:10173  5 */\n      0x5\n        /* \"contracts/lib/crypto/Secp256k1.sol\":10167:10174  PREC[5] */\n      0x8\n      dup2\n      lt\n      iszero\n      iszero\n      tag_149\n      jumpi\n      invalid\n    tag_149:\n      0x20\n      mul\n      add\n      mload\n        /* \"contracts/lib/crypto/Secp256k1.sol\":10175:10176  2 */\n      0x2\n        /* \"contracts/lib/crypto/Secp256k1.sol\":10167:10177  PREC[5][2] */\n      0x3\n      dup2\n      lt\n      iszero\n      iszero\n      tag_150\n      jumpi\n      invalid\n    tag_150:\n      0x20\n      mul\n      add\n      mload\n        /* \"contracts/lib/crypto/Secp256k1.sol\":10160:10189  mulmod(PREC[5][2], INV[3], p) */\n      mulmod\n        /* \"contracts/lib/crypto/Secp256k1.sol\":10151:10154  INV */\n      dup5\n        /* \"contracts/lib/crypto/Secp256k1.sol\":10155:10156  4 */\n      0x4\n        /* \"contracts/lib/crypto/Secp256k1.sol\":10151:10157  INV[4] */\n      0x10\n      dup2\n      lt\n      iszero\n      iszero\n      tag_151\n      jumpi\n      invalid\n    tag_151:\n      0x20\n      mul\n      add\n        /* \"contracts/lib/crypto/Secp256k1.sol\":10151:10189  INV[4] = mulmod(PREC[5][2], INV[3], p) */\n      dup2\n      dup2\n      mstore\n      pop\n      pop\n        /* \"contracts/lib/crypto/Secp256k1.sol\":10249:10250  p */\n      dup9\n        /* \"contracts/lib/crypto/Secp256k1.sol\":10222:10251  mulmod(PREC[6][2], INV[4], p) */\n      dup1\n      iszero\n      iszero\n      tag_152\n      jumpi\n      invalid\n    tag_152:\n        /* \"contracts/lib/crypto/Secp256k1.sol\":10241:10244  INV */\n      dup5\n        /* \"contracts/lib/crypto/Secp256k1.sol\":10245:10246  4 */\n      0x4\n        /* \"contracts/lib/crypto/Secp256k1.sol\":10241:10247  INV[4] */\n      0x10\n      dup2\n      lt\n      iszero\n      iszero\n      tag_153\n      jumpi\n      invalid\n    tag_153:\n      0x20\n      mul\n      add\n      mload\n        /* \"contracts/lib/crypto/Secp256k1.sol\":10229:10233  PREC */\n      dup8\n        /* \"contracts/lib/crypto/Secp256k1.sol\":10234:10235  6 */\n      0x6\n        /* \"contracts/lib/crypto/Secp256k1.sol\":10229:10236  PREC[6] */\n      0x8\n      dup2\n      lt\n      iszero\n      iszero\n      tag_154\n      jumpi\n      invalid\n    tag_154:\n      0x20\n      mul\n      add\n      mload\n        /* \"contracts/lib/crypto/Secp256k1.sol\":10237:10238  2 */\n      0x2\n        /* \"contracts/lib/crypto/Secp256k1.sol\":10229:10239  PREC[6][2] */\n      0x3\n      dup2\n      lt\n      iszero\n      iszero\n      tag_155\n      jumpi\n      invalid\n    tag_155:\n      0x20\n      mul\n      add\n      mload\n        /* \"contracts/lib/crypto/Secp256k1.sol\":10222:10251  mulmod(PREC[6][2], INV[4], p) */\n      mulmod\n        /* \"contracts/lib/crypto/Secp256k1.sol\":10213:10216  INV */\n      dup5\n        /* \"contracts/lib/crypto/Secp256k1.sol\":10217:10218  5 */\n      0x5\n        /* \"contracts/lib/crypto/Secp256k1.sol\":10213:10219  INV[5] */\n      0x10\n      dup2\n      lt\n      iszero\n      iszero\n      tag_156\n      jumpi\n      invalid\n    tag_156:\n      0x20\n      mul\n      add\n        /* \"contracts/lib/crypto/Secp256k1.sol\":10213:10251  INV[5] = mulmod(PREC[6][2], INV[4], p) */\n      dup2\n      dup2\n      mstore\n      pop\n      pop\n        /* \"contracts/lib/crypto/Secp256k1.sol\":10311:10312  p */\n      dup9\n        /* \"contracts/lib/crypto/Secp256k1.sol\":10284:10313  mulmod(PREC[7][2], INV[5], p) */\n      dup1\n      iszero\n      iszero\n      tag_157\n      jumpi\n      invalid\n    tag_157:\n        /* \"contracts/lib/crypto/Secp256k1.sol\":10303:10306  INV */\n      dup5\n        /* \"contracts/lib/crypto/Secp256k1.sol\":10307:10308  5 */\n      0x5\n        /* \"contracts/lib/crypto/Secp256k1.sol\":10303:10309  INV[5] */\n      0x10\n      dup2\n      lt\n      iszero\n      iszero\n      tag_158\n      jumpi\n      invalid\n    tag_158:\n      0x20\n      mul\n      add\n      mload\n        /* \"contracts/lib/crypto/Secp256k1.sol\":10291:10295  PREC */\n      dup8\n        /* \"contracts/lib/crypto/Secp256k1.sol\":10296:10297  7 */\n      0x7\n        /* \"contracts/lib/crypto/Secp256k1.sol\":10291:10298  PREC[7] */\n      0x8\n      dup2\n      lt\n      iszero\n      iszero\n      tag_159\n      jumpi\n      invalid\n    tag_159:\n      0x20\n      mul\n      add\n      mload\n        /* \"contracts/lib/crypto/Secp256k1.sol\":10299:10300  2 */\n      0x2\n        /* \"contracts/lib/crypto/Secp256k1.sol\":10291:10301  PREC[7][2] */\n      0x3\n      dup2\n      lt\n      iszero\n      iszero\n      tag_160\n      jumpi\n      invalid\n    tag_160:\n      0x20\n      mul\n      add\n      mload\n        /* \"contracts/lib/crypto/Secp256k1.sol\":10284:10313  mulmod(PREC[7][2], INV[5], p) */\n      mulmod\n        /* \"contracts/lib/crypto/Secp256k1.sol\":10275:10278  INV */\n      dup5\n        /* \"contracts/lib/crypto/Secp256k1.sol\":10279:10280  6 */\n      0x6\n        /* \"contracts/lib/crypto/Secp256k1.sol\":10275:10281  INV[6] */\n      0x10\n      dup2\n      lt\n      iszero\n      iszero\n      tag_161\n      jumpi\n      invalid\n    tag_161:\n      0x20\n      mul\n      add\n        /* \"contracts/lib/crypto/Secp256k1.sol\":10275:10313  INV[6] = mulmod(PREC[7][2], INV[5], p) */\n      dup2\n      dup2\n      mstore\n      pop\n      pop\n        /* \"contracts/lib/crypto/Secp256k1.sol\":10347:10372  ECCMath.invmod(INV[6], p) */\n      tag_162\n        /* \"contracts/lib/crypto/Secp256k1.sol\":10362:10365  INV */\n      dup5\n        /* \"contracts/lib/crypto/Secp256k1.sol\":10366:10367  6 */\n      0x6\n        /* \"contracts/lib/crypto/Secp256k1.sol\":10362:10368  INV[6] */\n      0x10\n      dup2\n      lt\n      iszero\n      iszero\n      tag_163\n      jumpi\n      invalid\n    tag_163:\n      0x20\n      mul\n      add\n      mload\n        /* \"contracts/lib/crypto/Secp256k1.sol\":10370:10371  p */\n      dup11\n        /* \"contracts/lib/crypto/Secp256k1.sol\":10347:10361  ECCMath.invmod */\n      tag_55\n        /* \"contracts/lib/crypto/Secp256k1.sol\":10347:10372  ECCMath.invmod(INV[6], p) */\n      jump\t// in\n    tag_162:\n        /* \"contracts/lib/crypto/Secp256k1.sol\":10338:10341  INV */\n      dup5\n        /* \"contracts/lib/crypto/Secp256k1.sol\":10342:10343  7 */\n      0x7\n        /* \"contracts/lib/crypto/Secp256k1.sol\":10338:10344  INV[7] */\n      0x10\n      dup2\n      lt\n      iszero\n      iszero\n      tag_164\n      jumpi\n      invalid\n    tag_164:\n      0x20\n      mul\n      add\n        /* \"contracts/lib/crypto/Secp256k1.sol\":10338:10372  INV[7] = ECCMath.invmod(INV[6], p) */\n      dup2\n      dup2\n      mstore\n      pop\n      pop\n        /* \"contracts/lib/crypto/Secp256k1.sol\":10412:10415  INV */\n      dup4\n        /* \"contracts/lib/crypto/Secp256k1.sol\":10416:10417  7 */\n      0x7\n        /* \"contracts/lib/crypto/Secp256k1.sol\":10412:10418  INV[7] */\n      0x10\n      dup2\n      lt\n      iszero\n      iszero\n      tag_165\n      jumpi\n      invalid\n    tag_165:\n      0x20\n      mul\n      add\n      mload\n        /* \"contracts/lib/crypto/Secp256k1.sol\":10403:10406  INV */\n      dup5\n        /* \"contracts/lib/crypto/Secp256k1.sol\":10407:10408  8 */\n      0x8\n        /* \"contracts/lib/crypto/Secp256k1.sol\":10403:10409  INV[8] */\n      0x10\n      dup2\n      lt\n      iszero\n      iszero\n      tag_166\n      jumpi\n      invalid\n    tag_166:\n      0x20\n      mul\n      add\n        /* \"contracts/lib/crypto/Secp256k1.sol\":10403:10418  INV[8] = INV[7] */\n      dup2\n      dup2\n      mstore\n      pop\n      pop\n        /* \"contracts/lib/crypto/Secp256k1.sol\":10510:10511  p */\n      dup9\n        /* \"contracts/lib/crypto/Secp256k1.sol\":10487:10512  mulmod(INV[5], INV[8], p) */\n      dup1\n      iszero\n      iszero\n      tag_167\n      jumpi\n      invalid\n    tag_167:\n        /* \"contracts/lib/crypto/Secp256k1.sol\":10502:10505  INV */\n      dup5\n        /* \"contracts/lib/crypto/Secp256k1.sol\":10506:10507  8 */\n      0x8\n        /* \"contracts/lib/crypto/Secp256k1.sol\":10502:10508  INV[8] */\n      0x10\n      dup2\n      lt\n      iszero\n      iszero\n      tag_168\n      jumpi\n      invalid\n    tag_168:\n      0x20\n      mul\n      add\n      mload\n        /* \"contracts/lib/crypto/Secp256k1.sol\":10494:10497  INV */\n      dup6\n        /* \"contracts/lib/crypto/Secp256k1.sol\":10498:10499  5 */\n      0x5\n        /* \"contracts/lib/crypto/Secp256k1.sol\":10494:10500  INV[5] */\n      0x10\n      dup2\n      lt\n      iszero\n      iszero\n      tag_169\n      jumpi\n      invalid\n    tag_169:\n      0x20\n      mul\n      add\n      mload\n        /* \"contracts/lib/crypto/Secp256k1.sol\":10487:10512  mulmod(INV[5], INV[8], p) */\n      mulmod\n        /* \"contracts/lib/crypto/Secp256k1.sol\":10477:10480  INV */\n      dup5\n        /* \"contracts/lib/crypto/Secp256k1.sol\":10481:10483  15 */\n      0xf\n        /* \"contracts/lib/crypto/Secp256k1.sol\":10477:10484  INV[15] */\n      0x10\n      dup2\n      lt\n      iszero\n      iszero\n      tag_170\n      jumpi\n      invalid\n    tag_170:\n      0x20\n      mul\n      add\n        /* \"contracts/lib/crypto/Secp256k1.sol\":10477:10512  INV[15] = mulmod(INV[5], INV[8], p) */\n      dup2\n      dup2\n      mstore\n      pop\n      pop\n        /* \"contracts/lib/crypto/Secp256k1.sol\":10555:10556  6 */\n      0x6\n        /* \"contracts/lib/crypto/Secp256k1.sol\":10546:10556  uint k = 6 */\n      swap3\n      pop\n        /* \"contracts/lib/crypto/Secp256k1.sol\":10542:10729  for(uint k = 6; k >= 2; k--) {                  // z6inv to z2inv... */\n    tag_171:\n        /* \"contracts/lib/crypto/Secp256k1.sol\":10563:10564  2 */\n      0x2\n        /* \"contracts/lib/crypto/Secp256k1.sol\":10558:10559  k */\n      dup4\n        /* \"contracts/lib/crypto/Secp256k1.sol\":10558:10564  k >= 2 */\n      lt\n      iszero\n        /* \"contracts/lib/crypto/Secp256k1.sol\":10542:10729  for(uint k = 6; k >= 2; k--) {                  // z6inv to z2inv... */\n      iszero\n      tag_172\n      jumpi\n        /* \"contracts/lib/crypto/Secp256k1.sol\":10660:10661  p */\n      dup9\n        /* \"contracts/lib/crypto/Secp256k1.sol\":10629:10662  mulmod(PREC[k + 1][2], INV[8], p) */\n      dup1\n      iszero\n      iszero\n      tag_174\n      jumpi\n      invalid\n    tag_174:\n        /* \"contracts/lib/crypto/Secp256k1.sol\":10652:10655  INV */\n      dup5\n        /* \"contracts/lib/crypto/Secp256k1.sol\":10656:10657  8 */\n      0x8\n        /* \"contracts/lib/crypto/Secp256k1.sol\":10652:10658  INV[8] */\n      0x10\n      dup2\n      lt\n      iszero\n      iszero\n      tag_175\n      jumpi\n      invalid\n    tag_175:\n      0x20\n      mul\n      add\n      mload\n        /* \"contracts/lib/crypto/Secp256k1.sol\":10636:10640  PREC */\n      dup8\n        /* \"contracts/lib/crypto/Secp256k1.sol\":10645:10646  1 */\n      0x1\n        /* \"contracts/lib/crypto/Secp256k1.sol\":10641:10642  k */\n      dup7\n        /* \"contracts/lib/crypto/Secp256k1.sol\":10641:10646  k + 1 */\n      add\n        /* \"contracts/lib/crypto/Secp256k1.sol\":10636:10647  PREC[k + 1] */\n      0x8\n      dup2\n      lt\n      iszero\n      iszero\n      tag_176\n      jumpi\n      invalid\n    tag_176:\n      0x20\n      mul\n      add\n      mload\n        /* \"contracts/lib/crypto/Secp256k1.sol\":10648:10649  2 */\n      0x2\n        /* \"contracts/lib/crypto/Secp256k1.sol\":10636:10650  PREC[k + 1][2] */\n      0x3\n      dup2\n      lt\n      iszero\n      iszero\n      tag_177\n      jumpi\n      invalid\n    tag_177:\n      0x20\n      mul\n      add\n      mload\n        /* \"contracts/lib/crypto/Secp256k1.sol\":10629:10662  mulmod(PREC[k + 1][2], INV[8], p) */\n      mulmod\n        /* \"contracts/lib/crypto/Secp256k1.sol\":10620:10623  INV */\n      dup5\n        /* \"contracts/lib/crypto/Secp256k1.sol\":10624:10625  8 */\n      0x8\n        /* \"contracts/lib/crypto/Secp256k1.sol\":10620:10626  INV[8] */\n      0x10\n      dup2\n      lt\n      iszero\n      iszero\n      tag_178\n      jumpi\n      invalid\n    tag_178:\n      0x20\n      mul\n      add\n        /* \"contracts/lib/crypto/Secp256k1.sol\":10620:10662  INV[8] = mulmod(PREC[k + 1][2], INV[8], p) */\n      dup2\n      dup2\n      mstore\n      pop\n      pop\n        /* \"contracts/lib/crypto/Secp256k1.sol\":10716:10717  p */\n      dup9\n        /* \"contracts/lib/crypto/Secp256k1.sol\":10689:10718  mulmod(INV[k - 2], INV[8], p) */\n      dup1\n      iszero\n      iszero\n      tag_179\n      jumpi\n      invalid\n    tag_179:\n        /* \"contracts/lib/crypto/Secp256k1.sol\":10708:10711  INV */\n      dup5\n        /* \"contracts/lib/crypto/Secp256k1.sol\":10712:10713  8 */\n      0x8\n        /* \"contracts/lib/crypto/Secp256k1.sol\":10708:10714  INV[8] */\n      0x10\n      dup2\n      lt\n      iszero\n      iszero\n      tag_180\n      jumpi\n      invalid\n    tag_180:\n      0x20\n      mul\n      add\n      mload\n        /* \"contracts/lib/crypto/Secp256k1.sol\":10696:10699  INV */\n      dup6\n        /* \"contracts/lib/crypto/Secp256k1.sol\":10704:10705  2 */\n      0x2\n        /* \"contracts/lib/crypto/Secp256k1.sol\":10700:10701  k */\n      dup7\n        /* \"contracts/lib/crypto/Secp256k1.sol\":10700:10705  k - 2 */\n      sub\n        /* \"contracts/lib/crypto/Secp256k1.sol\":10696:10706  INV[k - 2] */\n      0x10\n      dup2\n      lt\n      iszero\n      iszero\n      tag_181\n      jumpi\n      invalid\n    tag_181:\n      0x20\n      mul\n      add\n      mload\n        /* \"contracts/lib/crypto/Secp256k1.sol\":10689:10718  mulmod(INV[k - 2], INV[8], p) */\n      mulmod\n        /* \"contracts/lib/crypto/Secp256k1.sol\":10676:10679  INV */\n      dup5\n        /* \"contracts/lib/crypto/Secp256k1.sol\":10684:10685  k */\n      dup5\n        /* \"contracts/lib/crypto/Secp256k1.sol\":10680:10681  8 */\n      0x8\n        /* \"contracts/lib/crypto/Secp256k1.sol\":10680:10685  8 + k */\n      add\n        /* \"contracts/lib/crypto/Secp256k1.sol\":10676:10686  INV[8 + k] */\n      0x10\n      dup2\n      lt\n      iszero\n      iszero\n      tag_182\n      jumpi\n      invalid\n    tag_182:\n      0x20\n      mul\n      add\n        /* \"contracts/lib/crypto/Secp256k1.sol\":10676:10718  INV[8 + k] = mulmod(INV[k - 2], INV[8], p) */\n      dup2\n      dup2\n      mstore\n      pop\n      pop\n        /* \"contracts/lib/crypto/Secp256k1.sol\":10566:10569  k-- */\n      dup3\n      dup1\n      0x1\n      swap1\n      sub\n      swap4\n      pop\n      pop\n        /* \"contracts/lib/crypto/Secp256k1.sol\":10542:10729  for(uint k = 6; k >= 2; k--) {                  // z6inv to z2inv... */\n      jump(tag_171)\n    tag_172:\n        /* \"contracts/lib/crypto/Secp256k1.sol\":10774:10775  p */\n      dup9\n        /* \"contracts/lib/crypto/Secp256k1.sol\":10747:10776  mulmod(PREC[2][2], INV[8], p) */\n      dup1\n      iszero\n      iszero\n      tag_183\n      jumpi\n      invalid\n    tag_183:\n        /* \"contracts/lib/crypto/Secp256k1.sol\":10766:10769  INV */\n      dup5\n        /* \"contracts/lib/crypto/Secp256k1.sol\":10770:10771  8 */\n      0x8\n        /* \"contracts/lib/crypto/Secp256k1.sol\":10766:10772  INV[8] */\n      0x10\n      dup2\n      lt\n      iszero\n      iszero\n      tag_184\n      jumpi\n      invalid\n    tag_184:\n      0x20\n      mul\n      add\n      mload\n        /* \"contracts/lib/crypto/Secp256k1.sol\":10754:10758  PREC */\n      dup8\n        /* \"contracts/lib/crypto/Secp256k1.sol\":10759:10760  2 */\n      0x2\n        /* \"contracts/lib/crypto/Secp256k1.sol\":10754:10761  PREC[2] */\n      0x8\n      dup2\n      lt\n      iszero\n      iszero\n      tag_185\n      jumpi\n      invalid\n    tag_185:\n      0x20\n      mul\n      add\n      mload\n        /* \"contracts/lib/crypto/Secp256k1.sol\":10762:10763  2 */\n      0x2\n        /* \"contracts/lib/crypto/Secp256k1.sol\":10754:10764  PREC[2][2] */\n      0x3\n      dup2\n      lt\n      iszero\n      iszero\n      tag_186\n      jumpi\n      invalid\n    tag_186:\n      0x20\n      mul\n      add\n      mload\n        /* \"contracts/lib/crypto/Secp256k1.sol\":10747:10776  mulmod(PREC[2][2], INV[8], p) */\n      mulmod\n        /* \"contracts/lib/crypto/Secp256k1.sol\":10738:10741  INV */\n      dup5\n        /* \"contracts/lib/crypto/Secp256k1.sol\":10742:10743  9 */\n      0x9\n        /* \"contracts/lib/crypto/Secp256k1.sol\":10738:10744  INV[9] */\n      0x10\n      dup2\n      lt\n      iszero\n      iszero\n      tag_187\n      jumpi\n      invalid\n    tag_187:\n      0x20\n      mul\n      add\n        /* \"contracts/lib/crypto/Secp256k1.sol\":10738:10776  INV[9] = mulmod(PREC[2][2], INV[8], p) */\n      dup2\n      dup2\n      mstore\n      pop\n      pop\n        /* \"contracts/lib/crypto/Secp256k1.sol\":10811:10812  0 */\n      0x0\n        /* \"contracts/lib/crypto/Secp256k1.sol\":10807:10812  k = 0 */\n      swap3\n      pop\n        /* \"contracts/lib/crypto/Secp256k1.sol\":10803:10926  for(k = 0; k < 7; k++) {... */\n    tag_188:\n        /* \"contracts/lib/crypto/Secp256k1.sol\":10818:10819  7 */\n      0x7\n        /* \"contracts/lib/crypto/Secp256k1.sol\":10814:10815  k */\n      dup4\n        /* \"contracts/lib/crypto/Secp256k1.sol\":10814:10819  k < 7 */\n      lt\n        /* \"contracts/lib/crypto/Secp256k1.sol\":10803:10926  for(k = 0; k < 7; k++) {... */\n      iszero\n      tag_189\n      jumpi\n        /* \"contracts/lib/crypto/Secp256k1.sol\":10840:10915  ECCMath.toZ1(PREC[k + 1], INV[k + 9], mulmod(INV[k + 9], INV[k + 9], p), p) */\n      tag_191\n        /* \"contracts/lib/crypto/Secp256k1.sol\":10853:10857  PREC */\n      dup7\n        /* \"contracts/lib/crypto/Secp256k1.sol\":10862:10863  1 */\n      0x1\n        /* \"contracts/lib/crypto/Secp256k1.sol\":10858:10859  k */\n      dup6\n        /* \"contracts/lib/crypto/Secp256k1.sol\":10858:10863  k + 1 */\n      add\n        /* \"contracts/lib/crypto/Secp256k1.sol\":10853:10864  PREC[k + 1] */\n      0x8\n      dup2\n      lt\n      iszero\n      iszero\n      tag_192\n      jumpi\n      invalid\n    tag_192:\n      0x20\n      mul\n      add\n      mload\n        /* \"contracts/lib/crypto/Secp256k1.sol\":10866:10869  INV */\n      dup6\n        /* \"contracts/lib/crypto/Secp256k1.sol\":10874:10875  9 */\n      0x9\n        /* \"contracts/lib/crypto/Secp256k1.sol\":10870:10871  k */\n      dup7\n        /* \"contracts/lib/crypto/Secp256k1.sol\":10870:10875  k + 9 */\n      add\n        /* \"contracts/lib/crypto/Secp256k1.sol\":10866:10876  INV[k + 9] */\n      0x10\n      dup2\n      lt\n      iszero\n      iszero\n      tag_193\n      jumpi\n      invalid\n    tag_193:\n      0x20\n      mul\n      add\n      mload\n        /* \"contracts/lib/crypto/Secp256k1.sol\":10909:10910  p */\n      dup12\n        /* \"contracts/lib/crypto/Secp256k1.sol\":10878:10911  mulmod(INV[k + 9], INV[k + 9], p) */\n      dup1\n      iszero\n      iszero\n      tag_194\n      jumpi\n      invalid\n    tag_194:\n        /* \"contracts/lib/crypto/Secp256k1.sol\":10897:10900  INV */\n      dup8\n        /* \"contracts/lib/crypto/Secp256k1.sol\":10905:10906  9 */\n      0x9\n        /* \"contracts/lib/crypto/Secp256k1.sol\":10901:10902  k */\n      dup9\n        /* \"contracts/lib/crypto/Secp256k1.sol\":10901:10906  k + 9 */\n      add\n        /* \"contracts/lib/crypto/Secp256k1.sol\":10897:10907  INV[k + 9] */\n      0x10\n      dup2\n      lt\n      iszero\n      iszero\n      tag_195\n      jumpi\n      invalid\n    tag_195:\n      0x20\n      mul\n      add\n      mload\n        /* \"contracts/lib/crypto/Secp256k1.sol\":10885:10888  INV */\n      dup9\n        /* \"contracts/lib/crypto/Secp256k1.sol\":10893:10894  9 */\n      0x9\n        /* \"contracts/lib/crypto/Secp256k1.sol\":10889:10890  k */\n      dup10\n        /* \"contracts/lib/crypto/Secp256k1.sol\":10889:10894  k + 9 */\n      add\n        /* \"contracts/lib/crypto/Secp256k1.sol\":10885:10895  INV[k + 9] */\n      0x10\n      dup2\n      lt\n      iszero\n      iszero\n      tag_196\n      jumpi\n      invalid\n    tag_196:\n      0x20\n      mul\n      add\n      mload\n        /* \"contracts/lib/crypto/Secp256k1.sol\":10878:10911  mulmod(INV[k + 9], INV[k + 9], p) */\n      mulmod\n        /* \"contracts/lib/crypto/Secp256k1.sol\":10913:10914  p */\n      dup13\n        /* \"contracts/lib/crypto/Secp256k1.sol\":10840:10852  ECCMath.toZ1 */\n      tag_197\n        /* \"contracts/lib/crypto/Secp256k1.sol\":10840:10915  ECCMath.toZ1(PREC[k + 1], INV[k + 9], mulmod(INV[k + 9], INV[k + 9], p), p) */\n      jump\t// in\n    tag_191:\n        /* \"contracts/lib/crypto/Secp256k1.sol\":10821:10824  k++ */\n      dup3\n      dup1\n      0x1\n      add\n      swap4\n      pop\n      pop\n        /* \"contracts/lib/crypto/Secp256k1.sol\":10803:10926  for(k = 0; k < 7; k++) {... */\n      jump(tag_188)\n    tag_189:\n        /* \"contracts/lib/crypto/Secp256k1.sol\":10957:11494  while(i > 0) {... */\n    tag_198:\n        /* \"contracts/lib/crypto/Secp256k1.sol\":10967:10968  0 */\n      0x0\n        /* \"contracts/lib/crypto/Secp256k1.sol\":10963:10964  i */\n      dup8\n        /* \"contracts/lib/crypto/Secp256k1.sol\":10963:10968  i > 0 */\n      gt\n        /* \"contracts/lib/crypto/Secp256k1.sol\":10957:11494  while(i > 0) {... */\n      iszero\n      tag_199\n      jumpi\n        /* \"contracts/lib/crypto/Secp256k1.sol\":11028:11031  i-- */\n      dup7\n      dup1\n      0x1\n      swap1\n      sub\n      swap8\n      pop\n      pop\n        /* \"contracts/lib/crypto/Secp256k1.sol\":11103:11104  i */\n      dup7\n        /* \"contracts/lib/crypto/Secp256k1.sol\":11096:11101  dwPtr */\n      dup9\n        /* \"contracts/lib/crypto/Secp256k1.sol\":11092:11105  add(dwPtr, i) */\n      add\n        /* \"contracts/lib/crypto/Secp256k1.sol\":11086:11106  mload(add(dwPtr, i)) */\n      mload\n        /* \"contracts/lib/crypto/Secp256k1.sol\":11083:11084  0 */\n      0x0\n        /* \"contracts/lib/crypto/Secp256k1.sol\":11078:11107  byte(0, mload(add(dwPtr, i))) */\n      byte\n        /* \"contracts/lib/crypto/Secp256k1.sol\":11072:11107  dj := byte(0, mload(add(dwPtr, i))) */\n      swap2\n      pop\n        /* \"contracts/lib/crypto/Secp256k1.sol\":11134:11145  _doubleM(Q) */\n      tag_200\n        /* \"contracts/lib/crypto/Secp256k1.sol\":11143:11144  Q */\n      dup11\n        /* \"contracts/lib/crypto/Secp256k1.sol\":11134:11142  _doubleM */\n      tag_201\n        /* \"contracts/lib/crypto/Secp256k1.sol\":11134:11145  _doubleM(Q) */\n      jump\t// in\n    tag_200:\n        /* \"contracts/lib/crypto/Secp256k1.sol\":11168:11170  16 */\n      0x10\n        /* \"contracts/lib/crypto/Secp256k1.sol\":11163:11165  dj */\n      dup3\n        /* \"contracts/lib/crypto/Secp256k1.sol\":11163:11170  dj > 16 */\n      gt\n        /* \"contracts/lib/crypto/Secp256k1.sol\":11159:11484  if (dj > 16) {... */\n      iszero\n      tag_202\n      jumpi\n        /* \"contracts/lib/crypto/Secp256k1.sol\":11209:11210  2 */\n      0x2\n        /* \"contracts/lib/crypto/Secp256k1.sol\":11203:11205  dj */\n      dup3\n        /* \"contracts/lib/crypto/Secp256k1.sol\":11198:11200  31 */\n      0x1f\n        /* \"contracts/lib/crypto/Secp256k1.sol\":11198:11205  31 - dj */\n      sub\n        /* \"contracts/lib/crypto/Secp256k1.sol\":11197:11210  (31 - dj) / 2 */\n      dup2\n      iszero\n      iszero\n      tag_203\n      jumpi\n      invalid\n    tag_203:\n      div\n        /* \"contracts/lib/crypto/Secp256k1.sol\":11190:11210  pIdx = (31 - dj) / 2 */\n      swap1\n      pop\n        /* \"contracts/lib/crypto/Secp256k1.sol\":11275:11324  _addMixedM(Q, [PREC[pIdx][0], p - PREC[pIdx][1]]) */\n      tag_204\n        /* \"contracts/lib/crypto/Secp256k1.sol\":11286:11287  Q */\n      dup11\n        /* \"contracts/lib/crypto/Secp256k1.sol\":11275:11324  _addMixedM(Q, [PREC[pIdx][0], p - PREC[pIdx][1]]) */\n      0x40\n      dup1\n      mload\n      swap1\n      dup2\n      add\n      0x40\n      mstore\n      dup1\n        /* \"contracts/lib/crypto/Secp256k1.sol\":11290:11294  PREC */\n      dup10\n        /* \"contracts/lib/crypto/Secp256k1.sol\":11295:11299  pIdx */\n      dup6\n        /* \"contracts/lib/crypto/Secp256k1.sol\":11290:11300  PREC[pIdx] */\n      0x8\n      dup2\n      lt\n      iszero\n      iszero\n      tag_205\n      jumpi\n      invalid\n    tag_205:\n      0x20\n      mul\n      add\n      mload\n        /* \"contracts/lib/crypto/Secp256k1.sol\":11301:11302  0 */\n      0x0\n        /* \"contracts/lib/crypto/Secp256k1.sol\":11290:11303  PREC[pIdx][0] */\n      0x3\n      dup2\n      lt\n      iszero\n      iszero\n      tag_206\n      jumpi\n      invalid\n    tag_206:\n      0x20\n      mul\n      add\n      mload\n        /* \"contracts/lib/crypto/Secp256k1.sol\":11275:11324  _addMixedM(Q, [PREC[pIdx][0], p - PREC[pIdx][1]]) */\n      dup2\n      mstore\n      0x20\n      add\n        /* \"contracts/lib/crypto/Secp256k1.sol\":11309:11313  PREC */\n      dup10\n        /* \"contracts/lib/crypto/Secp256k1.sol\":11314:11318  pIdx */\n      dup6\n        /* \"contracts/lib/crypto/Secp256k1.sol\":11309:11319  PREC[pIdx] */\n      0x8\n      dup2\n      lt\n      iszero\n      iszero\n      tag_207\n      jumpi\n      invalid\n    tag_207:\n      0x20\n      mul\n      add\n      mload\n        /* \"contracts/lib/crypto/Secp256k1.sol\":11320:11321  1 */\n      0x1\n        /* \"contracts/lib/crypto/Secp256k1.sol\":11309:11322  PREC[pIdx][1] */\n      0x3\n      dup2\n      lt\n      iszero\n      iszero\n      tag_208\n      jumpi\n      invalid\n    tag_208:\n      0x20\n      mul\n      add\n      mload\n        /* \"contracts/lib/crypto/Secp256k1.sol\":11305:11306  p */\n      dup14\n        /* \"contracts/lib/crypto/Secp256k1.sol\":11305:11322  p - PREC[pIdx][1] */\n      sub\n        /* \"contracts/lib/crypto/Secp256k1.sol\":11275:11324  _addMixedM(Q, [PREC[pIdx][0], p - PREC[pIdx][1]]) */\n      dup2\n      mstore\n      pop\n        /* \"contracts/lib/crypto/Secp256k1.sol\":11275:11285  _addMixedM */\n      tag_209\n        /* \"contracts/lib/crypto/Secp256k1.sol\":11275:11324  _addMixedM(Q, [PREC[pIdx][0], p - PREC[pIdx][1]]) */\n      jump\t// in\n    tag_204:\n        /* \"contracts/lib/crypto/Secp256k1.sol\":11159:11484  if (dj > 16) {... */\n      jump(tag_210)\n    tag_202:\n        /* \"contracts/lib/crypto/Secp256k1.sol\":11366:11367  0 */\n      0x0\n        /* \"contracts/lib/crypto/Secp256k1.sol\":11361:11363  dj */\n      dup3\n        /* \"contracts/lib/crypto/Secp256k1.sol\":11361:11367  dj > 0 */\n      gt\n        /* \"contracts/lib/crypto/Secp256k1.sol\":11357:11484  if (dj > 0) {... */\n      iszero\n      tag_211\n      jumpi\n        /* \"contracts/lib/crypto/Secp256k1.sol\":11405:11406  2 */\n      0x2\n        /* \"contracts/lib/crypto/Secp256k1.sol\":11400:11401  1 */\n      0x1\n        /* \"contracts/lib/crypto/Secp256k1.sol\":11395:11397  dj */\n      dup4\n        /* \"contracts/lib/crypto/Secp256k1.sol\":11395:11401  dj - 1 */\n      sub\n        /* \"contracts/lib/crypto/Secp256k1.sol\":11394:11406  (dj - 1) / 2 */\n      dup2\n      iszero\n      iszero\n      tag_212\n      jumpi\n      invalid\n    tag_212:\n      div\n        /* \"contracts/lib/crypto/Secp256k1.sol\":11387:11406  pIdx = (dj - 1) / 2 */\n      swap1\n      pop\n        /* \"contracts/lib/crypto/Secp256k1.sol\":11424:11469  _addMixedM(Q, [PREC[pIdx][0], PREC[pIdx][1]]) */\n      tag_213\n        /* \"contracts/lib/crypto/Secp256k1.sol\":11435:11436  Q */\n      dup11\n        /* \"contracts/lib/crypto/Secp256k1.sol\":11424:11469  _addMixedM(Q, [PREC[pIdx][0], PREC[pIdx][1]]) */\n      0x40\n      dup1\n      mload\n      swap1\n      dup2\n      add\n      0x40\n      mstore\n      dup1\n        /* \"contracts/lib/crypto/Secp256k1.sol\":11439:11443  PREC */\n      dup10\n        /* \"contracts/lib/crypto/Secp256k1.sol\":11444:11448  pIdx */\n      dup6\n        /* \"contracts/lib/crypto/Secp256k1.sol\":11439:11449  PREC[pIdx] */\n      0x8\n      dup2\n      lt\n      iszero\n      iszero\n      tag_214\n      jumpi\n      invalid\n    tag_214:\n      0x20\n      mul\n      add\n      mload\n        /* \"contracts/lib/crypto/Secp256k1.sol\":11450:11451  0 */\n      0x0\n        /* \"contracts/lib/crypto/Secp256k1.sol\":11439:11452  PREC[pIdx][0] */\n      0x3\n      dup2\n      lt\n      iszero\n      iszero\n      tag_215\n      jumpi\n      invalid\n    tag_215:\n      0x20\n      mul\n      add\n      mload\n        /* \"contracts/lib/crypto/Secp256k1.sol\":11424:11469  _addMixedM(Q, [PREC[pIdx][0], PREC[pIdx][1]]) */\n      dup2\n      mstore\n      0x20\n      add\n        /* \"contracts/lib/crypto/Secp256k1.sol\":11454:11458  PREC */\n      dup10\n        /* \"contracts/lib/crypto/Secp256k1.sol\":11459:11463  pIdx */\n      dup6\n        /* \"contracts/lib/crypto/Secp256k1.sol\":11454:11464  PREC[pIdx] */\n      0x8\n      dup2\n      lt\n      iszero\n      iszero\n      tag_216\n      jumpi\n      invalid\n    tag_216:\n      0x20\n      mul\n      add\n      mload\n        /* \"contracts/lib/crypto/Secp256k1.sol\":11465:11466  1 */\n      0x1\n        /* \"contracts/lib/crypto/Secp256k1.sol\":11454:11467  PREC[pIdx][1] */\n      0x3\n      dup2\n      lt\n      iszero\n      iszero\n      tag_217\n      jumpi\n      invalid\n    tag_217:\n      0x20\n      mul\n      add\n      mload\n        /* \"contracts/lib/crypto/Secp256k1.sol\":11424:11469  _addMixedM(Q, [PREC[pIdx][0], PREC[pIdx][1]]) */\n      dup2\n      mstore\n      pop\n        /* \"contracts/lib/crypto/Secp256k1.sol\":11424:11434  _addMixedM */\n      tag_209\n        /* \"contracts/lib/crypto/Secp256k1.sol\":11424:11469  _addMixedM(Q, [PREC[pIdx][0], PREC[pIdx][1]]) */\n      jump\t// in\n    tag_213:\n        /* \"contracts/lib/crypto/Secp256k1.sol\":11357:11484  if (dj > 0) {... */\n    tag_211:\n        /* \"contracts/lib/crypto/Secp256k1.sol\":11159:11484  if (dj > 16) {... */\n    tag_210:\n        /* \"contracts/lib/crypto/Secp256k1.sol\":10957:11494  while(i > 0) {... */\n      jump(tag_198)\n    tag_199:\n        /* \"contracts/lib/crypto/Secp256k1.sol\":8610:11500  function _mul(uint d, uint[2] memory P) internal constant returns (uint[3] memory Q) {... */\n    tag_97:\n      pop\n      pop\n      pop\n      pop\n      pop\n      pop\n      pop\n      pop\n      pop\n      swap3\n      swap2\n      pop\n      pop\n      jump\t// out\n        /* \"contracts/lib/crypto/Secp256k1.sol\":3161:4433  function _add(uint[3] memory P, uint[3] memory Q) internal constant returns (uint[3] memory R) {... */\n    tag_62:\n        /* \"contracts/lib/crypto/Secp256k1.sol\":3238:3254  uint[3] memory R */\n      tag_218\n      jump\t// in(tag_21)\n    tag_218:\n        /* \"contracts/lib/crypto/Secp256k1.sol\":3354:3360  uint p */\n      0x0\n        /* \"contracts/lib/crypto/Secp256k1.sol\":3375:3392  uint[4] memory zs */\n      tag_219\n      jump\t// in(tag_220)\n    tag_219:\n        /* \"contracts/lib/crypto/Secp256k1.sol\":3586:3603  uint[4] memory us */\n      tag_221\n      jump\t// in(tag_220)\n    tag_221:\n        /* \"contracts/lib/crypto/Secp256k1.sol\":3952:3958  uint h */\n      0x0\n        /* \"contracts/lib/crypto/Secp256k1.sol\":3998:4004  uint r */\n      dup1\n        /* \"contracts/lib/crypto/Secp256k1.sol\":4044:4051  uint h2 */\n      0x0\n        /* \"contracts/lib/crypto/Secp256k1.sol\":4079:4086  uint h3 */\n      dup1\n        /* \"contracts/lib/crypto/Secp256k1.sol\":4115:4122  uint Rx */\n      0x0\n        /* \"contracts/lib/crypto/Secp256k1.sol\":3277:3278  0 */\n      dup1\n        /* \"contracts/lib/crypto/Secp256k1.sol\":3269:3270  P */\n      dup12\n        /* \"contracts/lib/crypto/Secp256k1.sol\":3271:3272  2 */\n      0x2\n        /* \"contracts/lib/crypto/Secp256k1.sol\":3269:3273  P[2] */\n      0x3\n      dup2\n      lt\n      iszero\n      iszero\n      tag_223\n      jumpi\n      invalid\n    tag_223:\n      0x20\n      mul\n      add\n      mload\n        /* \"contracts/lib/crypto/Secp256k1.sol\":3269:3278  P[2] == 0 */\n      eq\n        /* \"contracts/lib/crypto/Secp256k1.sol\":3266:3300  if(P[2] == 0)... */\n      iszero\n      tag_224\n      jumpi\n        /* \"contracts/lib/crypto/Secp256k1.sol\":3299:3300  Q */\n      dup10\n        /* \"contracts/lib/crypto/Secp256k1.sol\":3292:3300  return Q */\n      swap9\n      pop\n      jump(tag_222)\n        /* \"contracts/lib/crypto/Secp256k1.sol\":3266:3300  if(P[2] == 0)... */\n    tag_224:\n        /* \"contracts/lib/crypto/Secp256k1.sol\":3321:3322  0 */\n      0x0\n        /* \"contracts/lib/crypto/Secp256k1.sol\":3313:3314  Q */\n      dup11\n        /* \"contracts/lib/crypto/Secp256k1.sol\":3315:3316  2 */\n      0x2\n        /* \"contracts/lib/crypto/Secp256k1.sol\":3313:3317  Q[2] */\n      0x3\n      dup2\n      lt\n      iszero\n      iszero\n      tag_225\n      jumpi\n      invalid\n    tag_225:\n      0x20\n      mul\n      add\n      mload\n        /* \"contracts/lib/crypto/Secp256k1.sol\":3313:3322  Q[2] == 0 */\n      eq\n        /* \"contracts/lib/crypto/Secp256k1.sol\":3310:3344  if(Q[2] == 0)... */\n      iszero\n      tag_226\n      jumpi\n        /* \"contracts/lib/crypto/Secp256k1.sol\":3343:3344  P */\n      dup11\n        /* \"contracts/lib/crypto/Secp256k1.sol\":3336:3344  return P */\n      swap9\n      pop\n      jump(tag_222)\n        /* \"contracts/lib/crypto/Secp256k1.sol\":3310:3344  if(Q[2] == 0)... */\n    tag_226:\n        /* \"contracts/lib/crypto/Secp256k1.sol\":487:553  0xFFFFFFFFFFFFFFFFFFFFFFFFFFFFFFFFFFFFFFFFFFFFFFFFFFFFFFFEFFFFFC2F */\n      0xfffffffffffffffffffffffffffffffffffffffffffffffffffffffefffffc2f\n        /* \"contracts/lib/crypto/Secp256k1.sol\":3354:3365  uint p = pp */\n      swap8\n      pop\n        /* \"contracts/lib/crypto/Secp256k1.sol\":3455:3456  p */\n      dup8\n        /* \"contracts/lib/crypto/Secp256k1.sol\":3436:3457  mulmod(P[2], P[2], p) */\n      dup1\n      iszero\n      iszero\n      tag_227\n      jumpi\n      invalid\n    tag_227:\n        /* \"contracts/lib/crypto/Secp256k1.sol\":3449:3450  P */\n      dup12\n        /* \"contracts/lib/crypto/Secp256k1.sol\":3451:3452  2 */\n      0x2\n        /* \"contracts/lib/crypto/Secp256k1.sol\":3449:3453  P[2] */\n      0x3\n      dup2\n      lt\n      iszero\n      iszero\n      tag_228\n      jumpi\n      invalid\n    tag_228:\n      0x20\n      mul\n      add\n      mload\n        /* \"contracts/lib/crypto/Secp256k1.sol\":3443:3444  P */\n      dup13\n        /* \"contracts/lib/crypto/Secp256k1.sol\":3445:3446  2 */\n      0x2\n        /* \"contracts/lib/crypto/Secp256k1.sol\":3443:3447  P[2] */\n      0x3\n      dup2\n      lt\n      iszero\n      iszero\n      tag_229\n      jumpi\n      invalid\n    tag_229:\n      0x20\n      mul\n      add\n      mload\n        /* \"contracts/lib/crypto/Secp256k1.sol\":3436:3457  mulmod(P[2], P[2], p) */\n      mulmod\n        /* \"contracts/lib/crypto/Secp256k1.sol\":3428:3430  zs */\n      dup8\n        /* \"contracts/lib/crypto/Secp256k1.sol\":3431:3432  0 */\n      0x0\n        /* \"contracts/lib/crypto/Secp256k1.sol\":3428:3433  zs[0] */\n      0x4\n      dup2\n      lt\n      iszero\n      iszero\n      tag_230\n      jumpi\n      invalid\n    tag_230:\n      0x20\n      mul\n      add\n        /* \"contracts/lib/crypto/Secp256k1.sol\":3428:3457  zs[0] = mulmod(P[2], P[2], p) */\n      dup2\n      dup2\n      mstore\n      pop\n      pop\n        /* \"contracts/lib/crypto/Secp256k1.sol\":3495:3496  p */\n      dup8\n        /* \"contracts/lib/crypto/Secp256k1.sol\":3475:3497  mulmod(P[2], zs[0], p) */\n      dup1\n      iszero\n      iszero\n      tag_231\n      jumpi\n      invalid\n    tag_231:\n        /* \"contracts/lib/crypto/Secp256k1.sol\":3488:3490  zs */\n      dup8\n        /* \"contracts/lib/crypto/Secp256k1.sol\":3491:3492  0 */\n      0x0\n        /* \"contracts/lib/crypto/Secp256k1.sol\":3488:3493  zs[0] */\n      0x4\n      dup2\n      lt\n      iszero\n      iszero\n      tag_232\n      jumpi\n      invalid\n    tag_232:\n      0x20\n      mul\n      add\n      mload\n        /* \"contracts/lib/crypto/Secp256k1.sol\":3482:3483  P */\n      dup13\n        /* \"contracts/lib/crypto/Secp256k1.sol\":3484:3485  2 */\n      0x2\n        /* \"contracts/lib/crypto/Secp256k1.sol\":3482:3486  P[2] */\n      0x3\n      dup2\n      lt\n      iszero\n      iszero\n      tag_233\n      jumpi\n      invalid\n    tag_233:\n      0x20\n      mul\n      add\n      mload\n        /* \"contracts/lib/crypto/Secp256k1.sol\":3475:3497  mulmod(P[2], zs[0], p) */\n      mulmod\n        /* \"contracts/lib/crypto/Secp256k1.sol\":3467:3469  zs */\n      dup8\n        /* \"contracts/lib/crypto/Secp256k1.sol\":3470:3471  1 */\n      0x1\n        /* \"contracts/lib/crypto/Secp256k1.sol\":3467:3472  zs[1] */\n      0x4\n      dup2\n      lt\n      iszero\n      iszero\n      tag_234\n      jumpi\n      invalid\n    tag_234:\n      0x20\n      mul\n      add\n        /* \"contracts/lib/crypto/Secp256k1.sol\":3467:3497  zs[1] = mulmod(P[2], zs[0], p) */\n      dup2\n      dup2\n      mstore\n      pop\n      pop\n        /* \"contracts/lib/crypto/Secp256k1.sol\":3534:3535  p */\n      dup8\n        /* \"contracts/lib/crypto/Secp256k1.sol\":3515:3536  mulmod(Q[2], Q[2], p) */\n      dup1\n      iszero\n      iszero\n      tag_235\n      jumpi\n      invalid\n    tag_235:\n        /* \"contracts/lib/crypto/Secp256k1.sol\":3528:3529  Q */\n      dup11\n        /* \"contracts/lib/crypto/Secp256k1.sol\":3530:3531  2 */\n      0x2\n        /* \"contracts/lib/crypto/Secp256k1.sol\":3528:3532  Q[2] */\n      0x3\n      dup2\n      lt\n      iszero\n      iszero\n      tag_236\n      jumpi\n      invalid\n    tag_236:\n      0x20\n      mul\n      add\n      mload\n        /* \"contracts/lib/crypto/Secp256k1.sol\":3522:3523  Q */\n      dup12\n        /* \"contracts/lib/crypto/Secp256k1.sol\":3524:3525  2 */\n      0x2\n        /* \"contracts/lib/crypto/Secp256k1.sol\":3522:3526  Q[2] */\n      0x3\n      dup2\n      lt\n      iszero\n      iszero\n      tag_237\n      jumpi\n      invalid\n    tag_237:\n      0x20\n      mul\n      add\n      mload\n        /* \"contracts/lib/crypto/Secp256k1.sol\":3515:3536  mulmod(Q[2], Q[2], p) */\n      mulmod\n        /* \"contracts/lib/crypto/Secp256k1.sol\":3507:3509  zs */\n      dup8\n        /* \"contracts/lib/crypto/Secp256k1.sol\":3510:3511  2 */\n      0x2\n        /* \"contracts/lib/crypto/Secp256k1.sol\":3507:3512  zs[2] */\n      0x4\n      dup2\n      lt\n      iszero\n      iszero\n      tag_238\n      jumpi\n      invalid\n    tag_238:\n      0x20\n      mul\n      add\n        /* \"contracts/lib/crypto/Secp256k1.sol\":3507:3536  zs[2] = mulmod(Q[2], Q[2], p) */\n      dup2\n      dup2\n      mstore\n      pop\n      pop\n        /* \"contracts/lib/crypto/Secp256k1.sol\":3574:3575  p */\n      dup8\n        /* \"contracts/lib/crypto/Secp256k1.sol\":3554:3576  mulmod(Q[2], zs[2], p) */\n      dup1\n      iszero\n      iszero\n      tag_239\n      jumpi\n      invalid\n    tag_239:\n        /* \"contracts/lib/crypto/Secp256k1.sol\":3567:3569  zs */\n      dup8\n        /* \"contracts/lib/crypto/Secp256k1.sol\":3570:3571  2 */\n      0x2\n        /* \"contracts/lib/crypto/Secp256k1.sol\":3567:3572  zs[2] */\n      0x4\n      dup2\n      lt\n      iszero\n      iszero\n      tag_240\n      jumpi\n      invalid\n    tag_240:\n      0x20\n      mul\n      add\n      mload\n        /* \"contracts/lib/crypto/Secp256k1.sol\":3561:3562  Q */\n      dup12\n        /* \"contracts/lib/crypto/Secp256k1.sol\":3563:3564  2 */\n      0x2\n        /* \"contracts/lib/crypto/Secp256k1.sol\":3561:3565  Q[2] */\n      0x3\n      dup2\n      lt\n      iszero\n      iszero\n      tag_241\n      jumpi\n      invalid\n    tag_241:\n      0x20\n      mul\n      add\n      mload\n        /* \"contracts/lib/crypto/Secp256k1.sol\":3554:3576  mulmod(Q[2], zs[2], p) */\n      mulmod\n        /* \"contracts/lib/crypto/Secp256k1.sol\":3546:3548  zs */\n      dup8\n        /* \"contracts/lib/crypto/Secp256k1.sol\":3549:3550  3 */\n      0x3\n        /* \"contracts/lib/crypto/Secp256k1.sol\":3546:3551  zs[3] */\n      0x4\n      dup2\n      lt\n      iszero\n      iszero\n      tag_242\n      jumpi\n      invalid\n    tag_242:\n      0x20\n      mul\n      add\n        /* \"contracts/lib/crypto/Secp256k1.sol\":3546:3576  zs[3] = mulmod(Q[2], zs[2], p) */\n      dup2\n      dup2\n      mstore\n      pop\n      pop\n        /* \"contracts/lib/crypto/Secp256k1.sol\":3586:3760  uint[4] memory us = [... */\n      0x80\n      mload(0x40)\n      swap1\n      dup2\n      add\n      0x40\n      mstore\n      dup1\n        /* \"contracts/lib/crypto/Secp256k1.sol\":3640:3641  p */\n      dup10\n        /* \"contracts/lib/crypto/Secp256k1.sol\":3620:3642  mulmod(P[0], zs[2], p) */\n      dup1\n      iszero\n      iszero\n      tag_243\n      jumpi\n      invalid\n    tag_243:\n        /* \"contracts/lib/crypto/Secp256k1.sol\":3633:3635  zs */\n      dup10\n        /* \"contracts/lib/crypto/Secp256k1.sol\":3636:3637  2 */\n      0x2\n        /* \"contracts/lib/crypto/Secp256k1.sol\":3633:3638  zs[2] */\n      0x4\n      dup2\n      lt\n      iszero\n      iszero\n      tag_244\n      jumpi\n      invalid\n    tag_244:\n      0x20\n      mul\n      add\n      mload\n        /* \"contracts/lib/crypto/Secp256k1.sol\":3627:3628  P */\n      dup15\n        /* \"contracts/lib/crypto/Secp256k1.sol\":3629:3630  0 */\n      0x0\n        /* \"contracts/lib/crypto/Secp256k1.sol\":3627:3631  P[0] */\n      0x3\n      dup2\n      lt\n      iszero\n      iszero\n      tag_245\n      jumpi\n      invalid\n    tag_245:\n      0x20\n      mul\n      add\n      mload\n        /* \"contracts/lib/crypto/Secp256k1.sol\":3620:3642  mulmod(P[0], zs[2], p) */\n      mulmod\n        /* \"contracts/lib/crypto/Secp256k1.sol\":3586:3760  uint[4] memory us = [... */\n      dup2\n      mstore\n      0x20\n      add\n        /* \"contracts/lib/crypto/Secp256k1.sol\":3676:3677  p */\n      dup10\n        /* \"contracts/lib/crypto/Secp256k1.sol\":3656:3678  mulmod(P[1], zs[3], p) */\n      dup1\n      iszero\n      iszero\n      tag_246\n      jumpi\n      invalid\n    tag_246:\n        /* \"contracts/lib/crypto/Secp256k1.sol\":3669:3671  zs */\n      dup10\n        /* \"contracts/lib/crypto/Secp256k1.sol\":3672:3673  3 */\n      0x3\n        /* \"contracts/lib/crypto/Secp256k1.sol\":3669:3674  zs[3] */\n      0x4\n      dup2\n      lt\n      iszero\n      iszero\n      tag_247\n      jumpi\n      invalid\n    tag_247:\n      0x20\n      mul\n      add\n      mload\n        /* \"contracts/lib/crypto/Secp256k1.sol\":3663:3664  P */\n      dup15\n        /* \"contracts/lib/crypto/Secp256k1.sol\":3665:3666  1 */\n      0x1\n        /* \"contracts/lib/crypto/Secp256k1.sol\":3663:3667  P[1] */\n      0x3\n      dup2\n      lt\n      iszero\n      iszero\n      tag_248\n      jumpi\n      invalid\n    tag_248:\n      0x20\n      mul\n      add\n      mload\n        /* \"contracts/lib/crypto/Secp256k1.sol\":3656:3678  mulmod(P[1], zs[3], p) */\n      mulmod\n        /* \"contracts/lib/crypto/Secp256k1.sol\":3586:3760  uint[4] memory us = [... */\n      dup2\n      mstore\n      0x20\n      add\n        /* \"contracts/lib/crypto/Secp256k1.sol\":3712:3713  p */\n      dup10\n        /* \"contracts/lib/crypto/Secp256k1.sol\":3692:3714  mulmod(Q[0], zs[0], p) */\n      dup1\n      iszero\n      iszero\n      tag_249\n      jumpi\n      invalid\n    tag_249:\n        /* \"contracts/lib/crypto/Secp256k1.sol\":3705:3707  zs */\n      dup10\n        /* \"contracts/lib/crypto/Secp256k1.sol\":3708:3709  0 */\n      0x0\n        /* \"contracts/lib/crypto/Secp256k1.sol\":3705:3710  zs[0] */\n      0x4\n      dup2\n      lt\n      iszero\n      iszero\n      tag_250\n      jumpi\n      invalid\n    tag_250:\n      0x20\n      mul\n      add\n      mload\n        /* \"contracts/lib/crypto/Secp256k1.sol\":3699:3700  Q */\n      dup14\n        /* \"contracts/lib/crypto/Secp256k1.sol\":3701:3702  0 */\n      0x0\n        /* \"contracts/lib/crypto/Secp256k1.sol\":3699:3703  Q[0] */\n      0x3\n      dup2\n      lt\n      iszero\n      iszero\n      tag_251\n      jumpi\n      invalid\n    tag_251:\n      0x20\n      mul\n      add\n      mload\n        /* \"contracts/lib/crypto/Secp256k1.sol\":3692:3714  mulmod(Q[0], zs[0], p) */\n      mulmod\n        /* \"contracts/lib/crypto/Secp256k1.sol\":3586:3760  uint[4] memory us = [... */\n      dup2\n      mstore\n      0x20\n      add\n        /* \"contracts/lib/crypto/Secp256k1.sol\":3748:3749  p */\n      dup10\n        /* \"contracts/lib/crypto/Secp256k1.sol\":3728:3750  mulmod(Q[1], zs[1], p) */\n      dup1\n      iszero\n      iszero\n      tag_252\n      jumpi\n      invalid\n    tag_252:\n        /* \"contracts/lib/crypto/Secp256k1.sol\":3741:3743  zs */\n      dup10\n        /* \"contracts/lib/crypto/Secp256k1.sol\":3744:3745  1 */\n      0x1\n        /* \"contracts/lib/crypto/Secp256k1.sol\":3741:3746  zs[1] */\n      0x4\n      dup2\n      lt\n      iszero\n      iszero\n      tag_253\n      jumpi\n      invalid\n    tag_253:\n      0x20\n      mul\n      add\n      mload\n        /* \"contracts/lib/crypto/Secp256k1.sol\":3735:3736  Q */\n      dup14\n        /* \"contracts/lib/crypto/Secp256k1.sol\":3737:3738  1 */\n      0x1\n        /* \"contracts/lib/crypto/Secp256k1.sol\":3735:3739  Q[1] */\n      0x3\n      dup2\n      lt\n      iszero\n      iszero\n      tag_254\n      jumpi\n      invalid\n    tag_254:\n      0x20\n      mul\n      add\n      mload\n        /* \"contracts/lib/crypto/Secp256k1.sol\":3728:3750  mulmod(Q[1], zs[1], p) */\n      mulmod\n        /* \"contracts/lib/crypto/Secp256k1.sol\":3586:3760  uint[4] memory us = [... */\n      dup2\n      mstore\n      pop\n      swap6\n      pop\n        /* \"contracts/lib/crypto/Secp256k1.sol\":3801:3803  us */\n      dup6\n        /* \"contracts/lib/crypto/Secp256k1.sol\":3804:3805  2 */\n      0x2\n        /* \"contracts/lib/crypto/Secp256k1.sol\":3801:3806  us[2] */\n      0x4\n      dup2\n      lt\n      iszero\n      iszero\n      tag_255\n      jumpi\n      invalid\n    tag_255:\n      0x20\n      mul\n      add\n      mload\n        /* \"contracts/lib/crypto/Secp256k1.sol\":3792:3794  us */\n      dup7\n        /* \"contracts/lib/crypto/Secp256k1.sol\":3795:3796  0 */\n      0x0\n        /* \"contracts/lib/crypto/Secp256k1.sol\":3792:3797  us[0] */\n      0x4\n      dup2\n      lt\n      iszero\n      iszero\n      tag_256\n      jumpi\n      invalid\n    tag_256:\n      0x20\n      mul\n      add\n      mload\n        /* \"contracts/lib/crypto/Secp256k1.sol\":3792:3806  us[0] == us[2] */\n      eq\n        /* \"contracts/lib/crypto/Secp256k1.sol\":3788:3943  if (us[0] == us[2]) {... */\n      iszero\n      tag_257\n      jumpi\n        /* \"contracts/lib/crypto/Secp256k1.sol\":3835:3837  us */\n      dup6\n        /* \"contracts/lib/crypto/Secp256k1.sol\":3838:3839  3 */\n      0x3\n        /* \"contracts/lib/crypto/Secp256k1.sol\":3835:3840  us[3] */\n      0x4\n      dup2\n      lt\n      iszero\n      iszero\n      tag_258\n      jumpi\n      invalid\n    tag_258:\n      0x20\n      mul\n      add\n      mload\n        /* \"contracts/lib/crypto/Secp256k1.sol\":3826:3828  us */\n      dup7\n        /* \"contracts/lib/crypto/Secp256k1.sol\":3829:3830  1 */\n      0x1\n        /* \"contracts/lib/crypto/Secp256k1.sol\":3826:3831  us[1] */\n      0x4\n      dup2\n      lt\n      iszero\n      iszero\n      tag_259\n      jumpi\n      invalid\n    tag_259:\n      0x20\n      mul\n      add\n      mload\n        /* \"contracts/lib/crypto/Secp256k1.sol\":3826:3840  us[1] != us[3] */\n      eq\n      iszero\n        /* \"contracts/lib/crypto/Secp256k1.sol\":3822:3933  if (us[1] != us[3])... */\n      iszero\n      tag_260\n      jumpi\n        /* \"contracts/lib/crypto/Secp256k1.sol\":3858:3865  return; */\n      jump(tag_222)\n        /* \"contracts/lib/crypto/Secp256k1.sol\":3822:3933  if (us[1] != us[3])... */\n    tag_260:\n        /* \"contracts/lib/crypto/Secp256k1.sol\":3908:3918  _double(P) */\n      tag_262\n        /* \"contracts/lib/crypto/Secp256k1.sol\":3916:3917  P */\n      dup12\n        /* \"contracts/lib/crypto/Secp256k1.sol\":3908:3915  _double */\n      tag_107\n        /* \"contracts/lib/crypto/Secp256k1.sol\":3908:3918  _double(P) */\n      jump\t// in\n    tag_262:\n        /* \"contracts/lib/crypto/Secp256k1.sol\":3901:3918  return _double(P) */\n      swap9\n      pop\n      jump(tag_222)\n        /* \"contracts/lib/crypto/Secp256k1.sol\":3788:3943  if (us[0] == us[2]) {... */\n    tag_257:\n        /* \"contracts/lib/crypto/Secp256k1.sol\":3986:3987  p */\n      dup8\n        /* \"contracts/lib/crypto/Secp256k1.sol\":3961:3988  addmod(us[2], p - us[0], p) */\n      dup1\n      iszero\n      iszero\n      tag_263\n      jumpi\n      invalid\n    tag_263:\n        /* \"contracts/lib/crypto/Secp256k1.sol\":3979:3981  us */\n      dup7\n        /* \"contracts/lib/crypto/Secp256k1.sol\":3982:3983  0 */\n      0x0\n        /* \"contracts/lib/crypto/Secp256k1.sol\":3979:3984  us[0] */\n      0x4\n      dup2\n      lt\n      iszero\n      iszero\n      tag_264\n      jumpi\n      invalid\n    tag_264:\n      0x20\n      mul\n      add\n      mload\n        /* \"contracts/lib/crypto/Secp256k1.sol\":3975:3976  p */\n      dup10\n        /* \"contracts/lib/crypto/Secp256k1.sol\":3975:3984  p - us[0] */\n      sub\n        /* \"contracts/lib/crypto/Secp256k1.sol\":3968:3970  us */\n      dup8\n        /* \"contracts/lib/crypto/Secp256k1.sol\":3971:3972  2 */\n      0x2\n        /* \"contracts/lib/crypto/Secp256k1.sol\":3968:3973  us[2] */\n      0x4\n      dup2\n      lt\n      iszero\n      iszero\n      tag_265\n      jumpi\n      invalid\n    tag_265:\n      0x20\n      mul\n      add\n      mload\n        /* \"contracts/lib/crypto/Secp256k1.sol\":3961:3988  addmod(us[2], p - us[0], p) */\n      addmod\n        /* \"contracts/lib/crypto/Secp256k1.sol\":3952:3988  uint h = addmod(us[2], p - us[0], p) */\n      swap5\n      pop\n        /* \"contracts/lib/crypto/Secp256k1.sol\":4032:4033  p */\n      dup8\n        /* \"contracts/lib/crypto/Secp256k1.sol\":4007:4034  addmod(us[3], p - us[1], p) */\n      dup1\n      iszero\n      iszero\n      tag_266\n      jumpi\n      invalid\n    tag_266:\n        /* \"contracts/lib/crypto/Secp256k1.sol\":4025:4027  us */\n      dup7\n        /* \"contracts/lib/crypto/Secp256k1.sol\":4028:4029  1 */\n      0x1\n        /* \"contracts/lib/crypto/Secp256k1.sol\":4025:4030  us[1] */\n      0x4\n      dup2\n      lt\n      iszero\n      iszero\n      tag_267\n      jumpi\n      invalid\n    tag_267:\n      0x20\n      mul\n      add\n      mload\n        /* \"contracts/lib/crypto/Secp256k1.sol\":4021:4022  p */\n      dup10\n        /* \"contracts/lib/crypto/Secp256k1.sol\":4021:4030  p - us[1] */\n      sub\n        /* \"contracts/lib/crypto/Secp256k1.sol\":4014:4016  us */\n      dup8\n        /* \"contracts/lib/crypto/Secp256k1.sol\":4017:4018  3 */\n      0x3\n        /* \"contracts/lib/crypto/Secp256k1.sol\":4014:4019  us[3] */\n      0x4\n      dup2\n      lt\n      iszero\n      iszero\n      tag_268\n      jumpi\n      invalid\n    tag_268:\n      0x20\n      mul\n      add\n      mload\n        /* \"contracts/lib/crypto/Secp256k1.sol\":4007:4034  addmod(us[3], p - us[1], p) */\n      addmod\n        /* \"contracts/lib/crypto/Secp256k1.sol\":3998:4034  uint r = addmod(us[3], p - us[1], p) */\n      swap4\n      pop\n        /* \"contracts/lib/crypto/Secp256k1.sol\":4067:4068  p */\n      dup8\n        /* \"contracts/lib/crypto/Secp256k1.sol\":4054:4069  mulmod(h, h, p) */\n      dup1\n      iszero\n      iszero\n      tag_269\n      jumpi\n      invalid\n    tag_269:\n        /* \"contracts/lib/crypto/Secp256k1.sol\":4064:4065  h */\n      dup6\n        /* \"contracts/lib/crypto/Secp256k1.sol\":4061:4062  h */\n      dup7\n        /* \"contracts/lib/crypto/Secp256k1.sol\":4054:4069  mulmod(h, h, p) */\n      mulmod\n        /* \"contracts/lib/crypto/Secp256k1.sol\":4044:4069  uint h2 = mulmod(h, h, p) */\n      swap3\n      pop\n        /* \"contracts/lib/crypto/Secp256k1.sol\":4103:4104  p */\n      dup8\n        /* \"contracts/lib/crypto/Secp256k1.sol\":4089:4105  mulmod(h2, h, p) */\n      dup1\n      iszero\n      iszero\n      tag_270\n      jumpi\n      invalid\n    tag_270:\n        /* \"contracts/lib/crypto/Secp256k1.sol\":4100:4101  h */\n      dup6\n        /* \"contracts/lib/crypto/Secp256k1.sol\":4096:4098  h2 */\n      dup5\n        /* \"contracts/lib/crypto/Secp256k1.sol\":4089:4105  mulmod(h2, h, p) */\n      mulmod\n        /* \"contracts/lib/crypto/Secp256k1.sol\":4079:4105  uint h3 = mulmod(h2, h, p) */\n      swap2\n      pop\n        /* \"contracts/lib/crypto/Secp256k1.sol\":4157:4158  p */\n      dup8\n        /* \"contracts/lib/crypto/Secp256k1.sol\":4125:4159  addmod(mulmod(r, r, p), p - h3, p) */\n      dup1\n      iszero\n      iszero\n      tag_271\n      jumpi\n      invalid\n    tag_271:\n        /* \"contracts/lib/crypto/Secp256k1.sol\":4153:4155  h3 */\n      dup3\n        /* \"contracts/lib/crypto/Secp256k1.sol\":4149:4150  p */\n      dup10\n        /* \"contracts/lib/crypto/Secp256k1.sol\":4149:4155  p - h3 */\n      sub\n        /* \"contracts/lib/crypto/Secp256k1.sol\":4145:4146  p */\n      dup10\n        /* \"contracts/lib/crypto/Secp256k1.sol\":4132:4147  mulmod(r, r, p) */\n      dup1\n      iszero\n      iszero\n      tag_272\n      jumpi\n      invalid\n    tag_272:\n        /* \"contracts/lib/crypto/Secp256k1.sol\":4142:4143  r */\n      dup7\n        /* \"contracts/lib/crypto/Secp256k1.sol\":4139:4140  r */\n      dup8\n        /* \"contracts/lib/crypto/Secp256k1.sol\":4132:4147  mulmod(r, r, p) */\n      mulmod\n        /* \"contracts/lib/crypto/Secp256k1.sol\":4125:4159  addmod(mulmod(r, r, p), p - h3, p) */\n      addmod\n        /* \"contracts/lib/crypto/Secp256k1.sol\":4115:4159  uint Rx = addmod(mulmod(r, r, p), p - h3, p) */\n      swap1\n      pop\n        /* \"contracts/lib/crypto/Secp256k1.sol\":4225:4226  p */\n      dup8\n        /* \"contracts/lib/crypto/Secp256k1.sol\":4174:4227  addmod(Rx, p - mulmod(2, mulmod(us[0], h2, p), p), p) */\n      dup1\n      iszero\n      iszero\n      tag_273\n      jumpi\n      invalid\n    tag_273:\n        /* \"contracts/lib/crypto/Secp256k1.sol\":4221:4222  p */\n      dup9\n        /* \"contracts/lib/crypto/Secp256k1.sol\":4189:4223  mulmod(2, mulmod(us[0], h2, p), p) */\n      dup1\n      iszero\n      iszero\n      tag_274\n      jumpi\n      invalid\n    tag_274:\n        /* \"contracts/lib/crypto/Secp256k1.sol\":4217:4218  p */\n      dup10\n        /* \"contracts/lib/crypto/Secp256k1.sol\":4199:4219  mulmod(us[0], h2, p) */\n      dup1\n      iszero\n      iszero\n      tag_275\n      jumpi\n      invalid\n    tag_275:\n        /* \"contracts/lib/crypto/Secp256k1.sol\":4213:4215  h2 */\n      dup6\n        /* \"contracts/lib/crypto/Secp256k1.sol\":4206:4208  us */\n      dup10\n        /* \"contracts/lib/crypto/Secp256k1.sol\":4209:4210  0 */\n      0x0\n        /* \"contracts/lib/crypto/Secp256k1.sol\":4206:4211  us[0] */\n      0x4\n      dup2\n      lt\n      iszero\n      iszero\n      tag_276\n      jumpi\n      invalid\n    tag_276:\n      0x20\n      mul\n      add\n      mload\n        /* \"contracts/lib/crypto/Secp256k1.sol\":4199:4219  mulmod(us[0], h2, p) */\n      mulmod\n        /* \"contracts/lib/crypto/Secp256k1.sol\":4196:4197  2 */\n      0x2\n        /* \"contracts/lib/crypto/Secp256k1.sol\":4189:4223  mulmod(2, mulmod(us[0], h2, p), p) */\n      mulmod\n        /* \"contracts/lib/crypto/Secp256k1.sol\":4185:4186  p */\n      dup10\n        /* \"contracts/lib/crypto/Secp256k1.sol\":4185:4223  p - mulmod(2, mulmod(us[0], h2, p), p) */\n      sub\n        /* \"contracts/lib/crypto/Secp256k1.sol\":4181:4183  Rx */\n      dup3\n        /* \"contracts/lib/crypto/Secp256k1.sol\":4174:4227  addmod(Rx, p - mulmod(2, mulmod(us[0], h2, p), p), p) */\n      addmod\n        /* \"contracts/lib/crypto/Secp256k1.sol\":4169:4227  Rx = addmod(Rx, p - mulmod(2, mulmod(us[0], h2, p), p), p) */\n      swap1\n      pop\n        /* \"contracts/lib/crypto/Secp256k1.sol\":4244:4246  Rx */\n      dup1\n        /* \"contracts/lib/crypto/Secp256k1.sol\":4237:4238  R */\n      dup10\n        /* \"contracts/lib/crypto/Secp256k1.sol\":4239:4240  0 */\n      0x0\n        /* \"contracts/lib/crypto/Secp256k1.sol\":4237:4241  R[0] */\n      0x3\n      dup2\n      lt\n      iszero\n      iszero\n      tag_277\n      jumpi\n      invalid\n    tag_277:\n      0x20\n      mul\n      add\n        /* \"contracts/lib/crypto/Secp256k1.sol\":4237:4246  R[0] = Rx */\n      dup2\n      dup2\n      mstore\n      pop\n      pop\n        /* \"contracts/lib/crypto/Secp256k1.sol\":4314:4315  p */\n      dup8\n        /* \"contracts/lib/crypto/Secp256k1.sol\":4263:4316  mulmod(r, addmod(mulmod(us[0], h2, p), p - Rx, p), p) */\n      dup1\n      iszero\n      iszero\n      tag_278\n      jumpi\n      invalid\n    tag_278:\n        /* \"contracts/lib/crypto/Secp256k1.sol\":4310:4311  p */\n      dup9\n        /* \"contracts/lib/crypto/Secp256k1.sol\":4273:4312  addmod(mulmod(us[0], h2, p), p - Rx, p) */\n      dup1\n      iszero\n      iszero\n      tag_279\n      jumpi\n      invalid\n    tag_279:\n        /* \"contracts/lib/crypto/Secp256k1.sol\":4306:4308  Rx */\n      dup3\n        /* \"contracts/lib/crypto/Secp256k1.sol\":4302:4303  p */\n      dup11\n        /* \"contracts/lib/crypto/Secp256k1.sol\":4302:4308  p - Rx */\n      sub\n        /* \"contracts/lib/crypto/Secp256k1.sol\":4298:4299  p */\n      dup11\n        /* \"contracts/lib/crypto/Secp256k1.sol\":4280:4300  mulmod(us[0], h2, p) */\n      dup1\n      iszero\n      iszero\n      tag_280\n      jumpi\n      invalid\n    tag_280:\n        /* \"contracts/lib/crypto/Secp256k1.sol\":4294:4296  h2 */\n      dup7\n        /* \"contracts/lib/crypto/Secp256k1.sol\":4287:4289  us */\n      dup11\n        /* \"contracts/lib/crypto/Secp256k1.sol\":4290:4291  0 */\n      0x0\n        /* \"contracts/lib/crypto/Secp256k1.sol\":4287:4292  us[0] */\n      0x4\n      dup2\n      lt\n      iszero\n      iszero\n      tag_281\n      jumpi\n      invalid\n    tag_281:\n      0x20\n      mul\n      add\n      mload\n        /* \"contracts/lib/crypto/Secp256k1.sol\":4280:4300  mulmod(us[0], h2, p) */\n      mulmod\n        /* \"contracts/lib/crypto/Secp256k1.sol\":4273:4312  addmod(mulmod(us[0], h2, p), p - Rx, p) */\n      addmod\n        /* \"contracts/lib/crypto/Secp256k1.sol\":4270:4271  r */\n      dup6\n        /* \"contracts/lib/crypto/Secp256k1.sol\":4263:4316  mulmod(r, addmod(mulmod(us[0], h2, p), p - Rx, p), p) */\n      mulmod\n        /* \"contracts/lib/crypto/Secp256k1.sol\":4256:4257  R */\n      dup10\n        /* \"contracts/lib/crypto/Secp256k1.sol\":4258:4259  1 */\n      0x1\n        /* \"contracts/lib/crypto/Secp256k1.sol\":4256:4260  R[1] */\n      0x3\n      dup2\n      lt\n      iszero\n      iszero\n      tag_282\n      jumpi\n      invalid\n    tag_282:\n      0x20\n      mul\n      add\n        /* \"contracts/lib/crypto/Secp256k1.sol\":4256:4316  R[1] = mulmod(r, addmod(mulmod(us[0], h2, p), p - Rx, p), p) */\n      dup2\n      dup2\n      mstore\n      pop\n      pop\n        /* \"contracts/lib/crypto/Secp256k1.sol\":4372:4373  p */\n      dup8\n        /* \"contracts/lib/crypto/Secp256k1.sol\":4333:4374  addmod(R[1], p - mulmod(us[1], h3, p), p) */\n      dup1\n      iszero\n      iszero\n      tag_283\n      jumpi\n      invalid\n    tag_283:\n        /* \"contracts/lib/crypto/Secp256k1.sol\":4368:4369  p */\n      dup9\n        /* \"contracts/lib/crypto/Secp256k1.sol\":4350:4370  mulmod(us[1], h3, p) */\n      dup1\n      iszero\n      iszero\n      tag_284\n      jumpi\n      invalid\n    tag_284:\n        /* \"contracts/lib/crypto/Secp256k1.sol\":4364:4366  h3 */\n      dup4\n        /* \"contracts/lib/crypto/Secp256k1.sol\":4357:4359  us */\n      dup9\n        /* \"contracts/lib/crypto/Secp256k1.sol\":4360:4361  1 */\n      0x1\n        /* \"contracts/lib/crypto/Secp256k1.sol\":4357:4362  us[1] */\n      0x4\n      dup2\n      lt\n      iszero\n      iszero\n      tag_285\n      jumpi\n      invalid\n    tag_285:\n      0x20\n      mul\n      add\n      mload\n        /* \"contracts/lib/crypto/Secp256k1.sol\":4350:4370  mulmod(us[1], h3, p) */\n      mulmod\n        /* \"contracts/lib/crypto/Secp256k1.sol\":4346:4347  p */\n      dup10\n        /* \"contracts/lib/crypto/Secp256k1.sol\":4346:4370  p - mulmod(us[1], h3, p) */\n      sub\n        /* \"contracts/lib/crypto/Secp256k1.sol\":4340:4341  R */\n      dup11\n        /* \"contracts/lib/crypto/Secp256k1.sol\":4342:4343  1 */\n      0x1\n        /* \"contracts/lib/crypto/Secp256k1.sol\":4340:4344  R[1] */\n      0x3\n      dup2\n      lt\n      iszero\n      iszero\n      tag_286\n      jumpi\n      invalid\n    tag_286:\n      0x20\n      mul\n      add\n      mload\n        /* \"contracts/lib/crypto/Secp256k1.sol\":4333:4374  addmod(R[1], p - mulmod(us[1], h3, p), p) */\n      addmod\n        /* \"contracts/lib/crypto/Secp256k1.sol\":4326:4327  R */\n      dup10\n        /* \"contracts/lib/crypto/Secp256k1.sol\":4328:4329  1 */\n      0x1\n        /* \"contracts/lib/crypto/Secp256k1.sol\":4326:4330  R[1] */\n      0x3\n      dup2\n      lt\n      iszero\n      iszero\n      tag_287\n      jumpi\n      invalid\n    tag_287:\n      0x20\n      mul\n      add\n        /* \"contracts/lib/crypto/Secp256k1.sol\":4326:4374  R[1] = addmod(R[1], p - mulmod(us[1], h3, p), p) */\n      dup2\n      dup2\n      mstore\n      pop\n      pop\n        /* \"contracts/lib/crypto/Secp256k1.sol\":4424:4425  p */\n      dup8\n        /* \"contracts/lib/crypto/Secp256k1.sol\":4391:4426  mulmod(h, mulmod(P[2], Q[2], p), p) */\n      dup1\n      iszero\n      iszero\n      tag_288\n      jumpi\n      invalid\n    tag_288:\n        /* \"contracts/lib/crypto/Secp256k1.sol\":4420:4421  p */\n      dup9\n        /* \"contracts/lib/crypto/Secp256k1.sol\":4401:4422  mulmod(P[2], Q[2], p) */\n      dup1\n      iszero\n      iszero\n      tag_289\n      jumpi\n      invalid\n    tag_289:\n        /* \"contracts/lib/crypto/Secp256k1.sol\":4414:4415  Q */\n      dup12\n        /* \"contracts/lib/crypto/Secp256k1.sol\":4416:4417  2 */\n      0x2\n        /* \"contracts/lib/crypto/Secp256k1.sol\":4414:4418  Q[2] */\n      0x3\n      dup2\n      lt\n      iszero\n      iszero\n      tag_290\n      jumpi\n      invalid\n    tag_290:\n      0x20\n      mul\n      add\n      mload\n        /* \"contracts/lib/crypto/Secp256k1.sol\":4408:4409  P */\n      dup14\n        /* \"contracts/lib/crypto/Secp256k1.sol\":4410:4411  2 */\n      0x2\n        /* \"contracts/lib/crypto/Secp256k1.sol\":4408:4412  P[2] */\n      0x3\n      dup2\n      lt\n      iszero\n      iszero\n      tag_291\n      jumpi\n      invalid\n    tag_291:\n      0x20\n      mul\n      add\n      mload\n        /* \"contracts/lib/crypto/Secp256k1.sol\":4401:4422  mulmod(P[2], Q[2], p) */\n      mulmod\n        /* \"contracts/lib/crypto/Secp256k1.sol\":4398:4399  h */\n      dup7\n        /* \"contracts/lib/crypto/Secp256k1.sol\":4391:4426  mulmod(h, mulmod(P[2], Q[2], p), p) */\n      mulmod\n        /* \"contracts/lib/crypto/Secp256k1.sol\":4384:4385  R */\n      dup10\n        /* \"contracts/lib/crypto/Secp256k1.sol\":4386:4387  2 */\n      0x2\n        /* \"contracts/lib/crypto/Secp256k1.sol\":4384:4388  R[2] */\n      0x3\n      dup2\n      lt\n      iszero\n      iszero\n      tag_292\n      jumpi\n      invalid\n    tag_292:\n      0x20\n      mul\n      add\n        /* \"contracts/lib/crypto/Secp256k1.sol\":4384:4426  R[2] = mulmod(h, mulmod(P[2], Q[2], p), p) */\n      dup2\n      dup2\n      mstore\n      pop\n      pop\n        /* \"contracts/lib/crypto/Secp256k1.sol\":3161:4433  function _add(uint[3] memory P, uint[3] memory Q) internal constant returns (uint[3] memory R) {... */\n    tag_222:\n      pop\n      pop\n      pop\n      pop\n      pop\n      pop\n      pop\n      pop\n      swap3\n      swap2\n      pop\n      pop\n      jump\t// out\n        /* \"contracts/lib/crypto/Secp256k1.sol\":7309:7883  function _double(uint[3] memory P) internal constant returns (uint[3] memory Q) {... */\n    tag_107:\n        /* \"contracts/lib/crypto/Secp256k1.sol\":7371:7387  uint[3] memory Q */\n      tag_293\n      jump\t// in(tag_21)\n    tag_293:\n        /* \"contracts/lib/crypto/Secp256k1.sol\":7399:7405  uint p */\n      0x0\n        /* \"contracts/lib/crypto/Secp256k1.sol\":7463:7470  uint Px */\n      dup1\n        /* \"contracts/lib/crypto/Secp256k1.sol\":7487:7494  uint Py */\n      0x0\n        /* \"contracts/lib/crypto/Secp256k1.sol\":7511:7519  uint Py2 */\n      dup1\n        /* \"contracts/lib/crypto/Secp256k1.sol\":7549:7555  uint s */\n      0x0\n        /* \"contracts/lib/crypto/Secp256k1.sol\":7600:7606  uint m */\n      dup1\n        /* \"contracts/lib/crypto/Secp256k1.sol\":7650:7656  var Qx */\n      0x0\n        /* \"contracts/lib/crypto/Secp256k1.sol\":487:553  0xFFFFFFFFFFFFFFFFFFFFFFFFFFFFFFFFFFFFFFFFFFFFFFFFFFFFFFFEFFFFFC2F */\n      0xfffffffffffffffffffffffffffffffffffffffffffffffffffffffefffffc2f\n        /* \"contracts/lib/crypto/Secp256k1.sol\":7399:7410  uint p = pp */\n      swap7\n      pop\n        /* \"contracts/lib/crypto/Secp256k1.sol\":7432:7433  0 */\n      0x0\n        /* \"contracts/lib/crypto/Secp256k1.sol\":7424:7425  P */\n      dup10\n        /* \"contracts/lib/crypto/Secp256k1.sol\":7426:7427  2 */\n      0x2\n        /* \"contracts/lib/crypto/Secp256k1.sol\":7424:7428  P[2] */\n      0x3\n      dup2\n      lt\n      iszero\n      iszero\n      tag_295\n      jumpi\n      invalid\n    tag_295:\n      0x20\n      mul\n      add\n      mload\n        /* \"contracts/lib/crypto/Secp256k1.sol\":7424:7433  P[2] == 0 */\n      eq\n        /* \"contracts/lib/crypto/Secp256k1.sol\":7420:7454  if (P[2] == 0)... */\n      iszero\n      tag_296\n      jumpi\n        /* \"contracts/lib/crypto/Secp256k1.sol\":7447:7454  return; */\n      jump(tag_294)\n        /* \"contracts/lib/crypto/Secp256k1.sol\":7420:7454  if (P[2] == 0)... */\n    tag_296:\n        /* \"contracts/lib/crypto/Secp256k1.sol\":7473:7474  P */\n      dup9\n        /* \"contracts/lib/crypto/Secp256k1.sol\":7475:7476  0 */\n      0x0\n        /* \"contracts/lib/crypto/Secp256k1.sol\":7473:7477  P[0] */\n      0x3\n      dup2\n      lt\n      iszero\n      iszero\n      tag_297\n      jumpi\n      invalid\n    tag_297:\n      0x20\n      mul\n      add\n      mload\n        /* \"contracts/lib/crypto/Secp256k1.sol\":7463:7477  uint Px = P[0] */\n      swap6\n      pop\n        /* \"contracts/lib/crypto/Secp256k1.sol\":7497:7498  P */\n      dup9\n        /* \"contracts/lib/crypto/Secp256k1.sol\":7499:7500  1 */\n      0x1\n        /* \"contracts/lib/crypto/Secp256k1.sol\":7497:7501  P[1] */\n      0x3\n      dup2\n      lt\n      iszero\n      iszero\n      tag_298\n      jumpi\n      invalid\n    tag_298:\n      0x20\n      mul\n      add\n      mload\n        /* \"contracts/lib/crypto/Secp256k1.sol\":7487:7501  uint Py = P[1] */\n      swap5\n      pop\n        /* \"contracts/lib/crypto/Secp256k1.sol\":7537:7538  p */\n      dup7\n        /* \"contracts/lib/crypto/Secp256k1.sol\":7522:7539  mulmod(Py, Py, p) */\n      dup1\n      iszero\n      iszero\n      tag_299\n      jumpi\n      invalid\n    tag_299:\n        /* \"contracts/lib/crypto/Secp256k1.sol\":7533:7535  Py */\n      dup6\n        /* \"contracts/lib/crypto/Secp256k1.sol\":7529:7531  Py */\n      dup7\n        /* \"contracts/lib/crypto/Secp256k1.sol\":7522:7539  mulmod(Py, Py, p) */\n      mulmod\n        /* \"contracts/lib/crypto/Secp256k1.sol\":7511:7539  uint Py2 = mulmod(Py, Py, p) */\n      swap4\n      pop\n        /* \"contracts/lib/crypto/Secp256k1.sol\":7588:7589  p */\n      dup7\n        /* \"contracts/lib/crypto/Secp256k1.sol\":7558:7590  mulmod(4, mulmod(Px, Py2, p), p) */\n      dup1\n      iszero\n      iszero\n      tag_300\n      jumpi\n      invalid\n    tag_300:\n        /* \"contracts/lib/crypto/Secp256k1.sol\":7584:7585  p */\n      dup8\n        /* \"contracts/lib/crypto/Secp256k1.sol\":7568:7586  mulmod(Px, Py2, p) */\n      dup1\n      iszero\n      iszero\n      tag_301\n      jumpi\n      invalid\n    tag_301:\n        /* \"contracts/lib/crypto/Secp256k1.sol\":7579:7582  Py2 */\n      dup6\n        /* \"contracts/lib/crypto/Secp256k1.sol\":7575:7577  Px */\n      dup9\n        /* \"contracts/lib/crypto/Secp256k1.sol\":7568:7586  mulmod(Px, Py2, p) */\n      mulmod\n        /* \"contracts/lib/crypto/Secp256k1.sol\":7565:7566  4 */\n      0x4\n        /* \"contracts/lib/crypto/Secp256k1.sol\":7558:7590  mulmod(4, mulmod(Px, Py2, p), p) */\n      mulmod\n        /* \"contracts/lib/crypto/Secp256k1.sol\":7549:7590  uint s = mulmod(4, mulmod(Px, Py2, p), p) */\n      swap3\n      pop\n        /* \"contracts/lib/crypto/Secp256k1.sol\":7638:7639  p */\n      dup7\n        /* \"contracts/lib/crypto/Secp256k1.sol\":7609:7640  mulmod(3, mulmod(Px, Px, p), p) */\n      dup1\n      iszero\n      iszero\n      tag_302\n      jumpi\n      invalid\n    tag_302:\n        /* \"contracts/lib/crypto/Secp256k1.sol\":7634:7635  p */\n      dup8\n        /* \"contracts/lib/crypto/Secp256k1.sol\":7619:7636  mulmod(Px, Px, p) */\n      dup1\n      iszero\n      iszero\n      tag_303\n      jumpi\n      invalid\n    tag_303:\n        /* \"contracts/lib/crypto/Secp256k1.sol\":7630:7632  Px */\n      dup8\n        /* \"contracts/lib/crypto/Secp256k1.sol\":7626:7628  Px */\n      dup9\n        /* \"contracts/lib/crypto/Secp256k1.sol\":7619:7636  mulmod(Px, Px, p) */\n      mulmod\n        /* \"contracts/lib/crypto/Secp256k1.sol\":7616:7617  3 */\n      0x3\n        /* \"contracts/lib/crypto/Secp256k1.sol\":7609:7640  mulmod(3, mulmod(Px, Px, p), p) */\n      mulmod\n        /* \"contracts/lib/crypto/Secp256k1.sol\":7600:7640  uint m = mulmod(3, mulmod(Px, Px, p), p) */\n      swap2\n      pop\n        /* \"contracts/lib/crypto/Secp256k1.sol\":7704:7705  p */\n      dup7\n        /* \"contracts/lib/crypto/Secp256k1.sol\":7659:7706  addmod(mulmod(m, m, p), p - addmod(s, s, p), p) */\n      dup1\n      iszero\n      iszero\n      tag_304\n      jumpi\n      invalid\n    tag_304:\n        /* \"contracts/lib/crypto/Secp256k1.sol\":7700:7701  p */\n      dup8\n        /* \"contracts/lib/crypto/Secp256k1.sol\":7687:7702  addmod(s, s, p) */\n      dup1\n      iszero\n      iszero\n      tag_305\n      jumpi\n      invalid\n    tag_305:\n        /* \"contracts/lib/crypto/Secp256k1.sol\":7697:7698  s */\n      dup5\n        /* \"contracts/lib/crypto/Secp256k1.sol\":7694:7695  s */\n      dup6\n        /* \"contracts/lib/crypto/Secp256k1.sol\":7687:7702  addmod(s, s, p) */\n      addmod\n        /* \"contracts/lib/crypto/Secp256k1.sol\":7683:7684  p */\n      dup9\n        /* \"contracts/lib/crypto/Secp256k1.sol\":7683:7702  p - addmod(s, s, p) */\n      sub\n        /* \"contracts/lib/crypto/Secp256k1.sol\":7679:7680  p */\n      dup9\n        /* \"contracts/lib/crypto/Secp256k1.sol\":7666:7681  mulmod(m, m, p) */\n      dup1\n      iszero\n      iszero\n      tag_306\n      jumpi\n      invalid\n    tag_306:\n        /* \"contracts/lib/crypto/Secp256k1.sol\":7676:7677  m */\n      dup5\n        /* \"contracts/lib/crypto/Secp256k1.sol\":7673:7674  m */\n      dup6\n        /* \"contracts/lib/crypto/Secp256k1.sol\":7666:7681  mulmod(m, m, p) */\n      mulmod\n        /* \"contracts/lib/crypto/Secp256k1.sol\":7659:7706  addmod(mulmod(m, m, p), p - addmod(s, s, p), p) */\n      addmod\n        /* \"contracts/lib/crypto/Secp256k1.sol\":7650:7706  var Qx = addmod(mulmod(m, m, p), p - addmod(s, s, p), p) */\n      swap1\n      pop\n        /* \"contracts/lib/crypto/Secp256k1.sol\":7723:7725  Qx */\n      dup1\n        /* \"contracts/lib/crypto/Secp256k1.sol\":7716:7717  Q */\n      dup9\n        /* \"contracts/lib/crypto/Secp256k1.sol\":7718:7719  0 */\n      0x0\n        /* \"contracts/lib/crypto/Secp256k1.sol\":7716:7720  Q[0] */\n      0x3\n      dup2\n      lt\n      iszero\n      iszero\n      tag_307\n      jumpi\n      invalid\n    tag_307:\n      0x20\n      mul\n      add\n        /* \"contracts/lib/crypto/Secp256k1.sol\":7716:7725  Q[0] = Qx */\n      dup2\n      dup2\n      mstore\n      pop\n      pop\n        /* \"contracts/lib/crypto/Secp256k1.sol\":7824:7825  p */\n      dup7\n        /* \"contracts/lib/crypto/Secp256k1.sol\":7742:7826  addmod(mulmod(m, addmod(s, p - Qx, p), p), p - mulmod(8, mulmod(Py2, Py2, p), p), p) */\n      dup1\n      iszero\n      iszero\n      tag_308\n      jumpi\n      invalid\n    tag_308:\n        /* \"contracts/lib/crypto/Secp256k1.sol\":7820:7821  p */\n      dup8\n        /* \"contracts/lib/crypto/Secp256k1.sol\":7789:7822  mulmod(8, mulmod(Py2, Py2, p), p) */\n      dup1\n      iszero\n      iszero\n      tag_309\n      jumpi\n      invalid\n    tag_309:\n        /* \"contracts/lib/crypto/Secp256k1.sol\":7816:7817  p */\n      dup9\n        /* \"contracts/lib/crypto/Secp256k1.sol\":7799:7818  mulmod(Py2, Py2, p) */\n      dup1\n      iszero\n      iszero\n      tag_310\n      jumpi\n      invalid\n    tag_310:\n        /* \"contracts/lib/crypto/Secp256k1.sol\":7811:7814  Py2 */\n      dup7\n        /* \"contracts/lib/crypto/Secp256k1.sol\":7806:7809  Py2 */\n      dup8\n        /* \"contracts/lib/crypto/Secp256k1.sol\":7799:7818  mulmod(Py2, Py2, p) */\n      mulmod\n        /* \"contracts/lib/crypto/Secp256k1.sol\":7796:7797  8 */\n      0x8\n        /* \"contracts/lib/crypto/Secp256k1.sol\":7789:7822  mulmod(8, mulmod(Py2, Py2, p), p) */\n      mulmod\n        /* \"contracts/lib/crypto/Secp256k1.sol\":7785:7786  p */\n      dup9\n        /* \"contracts/lib/crypto/Secp256k1.sol\":7785:7822  p - mulmod(8, mulmod(Py2, Py2, p), p) */\n      sub\n        /* \"contracts/lib/crypto/Secp256k1.sol\":7781:7782  p */\n      dup9\n        /* \"contracts/lib/crypto/Secp256k1.sol\":7749:7783  mulmod(m, addmod(s, p - Qx, p), p) */\n      dup1\n      iszero\n      iszero\n      tag_311\n      jumpi\n      invalid\n    tag_311:\n        /* \"contracts/lib/crypto/Secp256k1.sol\":7777:7778  p */\n      dup10\n        /* \"contracts/lib/crypto/Secp256k1.sol\":7759:7779  addmod(s, p - Qx, p) */\n      dup1\n      iszero\n      iszero\n      tag_312\n      jumpi\n      invalid\n    tag_312:\n        /* \"contracts/lib/crypto/Secp256k1.sol\":7773:7775  Qx */\n      dup5\n        /* \"contracts/lib/crypto/Secp256k1.sol\":7769:7770  p */\n      dup12\n        /* \"contracts/lib/crypto/Secp256k1.sol\":7769:7775  p - Qx */\n      sub\n        /* \"contracts/lib/crypto/Secp256k1.sol\":7766:7767  s */\n      dup8\n        /* \"contracts/lib/crypto/Secp256k1.sol\":7759:7779  addmod(s, p - Qx, p) */\n      addmod\n        /* \"contracts/lib/crypto/Secp256k1.sol\":7756:7757  m */\n      dup6\n        /* \"contracts/lib/crypto/Secp256k1.sol\":7749:7783  mulmod(m, addmod(s, p - Qx, p), p) */\n      mulmod\n        /* \"contracts/lib/crypto/Secp256k1.sol\":7742:7826  addmod(mulmod(m, addmod(s, p - Qx, p), p), p - mulmod(8, mulmod(Py2, Py2, p), p), p) */\n      addmod\n        /* \"contracts/lib/crypto/Secp256k1.sol\":7735:7736  Q */\n      dup9\n        /* \"contracts/lib/crypto/Secp256k1.sol\":7737:7738  1 */\n      0x1\n        /* \"contracts/lib/crypto/Secp256k1.sol\":7735:7739  Q[1] */\n      0x3\n      dup2\n      lt\n      iszero\n      iszero\n      tag_313\n      jumpi\n      invalid\n    tag_313:\n      0x20\n      mul\n      add\n        /* \"contracts/lib/crypto/Secp256k1.sol\":7735:7826  Q[1] = addmod(mulmod(m, addmod(s, p - Qx, p), p), p - mulmod(8, mulmod(Py2, Py2, p), p), p) */\n      dup2\n      dup2\n      mstore\n      pop\n      pop\n        /* \"contracts/lib/crypto/Secp256k1.sol\":7874:7875  p */\n      dup7\n        /* \"contracts/lib/crypto/Secp256k1.sol\":7843:7876  mulmod(2, mulmod(Py, P[2], p), p) */\n      dup1\n      iszero\n      iszero\n      tag_314\n      jumpi\n      invalid\n    tag_314:\n        /* \"contracts/lib/crypto/Secp256k1.sol\":7870:7871  p */\n      dup8\n        /* \"contracts/lib/crypto/Secp256k1.sol\":7853:7872  mulmod(Py, P[2], p) */\n      dup1\n      iszero\n      iszero\n      tag_315\n      jumpi\n      invalid\n    tag_315:\n        /* \"contracts/lib/crypto/Secp256k1.sol\":7864:7865  P */\n      dup11\n        /* \"contracts/lib/crypto/Secp256k1.sol\":7866:7867  2 */\n      0x2\n        /* \"contracts/lib/crypto/Secp256k1.sol\":7864:7868  P[2] */\n      0x3\n      dup2\n      lt\n      iszero\n      iszero\n      tag_316\n      jumpi\n      invalid\n    tag_316:\n      0x20\n      mul\n      add\n      mload\n        /* \"contracts/lib/crypto/Secp256k1.sol\":7860:7862  Py */\n      dup8\n        /* \"contracts/lib/crypto/Secp256k1.sol\":7853:7872  mulmod(Py, P[2], p) */\n      mulmod\n        /* \"contracts/lib/crypto/Secp256k1.sol\":7850:7851  2 */\n      0x2\n        /* \"contracts/lib/crypto/Secp256k1.sol\":7843:7876  mulmod(2, mulmod(Py, P[2], p), p) */\n      mulmod\n        /* \"contracts/lib/crypto/Secp256k1.sol\":7836:7837  Q */\n      dup9\n        /* \"contracts/lib/crypto/Secp256k1.sol\":7838:7839  2 */\n      0x2\n        /* \"contracts/lib/crypto/Secp256k1.sol\":7836:7840  Q[2] */\n      0x3\n      dup2\n      lt\n      iszero\n      iszero\n      tag_317\n      jumpi\n      invalid\n    tag_317:\n      0x20\n      mul\n      add\n        /* \"contracts/lib/crypto/Secp256k1.sol\":7836:7876  Q[2] = mulmod(2, mulmod(Py, P[2], p), p) */\n      dup2\n      dup2\n      mstore\n      pop\n      pop\n        /* \"contracts/lib/crypto/Secp256k1.sol\":7309:7883  function _double(uint[3] memory P) internal constant returns (uint[3] memory Q) {... */\n    tag_294:\n      pop\n      pop\n      pop\n      pop\n      pop\n      pop\n      pop\n      swap2\n      swap1\n      pop\n      jump\t// out\n        /* \"contracts/lib/crypto/Secp256k1.sol\":4552:5822  function _addMixed(uint[3] memory P, uint[2] memory Q) internal constant returns (uint[3] memory R) {... */\n    tag_109:\n        /* \"contracts/lib/crypto/Secp256k1.sol\":4634:4650  uint[3] memory R */\n      tag_318\n      jump\t// in(tag_21)\n    tag_318:\n        /* \"contracts/lib/crypto/Secp256k1.sol\":4764:4770  uint p */\n      0x0\n        /* \"contracts/lib/crypto/Secp256k1.sol\":4785:4802  uint[2] memory zs */\n      tag_319\n      jump\t// in(tag_320)\n    tag_319:\n        /* \"contracts/lib/crypto/Secp256k1.sol\":4917:4934  uint[4] memory us */\n      tag_321\n      jump\t// in(tag_220)\n    tag_321:\n        /* \"contracts/lib/crypto/Secp256k1.sol\":5358:5364  uint h */\n      0x0\n        /* \"contracts/lib/crypto/Secp256k1.sol\":5404:5410  uint r */\n      dup1\n        /* \"contracts/lib/crypto/Secp256k1.sol\":5450:5457  uint h2 */\n      0x0\n        /* \"contracts/lib/crypto/Secp256k1.sol\":5485:5492  uint h3 */\n      dup1\n        /* \"contracts/lib/crypto/Secp256k1.sol\":5521:5528  uint Rx */\n      0x0\n        /* \"contracts/lib/crypto/Secp256k1.sol\":4673:4674  0 */\n      dup1\n        /* \"contracts/lib/crypto/Secp256k1.sol\":4665:4666  P */\n      dup12\n        /* \"contracts/lib/crypto/Secp256k1.sol\":4667:4668  2 */\n      0x2\n        /* \"contracts/lib/crypto/Secp256k1.sol\":4665:4669  P[2] */\n      0x3\n      dup2\n      lt\n      iszero\n      iszero\n      tag_323\n      jumpi\n      invalid\n    tag_323:\n      0x20\n      mul\n      add\n      mload\n        /* \"contracts/lib/crypto/Secp256k1.sol\":4665:4674  P[2] == 0 */\n      eq\n        /* \"contracts/lib/crypto/Secp256k1.sol\":4662:4710  if(P[2] == 0)... */\n      iszero\n      tag_324\n      jumpi\n        /* \"contracts/lib/crypto/Secp256k1.sol\":4688:4710  return [Q[0], Q[1], 1] */\n      0x60\n      mload(0x40)\n      swap1\n      dup2\n      add\n      0x40\n      mstore\n      dup1\n        /* \"contracts/lib/crypto/Secp256k1.sol\":4696:4697  Q */\n      dup12\n        /* \"contracts/lib/crypto/Secp256k1.sol\":4698:4699  0 */\n      0x0\n        /* \"contracts/lib/crypto/Secp256k1.sol\":4696:4700  Q[0] */\n      0x2\n      dup2\n      lt\n      iszero\n      iszero\n      tag_325\n      jumpi\n      invalid\n    tag_325:\n      0x20\n      mul\n      add\n      mload\n        /* \"contracts/lib/crypto/Secp256k1.sol\":4688:4710  return [Q[0], Q[1], 1] */\n      dup2\n      mstore\n      0x20\n      add\n        /* \"contracts/lib/crypto/Secp256k1.sol\":4702:4703  Q */\n      dup12\n        /* \"contracts/lib/crypto/Secp256k1.sol\":4704:4705  1 */\n      0x1\n        /* \"contracts/lib/crypto/Secp256k1.sol\":4702:4706  Q[1] */\n      0x2\n      dup2\n      lt\n      iszero\n      iszero\n      tag_326\n      jumpi\n      invalid\n    tag_326:\n      0x20\n      mul\n      add\n      mload\n        /* \"contracts/lib/crypto/Secp256k1.sol\":4688:4710  return [Q[0], Q[1], 1] */\n      dup2\n      mstore\n      0x20\n      add\n        /* \"contracts/lib/crypto/Secp256k1.sol\":4708:4709  1 */\n      0x1\n        /* \"contracts/lib/crypto/Secp256k1.sol\":4688:4710  return [Q[0], Q[1], 1] */\n      dup2\n      mstore\n      pop\n      swap9\n      pop\n      jump(tag_322)\n        /* \"contracts/lib/crypto/Secp256k1.sol\":4662:4710  if(P[2] == 0)... */\n    tag_324:\n        /* \"contracts/lib/crypto/Secp256k1.sol\":4731:4732  0 */\n      0x0\n        /* \"contracts/lib/crypto/Secp256k1.sol\":4723:4724  Q */\n      dup11\n        /* \"contracts/lib/crypto/Secp256k1.sol\":4725:4726  1 */\n      0x1\n        /* \"contracts/lib/crypto/Secp256k1.sol\":4723:4727  Q[1] */\n      0x2\n      dup2\n      lt\n      iszero\n      iszero\n      tag_327\n      jumpi\n      invalid\n    tag_327:\n      0x20\n      mul\n      add\n      mload\n        /* \"contracts/lib/crypto/Secp256k1.sol\":4723:4732  Q[1] == 0 */\n      eq\n        /* \"contracts/lib/crypto/Secp256k1.sol\":4720:4754  if(Q[1] == 0)... */\n      iszero\n      tag_328\n      jumpi\n        /* \"contracts/lib/crypto/Secp256k1.sol\":4753:4754  P */\n      dup11\n        /* \"contracts/lib/crypto/Secp256k1.sol\":4746:4754  return P */\n      swap9\n      pop\n      jump(tag_322)\n        /* \"contracts/lib/crypto/Secp256k1.sol\":4720:4754  if(Q[1] == 0)... */\n    tag_328:\n        /* \"contracts/lib/crypto/Secp256k1.sol\":487:553  0xFFFFFFFFFFFFFFFFFFFFFFFFFFFFFFFFFFFFFFFFFFFFFFFFFFFFFFFEFFFFFC2F */\n      0xfffffffffffffffffffffffffffffffffffffffffffffffffffffffefffffc2f\n        /* \"contracts/lib/crypto/Secp256k1.sol\":4764:4775  uint p = pp */\n      swap8\n      pop\n        /* \"contracts/lib/crypto/Secp256k1.sol\":4865:4866  p */\n      dup8\n        /* \"contracts/lib/crypto/Secp256k1.sol\":4846:4867  mulmod(P[2], P[2], p) */\n      dup1\n      iszero\n      iszero\n      tag_329\n      jumpi\n      invalid\n    tag_329:\n        /* \"contracts/lib/crypto/Secp256k1.sol\":4859:4860  P */\n      dup12\n        /* \"contracts/lib/crypto/Secp256k1.sol\":4861:4862  2 */\n      0x2\n        /* \"contracts/lib/crypto/Secp256k1.sol\":4859:4863  P[2] */\n      0x3\n      dup2\n      lt\n      iszero\n      iszero\n      tag_330\n      jumpi\n      invalid\n    tag_330:\n      0x20\n      mul\n      add\n      mload\n        /* \"contracts/lib/crypto/Secp256k1.sol\":4853:4854  P */\n      dup13\n        /* \"contracts/lib/crypto/Secp256k1.sol\":4855:4856  2 */\n      0x2\n        /* \"contracts/lib/crypto/Secp256k1.sol\":4853:4857  P[2] */\n      0x3\n      dup2\n      lt\n      iszero\n      iszero\n      tag_331\n      jumpi\n      invalid\n    tag_331:\n      0x20\n      mul\n      add\n      mload\n        /* \"contracts/lib/crypto/Secp256k1.sol\":4846:4867  mulmod(P[2], P[2], p) */\n      mulmod\n        /* \"contracts/lib/crypto/Secp256k1.sol\":4838:4840  zs */\n      dup8\n        /* \"contracts/lib/crypto/Secp256k1.sol\":4841:4842  0 */\n      0x0\n        /* \"contracts/lib/crypto/Secp256k1.sol\":4838:4843  zs[0] */\n      0x2\n      dup2\n      lt\n      iszero\n      iszero\n      tag_332\n      jumpi\n      invalid\n    tag_332:\n      0x20\n      mul\n      add\n        /* \"contracts/lib/crypto/Secp256k1.sol\":4838:4867  zs[0] = mulmod(P[2], P[2], p) */\n      dup2\n      dup2\n      mstore\n      pop\n      pop\n        /* \"contracts/lib/crypto/Secp256k1.sol\":4905:4906  p */\n      dup8\n        /* \"contracts/lib/crypto/Secp256k1.sol\":4885:4907  mulmod(P[2], zs[0], p) */\n      dup1\n      iszero\n      iszero\n      tag_333\n      jumpi\n      invalid\n    tag_333:\n        /* \"contracts/lib/crypto/Secp256k1.sol\":4898:4900  zs */\n      dup8\n        /* \"contracts/lib/crypto/Secp256k1.sol\":4901:4902  0 */\n      0x0\n        /* \"contracts/lib/crypto/Secp256k1.sol\":4898:4903  zs[0] */\n      0x2\n      dup2\n      lt\n      iszero\n      iszero\n      tag_334\n      jumpi\n      invalid\n    tag_334:\n      0x20\n      mul\n      add\n      mload\n        /* \"contracts/lib/crypto/Secp256k1.sol\":4892:4893  P */\n      dup13\n        /* \"contracts/lib/crypto/Secp256k1.sol\":4894:4895  2 */\n      0x2\n        /* \"contracts/lib/crypto/Secp256k1.sol\":4892:4896  P[2] */\n      0x3\n      dup2\n      lt\n      iszero\n      iszero\n      tag_335\n      jumpi\n      invalid\n    tag_335:\n      0x20\n      mul\n      add\n      mload\n        /* \"contracts/lib/crypto/Secp256k1.sol\":4885:4907  mulmod(P[2], zs[0], p) */\n      mulmod\n        /* \"contracts/lib/crypto/Secp256k1.sol\":4877:4879  zs */\n      dup8\n        /* \"contracts/lib/crypto/Secp256k1.sol\":4880:4881  1 */\n      0x1\n        /* \"contracts/lib/crypto/Secp256k1.sol\":4877:4882  zs[1] */\n      0x2\n      dup2\n      lt\n      iszero\n      iszero\n      tag_336\n      jumpi\n      invalid\n    tag_336:\n      0x20\n      mul\n      add\n        /* \"contracts/lib/crypto/Secp256k1.sol\":4877:4907  zs[1] = mulmod(P[2], zs[0], p) */\n      dup2\n      dup2\n      mstore\n      pop\n      pop\n        /* \"contracts/lib/crypto/Secp256k1.sol\":4917:5055  uint[4] memory us = [... */\n      0x80\n      mload(0x40)\n      swap1\n      dup2\n      add\n      0x40\n      mstore\n      dup1\n        /* \"contracts/lib/crypto/Secp256k1.sol\":4951:4952  P */\n      dup13\n        /* \"contracts/lib/crypto/Secp256k1.sol\":4953:4954  0 */\n      0x0\n        /* \"contracts/lib/crypto/Secp256k1.sol\":4951:4955  P[0] */\n      0x3\n      dup2\n      lt\n      iszero\n      iszero\n      tag_337\n      jumpi\n      invalid\n    tag_337:\n      0x20\n      mul\n      add\n      mload\n        /* \"contracts/lib/crypto/Secp256k1.sol\":4917:5055  uint[4] memory us = [... */\n      dup2\n      mstore\n      0x20\n      add\n        /* \"contracts/lib/crypto/Secp256k1.sol\":4969:4970  P */\n      dup13\n        /* \"contracts/lib/crypto/Secp256k1.sol\":4971:4972  1 */\n      0x1\n        /* \"contracts/lib/crypto/Secp256k1.sol\":4969:4973  P[1] */\n      0x3\n      dup2\n      lt\n      iszero\n      iszero\n      tag_338\n      jumpi\n      invalid\n    tag_338:\n      0x20\n      mul\n      add\n      mload\n        /* \"contracts/lib/crypto/Secp256k1.sol\":4917:5055  uint[4] memory us = [... */\n      dup2\n      mstore\n      0x20\n      add\n        /* \"contracts/lib/crypto/Secp256k1.sol\":5007:5008  p */\n      dup10\n        /* \"contracts/lib/crypto/Secp256k1.sol\":4987:5009  mulmod(Q[0], zs[0], p) */\n      dup1\n      iszero\n      iszero\n      tag_339\n      jumpi\n      invalid\n    tag_339:\n        /* \"contracts/lib/crypto/Secp256k1.sol\":5000:5002  zs */\n      dup10\n        /* \"contracts/lib/crypto/Secp256k1.sol\":5003:5004  0 */\n      0x0\n        /* \"contracts/lib/crypto/Secp256k1.sol\":5000:5005  zs[0] */\n      0x2\n      dup2\n      lt\n      iszero\n      iszero\n      tag_340\n      jumpi\n      invalid\n    tag_340:\n      0x20\n      mul\n      add\n      mload\n        /* \"contracts/lib/crypto/Secp256k1.sol\":4994:4995  Q */\n      dup14\n        /* \"contracts/lib/crypto/Secp256k1.sol\":4996:4997  0 */\n      0x0\n        /* \"contracts/lib/crypto/Secp256k1.sol\":4994:4998  Q[0] */\n      0x2\n      dup2\n      lt\n      iszero\n      iszero\n      tag_341\n      jumpi\n      invalid\n    tag_341:\n      0x20\n      mul\n      add\n      mload\n        /* \"contracts/lib/crypto/Secp256k1.sol\":4987:5009  mulmod(Q[0], zs[0], p) */\n      mulmod\n        /* \"contracts/lib/crypto/Secp256k1.sol\":4917:5055  uint[4] memory us = [... */\n      dup2\n      mstore\n      0x20\n      add\n        /* \"contracts/lib/crypto/Secp256k1.sol\":5043:5044  p */\n      dup10\n        /* \"contracts/lib/crypto/Secp256k1.sol\":5023:5045  mulmod(Q[1], zs[1], p) */\n      dup1\n      iszero\n      iszero\n      tag_342\n      jumpi\n      invalid\n    tag_342:\n        /* \"contracts/lib/crypto/Secp256k1.sol\":5036:5038  zs */\n      dup10\n        /* \"contracts/lib/crypto/Secp256k1.sol\":5039:5040  1 */\n      0x1\n        /* \"contracts/lib/crypto/Secp256k1.sol\":5036:5041  zs[1] */\n      0x2\n      dup2\n      lt\n      iszero\n      iszero\n      tag_343\n      jumpi\n      invalid\n    tag_343:\n      0x20\n      mul\n      add\n      mload\n        /* \"contracts/lib/crypto/Secp256k1.sol\":5030:5031  Q */\n      dup14\n        /* \"contracts/lib/crypto/Secp256k1.sol\":5032:5033  1 */\n      0x1\n        /* \"contracts/lib/crypto/Secp256k1.sol\":5030:5034  Q[1] */\n      0x2\n      dup2\n      lt\n      iszero\n      iszero\n      tag_344\n      jumpi\n      invalid\n    tag_344:\n      0x20\n      mul\n      add\n      mload\n        /* \"contracts/lib/crypto/Secp256k1.sol\":5023:5045  mulmod(Q[1], zs[1], p) */\n      mulmod\n        /* \"contracts/lib/crypto/Secp256k1.sol\":4917:5055  uint[4] memory us = [... */\n      dup2\n      mstore\n      pop\n      swap6\n      pop\n        /* \"contracts/lib/crypto/Secp256k1.sol\":5096:5098  us */\n      dup6\n        /* \"contracts/lib/crypto/Secp256k1.sol\":5099:5100  2 */\n      0x2\n        /* \"contracts/lib/crypto/Secp256k1.sol\":5096:5101  us[2] */\n      0x4\n      dup2\n      lt\n      iszero\n      iszero\n      tag_345\n      jumpi\n      invalid\n    tag_345:\n      0x20\n      mul\n      add\n      mload\n        /* \"contracts/lib/crypto/Secp256k1.sol\":5087:5089  us */\n      dup7\n        /* \"contracts/lib/crypto/Secp256k1.sol\":5090:5091  0 */\n      0x0\n        /* \"contracts/lib/crypto/Secp256k1.sol\":5087:5092  us[0] */\n      0x4\n      dup2\n      lt\n      iszero\n      iszero\n      tag_346\n      jumpi\n      invalid\n    tag_346:\n      0x20\n      mul\n      add\n      mload\n        /* \"contracts/lib/crypto/Secp256k1.sol\":5087:5101  us[0] == us[2] */\n      eq\n        /* \"contracts/lib/crypto/Secp256k1.sol\":5083:5349  if (us[0] == us[2]) {... */\n      iszero\n      tag_347\n      jumpi\n        /* \"contracts/lib/crypto/Secp256k1.sol\":5130:5132  us */\n      dup6\n        /* \"contracts/lib/crypto/Secp256k1.sol\":5133:5134  3 */\n      0x3\n        /* \"contracts/lib/crypto/Secp256k1.sol\":5130:5135  us[3] */\n      0x4\n      dup2\n      lt\n      iszero\n      iszero\n      tag_348\n      jumpi\n      invalid\n    tag_348:\n      0x20\n      mul\n      add\n      mload\n        /* \"contracts/lib/crypto/Secp256k1.sol\":5121:5123  us */\n      dup7\n        /* \"contracts/lib/crypto/Secp256k1.sol\":5124:5125  1 */\n      0x1\n        /* \"contracts/lib/crypto/Secp256k1.sol\":5121:5126  us[1] */\n      0x4\n      dup2\n      lt\n      iszero\n      iszero\n      tag_349\n      jumpi\n      invalid\n    tag_349:\n      0x20\n      mul\n      add\n      mload\n        /* \"contracts/lib/crypto/Secp256k1.sol\":5121:5135  us[1] != us[3] */\n      eq\n      iszero\n        /* \"contracts/lib/crypto/Secp256k1.sol\":5117:5339  if (us[1] != us[3]) {... */\n      iszero\n      tag_350\n      jumpi\n        /* \"contracts/lib/crypto/Secp256k1.sol\":5162:5163  0 */\n      0x0\n        /* \"contracts/lib/crypto/Secp256k1.sol\":5155:5156  P */\n      dup12\n        /* \"contracts/lib/crypto/Secp256k1.sol\":5157:5158  0 */\n      0x0\n        /* \"contracts/lib/crypto/Secp256k1.sol\":5155:5159  P[0] */\n      0x3\n      dup2\n      lt\n      iszero\n      iszero\n      tag_351\n      jumpi\n      invalid\n    tag_351:\n      0x20\n      mul\n      add\n        /* \"contracts/lib/crypto/Secp256k1.sol\":5155:5163  P[0] = 0 */\n      dup2\n      dup2\n      mstore\n      pop\n      pop\n        /* \"contracts/lib/crypto/Secp256k1.sol\":5188:5189  0 */\n      0x0\n        /* \"contracts/lib/crypto/Secp256k1.sol\":5181:5182  P */\n      dup12\n        /* \"contracts/lib/crypto/Secp256k1.sol\":5183:5184  1 */\n      0x1\n        /* \"contracts/lib/crypto/Secp256k1.sol\":5181:5185  P[1] */\n      0x3\n      dup2\n      lt\n      iszero\n      iszero\n      tag_352\n      jumpi\n      invalid\n    tag_352:\n      0x20\n      mul\n      add\n        /* \"contracts/lib/crypto/Secp256k1.sol\":5181:5189  P[1] = 0 */\n      dup2\n      dup2\n      mstore\n      pop\n      pop\n        /* \"contracts/lib/crypto/Secp256k1.sol\":5214:5215  0 */\n      0x0\n        /* \"contracts/lib/crypto/Secp256k1.sol\":5207:5208  P */\n      dup12\n        /* \"contracts/lib/crypto/Secp256k1.sol\":5209:5210  2 */\n      0x2\n        /* \"contracts/lib/crypto/Secp256k1.sol\":5207:5211  P[2] */\n      0x3\n      dup2\n      lt\n      iszero\n      iszero\n      tag_353\n      jumpi\n      invalid\n    tag_353:\n      0x20\n      mul\n      add\n        /* \"contracts/lib/crypto/Secp256k1.sol\":5207:5215  P[2] = 0 */\n      dup2\n      dup2\n      mstore\n      pop\n      pop\n        /* \"contracts/lib/crypto/Secp256k1.sol\":5233:5240  return; */\n      jump(tag_322)\n        /* \"contracts/lib/crypto/Secp256k1.sol\":5117:5339  if (us[1] != us[3]) {... */\n    tag_350:\n        /* \"contracts/lib/crypto/Secp256k1.sol\":5290:5300  _double(P) */\n      tag_355\n        /* \"contracts/lib/crypto/Secp256k1.sol\":5298:5299  P */\n      dup12\n        /* \"contracts/lib/crypto/Secp256k1.sol\":5290:5297  _double */\n      tag_107\n        /* \"contracts/lib/crypto/Secp256k1.sol\":5290:5300  _double(P) */\n      jump\t// in\n    tag_355:\n      pop\n        /* \"contracts/lib/crypto/Secp256k1.sol\":5318:5325  return; */\n      jump(tag_322)\n        /* \"contracts/lib/crypto/Secp256k1.sol\":5083:5349  if (us[0] == us[2]) {... */\n    tag_347:\n        /* \"contracts/lib/crypto/Secp256k1.sol\":5392:5393  p */\n      dup8\n        /* \"contracts/lib/crypto/Secp256k1.sol\":5367:5394  addmod(us[2], p - us[0], p) */\n      dup1\n      iszero\n      iszero\n      tag_356\n      jumpi\n      invalid\n    tag_356:\n        /* \"contracts/lib/crypto/Secp256k1.sol\":5385:5387  us */\n      dup7\n        /* \"contracts/lib/crypto/Secp256k1.sol\":5388:5389  0 */\n      0x0\n        /* \"contracts/lib/crypto/Secp256k1.sol\":5385:5390  us[0] */\n      0x4\n      dup2\n      lt\n      iszero\n      iszero\n      tag_357\n      jumpi\n      invalid\n    tag_357:\n      0x20\n      mul\n      add\n      mload\n        /* \"contracts/lib/crypto/Secp256k1.sol\":5381:5382  p */\n      dup10\n        /* \"contracts/lib/crypto/Secp256k1.sol\":5381:5390  p - us[0] */\n      sub\n        /* \"contracts/lib/crypto/Secp256k1.sol\":5374:5376  us */\n      dup8\n        /* \"contracts/lib/crypto/Secp256k1.sol\":5377:5378  2 */\n      0x2\n        /* \"contracts/lib/crypto/Secp256k1.sol\":5374:5379  us[2] */\n      0x4\n      dup2\n      lt\n      iszero\n      iszero\n      tag_358\n      jumpi\n      invalid\n    tag_358:\n      0x20\n      mul\n      add\n      mload\n        /* \"contracts/lib/crypto/Secp256k1.sol\":5367:5394  addmod(us[2], p - us[0], p) */\n      addmod\n        /* \"contracts/lib/crypto/Secp256k1.sol\":5358:5394  uint h = addmod(us[2], p - us[0], p) */\n      swap5\n      pop\n        /* \"contracts/lib/crypto/Secp256k1.sol\":5438:5439  p */\n      dup8\n        /* \"contracts/lib/crypto/Secp256k1.sol\":5413:5440  addmod(us[3], p - us[1], p) */\n      dup1\n      iszero\n      iszero\n      tag_359\n      jumpi\n      invalid\n    tag_359:\n        /* \"contracts/lib/crypto/Secp256k1.sol\":5431:5433  us */\n      dup7\n        /* \"contracts/lib/crypto/Secp256k1.sol\":5434:5435  1 */\n      0x1\n        /* \"contracts/lib/crypto/Secp256k1.sol\":5431:5436  us[1] */\n      0x4\n      dup2\n      lt\n      iszero\n      iszero\n      tag_360\n      jumpi\n      invalid\n    tag_360:\n      0x20\n      mul\n      add\n      mload\n        /* \"contracts/lib/crypto/Secp256k1.sol\":5427:5428  p */\n      dup10\n        /* \"contracts/lib/crypto/Secp256k1.sol\":5427:5436  p - us[1] */\n      sub\n        /* \"contracts/lib/crypto/Secp256k1.sol\":5420:5422  us */\n      dup8\n        /* \"contracts/lib/crypto/Secp256k1.sol\":5423:5424  3 */\n      0x3\n        /* \"contracts/lib/crypto/Secp256k1.sol\":5420:5425  us[3] */\n      0x4\n      dup2\n      lt\n      iszero\n      iszero\n      tag_361\n      jumpi\n      invalid\n    tag_361:\n      0x20\n      mul\n      add\n      mload\n        /* \"contracts/lib/crypto/Secp256k1.sol\":5413:5440  addmod(us[3], p - us[1], p) */\n      addmod\n        /* \"contracts/lib/crypto/Secp256k1.sol\":5404:5440  uint r = addmod(us[3], p - us[1], p) */\n      swap4\n      pop\n        /* \"contracts/lib/crypto/Secp256k1.sol\":5473:5474  p */\n      dup8\n        /* \"contracts/lib/crypto/Secp256k1.sol\":5460:5475  mulmod(h, h, p) */\n      dup1\n      iszero\n      iszero\n      tag_362\n      jumpi\n      invalid\n    tag_362:\n        /* \"contracts/lib/crypto/Secp256k1.sol\":5470:5471  h */\n      dup6\n        /* \"contracts/lib/crypto/Secp256k1.sol\":5467:5468  h */\n      dup7\n        /* \"contracts/lib/crypto/Secp256k1.sol\":5460:5475  mulmod(h, h, p) */\n      mulmod\n        /* \"contracts/lib/crypto/Secp256k1.sol\":5450:5475  uint h2 = mulmod(h, h, p) */\n      swap3\n      pop\n        /* \"contracts/lib/crypto/Secp256k1.sol\":5509:5510  p */\n      dup8\n        /* \"contracts/lib/crypto/Secp256k1.sol\":5495:5511  mulmod(h2, h, p) */\n      dup1\n      iszero\n      iszero\n      tag_363\n      jumpi\n      invalid\n    tag_363:\n        /* \"contracts/lib/crypto/Secp256k1.sol\":5506:5507  h */\n      dup6\n        /* \"contracts/lib/crypto/Secp256k1.sol\":5502:5504  h2 */\n      dup5\n        /* \"contracts/lib/crypto/Secp256k1.sol\":5495:5511  mulmod(h2, h, p) */\n      mulmod\n        /* \"contracts/lib/crypto/Secp256k1.sol\":5485:5511  uint h3 = mulmod(h2, h, p) */\n      swap2\n      pop\n        /* \"contracts/lib/crypto/Secp256k1.sol\":5563:5564  p */\n      dup8\n        /* \"contracts/lib/crypto/Secp256k1.sol\":5531:5565  addmod(mulmod(r, r, p), p - h3, p) */\n      dup1\n      iszero\n      iszero\n      tag_364\n      jumpi\n      invalid\n    tag_364:\n        /* \"contracts/lib/crypto/Secp256k1.sol\":5559:5561  h3 */\n      dup3\n        /* \"contracts/lib/crypto/Secp256k1.sol\":5555:5556  p */\n      dup10\n        /* \"contracts/lib/crypto/Secp256k1.sol\":5555:5561  p - h3 */\n      sub\n        /* \"contracts/lib/crypto/Secp256k1.sol\":5551:5552  p */\n      dup10\n        /* \"contracts/lib/crypto/Secp256k1.sol\":5538:5553  mulmod(r, r, p) */\n      dup1\n      iszero\n      iszero\n      tag_365\n      jumpi\n      invalid\n    tag_365:\n        /* \"contracts/lib/crypto/Secp256k1.sol\":5548:5549  r */\n      dup7\n        /* \"contracts/lib/crypto/Secp256k1.sol\":5545:5546  r */\n      dup8\n        /* \"contracts/lib/crypto/Secp256k1.sol\":5538:5553  mulmod(r, r, p) */\n      mulmod\n        /* \"contracts/lib/crypto/Secp256k1.sol\":5531:5565  addmod(mulmod(r, r, p), p - h3, p) */\n      addmod\n        /* \"contracts/lib/crypto/Secp256k1.sol\":5521:5565  uint Rx = addmod(mulmod(r, r, p), p - h3, p) */\n      swap1\n      pop\n        /* \"contracts/lib/crypto/Secp256k1.sol\":5631:5632  p */\n      dup8\n        /* \"contracts/lib/crypto/Secp256k1.sol\":5580:5633  addmod(Rx, p - mulmod(2, mulmod(us[0], h2, p), p), p) */\n      dup1\n      iszero\n      iszero\n      tag_366\n      jumpi\n      invalid\n    tag_366:\n        /* \"contracts/lib/crypto/Secp256k1.sol\":5627:5628  p */\n      dup9\n        /* \"contracts/lib/crypto/Secp256k1.sol\":5595:5629  mulmod(2, mulmod(us[0], h2, p), p) */\n      dup1\n      iszero\n      iszero\n      tag_367\n      jumpi\n      invalid\n    tag_367:\n        /* \"contracts/lib/crypto/Secp256k1.sol\":5623:5624  p */\n      dup10\n        /* \"contracts/lib/crypto/Secp256k1.sol\":5605:5625  mulmod(us[0], h2, p) */\n      dup1\n      iszero\n      iszero\n      tag_368\n      jumpi\n      invalid\n    tag_368:\n        /* \"contracts/lib/crypto/Secp256k1.sol\":5619:5621  h2 */\n      dup6\n        /* \"contracts/lib/crypto/Secp256k1.sol\":5612:5614  us */\n      dup10\n        /* \"contracts/lib/crypto/Secp256k1.sol\":5615:5616  0 */\n      0x0\n        /* \"contracts/lib/crypto/Secp256k1.sol\":5612:5617  us[0] */\n      0x4\n      dup2\n      lt\n      iszero\n      iszero\n      tag_369\n      jumpi\n      invalid\n    tag_369:\n      0x20\n      mul\n      add\n      mload\n        /* \"contracts/lib/crypto/Secp256k1.sol\":5605:5625  mulmod(us[0], h2, p) */\n      mulmod\n        /* \"contracts/lib/crypto/Secp256k1.sol\":5602:5603  2 */\n      0x2\n        /* \"contracts/lib/crypto/Secp256k1.sol\":5595:5629  mulmod(2, mulmod(us[0], h2, p), p) */\n      mulmod\n        /* \"contracts/lib/crypto/Secp256k1.sol\":5591:5592  p */\n      dup10\n        /* \"contracts/lib/crypto/Secp256k1.sol\":5591:5629  p - mulmod(2, mulmod(us[0], h2, p), p) */\n      sub\n        /* \"contracts/lib/crypto/Secp256k1.sol\":5587:5589  Rx */\n      dup3\n        /* \"contracts/lib/crypto/Secp256k1.sol\":5580:5633  addmod(Rx, p - mulmod(2, mulmod(us[0], h2, p), p), p) */\n      addmod\n        /* \"contracts/lib/crypto/Secp256k1.sol\":5575:5633  Rx = addmod(Rx, p - mulmod(2, mulmod(us[0], h2, p), p), p) */\n      swap1\n      pop\n        /* \"contracts/lib/crypto/Secp256k1.sol\":5650:5652  Rx */\n      dup1\n        /* \"contracts/lib/crypto/Secp256k1.sol\":5643:5644  R */\n      dup10\n        /* \"contracts/lib/crypto/Secp256k1.sol\":5645:5646  0 */\n      0x0\n        /* \"contracts/lib/crypto/Secp256k1.sol\":5643:5647  R[0] */\n      0x3\n      dup2\n      lt\n      iszero\n      iszero\n      tag_370\n      jumpi\n      invalid\n    tag_370:\n      0x20\n      mul\n      add\n        /* \"contracts/lib/crypto/Secp256k1.sol\":5643:5652  R[0] = Rx */\n      dup2\n      dup2\n      mstore\n      pop\n      pop\n        /* \"contracts/lib/crypto/Secp256k1.sol\":5720:5721  p */\n      dup8\n        /* \"contracts/lib/crypto/Secp256k1.sol\":5669:5722  mulmod(r, addmod(mulmod(us[0], h2, p), p - Rx, p), p) */\n      dup1\n      iszero\n      iszero\n      tag_371\n      jumpi\n      invalid\n    tag_371:\n        /* \"contracts/lib/crypto/Secp256k1.sol\":5716:5717  p */\n      dup9\n        /* \"contracts/lib/crypto/Secp256k1.sol\":5679:5718  addmod(mulmod(us[0], h2, p), p - Rx, p) */\n      dup1\n      iszero\n      iszero\n      tag_372\n      jumpi\n      invalid\n    tag_372:\n        /* \"contracts/lib/crypto/Secp256k1.sol\":5712:5714  Rx */\n      dup3\n        /* \"contracts/lib/crypto/Secp256k1.sol\":5708:5709  p */\n      dup11\n        /* \"contracts/lib/crypto/Secp256k1.sol\":5708:5714  p - Rx */\n      sub\n        /* \"contracts/lib/crypto/Secp256k1.sol\":5704:5705  p */\n      dup11\n        /* \"contracts/lib/crypto/Secp256k1.sol\":5686:5706  mulmod(us[0], h2, p) */\n      dup1\n      iszero\n      iszero\n      tag_373\n      jumpi\n      invalid\n    tag_373:\n        /* \"contracts/lib/crypto/Secp256k1.sol\":5700:5702  h2 */\n      dup7\n        /* \"contracts/lib/crypto/Secp256k1.sol\":5693:5695  us */\n      dup11\n        /* \"contracts/lib/crypto/Secp256k1.sol\":5696:5697  0 */\n      0x0\n        /* \"contracts/lib/crypto/Secp256k1.sol\":5693:5698  us[0] */\n      0x4\n      dup2\n      lt\n      iszero\n      iszero\n      tag_374\n      jumpi\n      invalid\n    tag_374:\n      0x20\n      mul\n      add\n      mload\n        /* \"contracts/lib/crypto/Secp256k1.sol\":5686:5706  mulmod(us[0], h2, p) */\n      mulmod\n        /* \"contracts/lib/crypto/Secp256k1.sol\":5679:5718  addmod(mulmod(us[0], h2, p), p - Rx, p) */\n      addmod\n        /* \"contracts/lib/crypto/Secp256k1.sol\":5676:5677  r */\n      dup6\n        /* \"contracts/lib/crypto/Secp256k1.sol\":5669:5722  mulmod(r, addmod(mulmod(us[0], h2, p), p - Rx, p), p) */\n      mulmod\n        /* \"contracts/lib/crypto/Secp256k1.sol\":5662:5663  R */\n      dup10\n        /* \"contracts/lib/crypto/Secp256k1.sol\":5664:5665  1 */\n      0x1\n        /* \"contracts/lib/crypto/Secp256k1.sol\":5662:5666  R[1] */\n      0x3\n      dup2\n      lt\n      iszero\n      iszero\n      tag_375\n      jumpi\n      invalid\n    tag_375:\n      0x20\n      mul\n      add\n        /* \"contracts/lib/crypto/Secp256k1.sol\":5662:5722  R[1] = mulmod(r, addmod(mulmod(us[0], h2, p), p - Rx, p), p) */\n      dup2\n      dup2\n      mstore\n      pop\n      pop\n        /* \"contracts/lib/crypto/Secp256k1.sol\":5778:5779  p */\n      dup8\n        /* \"contracts/lib/crypto/Secp256k1.sol\":5739:5780  addmod(R[1], p - mulmod(us[1], h3, p), p) */\n      dup1\n      iszero\n      iszero\n      tag_376\n      jumpi\n      invalid\n    tag_376:\n        /* \"contracts/lib/crypto/Secp256k1.sol\":5774:5775  p */\n      dup9\n        /* \"contracts/lib/crypto/Secp256k1.sol\":5756:5776  mulmod(us[1], h3, p) */\n      dup1\n      iszero\n      iszero\n      tag_377\n      jumpi\n      invalid\n    tag_377:\n        /* \"contracts/lib/crypto/Secp256k1.sol\":5770:5772  h3 */\n      dup4\n        /* \"contracts/lib/crypto/Secp256k1.sol\":5763:5765  us */\n      dup9\n        /* \"contracts/lib/crypto/Secp256k1.sol\":5766:5767  1 */\n      0x1\n        /* \"contracts/lib/crypto/Secp256k1.sol\":5763:5768  us[1] */\n      0x4\n      dup2\n      lt\n      iszero\n      iszero\n      tag_378\n      jumpi\n      invalid\n    tag_378:\n      0x20\n      mul\n      add\n      mload\n        /* \"contracts/lib/crypto/Secp256k1.sol\":5756:5776  mulmod(us[1], h3, p) */\n      mulmod\n        /* \"contracts/lib/crypto/Secp256k1.sol\":5752:5753  p */\n      dup10\n        /* \"contracts/lib/crypto/Secp256k1.sol\":5752:5776  p - mulmod(us[1], h3, p) */\n      sub\n        /* \"contracts/lib/crypto/Secp256k1.sol\":5746:5747  R */\n      dup11\n        /* \"contracts/lib/crypto/Secp256k1.sol\":5748:5749  1 */\n      0x1\n        /* \"contracts/lib/crypto/Secp256k1.sol\":5746:5750  R[1] */\n      0x3\n      dup2\n      lt\n      iszero\n      iszero\n      tag_379\n      jumpi\n      invalid\n    tag_379:\n      0x20\n      mul\n      add\n      mload\n        /* \"contracts/lib/crypto/Secp256k1.sol\":5739:5780  addmod(R[1], p - mulmod(us[1], h3, p), p) */\n      addmod\n        /* \"contracts/lib/crypto/Secp256k1.sol\":5732:5733  R */\n      dup10\n        /* \"contracts/lib/crypto/Secp256k1.sol\":5734:5735  1 */\n      0x1\n        /* \"contracts/lib/crypto/Secp256k1.sol\":5732:5736  R[1] */\n      0x3\n      dup2\n      lt\n      iszero\n      iszero\n      tag_380\n      jumpi\n      invalid\n    tag_380:\n      0x20\n      mul\n      add\n        /* \"contracts/lib/crypto/Secp256k1.sol\":5732:5780  R[1] = addmod(R[1], p - mulmod(us[1], h3, p), p) */\n      dup2\n      dup2\n      mstore\n      pop\n      pop\n        /* \"contracts/lib/crypto/Secp256k1.sol\":5813:5814  p */\n      dup8\n        /* \"contracts/lib/crypto/Secp256k1.sol\":5797:5815  mulmod(h, P[2], p) */\n      dup1\n      iszero\n      iszero\n      tag_381\n      jumpi\n      invalid\n    tag_381:\n        /* \"contracts/lib/crypto/Secp256k1.sol\":5807:5808  P */\n      dup12\n        /* \"contracts/lib/crypto/Secp256k1.sol\":5809:5810  2 */\n      0x2\n        /* \"contracts/lib/crypto/Secp256k1.sol\":5807:5811  P[2] */\n      0x3\n      dup2\n      lt\n      iszero\n      iszero\n      tag_382\n      jumpi\n      invalid\n    tag_382:\n      0x20\n      mul\n      add\n      mload\n        /* \"contracts/lib/crypto/Secp256k1.sol\":5804:5805  h */\n      dup7\n        /* \"contracts/lib/crypto/Secp256k1.sol\":5797:5815  mulmod(h, P[2], p) */\n      mulmod\n        /* \"contracts/lib/crypto/Secp256k1.sol\":5790:5791  R */\n      dup10\n        /* \"contracts/lib/crypto/Secp256k1.sol\":5792:5793  2 */\n      0x2\n        /* \"contracts/lib/crypto/Secp256k1.sol\":5790:5794  R[2] */\n      0x3\n      dup2\n      lt\n      iszero\n      iszero\n      tag_383\n      jumpi\n      invalid\n    tag_383:\n      0x20\n      mul\n      add\n        /* \"contracts/lib/crypto/Secp256k1.sol\":5790:5815  R[2] = mulmod(h, P[2], p) */\n      dup2\n      dup2\n      mstore\n      pop\n      pop\n        /* \"contracts/lib/crypto/Secp256k1.sol\":4552:5822  function _addMixed(uint[3] memory P, uint[2] memory Q) internal constant returns (uint[3] memory R) {... */\n    tag_322:\n      pop\n      pop\n      pop\n      pop\n      pop\n      pop\n      pop\n      pop\n      swap3\n      swap2\n      pop\n      pop\n      jump\t// out\n        /* \"contracts/lib/crypto/ECCMath.sol\":2268:2485  function toZ1(uint[3] memory P, uint zInv, uint z2Inv, uint prime) internal constant {... */\n    tag_197:\n        /* \"contracts/lib/crypto/ECCMath.sol\":2390:2395  prime */\n      dup1\n        /* \"contracts/lib/crypto/ECCMath.sol\":2370:2396  mulmod(P[0], z2Inv, prime) */\n      dup1\n      iszero\n      iszero\n      tag_385\n      jumpi\n      invalid\n    tag_385:\n        /* \"contracts/lib/crypto/ECCMath.sol\":2383:2388  z2Inv */\n      dup3\n        /* \"contracts/lib/crypto/ECCMath.sol\":2377:2378  P */\n      dup6\n        /* \"contracts/lib/crypto/ECCMath.sol\":2379:2380  0 */\n      0x0\n        /* \"contracts/lib/crypto/ECCMath.sol\":2377:2381  P[0] */\n      0x3\n      dup2\n      lt\n      iszero\n      iszero\n      tag_386\n      jumpi\n      invalid\n    tag_386:\n      0x20\n      mul\n      add\n      mload\n        /* \"contracts/lib/crypto/ECCMath.sol\":2370:2396  mulmod(P[0], z2Inv, prime) */\n      mulmod\n        /* \"contracts/lib/crypto/ECCMath.sol\":2363:2364  P */\n      dup5\n        /* \"contracts/lib/crypto/ECCMath.sol\":2365:2366  0 */\n      0x0\n        /* \"contracts/lib/crypto/ECCMath.sol\":2363:2367  P[0] */\n      0x3\n      dup2\n      lt\n      iszero\n      iszero\n      tag_387\n      jumpi\n      invalid\n    tag_387:\n      0x20\n      mul\n      add\n        /* \"contracts/lib/crypto/ECCMath.sol\":2363:2396  P[0] = mulmod(P[0], z2Inv, prime) */\n      dup2\n      dup2\n      mstore\n      pop\n      pop\n        /* \"contracts/lib/crypto/ECCMath.sol\":2454:2459  prime */\n      dup1\n        /* \"contracts/lib/crypto/ECCMath.sol\":2413:2460  mulmod(P[1], mulmod(zInv, z2Inv, prime), prime) */\n      dup1\n      iszero\n      iszero\n      tag_388\n      jumpi\n      invalid\n    tag_388:\n        /* \"contracts/lib/crypto/ECCMath.sol\":2446:2451  prime */\n      dup2\n        /* \"contracts/lib/crypto/ECCMath.sol\":2426:2452  mulmod(zInv, z2Inv, prime) */\n      dup1\n      iszero\n      iszero\n      tag_389\n      jumpi\n      invalid\n    tag_389:\n        /* \"contracts/lib/crypto/ECCMath.sol\":2439:2444  z2Inv */\n      dup4\n        /* \"contracts/lib/crypto/ECCMath.sol\":2433:2437  zInv */\n      dup6\n        /* \"contracts/lib/crypto/ECCMath.sol\":2426:2452  mulmod(zInv, z2Inv, prime) */\n      mulmod\n        /* \"contracts/lib/crypto/ECCMath.sol\":2420:2421  P */\n      dup6\n        /* \"contracts/lib/crypto/ECCMath.sol\":2422:2423  1 */\n      0x1\n        /* \"contracts/lib/crypto/ECCMath.sol\":2420:2424  P[1] */\n      0x3\n      dup2\n      lt\n      iszero\n      iszero\n      tag_390\n      jumpi\n      invalid\n    tag_390:\n      0x20\n      mul\n      add\n      mload\n        /* \"contracts/lib/crypto/ECCMath.sol\":2413:2460  mulmod(P[1], mulmod(zInv, z2Inv, prime), prime) */\n      mulmod\n        /* \"contracts/lib/crypto/ECCMath.sol\":2406:2407  P */\n      dup5\n        /* \"contracts/lib/crypto/ECCMath.sol\":2408:2409  1 */\n      0x1\n        /* \"contracts/lib/crypto/ECCMath.sol\":2406:2410  P[1] */\n      0x3\n      dup2\n      lt\n      iszero\n      iszero\n      tag_391\n      jumpi\n      invalid\n    tag_391:\n      0x20\n      mul\n      add\n        /* \"contracts/lib/crypto/ECCMath.sol\":2406:2460  P[1] = mulmod(P[1], mulmod(zInv, z2Inv, prime), prime) */\n      dup2\n      dup2\n      mstore\n      pop\n      pop\n        /* \"contracts/lib/crypto/ECCMath.sol\":2477:2478  1 */\n      0x1\n        /* \"contracts/lib/crypto/ECCMath.sol\":2470:2471  P */\n      dup5\n        /* \"contracts/lib/crypto/ECCMath.sol\":2472:2473  2 */\n      0x2\n        /* \"contracts/lib/crypto/ECCMath.sol\":2470:2474  P[2] */\n      0x3\n      dup2\n      lt\n      iszero\n      iszero\n      tag_392\n      jumpi\n      invalid\n    tag_392:\n      0x20\n      mul\n      add\n        /* \"contracts/lib/crypto/ECCMath.sol\":2470:2478  P[2] = 1 */\n      dup2\n      dup2\n      mstore\n      pop\n      pop\n        /* \"contracts/lib/crypto/ECCMath.sol\":2268:2485  function toZ1(uint[3] memory P, uint zInv, uint z2Inv, uint prime) internal constant {... */\n      pop\n      pop\n      pop\n      pop\n      jump\t// out\n        /* \"contracts/lib/crypto/Secp256k1.sol\":7947:8507  function _doubleM(uint[3] memory P) internal constant {... */\n    tag_201:\n        /* \"contracts/lib/crypto/Secp256k1.sol\":8011:8017  uint p */\n      0x0\n        /* \"contracts/lib/crypto/Secp256k1.sol\":8075:8082  uint Px */\n      dup1\n        /* \"contracts/lib/crypto/Secp256k1.sol\":8099:8106  uint Py */\n      0x0\n        /* \"contracts/lib/crypto/Secp256k1.sol\":8123:8131  uint Py2 */\n      dup1\n        /* \"contracts/lib/crypto/Secp256k1.sol\":8161:8167  uint s */\n      0x0\n        /* \"contracts/lib/crypto/Secp256k1.sol\":8212:8218  uint m */\n      dup1\n        /* \"contracts/lib/crypto/Secp256k1.sol\":8262:8272  var PxTemp */\n      0x0\n        /* \"contracts/lib/crypto/Secp256k1.sol\":487:553  0xFFFFFFFFFFFFFFFFFFFFFFFFFFFFFFFFFFFFFFFFFFFFFFFFFFFFFFFEFFFFFC2F */\n      0xfffffffffffffffffffffffffffffffffffffffffffffffffffffffefffffc2f\n        /* \"contracts/lib/crypto/Secp256k1.sol\":8011:8022  uint p = pp */\n      swap7\n      pop\n        /* \"contracts/lib/crypto/Secp256k1.sol\":8044:8045  0 */\n      0x0\n        /* \"contracts/lib/crypto/Secp256k1.sol\":8036:8037  P */\n      dup9\n        /* \"contracts/lib/crypto/Secp256k1.sol\":8038:8039  2 */\n      0x2\n        /* \"contracts/lib/crypto/Secp256k1.sol\":8036:8040  P[2] */\n      0x3\n      dup2\n      lt\n      iszero\n      iszero\n      tag_394\n      jumpi\n      invalid\n    tag_394:\n      0x20\n      mul\n      add\n      mload\n        /* \"contracts/lib/crypto/Secp256k1.sol\":8036:8045  P[2] == 0 */\n      eq\n        /* \"contracts/lib/crypto/Secp256k1.sol\":8032:8066  if (P[2] == 0)... */\n      iszero\n      tag_395\n      jumpi\n        /* \"contracts/lib/crypto/Secp256k1.sol\":8059:8066  return; */\n      jump(tag_393)\n        /* \"contracts/lib/crypto/Secp256k1.sol\":8032:8066  if (P[2] == 0)... */\n    tag_395:\n        /* \"contracts/lib/crypto/Secp256k1.sol\":8085:8086  P */\n      dup8\n        /* \"contracts/lib/crypto/Secp256k1.sol\":8087:8088  0 */\n      0x0\n        /* \"contracts/lib/crypto/Secp256k1.sol\":8085:8089  P[0] */\n      0x3\n      dup2\n      lt\n      iszero\n      iszero\n      tag_396\n      jumpi\n      invalid\n    tag_396:\n      0x20\n      mul\n      add\n      mload\n        /* \"contracts/lib/crypto/Secp256k1.sol\":8075:8089  uint Px = P[0] */\n      swap6\n      pop\n        /* \"contracts/lib/crypto/Secp256k1.sol\":8109:8110  P */\n      dup8\n        /* \"contracts/lib/crypto/Secp256k1.sol\":8111:8112  1 */\n      0x1\n        /* \"contracts/lib/crypto/Secp256k1.sol\":8109:8113  P[1] */\n      0x3\n      dup2\n      lt\n      iszero\n      iszero\n      tag_397\n      jumpi\n      invalid\n    tag_397:\n      0x20\n      mul\n      add\n      mload\n        /* \"contracts/lib/crypto/Secp256k1.sol\":8099:8113  uint Py = P[1] */\n      swap5\n      pop\n        /* \"contracts/lib/crypto/Secp256k1.sol\":8149:8150  p */\n      dup7\n        /* \"contracts/lib/crypto/Secp256k1.sol\":8134:8151  mulmod(Py, Py, p) */\n      dup1\n      iszero\n      iszero\n      tag_398\n      jumpi\n      invalid\n    tag_398:\n        /* \"contracts/lib/crypto/Secp256k1.sol\":8145:8147  Py */\n      dup6\n        /* \"contracts/lib/crypto/Secp256k1.sol\":8141:8143  Py */\n      dup7\n        /* \"contracts/lib/crypto/Secp256k1.sol\":8134:8151  mulmod(Py, Py, p) */\n      mulmod\n        /* \"contracts/lib/crypto/Secp256k1.sol\":8123:8151  uint Py2 = mulmod(Py, Py, p) */\n      swap4\n      pop\n        /* \"contracts/lib/crypto/Secp256k1.sol\":8200:8201  p */\n      dup7\n        /* \"contracts/lib/crypto/Secp256k1.sol\":8170:8202  mulmod(4, mulmod(Px, Py2, p), p) */\n      dup1\n      iszero\n      iszero\n      tag_399\n      jumpi\n      invalid\n    tag_399:\n        /* \"contracts/lib/crypto/Secp256k1.sol\":8196:8197  p */\n      dup8\n        /* \"contracts/lib/crypto/Secp256k1.sol\":8180:8198  mulmod(Px, Py2, p) */\n      dup1\n      iszero\n      iszero\n      tag_400\n      jumpi\n      invalid\n    tag_400:\n        /* \"contracts/lib/crypto/Secp256k1.sol\":8191:8194  Py2 */\n      dup6\n        /* \"contracts/lib/crypto/Secp256k1.sol\":8187:8189  Px */\n      dup9\n        /* \"contracts/lib/crypto/Secp256k1.sol\":8180:8198  mulmod(Px, Py2, p) */\n      mulmod\n        /* \"contracts/lib/crypto/Secp256k1.sol\":8177:8178  4 */\n      0x4\n        /* \"contracts/lib/crypto/Secp256k1.sol\":8170:8202  mulmod(4, mulmod(Px, Py2, p), p) */\n      mulmod\n        /* \"contracts/lib/crypto/Secp256k1.sol\":8161:8202  uint s = mulmod(4, mulmod(Px, Py2, p), p) */\n      swap3\n      pop\n        /* \"contracts/lib/crypto/Secp256k1.sol\":8250:8251  p */\n      dup7\n        /* \"contracts/lib/crypto/Secp256k1.sol\":8221:8252  mulmod(3, mulmod(Px, Px, p), p) */\n      dup1\n      iszero\n      iszero\n      tag_401\n      jumpi\n      invalid\n    tag_401:\n        /* \"contracts/lib/crypto/Secp256k1.sol\":8246:8247  p */\n      dup8\n        /* \"contracts/lib/crypto/Secp256k1.sol\":8231:8248  mulmod(Px, Px, p) */\n      dup1\n      iszero\n      iszero\n      tag_402\n      jumpi\n      invalid\n    tag_402:\n        /* \"contracts/lib/crypto/Secp256k1.sol\":8242:8244  Px */\n      dup8\n        /* \"contracts/lib/crypto/Secp256k1.sol\":8238:8240  Px */\n      dup9\n        /* \"contracts/lib/crypto/Secp256k1.sol\":8231:8248  mulmod(Px, Px, p) */\n      mulmod\n        /* \"contracts/lib/crypto/Secp256k1.sol\":8228:8229  3 */\n      0x3\n        /* \"contracts/lib/crypto/Secp256k1.sol\":8221:8252  mulmod(3, mulmod(Px, Px, p), p) */\n      mulmod\n        /* \"contracts/lib/crypto/Secp256k1.sol\":8212:8252  uint m = mulmod(3, mulmod(Px, Px, p), p) */\n      swap2\n      pop\n        /* \"contracts/lib/crypto/Secp256k1.sol\":8320:8321  p */\n      dup7\n        /* \"contracts/lib/crypto/Secp256k1.sol\":8275:8322  addmod(mulmod(m, m, p), p - addmod(s, s, p), p) */\n      dup1\n      iszero\n      iszero\n      tag_403\n      jumpi\n      invalid\n    tag_403:\n        /* \"contracts/lib/crypto/Secp256k1.sol\":8316:8317  p */\n      dup8\n        /* \"contracts/lib/crypto/Secp256k1.sol\":8303:8318  addmod(s, s, p) */\n      dup1\n      iszero\n      iszero\n      tag_404\n      jumpi\n      invalid\n    tag_404:\n        /* \"contracts/lib/crypto/Secp256k1.sol\":8313:8314  s */\n      dup5\n        /* \"contracts/lib/crypto/Secp256k1.sol\":8310:8311  s */\n      dup6\n        /* \"contracts/lib/crypto/Secp256k1.sol\":8303:8318  addmod(s, s, p) */\n      addmod\n        /* \"contracts/lib/crypto/Secp256k1.sol\":8299:8300  p */\n      dup9\n        /* \"contracts/lib/crypto/Secp256k1.sol\":8299:8318  p - addmod(s, s, p) */\n      sub\n        /* \"contracts/lib/crypto/Secp256k1.sol\":8295:8296  p */\n      dup9\n        /* \"contracts/lib/crypto/Secp256k1.sol\":8282:8297  mulmod(m, m, p) */\n      dup1\n      iszero\n      iszero\n      tag_405\n      jumpi\n      invalid\n    tag_405:\n        /* \"contracts/lib/crypto/Secp256k1.sol\":8292:8293  m */\n      dup5\n        /* \"contracts/lib/crypto/Secp256k1.sol\":8289:8290  m */\n      dup6\n        /* \"contracts/lib/crypto/Secp256k1.sol\":8282:8297  mulmod(m, m, p) */\n      mulmod\n        /* \"contracts/lib/crypto/Secp256k1.sol\":8275:8322  addmod(mulmod(m, m, p), p - addmod(s, s, p), p) */\n      addmod\n        /* \"contracts/lib/crypto/Secp256k1.sol\":8262:8322  var PxTemp = addmod(mulmod(m, m, p), p - addmod(s, s, p), p) */\n      swap1\n      pop\n        /* \"contracts/lib/crypto/Secp256k1.sol\":8339:8345  PxTemp */\n      dup1\n        /* \"contracts/lib/crypto/Secp256k1.sol\":8332:8333  P */\n      dup9\n        /* \"contracts/lib/crypto/Secp256k1.sol\":8334:8335  0 */\n      0x0\n        /* \"contracts/lib/crypto/Secp256k1.sol\":8332:8336  P[0] */\n      0x3\n      dup2\n      lt\n      iszero\n      iszero\n      tag_406\n      jumpi\n      invalid\n    tag_406:\n      0x20\n      mul\n      add\n        /* \"contracts/lib/crypto/Secp256k1.sol\":8332:8345  P[0] = PxTemp */\n      dup2\n      dup2\n      mstore\n      pop\n      pop\n        /* \"contracts/lib/crypto/Secp256k1.sol\":8448:8449  p */\n      dup7\n        /* \"contracts/lib/crypto/Secp256k1.sol\":8362:8450  addmod(mulmod(m, addmod(s, p - PxTemp, p), p), p - mulmod(8, mulmod(Py2, Py2, p), p), p) */\n      dup1\n      iszero\n      iszero\n      tag_407\n      jumpi\n      invalid\n    tag_407:\n        /* \"contracts/lib/crypto/Secp256k1.sol\":8444:8445  p */\n      dup8\n        /* \"contracts/lib/crypto/Secp256k1.sol\":8413:8446  mulmod(8, mulmod(Py2, Py2, p), p) */\n      dup1\n      iszero\n      iszero\n      tag_408\n      jumpi\n      invalid\n    tag_408:\n        /* \"contracts/lib/crypto/Secp256k1.sol\":8440:8441  p */\n      dup9\n        /* \"contracts/lib/crypto/Secp256k1.sol\":8423:8442  mulmod(Py2, Py2, p) */\n      dup1\n      iszero\n      iszero\n      tag_409\n      jumpi\n      invalid\n    tag_409:\n        /* \"contracts/lib/crypto/Secp256k1.sol\":8435:8438  Py2 */\n      dup7\n        /* \"contracts/lib/crypto/Secp256k1.sol\":8430:8433  Py2 */\n      dup8\n        /* \"contracts/lib/crypto/Secp256k1.sol\":8423:8442  mulmod(Py2, Py2, p) */\n      mulmod\n        /* \"contracts/lib/crypto/Secp256k1.sol\":8420:8421  8 */\n      0x8\n        /* \"contracts/lib/crypto/Secp256k1.sol\":8413:8446  mulmod(8, mulmod(Py2, Py2, p), p) */\n      mulmod\n        /* \"contracts/lib/crypto/Secp256k1.sol\":8409:8410  p */\n      dup9\n        /* \"contracts/lib/crypto/Secp256k1.sol\":8409:8446  p - mulmod(8, mulmod(Py2, Py2, p), p) */\n      sub\n        /* \"contracts/lib/crypto/Secp256k1.sol\":8405:8406  p */\n      dup9\n        /* \"contracts/lib/crypto/Secp256k1.sol\":8369:8407  mulmod(m, addmod(s, p - PxTemp, p), p) */\n      dup1\n      iszero\n      iszero\n      tag_410\n      jumpi\n      invalid\n    tag_410:\n        /* \"contracts/lib/crypto/Secp256k1.sol\":8401:8402  p */\n      dup10\n        /* \"contracts/lib/crypto/Secp256k1.sol\":8379:8403  addmod(s, p - PxTemp, p) */\n      dup1\n      iszero\n      iszero\n      tag_411\n      jumpi\n      invalid\n    tag_411:\n        /* \"contracts/lib/crypto/Secp256k1.sol\":8393:8399  PxTemp */\n      dup5\n        /* \"contracts/lib/crypto/Secp256k1.sol\":8389:8390  p */\n      dup12\n        /* \"contracts/lib/crypto/Secp256k1.sol\":8389:8399  p - PxTemp */\n      sub\n        /* \"contracts/lib/crypto/Secp256k1.sol\":8386:8387  s */\n      dup8\n        /* \"contracts/lib/crypto/Secp256k1.sol\":8379:8403  addmod(s, p - PxTemp, p) */\n      addmod\n        /* \"contracts/lib/crypto/Secp256k1.sol\":8376:8377  m */\n      dup6\n        /* \"contracts/lib/crypto/Secp256k1.sol\":8369:8407  mulmod(m, addmod(s, p - PxTemp, p), p) */\n      mulmod\n        /* \"contracts/lib/crypto/Secp256k1.sol\":8362:8450  addmod(mulmod(m, addmod(s, p - PxTemp, p), p), p - mulmod(8, mulmod(Py2, Py2, p), p), p) */\n      addmod\n        /* \"contracts/lib/crypto/Secp256k1.sol\":8355:8356  P */\n      dup9\n        /* \"contracts/lib/crypto/Secp256k1.sol\":8357:8358  1 */\n      0x1\n        /* \"contracts/lib/crypto/Secp256k1.sol\":8355:8359  P[1] */\n      0x3\n      dup2\n      lt\n      iszero\n      iszero\n      tag_412\n      jumpi\n      invalid\n    tag_412:\n      0x20\n      mul\n      add\n        /* \"contracts/lib/crypto/Secp256k1.sol\":8355:8450  P[1] = addmod(mulmod(m, addmod(s, p - PxTemp, p), p), p - mulmod(8, mulmod(Py2, Py2, p), p), p) */\n      dup2\n      dup2\n      mstore\n      pop\n      pop\n        /* \"contracts/lib/crypto/Secp256k1.sol\":8498:8499  p */\n      dup7\n        /* \"contracts/lib/crypto/Secp256k1.sol\":8467:8500  mulmod(2, mulmod(Py, P[2], p), p) */\n      dup1\n      iszero\n      iszero\n      tag_413\n      jumpi\n      invalid\n    tag_413:\n        /* \"contracts/lib/crypto/Secp256k1.sol\":8494:8495  p */\n      dup8\n        /* \"contracts/lib/crypto/Secp256k1.sol\":8477:8496  mulmod(Py, P[2], p) */\n      dup1\n      iszero\n      iszero\n      tag_414\n      jumpi\n      invalid\n    tag_414:\n        /* \"contracts/lib/crypto/Secp256k1.sol\":8488:8489  P */\n      dup10\n        /* \"contracts/lib/crypto/Secp256k1.sol\":8490:8491  2 */\n      0x2\n        /* \"contracts/lib/crypto/Secp256k1.sol\":8488:8492  P[2] */\n      0x3\n      dup2\n      lt\n      iszero\n      iszero\n      tag_415\n      jumpi\n      invalid\n    tag_415:\n      0x20\n      mul\n      add\n      mload\n        /* \"contracts/lib/crypto/Secp256k1.sol\":8484:8486  Py */\n      dup8\n        /* \"contracts/lib/crypto/Secp256k1.sol\":8477:8496  mulmod(Py, P[2], p) */\n      mulmod\n        /* \"contracts/lib/crypto/Secp256k1.sol\":8474:8475  2 */\n      0x2\n        /* \"contracts/lib/crypto/Secp256k1.sol\":8467:8500  mulmod(2, mulmod(Py, P[2], p), p) */\n      mulmod\n        /* \"contracts/lib/crypto/Secp256k1.sol\":8460:8461  P */\n      dup9\n        /* \"contracts/lib/crypto/Secp256k1.sol\":8462:8463  2 */\n      0x2\n        /* \"contracts/lib/crypto/Secp256k1.sol\":8460:8464  P[2] */\n      0x3\n      dup2\n      lt\n      iszero\n      iszero\n      tag_416\n      jumpi\n      invalid\n    tag_416:\n      0x20\n      mul\n      add\n        /* \"contracts/lib/crypto/Secp256k1.sol\":8460:8500  P[2] = mulmod(2, mulmod(Py, P[2], p), p) */\n      dup2\n      dup2\n      mstore\n      pop\n      pop\n        /* \"contracts/lib/crypto/Secp256k1.sol\":7947:8507  function _doubleM(uint[3] memory P) internal constant {... */\n    tag_393:\n      pop\n      pop\n      pop\n      pop\n      pop\n      pop\n      pop\n      pop\n      jump\t// out\n        /* \"contracts/lib/crypto/Secp256k1.sol\":5892:7203  function _addMixedM(uint[3] memory P, uint[2] memory Q) internal constant {... */\n    tag_209:\n        /* \"contracts/lib/crypto/Secp256k1.sol\":6144:6150  uint p */\n      0x0\n        /* \"contracts/lib/crypto/Secp256k1.sol\":6165:6182  uint[2] memory zs */\n      tag_417\n      jump\t// in(tag_320)\n    tag_417:\n        /* \"contracts/lib/crypto/Secp256k1.sol\":6297:6314  uint[4] memory us */\n      tag_418\n      jump\t// in(tag_220)\n    tag_418:\n        /* \"contracts/lib/crypto/Secp256k1.sol\":6739:6745  uint h */\n      0x0\n        /* \"contracts/lib/crypto/Secp256k1.sol\":6785:6791  uint r */\n      dup1\n        /* \"contracts/lib/crypto/Secp256k1.sol\":6831:6838  uint h2 */\n      0x0\n        /* \"contracts/lib/crypto/Secp256k1.sol\":6866:6873  uint h3 */\n      dup1\n        /* \"contracts/lib/crypto/Secp256k1.sol\":6902:6909  uint Rx */\n      0x0\n        /* \"contracts/lib/crypto/Secp256k1.sol\":5987:5988  0 */\n      dup1\n        /* \"contracts/lib/crypto/Secp256k1.sol\":5979:5980  P */\n      dup11\n        /* \"contracts/lib/crypto/Secp256k1.sol\":5981:5982  1 */\n      0x1\n        /* \"contracts/lib/crypto/Secp256k1.sol\":5979:5983  P[1] */\n      0x3\n      dup2\n      lt\n      iszero\n      iszero\n      tag_420\n      jumpi\n      invalid\n    tag_420:\n      0x20\n      mul\n      add\n      mload\n        /* \"contracts/lib/crypto/Secp256k1.sol\":5979:5988  P[1] == 0 */\n      eq\n        /* \"contracts/lib/crypto/Secp256k1.sol\":5976:6093  if(P[1] == 0) {... */\n      iszero\n      tag_421\n      jumpi\n        /* \"contracts/lib/crypto/Secp256k1.sol\":6011:6012  Q */\n      dup9\n        /* \"contracts/lib/crypto/Secp256k1.sol\":6013:6014  0 */\n      0x0\n        /* \"contracts/lib/crypto/Secp256k1.sol\":6011:6015  Q[0] */\n      0x2\n      dup2\n      lt\n      iszero\n      iszero\n      tag_422\n      jumpi\n      invalid\n    tag_422:\n      0x20\n      mul\n      add\n      mload\n        /* \"contracts/lib/crypto/Secp256k1.sol\":6004:6005  P */\n      dup11\n        /* \"contracts/lib/crypto/Secp256k1.sol\":6006:6007  0 */\n      0x0\n        /* \"contracts/lib/crypto/Secp256k1.sol\":6004:6008  P[0] */\n      0x3\n      dup2\n      lt\n      iszero\n      iszero\n      tag_423\n      jumpi\n      invalid\n    tag_423:\n      0x20\n      mul\n      add\n        /* \"contracts/lib/crypto/Secp256k1.sol\":6004:6015  P[0] = Q[0] */\n      dup2\n      dup2\n      mstore\n      pop\n      pop\n        /* \"contracts/lib/crypto/Secp256k1.sol\":6036:6037  Q */\n      dup9\n        /* \"contracts/lib/crypto/Secp256k1.sol\":6038:6039  1 */\n      0x1\n        /* \"contracts/lib/crypto/Secp256k1.sol\":6036:6040  Q[1] */\n      0x2\n      dup2\n      lt\n      iszero\n      iszero\n      tag_424\n      jumpi\n      invalid\n    tag_424:\n      0x20\n      mul\n      add\n      mload\n        /* \"contracts/lib/crypto/Secp256k1.sol\":6029:6030  P */\n      dup11\n        /* \"contracts/lib/crypto/Secp256k1.sol\":6031:6032  1 */\n      0x1\n        /* \"contracts/lib/crypto/Secp256k1.sol\":6029:6033  P[1] */\n      0x3\n      dup2\n      lt\n      iszero\n      iszero\n      tag_425\n      jumpi\n      invalid\n    tag_425:\n      0x20\n      mul\n      add\n        /* \"contracts/lib/crypto/Secp256k1.sol\":6029:6040  P[1] = Q[1] */\n      dup2\n      dup2\n      mstore\n      pop\n      pop\n        /* \"contracts/lib/crypto/Secp256k1.sol\":6061:6062  1 */\n      0x1\n        /* \"contracts/lib/crypto/Secp256k1.sol\":6054:6055  P */\n      dup11\n        /* \"contracts/lib/crypto/Secp256k1.sol\":6056:6057  2 */\n      0x2\n        /* \"contracts/lib/crypto/Secp256k1.sol\":6054:6058  P[2] */\n      0x3\n      dup2\n      lt\n      iszero\n      iszero\n      tag_426\n      jumpi\n      invalid\n    tag_426:\n      0x20\n      mul\n      add\n        /* \"contracts/lib/crypto/Secp256k1.sol\":6054:6062  P[2] = 1 */\n      dup2\n      dup2\n      mstore\n      pop\n      pop\n        /* \"contracts/lib/crypto/Secp256k1.sol\":6076:6083  return; */\n      jump(tag_419)\n        /* \"contracts/lib/crypto/Secp256k1.sol\":5976:6093  if(P[1] == 0) {... */\n    tag_421:\n        /* \"contracts/lib/crypto/Secp256k1.sol\":6113:6114  0 */\n      0x0\n        /* \"contracts/lib/crypto/Secp256k1.sol\":6105:6106  Q */\n      dup10\n        /* \"contracts/lib/crypto/Secp256k1.sol\":6107:6108  1 */\n      0x1\n        /* \"contracts/lib/crypto/Secp256k1.sol\":6105:6109  Q[1] */\n      0x2\n      dup2\n      lt\n      iszero\n      iszero\n      tag_427\n      jumpi\n      invalid\n    tag_427:\n      0x20\n      mul\n      add\n      mload\n        /* \"contracts/lib/crypto/Secp256k1.sol\":6105:6114  Q[1] == 0 */\n      eq\n        /* \"contracts/lib/crypto/Secp256k1.sol\":6102:6135  if(Q[1] == 0)... */\n      iszero\n      tag_428\n      jumpi\n        /* \"contracts/lib/crypto/Secp256k1.sol\":6128:6135  return; */\n      jump(tag_419)\n        /* \"contracts/lib/crypto/Secp256k1.sol\":6102:6135  if(Q[1] == 0)... */\n    tag_428:\n        /* \"contracts/lib/crypto/Secp256k1.sol\":487:553  0xFFFFFFFFFFFFFFFFFFFFFFFFFFFFFFFFFFFFFFFFFFFFFFFFFFFFFFFEFFFFFC2F */\n      0xfffffffffffffffffffffffffffffffffffffffffffffffffffffffefffffc2f\n        /* \"contracts/lib/crypto/Secp256k1.sol\":6144:6155  uint p = pp */\n      swap8\n      pop\n        /* \"contracts/lib/crypto/Secp256k1.sol\":6245:6246  p */\n      dup8\n        /* \"contracts/lib/crypto/Secp256k1.sol\":6226:6247  mulmod(P[2], P[2], p) */\n      dup1\n      iszero\n      iszero\n      tag_429\n      jumpi\n      invalid\n    tag_429:\n        /* \"contracts/lib/crypto/Secp256k1.sol\":6239:6240  P */\n      dup11\n        /* \"contracts/lib/crypto/Secp256k1.sol\":6241:6242  2 */\n      0x2\n        /* \"contracts/lib/crypto/Secp256k1.sol\":6239:6243  P[2] */\n      0x3\n      dup2\n      lt\n      iszero\n      iszero\n      tag_430\n      jumpi\n      invalid\n    tag_430:\n      0x20\n      mul\n      add\n      mload\n        /* \"contracts/lib/crypto/Secp256k1.sol\":6233:6234  P */\n      dup12\n        /* \"contracts/lib/crypto/Secp256k1.sol\":6235:6236  2 */\n      0x2\n        /* \"contracts/lib/crypto/Secp256k1.sol\":6233:6237  P[2] */\n      0x3\n      dup2\n      lt\n      iszero\n      iszero\n      tag_431\n      jumpi\n      invalid\n    tag_431:\n      0x20\n      mul\n      add\n      mload\n        /* \"contracts/lib/crypto/Secp256k1.sol\":6226:6247  mulmod(P[2], P[2], p) */\n      mulmod\n        /* \"contracts/lib/crypto/Secp256k1.sol\":6218:6220  zs */\n      dup8\n        /* \"contracts/lib/crypto/Secp256k1.sol\":6221:6222  0 */\n      0x0\n        /* \"contracts/lib/crypto/Secp256k1.sol\":6218:6223  zs[0] */\n      0x2\n      dup2\n      lt\n      iszero\n      iszero\n      tag_432\n      jumpi\n      invalid\n    tag_432:\n      0x20\n      mul\n      add\n        /* \"contracts/lib/crypto/Secp256k1.sol\":6218:6247  zs[0] = mulmod(P[2], P[2], p) */\n      dup2\n      dup2\n      mstore\n      pop\n      pop\n        /* \"contracts/lib/crypto/Secp256k1.sol\":6285:6286  p */\n      dup8\n        /* \"contracts/lib/crypto/Secp256k1.sol\":6265:6287  mulmod(P[2], zs[0], p) */\n      dup1\n      iszero\n      iszero\n      tag_433\n      jumpi\n      invalid\n    tag_433:\n        /* \"contracts/lib/crypto/Secp256k1.sol\":6278:6280  zs */\n      dup8\n        /* \"contracts/lib/crypto/Secp256k1.sol\":6281:6282  0 */\n      0x0\n        /* \"contracts/lib/crypto/Secp256k1.sol\":6278:6283  zs[0] */\n      0x2\n      dup2\n      lt\n      iszero\n      iszero\n      tag_434\n      jumpi\n      invalid\n    tag_434:\n      0x20\n      mul\n      add\n      mload\n        /* \"contracts/lib/crypto/Secp256k1.sol\":6272:6273  P */\n      dup12\n        /* \"contracts/lib/crypto/Secp256k1.sol\":6274:6275  2 */\n      0x2\n        /* \"contracts/lib/crypto/Secp256k1.sol\":6272:6276  P[2] */\n      0x3\n      dup2\n      lt\n      iszero\n      iszero\n      tag_435\n      jumpi\n      invalid\n    tag_435:\n      0x20\n      mul\n      add\n      mload\n        /* \"contracts/lib/crypto/Secp256k1.sol\":6265:6287  mulmod(P[2], zs[0], p) */\n      mulmod\n        /* \"contracts/lib/crypto/Secp256k1.sol\":6257:6259  zs */\n      dup8\n        /* \"contracts/lib/crypto/Secp256k1.sol\":6260:6261  1 */\n      0x1\n        /* \"contracts/lib/crypto/Secp256k1.sol\":6257:6262  zs[1] */\n      0x2\n      dup2\n      lt\n      iszero\n      iszero\n      tag_436\n      jumpi\n      invalid\n    tag_436:\n      0x20\n      mul\n      add\n        /* \"contracts/lib/crypto/Secp256k1.sol\":6257:6287  zs[1] = mulmod(P[2], zs[0], p) */\n      dup2\n      dup2\n      mstore\n      pop\n      pop\n        /* \"contracts/lib/crypto/Secp256k1.sol\":6297:6435  uint[4] memory us = [... */\n      0x80\n      mload(0x40)\n      swap1\n      dup2\n      add\n      0x40\n      mstore\n      dup1\n        /* \"contracts/lib/crypto/Secp256k1.sol\":6331:6332  P */\n      dup12\n        /* \"contracts/lib/crypto/Secp256k1.sol\":6333:6334  0 */\n      0x0\n        /* \"contracts/lib/crypto/Secp256k1.sol\":6331:6335  P[0] */\n      0x3\n      dup2\n      lt\n      iszero\n      iszero\n      tag_437\n      jumpi\n      invalid\n    tag_437:\n      0x20\n      mul\n      add\n      mload\n        /* \"contracts/lib/crypto/Secp256k1.sol\":6297:6435  uint[4] memory us = [... */\n      dup2\n      mstore\n      0x20\n      add\n        /* \"contracts/lib/crypto/Secp256k1.sol\":6349:6350  P */\n      dup12\n        /* \"contracts/lib/crypto/Secp256k1.sol\":6351:6352  1 */\n      0x1\n        /* \"contracts/lib/crypto/Secp256k1.sol\":6349:6353  P[1] */\n      0x3\n      dup2\n      lt\n      iszero\n      iszero\n      tag_438\n      jumpi\n      invalid\n    tag_438:\n      0x20\n      mul\n      add\n      mload\n        /* \"contracts/lib/crypto/Secp256k1.sol\":6297:6435  uint[4] memory us = [... */\n      dup2\n      mstore\n      0x20\n      add\n        /* \"contracts/lib/crypto/Secp256k1.sol\":6387:6388  p */\n      dup10\n        /* \"contracts/lib/crypto/Secp256k1.sol\":6367:6389  mulmod(Q[0], zs[0], p) */\n      dup1\n      iszero\n      iszero\n      tag_439\n      jumpi\n      invalid\n    tag_439:\n        /* \"contracts/lib/crypto/Secp256k1.sol\":6380:6382  zs */\n      dup10\n        /* \"contracts/lib/crypto/Secp256k1.sol\":6383:6384  0 */\n      0x0\n        /* \"contracts/lib/crypto/Secp256k1.sol\":6380:6385  zs[0] */\n      0x2\n      dup2\n      lt\n      iszero\n      iszero\n      tag_440\n      jumpi\n      invalid\n    tag_440:\n      0x20\n      mul\n      add\n      mload\n        /* \"contracts/lib/crypto/Secp256k1.sol\":6374:6375  Q */\n      dup13\n        /* \"contracts/lib/crypto/Secp256k1.sol\":6376:6377  0 */\n      0x0\n        /* \"contracts/lib/crypto/Secp256k1.sol\":6374:6378  Q[0] */\n      0x2\n      dup2\n      lt\n      iszero\n      iszero\n      tag_441\n      jumpi\n      invalid\n    tag_441:\n      0x20\n      mul\n      add\n      mload\n        /* \"contracts/lib/crypto/Secp256k1.sol\":6367:6389  mulmod(Q[0], zs[0], p) */\n      mulmod\n        /* \"contracts/lib/crypto/Secp256k1.sol\":6297:6435  uint[4] memory us = [... */\n      dup2\n      mstore\n      0x20\n      add\n        /* \"contracts/lib/crypto/Secp256k1.sol\":6423:6424  p */\n      dup10\n        /* \"contracts/lib/crypto/Secp256k1.sol\":6403:6425  mulmod(Q[1], zs[1], p) */\n      dup1\n      iszero\n      iszero\n      tag_442\n      jumpi\n      invalid\n    tag_442:\n        /* \"contracts/lib/crypto/Secp256k1.sol\":6416:6418  zs */\n      dup10\n        /* \"contracts/lib/crypto/Secp256k1.sol\":6419:6420  1 */\n      0x1\n        /* \"contracts/lib/crypto/Secp256k1.sol\":6416:6421  zs[1] */\n      0x2\n      dup2\n      lt\n      iszero\n      iszero\n      tag_443\n      jumpi\n      invalid\n    tag_443:\n      0x20\n      mul\n      add\n      mload\n        /* \"contracts/lib/crypto/Secp256k1.sol\":6410:6411  Q */\n      dup13\n        /* \"contracts/lib/crypto/Secp256k1.sol\":6412:6413  1 */\n      0x1\n        /* \"contracts/lib/crypto/Secp256k1.sol\":6410:6414  Q[1] */\n      0x2\n      dup2\n      lt\n      iszero\n      iszero\n      tag_444\n      jumpi\n      invalid\n    tag_444:\n      0x20\n      mul\n      add\n      mload\n        /* \"contracts/lib/crypto/Secp256k1.sol\":6403:6425  mulmod(Q[1], zs[1], p) */\n      mulmod\n        /* \"contracts/lib/crypto/Secp256k1.sol\":6297:6435  uint[4] memory us = [... */\n      dup2\n      mstore\n      pop\n      swap6\n      pop\n        /* \"contracts/lib/crypto/Secp256k1.sol\":6476:6478  us */\n      dup6\n        /* \"contracts/lib/crypto/Secp256k1.sol\":6479:6480  2 */\n      0x2\n        /* \"contracts/lib/crypto/Secp256k1.sol\":6476:6481  us[2] */\n      0x4\n      dup2\n      lt\n      iszero\n      iszero\n      tag_445\n      jumpi\n      invalid\n    tag_445:\n      0x20\n      mul\n      add\n      mload\n        /* \"contracts/lib/crypto/Secp256k1.sol\":6467:6469  us */\n      dup7\n        /* \"contracts/lib/crypto/Secp256k1.sol\":6470:6471  0 */\n      0x0\n        /* \"contracts/lib/crypto/Secp256k1.sol\":6467:6472  us[0] */\n      0x4\n      dup2\n      lt\n      iszero\n      iszero\n      tag_446\n      jumpi\n      invalid\n    tag_446:\n      0x20\n      mul\n      add\n      mload\n        /* \"contracts/lib/crypto/Secp256k1.sol\":6467:6481  us[0] == us[2] */\n      eq\n        /* \"contracts/lib/crypto/Secp256k1.sol\":6463:6730  if (us[0] == us[2]) {... */\n      iszero\n      tag_447\n      jumpi\n        /* \"contracts/lib/crypto/Secp256k1.sol\":6510:6512  us */\n      dup6\n        /* \"contracts/lib/crypto/Secp256k1.sol\":6513:6514  3 */\n      0x3\n        /* \"contracts/lib/crypto/Secp256k1.sol\":6510:6515  us[3] */\n      0x4\n      dup2\n      lt\n      iszero\n      iszero\n      tag_448\n      jumpi\n      invalid\n    tag_448:\n      0x20\n      mul\n      add\n      mload\n        /* \"contracts/lib/crypto/Secp256k1.sol\":6501:6503  us */\n      dup7\n        /* \"contracts/lib/crypto/Secp256k1.sol\":6504:6505  1 */\n      0x1\n        /* \"contracts/lib/crypto/Secp256k1.sol\":6501:6506  us[1] */\n      0x4\n      dup2\n      lt\n      iszero\n      iszero\n      tag_449\n      jumpi\n      invalid\n    tag_449:\n      0x20\n      mul\n      add\n      mload\n        /* \"contracts/lib/crypto/Secp256k1.sol\":6501:6515  us[1] != us[3] */\n      eq\n      iszero\n        /* \"contracts/lib/crypto/Secp256k1.sol\":6497:6720  if (us[1] != us[3]) {... */\n      iszero\n      tag_450\n      jumpi\n        /* \"contracts/lib/crypto/Secp256k1.sol\":6542:6543  0 */\n      0x0\n        /* \"contracts/lib/crypto/Secp256k1.sol\":6535:6536  P */\n      dup11\n        /* \"contracts/lib/crypto/Secp256k1.sol\":6537:6538  0 */\n      0x0\n        /* \"contracts/lib/crypto/Secp256k1.sol\":6535:6539  P[0] */\n      0x3\n      dup2\n      lt\n      iszero\n      iszero\n      tag_451\n      jumpi\n      invalid\n    tag_451:\n      0x20\n      mul\n      add\n        /* \"contracts/lib/crypto/Secp256k1.sol\":6535:6543  P[0] = 0 */\n      dup2\n      dup2\n      mstore\n      pop\n      pop\n        /* \"contracts/lib/crypto/Secp256k1.sol\":6568:6569  0 */\n      0x0\n        /* \"contracts/lib/crypto/Secp256k1.sol\":6561:6562  P */\n      dup11\n        /* \"contracts/lib/crypto/Secp256k1.sol\":6563:6564  1 */\n      0x1\n        /* \"contracts/lib/crypto/Secp256k1.sol\":6561:6565  P[1] */\n      0x3\n      dup2\n      lt\n      iszero\n      iszero\n      tag_452\n      jumpi\n      invalid\n    tag_452:\n      0x20\n      mul\n      add\n        /* \"contracts/lib/crypto/Secp256k1.sol\":6561:6569  P[1] = 0 */\n      dup2\n      dup2\n      mstore\n      pop\n      pop\n        /* \"contracts/lib/crypto/Secp256k1.sol\":6594:6595  0 */\n      0x0\n        /* \"contracts/lib/crypto/Secp256k1.sol\":6587:6588  P */\n      dup11\n        /* \"contracts/lib/crypto/Secp256k1.sol\":6589:6590  2 */\n      0x2\n        /* \"contracts/lib/crypto/Secp256k1.sol\":6587:6591  P[2] */\n      0x3\n      dup2\n      lt\n      iszero\n      iszero\n      tag_453\n      jumpi\n      invalid\n    tag_453:\n      0x20\n      mul\n      add\n        /* \"contracts/lib/crypto/Secp256k1.sol\":6587:6595  P[2] = 0 */\n      dup2\n      dup2\n      mstore\n      pop\n      pop\n        /* \"contracts/lib/crypto/Secp256k1.sol\":6613:6620  return; */\n      jump(tag_419)\n        /* \"contracts/lib/crypto/Secp256k1.sol\":6497:6720  if (us[1] != us[3]) {... */\n    tag_450:\n        /* \"contracts/lib/crypto/Secp256k1.sol\":6670:6681  _doubleM(P) */\n      tag_455\n        /* \"contracts/lib/crypto/Secp256k1.sol\":6679:6680  P */\n      dup11\n        /* \"contracts/lib/crypto/Secp256k1.sol\":6670:6678  _doubleM */\n      tag_201\n        /* \"contracts/lib/crypto/Secp256k1.sol\":6670:6681  _doubleM(P) */\n      jump\t// in\n    tag_455:\n        /* \"contracts/lib/crypto/Secp256k1.sol\":6699:6706  return; */\n      jump(tag_419)\n        /* \"contracts/lib/crypto/Secp256k1.sol\":6463:6730  if (us[0] == us[2]) {... */\n    tag_447:\n        /* \"contracts/lib/crypto/Secp256k1.sol\":6773:6774  p */\n      dup8\n        /* \"contracts/lib/crypto/Secp256k1.sol\":6748:6775  addmod(us[2], p - us[0], p) */\n      dup1\n      iszero\n      iszero\n      tag_456\n      jumpi\n      invalid\n    tag_456:\n        /* \"contracts/lib/crypto/Secp256k1.sol\":6766:6768  us */\n      dup7\n        /* \"contracts/lib/crypto/Secp256k1.sol\":6769:6770  0 */\n      0x0\n        /* \"contracts/lib/crypto/Secp256k1.sol\":6766:6771  us[0] */\n      0x4\n      dup2\n      lt\n      iszero\n      iszero\n      tag_457\n      jumpi\n      invalid\n    tag_457:\n      0x20\n      mul\n      add\n      mload\n        /* \"contracts/lib/crypto/Secp256k1.sol\":6762:6763  p */\n      dup10\n        /* \"contracts/lib/crypto/Secp256k1.sol\":6762:6771  p - us[0] */\n      sub\n        /* \"contracts/lib/crypto/Secp256k1.sol\":6755:6757  us */\n      dup8\n        /* \"contracts/lib/crypto/Secp256k1.sol\":6758:6759  2 */\n      0x2\n        /* \"contracts/lib/crypto/Secp256k1.sol\":6755:6760  us[2] */\n      0x4\n      dup2\n      lt\n      iszero\n      iszero\n      tag_458\n      jumpi\n      invalid\n    tag_458:\n      0x20\n      mul\n      add\n      mload\n        /* \"contracts/lib/crypto/Secp256k1.sol\":6748:6775  addmod(us[2], p - us[0], p) */\n      addmod\n        /* \"contracts/lib/crypto/Secp256k1.sol\":6739:6775  uint h = addmod(us[2], p - us[0], p) */\n      swap5\n      pop\n        /* \"contracts/lib/crypto/Secp256k1.sol\":6819:6820  p */\n      dup8\n        /* \"contracts/lib/crypto/Secp256k1.sol\":6794:6821  addmod(us[3], p - us[1], p) */\n      dup1\n      iszero\n      iszero\n      tag_459\n      jumpi\n      invalid\n    tag_459:\n        /* \"contracts/lib/crypto/Secp256k1.sol\":6812:6814  us */\n      dup7\n        /* \"contracts/lib/crypto/Secp256k1.sol\":6815:6816  1 */\n      0x1\n        /* \"contracts/lib/crypto/Secp256k1.sol\":6812:6817  us[1] */\n      0x4\n      dup2\n      lt\n      iszero\n      iszero\n      tag_460\n      jumpi\n      invalid\n    tag_460:\n      0x20\n      mul\n      add\n      mload\n        /* \"contracts/lib/crypto/Secp256k1.sol\":6808:6809  p */\n      dup10\n        /* \"contracts/lib/crypto/Secp256k1.sol\":6808:6817  p - us[1] */\n      sub\n        /* \"contracts/lib/crypto/Secp256k1.sol\":6801:6803  us */\n      dup8\n        /* \"contracts/lib/crypto/Secp256k1.sol\":6804:6805  3 */\n      0x3\n        /* \"contracts/lib/crypto/Secp256k1.sol\":6801:6806  us[3] */\n      0x4\n      dup2\n      lt\n      iszero\n      iszero\n      tag_461\n      jumpi\n      invalid\n    tag_461:\n      0x20\n      mul\n      add\n      mload\n        /* \"contracts/lib/crypto/Secp256k1.sol\":6794:6821  addmod(us[3], p - us[1], p) */\n      addmod\n        /* \"contracts/lib/crypto/Secp256k1.sol\":6785:6821  uint r = addmod(us[3], p - us[1], p) */\n      swap4\n      pop\n        /* \"contracts/lib/crypto/Secp256k1.sol\":6854:6855  p */\n      dup8\n        /* \"contracts/lib/crypto/Secp256k1.sol\":6841:6856  mulmod(h, h, p) */\n      dup1\n      iszero\n      iszero\n      tag_462\n      jumpi\n      invalid\n    tag_462:\n        /* \"contracts/lib/crypto/Secp256k1.sol\":6851:6852  h */\n      dup6\n        /* \"contracts/lib/crypto/Secp256k1.sol\":6848:6849  h */\n      dup7\n        /* \"contracts/lib/crypto/Secp256k1.sol\":6841:6856  mulmod(h, h, p) */\n      mulmod\n        /* \"contracts/lib/crypto/Secp256k1.sol\":6831:6856  uint h2 = mulmod(h, h, p) */\n      swap3\n      pop\n        /* \"contracts/lib/crypto/Secp256k1.sol\":6890:6891  p */\n      dup8\n        /* \"contracts/lib/crypto/Secp256k1.sol\":6876:6892  mulmod(h2, h, p) */\n      dup1\n      iszero\n      iszero\n      tag_463\n      jumpi\n      invalid\n    tag_463:\n        /* \"contracts/lib/crypto/Secp256k1.sol\":6887:6888  h */\n      dup6\n        /* \"contracts/lib/crypto/Secp256k1.sol\":6883:6885  h2 */\n      dup5\n        /* \"contracts/lib/crypto/Secp256k1.sol\":6876:6892  mulmod(h2, h, p) */\n      mulmod\n        /* \"contracts/lib/crypto/Secp256k1.sol\":6866:6892  uint h3 = mulmod(h2, h, p) */\n      swap2\n      pop\n        /* \"contracts/lib/crypto/Secp256k1.sol\":6944:6945  p */\n      dup8\n        /* \"contracts/lib/crypto/Secp256k1.sol\":6912:6946  addmod(mulmod(r, r, p), p - h3, p) */\n      dup1\n      iszero\n      iszero\n      tag_464\n      jumpi\n      invalid\n    tag_464:\n        /* \"contracts/lib/crypto/Secp256k1.sol\":6940:6942  h3 */\n      dup3\n        /* \"contracts/lib/crypto/Secp256k1.sol\":6936:6937  p */\n      dup10\n        /* \"contracts/lib/crypto/Secp256k1.sol\":6936:6942  p - h3 */\n      sub\n        /* \"contracts/lib/crypto/Secp256k1.sol\":6932:6933  p */\n      dup10\n        /* \"contracts/lib/crypto/Secp256k1.sol\":6919:6934  mulmod(r, r, p) */\n      dup1\n      iszero\n      iszero\n      tag_465\n      jumpi\n      invalid\n    tag_465:\n        /* \"contracts/lib/crypto/Secp256k1.sol\":6929:6930  r */\n      dup7\n        /* \"contracts/lib/crypto/Secp256k1.sol\":6926:6927  r */\n      dup8\n        /* \"contracts/lib/crypto/Secp256k1.sol\":6919:6934  mulmod(r, r, p) */\n      mulmod\n        /* \"contracts/lib/crypto/Secp256k1.sol\":6912:6946  addmod(mulmod(r, r, p), p - h3, p) */\n      addmod\n        /* \"contracts/lib/crypto/Secp256k1.sol\":6902:6946  uint Rx = addmod(mulmod(r, r, p), p - h3, p) */\n      swap1\n      pop\n        /* \"contracts/lib/crypto/Secp256k1.sol\":7012:7013  p */\n      dup8\n        /* \"contracts/lib/crypto/Secp256k1.sol\":6961:7014  addmod(Rx, p - mulmod(2, mulmod(us[0], h2, p), p), p) */\n      dup1\n      iszero\n      iszero\n      tag_466\n      jumpi\n      invalid\n    tag_466:\n        /* \"contracts/lib/crypto/Secp256k1.sol\":7008:7009  p */\n      dup9\n        /* \"contracts/lib/crypto/Secp256k1.sol\":6976:7010  mulmod(2, mulmod(us[0], h2, p), p) */\n      dup1\n      iszero\n      iszero\n      tag_467\n      jumpi\n      invalid\n    tag_467:\n        /* \"contracts/lib/crypto/Secp256k1.sol\":7004:7005  p */\n      dup10\n        /* \"contracts/lib/crypto/Secp256k1.sol\":6986:7006  mulmod(us[0], h2, p) */\n      dup1\n      iszero\n      iszero\n      tag_468\n      jumpi\n      invalid\n    tag_468:\n        /* \"contracts/lib/crypto/Secp256k1.sol\":7000:7002  h2 */\n      dup6\n        /* \"contracts/lib/crypto/Secp256k1.sol\":6993:6995  us */\n      dup10\n        /* \"contracts/lib/crypto/Secp256k1.sol\":6996:6997  0 */\n      0x0\n        /* \"contracts/lib/crypto/Secp256k1.sol\":6993:6998  us[0] */\n      0x4\n      dup2\n      lt\n      iszero\n      iszero\n      tag_469\n      jumpi\n      invalid\n    tag_469:\n      0x20\n      mul\n      add\n      mload\n        /* \"contracts/lib/crypto/Secp256k1.sol\":6986:7006  mulmod(us[0], h2, p) */\n      mulmod\n        /* \"contracts/lib/crypto/Secp256k1.sol\":6983:6984  2 */\n      0x2\n        /* \"contracts/lib/crypto/Secp256k1.sol\":6976:7010  mulmod(2, mulmod(us[0], h2, p), p) */\n      mulmod\n        /* \"contracts/lib/crypto/Secp256k1.sol\":6972:6973  p */\n      dup10\n        /* \"contracts/lib/crypto/Secp256k1.sol\":6972:7010  p - mulmod(2, mulmod(us[0], h2, p), p) */\n      sub\n        /* \"contracts/lib/crypto/Secp256k1.sol\":6968:6970  Rx */\n      dup3\n        /* \"contracts/lib/crypto/Secp256k1.sol\":6961:7014  addmod(Rx, p - mulmod(2, mulmod(us[0], h2, p), p), p) */\n      addmod\n        /* \"contracts/lib/crypto/Secp256k1.sol\":6956:7014  Rx = addmod(Rx, p - mulmod(2, mulmod(us[0], h2, p), p), p) */\n      swap1\n      pop\n        /* \"contracts/lib/crypto/Secp256k1.sol\":7031:7033  Rx */\n      dup1\n        /* \"contracts/lib/crypto/Secp256k1.sol\":7024:7025  P */\n      dup11\n        /* \"contracts/lib/crypto/Secp256k1.sol\":7026:7027  0 */\n      0x0\n        /* \"contracts/lib/crypto/Secp256k1.sol\":7024:7028  P[0] */\n      0x3\n      dup2\n      lt\n      iszero\n      iszero\n      tag_470\n      jumpi\n      invalid\n    tag_470:\n      0x20\n      mul\n      add\n        /* \"contracts/lib/crypto/Secp256k1.sol\":7024:7033  P[0] = Rx */\n      dup2\n      dup2\n      mstore\n      pop\n      pop\n        /* \"contracts/lib/crypto/Secp256k1.sol\":7101:7102  p */\n      dup8\n        /* \"contracts/lib/crypto/Secp256k1.sol\":7050:7103  mulmod(r, addmod(mulmod(us[0], h2, p), p - Rx, p), p) */\n      dup1\n      iszero\n      iszero\n      tag_471\n      jumpi\n      invalid\n    tag_471:\n        /* \"contracts/lib/crypto/Secp256k1.sol\":7097:7098  p */\n      dup9\n        /* \"contracts/lib/crypto/Secp256k1.sol\":7060:7099  addmod(mulmod(us[0], h2, p), p - Rx, p) */\n      dup1\n      iszero\n      iszero\n      tag_472\n      jumpi\n      invalid\n    tag_472:\n        /* \"contracts/lib/crypto/Secp256k1.sol\":7093:7095  Rx */\n      dup3\n        /* \"contracts/lib/crypto/Secp256k1.sol\":7089:7090  p */\n      dup11\n        /* \"contracts/lib/crypto/Secp256k1.sol\":7089:7095  p - Rx */\n      sub\n        /* \"contracts/lib/crypto/Secp256k1.sol\":7085:7086  p */\n      dup11\n        /* \"contracts/lib/crypto/Secp256k1.sol\":7067:7087  mulmod(us[0], h2, p) */\n      dup1\n      iszero\n      iszero\n      tag_473\n      jumpi\n      invalid\n    tag_473:\n        /* \"contracts/lib/crypto/Secp256k1.sol\":7081:7083  h2 */\n      dup7\n        /* \"contracts/lib/crypto/Secp256k1.sol\":7074:7076  us */\n      dup11\n        /* \"contracts/lib/crypto/Secp256k1.sol\":7077:7078  0 */\n      0x0\n        /* \"contracts/lib/crypto/Secp256k1.sol\":7074:7079  us[0] */\n      0x4\n      dup2\n      lt\n      iszero\n      iszero\n      tag_474\n      jumpi\n      invalid\n    tag_474:\n      0x20\n      mul\n      add\n      mload\n        /* \"contracts/lib/crypto/Secp256k1.sol\":7067:7087  mulmod(us[0], h2, p) */\n      mulmod\n        /* \"contracts/lib/crypto/Secp256k1.sol\":7060:7099  addmod(mulmod(us[0], h2, p), p - Rx, p) */\n      addmod\n        /* \"contracts/lib/crypto/Secp256k1.sol\":7057:7058  r */\n      dup6\n        /* \"contracts/lib/crypto/Secp256k1.sol\":7050:7103  mulmod(r, addmod(mulmod(us[0], h2, p), p - Rx, p), p) */\n      mulmod\n        /* \"contracts/lib/crypto/Secp256k1.sol\":7043:7044  P */\n      dup11\n        /* \"contracts/lib/crypto/Secp256k1.sol\":7045:7046  1 */\n      0x1\n        /* \"contracts/lib/crypto/Secp256k1.sol\":7043:7047  P[1] */\n      0x3\n      dup2\n      lt\n      iszero\n      iszero\n      tag_475\n      jumpi\n      invalid\n    tag_475:\n      0x20\n      mul\n      add\n        /* \"contracts/lib/crypto/Secp256k1.sol\":7043:7103  P[1] = mulmod(r, addmod(mulmod(us[0], h2, p), p - Rx, p), p) */\n      dup2\n      dup2\n      mstore\n      pop\n      pop\n        /* \"contracts/lib/crypto/Secp256k1.sol\":7159:7160  p */\n      dup8\n        /* \"contracts/lib/crypto/Secp256k1.sol\":7120:7161  addmod(P[1], p - mulmod(us[1], h3, p), p) */\n      dup1\n      iszero\n      iszero\n      tag_476\n      jumpi\n      invalid\n    tag_476:\n        /* \"contracts/lib/crypto/Secp256k1.sol\":7155:7156  p */\n      dup9\n        /* \"contracts/lib/crypto/Secp256k1.sol\":7137:7157  mulmod(us[1], h3, p) */\n      dup1\n      iszero\n      iszero\n      tag_477\n      jumpi\n      invalid\n    tag_477:\n        /* \"contracts/lib/crypto/Secp256k1.sol\":7151:7153  h3 */\n      dup4\n        /* \"contracts/lib/crypto/Secp256k1.sol\":7144:7146  us */\n      dup9\n        /* \"contracts/lib/crypto/Secp256k1.sol\":7147:7148  1 */\n      0x1\n        /* \"contracts/lib/crypto/Secp256k1.sol\":7144:7149  us[1] */\n      0x4\n      dup2\n      lt\n      iszero\n      iszero\n      tag_478\n      jumpi\n      invalid\n    tag_478:\n      0x20\n      mul\n      add\n      mload\n        /* \"contracts/lib/crypto/Secp256k1.sol\":7137:7157  mulmod(us[1], h3, p) */\n      mulmod\n        /* \"contracts/lib/crypto/Secp256k1.sol\":7133:7134  p */\n      dup10\n        /* \"contracts/lib/crypto/Secp256k1.sol\":7133:7157  p - mulmod(us[1], h3, p) */\n      sub\n        /* \"contracts/lib/crypto/Secp256k1.sol\":7127:7128  P */\n      dup12\n        /* \"contracts/lib/crypto/Secp256k1.sol\":7129:7130  1 */\n      0x1\n        /* \"contracts/lib/crypto/Secp256k1.sol\":7127:7131  P[1] */\n      0x3\n      dup2\n      lt\n      iszero\n      iszero\n      tag_479\n      jumpi\n      invalid\n    tag_479:\n      0x20\n      mul\n      add\n      mload\n        /* \"contracts/lib/crypto/Secp256k1.sol\":7120:7161  addmod(P[1], p - mulmod(us[1], h3, p), p) */\n      addmod\n        /* \"contracts/lib/crypto/Secp256k1.sol\":7113:7114  P */\n      dup11\n        /* \"contracts/lib/crypto/Secp256k1.sol\":7115:7116  1 */\n      0x1\n        /* \"contracts/lib/crypto/Secp256k1.sol\":7113:7117  P[1] */\n      0x3\n      dup2\n      lt\n      iszero\n      iszero\n      tag_480\n      jumpi\n      invalid\n    tag_480:\n      0x20\n      mul\n      add\n        /* \"contracts/lib/crypto/Secp256k1.sol\":7113:7161  P[1] = addmod(P[1], p - mulmod(us[1], h3, p), p) */\n      dup2\n      dup2\n      mstore\n      pop\n      pop\n        /* \"contracts/lib/crypto/Secp256k1.sol\":7194:7195  p */\n      dup8\n        /* \"contracts/lib/crypto/Secp256k1.sol\":7178:7196  mulmod(h, P[2], p) */\n      dup1\n      iszero\n      iszero\n      tag_481\n      jumpi\n      invalid\n    tag_481:\n        /* \"contracts/lib/crypto/Secp256k1.sol\":7188:7189  P */\n      dup11\n        /* \"contracts/lib/crypto/Secp256k1.sol\":7190:7191  2 */\n      0x2\n        /* \"contracts/lib/crypto/Secp256k1.sol\":7188:7192  P[2] */\n      0x3\n      dup2\n      lt\n      iszero\n      iszero\n      tag_482\n      jumpi\n      invalid\n    tag_482:\n      0x20\n      mul\n      add\n      mload\n        /* \"contracts/lib/crypto/Secp256k1.sol\":7185:7186  h */\n      dup7\n        /* \"contracts/lib/crypto/Secp256k1.sol\":7178:7196  mulmod(h, P[2], p) */\n      mulmod\n        /* \"contracts/lib/crypto/Secp256k1.sol\":7171:7172  P */\n      dup11\n        /* \"contracts/lib/crypto/Secp256k1.sol\":7173:7174  2 */\n      0x2\n        /* \"contracts/lib/crypto/Secp256k1.sol\":7171:7175  P[2] */\n      0x3\n      dup2\n      lt\n      iszero\n      iszero\n      tag_483\n      jumpi\n      invalid\n    tag_483:\n      0x20\n      mul\n      add\n        /* \"contracts/lib/crypto/Secp256k1.sol\":7171:7196  P[2] = mulmod(h, P[2], p) */\n      dup2\n      dup2\n      mstore\n      pop\n      pop\n        /* \"contracts/lib/crypto/Secp256k1.sol\":5892:7203  function _addMixedM(uint[3] memory P, uint[2] memory Q) internal constant {... */\n    tag_419:\n      pop\n      pop\n      pop\n      pop\n      pop\n      pop\n      pop\n      pop\n      pop\n      pop\n      jump\t// out\n        /* \"contracts/BtcEcRecover.sol\":134:2641  contract BtcEcRecover {\r... */\n    tag_21:\n      0x60\n      mload(0x40)\n      swap1\n      dup2\n      add\n      0x40\n      mstore\n      dup1\n      0x3\n      swap1\n        /* \"--CODEGEN--\":29:31   */\n      0x20\n        /* \"--CODEGEN--\":21:27   */\n      dup3\n        /* \"--CODEGEN--\":17:32   */\n      mul\n        /* \"--CODEGEN--\":117:121   */\n      dup1\n        /* \"--CODEGEN--\":105:115   */\n      codesize\n        /* \"--CODEGEN--\":97:103   */\n      dup4\n        /* \"--CODEGEN--\":88:122   */\n      codecopy\n        /* \"--CODEGEN--\":148:152   */\n      dup1\n        /* \"--CODEGEN--\":140:146   */\n      dup3\n        /* \"--CODEGEN--\":136:153   */\n      add\n        /* \"--CODEGEN--\":126:153   */\n      swap2\n      pop\n        /* \"--CODEGEN--\":0:157   */\n      pop\n        /* \"contracts/BtcEcRecover.sol\":134:2641  contract BtcEcRecover {\r... */\n      swap1\n      pop\n      pop\n      swap1\n      jump\t// out\n    tag_93:\n      0x300\n      mload(0x40)\n      swap1\n      dup2\n      add\n      0x40\n      mstore\n      dup1\n      0x8\n      swap1\n    tag_484:\n      tag_485\n      jump\t// in(tag_486)\n    tag_485:\n      dup2\n      mstore\n      0x20\n      add\n      swap1\n      0x1\n      swap1\n      sub\n      swap1\n      dup2\n      tag_484\n      jumpi\n      swap1\n      pop\n      pop\n      swap1\n      jump\t// out\n    tag_96:\n      0x200\n      mload(0x40)\n      swap1\n      dup2\n      add\n      0x40\n      mstore\n      dup1\n      0x10\n      swap1\n        /* \"--CODEGEN--\":29:31   */\n      0x20\n        /* \"--CODEGEN--\":21:27   */\n      dup3\n        /* \"--CODEGEN--\":17:32   */\n      mul\n        /* \"--CODEGEN--\":117:121   */\n      dup1\n        /* \"--CODEGEN--\":105:115   */\n      codesize\n        /* \"--CODEGEN--\":97:103   */\n      dup4\n        /* \"--CODEGEN--\":88:122   */\n      codecopy\n        /* \"--CODEGEN--\":148:152   */\n      dup1\n        /* \"--CODEGEN--\":140:146   */\n      dup3\n        /* \"--CODEGEN--\":136:153   */\n      add\n        /* \"--CODEGEN--\":126:153   */\n      swap2\n      pop\n        /* \"--CODEGEN--\":0:157   */\n      pop\n        /* \"contracts/BtcEcRecover.sol\":134:2641  contract BtcEcRecover {\r... */\n      swap1\n      pop\n      pop\n      swap1\n      jump\t// out\n    tag_220:\n      0x80\n      mload(0x40)\n      swap1\n      dup2\n      add\n      0x40\n      mstore\n      dup1\n      0x4\n      swap1\n        /* \"--CODEGEN--\":29:31   */\n      0x20\n        /* \"--CODEGEN--\":21:27   */\n      dup3\n        /* \"--CODEGEN--\":17:32   */\n      mul\n        /* \"--CODEGEN--\":117:121   */\n      dup1\n        /* \"--CODEGEN--\":105:115   */\n      codesize\n        /* \"--CODEGEN--\":97:103   */\n      dup4\n        /* \"--CODEGEN--\":88:122   */\n      codecopy\n        /* \"--CODEGEN--\":148:152   */\n      dup1\n        /* \"--CODEGEN--\":140:146   */\n      dup3\n        /* \"--CODEGEN--\":136:153   */\n      add\n        /* \"--CODEGEN--\":126:153   */\n      swap2\n      pop\n        /* \"--CODEGEN--\":0:157   */\n      pop\n        /* \"contracts/BtcEcRecover.sol\":134:2641  contract BtcEcRecover {\r... */\n      swap1\n      pop\n      pop\n      swap1\n      jump\t// out\n    tag_320:\n      0x40\n      dup1\n      mload\n      swap1\n      dup2\n      add\n      0x40\n      mstore\n      dup1\n      0x2\n      swap1\n        /* \"--CODEGEN--\":29:31   */\n      0x20\n        /* \"--CODEGEN--\":21:27   */\n      dup3\n        /* \"--CODEGEN--\":17:32   */\n      mul\n        /* \"--CODEGEN--\":117:121   */\n      dup1\n        /* \"--CODEGEN--\":105:115   */\n      codesize\n        /* \"--CODEGEN--\":97:103   */\n      dup4\n        /* \"--CODEGEN--\":88:122   */\n      codecopy\n        /* \"--CODEGEN--\":148:152   */\n      dup1\n        /* \"--CODEGEN--\":140:146   */\n      dup3\n        /* \"--CODEGEN--\":136:153   */\n      add\n        /* \"--CODEGEN--\":126:153   */\n      swap2\n      pop\n        /* \"--CODEGEN--\":0:157   */\n      pop\n        /* \"contracts/BtcEcRecover.sol\":134:2641  contract BtcEcRecover {\r... */\n      swap1\n      pop\n      pop\n      swap1\n      jump\t// out\n    tag_486:\n      0x60\n      mload(0x40)\n      swap1\n      dup2\n      add\n      0x40\n      mstore\n      dup1\n      0x3\n      swap1\n        /* \"--CODEGEN--\":29:31   */\n      0x20\n        /* \"--CODEGEN--\":21:27   */\n      dup3\n        /* \"--CODEGEN--\":17:32   */\n      mul\n        /* \"--CODEGEN--\":117:121   */\n      dup1\n        /* \"--CODEGEN--\":105:115   */\n      codesize\n        /* \"--CODEGEN--\":97:103   */\n      dup4\n        /* \"--CODEGEN--\":88:122   */\n      codecopy\n        /* \"--CODEGEN--\":148:152   */\n      dup1\n        /* \"--CODEGEN--\":140:146   */\n      dup3\n        /* \"--CODEGEN--\":136:153   */\n      add\n        /* \"--CODEGEN--\":126:153   */\n      swap2\n      pop\n        /* \"--CODEGEN--\":0:157   */\n      pop\n        /* \"contracts/BtcEcRecover.sol\":134:2641  contract BtcEcRecover {\r... */\n      swap1\n      pop\n      pop\n      swap1\n      jump\t// out\n\n    auxdata: 0xa165627a7a72305820c4478f72d46ba71c9bd99634d7069822a899a34590e3be21826c051ef23d0e850029\n}\n",
				"bytecode": {
					"linkReferences": {},
					"object": "608060405234801561001057600080fd5b506125e6806100206000396000f300608060405260043610610041576000357c0100000000000000000000000000000000000000000000000000000000900463ffffffff16806319045a2514610046575b600080fd5b34801561005257600080fd5b506100bb6004803603810190808035600019169060200190929190803590602001908201803590602001908080601f0160208091040260200160405190810160405280939291908181526020018383808284378201915050505050509192919290505050610136565b6040518080602001828103825283818151815260200191508051906020019080838360005b838110156100fb5780820151818401526020810190506100e0565b50505050905090810190601f1680156101285780820380516001836020036101000a031916815260200191505b509250505060405180910390f35b6060600080600060418551141515610160576020604051908101604052806000815250935061022c565b602085015160001a9050602185015192506041850151915060027ffffffffffffffffffffffffffffffffebaaedce6af48a03bbfd25e8cd03641418115156101a457fe5b04826001900411156101c8576020604051908101604052806000815250935061022c565b601b8160ff16141580156101e05750601c8160ff1614155b80156101f05750601f8160ff1614155b8015610200575060208160ff1614155b1561021d576020604051908101604052806000815250935061022c565b61022986828585610235565b93505b50505092915050565b60606000806000806000806102486124dc565b6060600097508a6001900496508960019004955060006001601b8e031660ff161415945060006002601b8e031660ff161415935060006004601b8e031660ff16141592508215156102ab57602060405190810160405280600081525098506104fb565b7ffffffffffffffffffffffffffffffffebaaedce6af48a03bbfd25e8cd03641417ffffffffffffffffffffffffffffffffffffffffffffffffffffffffefffffc2f8115156102f657fe5b0687101580156103035750835b1561032057602060405190810160405280600081525098506104fb565b6103318d600190048888888861050b565b9150600082600260038110151561034457fe5b6020020151141561036757602060405190810160405280600081525098506104fb565b610391827ffffffffffffffffffffffffffffffffffffffffffffffffffffffffefffffc2f61074d565b60216040519080825280601f01601f1916602001820160405280156103c55781602001602082028038833980820191505090505b509050600060028360016003811015156103db57fe5b60200201518115156103e957fe5b06146103f65760036103f9565b60025b7f01000000000000000000000000000000000000000000000000000000000000000281600081518110151561042a57fe5b9060200101907effffffffffffffffffffffffffffffffffffffffffffffffffffffffffffff1916908160001a905350600097505b60208810156104f75760ff8860080283600060038110151561047d57fe5b60200201519060020a9004167f01000000000000000000000000000000000000000000000000000000000000000281896020038151811015156104bc57fe5b9060200101907effffffffffffffffffffffffffffffffffffffffffffffffffffffffffffff1916908160001a90535087600101975061045f565b8098505b5050505050505050949350505050565b6105136124dc565b6000806000846105235787610547565b7ffffffffffffffffffffffffffffffffebaaedce6af48a03bbfd25e8cd036414188015b92506105d1600761057a8560037ffffffffffffffffffffffffffffffffffffffffffffffffffffffffefffffc2f61081a565b01600160047ffffffffffffffffffffffffffffffffffffffffffffffffffffffffefffffc2f8115156105a957fe5b04017ffffffffffffffffffffffffffffffffffffffffffffffffffffffffefffffc2f61081a565b915060016002838115156105e157fe5b0614151586151514151561061557817ffffffffffffffffffffffffffffffffffffffffffffffffffffffffefffffc2f0391505b61063f887ffffffffffffffffffffffffffffffffebaaedce6af48a03bbfd25e8cd03641416108d6565b905061073f6106f07ffffffffffffffffffffffffffffffffebaaedce6af48a03bbfd25e8cd036414180151561067157fe5b838c097ffffffffffffffffffffffffffffffffebaaedce6af48a03bbfd25e8cd03641410360408051908101604052807f79be667ef9dcbbac55a06295ce870b07029bfcdb2dce28d959f2815b16f8179881526020017f483ada7726a3c4655da4fbfc0e1108a8fd17b448a68554199c47d08ffb10d4b8815250610982565b61073a7ffffffffffffffffffffffffffffffffebaaedce6af48a03bbfd25e8cd036414180151561071d57fe5b848b09604080519081016040528088815260200187815250610982565b611211565b935050505095945050505050565b60008061076d84600260038110151561076257fe5b6020020151846108d6565b91508280151561077957fe5b82830990508280151561078857fe5b8185600060038110151561079857fe5b6020020151098460006003811015156107ad57fe5b602002018181525050828015156107c057fe5b838015156107ca57fe5b8284098560016003811015156107dc57fe5b6020020151098460016003811015156107f157fe5b602002018181525050600184600260038110151561080b57fe5b60200201818152505050505050565b600080600085141561082f57600091506108ce565b600084141561084157600191506108ce565b600083141561084f57600080fd5b600191507f800000000000000000000000000000000000000000000000000000000000000090505b80156108cd57828185161515860a84848509099150826002820485161515860a84848509099150826004820485161515860a84848509099150826008820485161515860a84848509099150601081049050610877565b5b509392505050565b60008060008060008060008814806108ed57508688145b806108f85750600087145b1561090257600080fd5b8688111561091957868881151561091557fe5b0697505b600193508692508791505b60008214151561095d57818381151561093957fe5b04905083848202860383848402860380955081965082975083985050505050610924565b6000851215610973578460000387039550610977565b8495505b505050505092915050565b61098a6124dc565b60008060006109976124ff565b61099f6124dc565b6109a761252e565b60008060007ffffffffffffffffffffffffffffffffffffffffffffffffffffffffefffffc2f985060008c14156109dd57611202565b6000604051985061020089016040525b8c15610a265760018d1615610a155760208d06905080888a015360206010821102818e03019c505b60028d049c506001880197506109ed565b506060604051908101604052808c6000600281101515610a4257fe5b602002015181526020018c6001600281101515610a5b57fe5b602002015181526020016001815250866000600881101515610a7957fe5b6020020181905250610a9d866000600881101515610a9357fe5b6020020151611737565b9450610aa9858c6118ef565b866001600881101515610ab857fe5b6020020181905250610add85876001600881101515610ad357fe5b6020020151611211565b866002600881101515610aec57fe5b6020020181905250610b1185876002600881101515610b0757fe5b6020020151611211565b866003600881101515610b2057fe5b6020020181905250610b4585876003600881101515610b3b57fe5b6020020151611211565b866004600881101515610b5457fe5b6020020181905250610b7985876004600881101515610b6f57fe5b6020020151611211565b866005600881101515610b8857fe5b6020020181905250610bad85876005600881101515610ba357fe5b6020020151611211565b866006600881101515610bbc57fe5b6020020181905250610be185876006600881101515610bd757fe5b6020020151611211565b866007600881101515610bf057fe5b6020020181905250856001600881101515610c0757fe5b60200201516002600381101515610c1a57fe5b6020020151846000601081101515610c2e57fe5b60200201818152505088801515610c4157fe5b846000601081101515610c5057fe5b6020020151876002600881101515610c6457fe5b60200201516002600381101515610c7757fe5b602002015109846001601081101515610c8c57fe5b60200201818152505088801515610c9f57fe5b846001601081101515610cae57fe5b6020020151876003600881101515610cc257fe5b60200201516002600381101515610cd557fe5b602002015109846002601081101515610cea57fe5b60200201818152505088801515610cfd57fe5b846002601081101515610d0c57fe5b6020020151876004600881101515610d2057fe5b60200201516002600381101515610d3357fe5b602002015109846003601081101515610d4857fe5b60200201818152505088801515610d5b57fe5b846003601081101515610d6a57fe5b6020020151876005600881101515610d7e57fe5b60200201516002600381101515610d9157fe5b602002015109846004601081101515610da657fe5b60200201818152505088801515610db957fe5b846004601081101515610dc857fe5b6020020151876006600881101515610ddc57fe5b60200201516002600381101515610def57fe5b602002015109846005601081101515610e0457fe5b60200201818152505088801515610e1757fe5b846005601081101515610e2657fe5b6020020151876007600881101515610e3a57fe5b60200201516002600381101515610e4d57fe5b602002015109846006601081101515610e6257fe5b602002018181525050610e88846006601081101515610e7d57fe5b60200201518a6108d6565b846007601081101515610e9757fe5b602002018181525050836007601081101515610eaf57fe5b6020020151846008601081101515610ec357fe5b60200201818152505088801515610ed657fe5b846008601081101515610ee557fe5b6020020151856005601081101515610ef957fe5b60200201510984600f601081101515610f0e57fe5b602002018181525050600692505b600283101515610fe35788801515610f3057fe5b846008601081101515610f3f57fe5b60200201518760018601600881101515610f5557fe5b60200201516002600381101515610f6857fe5b602002015109846008601081101515610f7d57fe5b60200201818152505088801515610f9057fe5b846008601081101515610f9f57fe5b60200201518560028603601081101515610fb557fe5b6020020151098484600801601081101515610fcc57fe5b602002018181525050828060019003935050610f1c565b88801515610fed57fe5b846008601081101515610ffc57fe5b602002015187600260088110151561101057fe5b6020020151600260038110151561102357fe5b60200201510984600960108110151561103857fe5b602002018181525050600092505b60078310156110c8576110bb866001850160088110151561106357fe5b6020020151856009860160108110151561107957fe5b60200201518b80151561108857fe5b876009880160108110151561109957fe5b602002015188600989016010811015156110af57fe5b6020020151098c611db1565b8280600101935050611046565b5b6000871115611201578680600190039750508688015160001a91506110ed8a611e4d565b601082111561117757600282601f0381151561110557fe5b0490506111728a6040805190810160405280898560088110151561112557fe5b6020020151600060038110151561113857fe5b60200201518152602001898560088110151561115057fe5b6020020151600160038110151561116357fe5b60200201518d03815250611ffb565b6111fc565b60008211156111fb5760026001830381151561118f57fe5b0490506111fa8a604080519081016040528089856008811015156111af57fe5b602002015160006003811015156111c257fe5b6020020151815260200189856008811015156111da57fe5b602002015160016003811015156111ed57fe5b6020020151815250611ffb565b5b5b6110c9565b5b50505050505050505092915050565b6112196124dc565b6000611223612552565b61122b612552565b6000806000806000808b600260038110151561124357fe5b6020020151141561125657899850611729565b60008a600260038110151561126757fe5b6020020151141561127a578a9850611729565b7ffffffffffffffffffffffffffffffffffffffffffffffffffffffffefffffc2f9750878015156112a757fe5b8b60026003811015156112b657fe5b60200201518c60026003811015156112ca57fe5b6020020151098760006004811015156112df57fe5b602002018181525050878015156112f257fe5b87600060048110151561130157fe5b60200201518c600260038110151561131557fe5b60200201510987600160048110151561132a57fe5b6020020181815250508780151561133d57fe5b8a600260038110151561134c57fe5b60200201518b600260038110151561136057fe5b60200201510987600260048110151561137557fe5b6020020181815250508780151561138857fe5b87600260048110151561139757fe5b60200201518b60026003811015156113ab57fe5b6020020151098760036004811015156113c057fe5b602002018181525050608060405190810160405280898015156113df57fe5b8960026004811015156113ee57fe5b60200201518e600060038110151561140257fe5b60200201510981526020018980151561141757fe5b89600360048110151561142657fe5b60200201518e600160038110151561143a57fe5b60200201510981526020018980151561144f57fe5b89600060048110151561145e57fe5b60200201518d600060038110151561147257fe5b60200201510981526020018980151561148757fe5b89600160048110151561149657fe5b60200201518d60016003811015156114aa57fe5b60200201510981525095508560026004811015156114c457fe5b60200201518660006004811015156114d857fe5b60200201511415611527578560036004811015156114f257fe5b602002015186600160048110151561150657fe5b602002015114151561151757611729565b6115208b611737565b9850611729565b8780151561153157fe5b86600060048110151561154057fe5b6020020151890387600260048110151561155657fe5b60200201510894508780151561156857fe5b86600160048110151561157757fe5b6020020151890387600360048110151561158d57fe5b60200201510893508780151561159f57fe5b8586099250878015156115ae57fe5b8584099150878015156115bd57fe5b828903898015156115ca57fe5b868709089050878015156115da57fe5b888015156115e457fe5b898015156115ee57fe5b858960006004811015156115fe57fe5b6020020151096002098903820890508089600060038110151561161d57fe5b6020020181815250508780151561163057fe5b8880151561163a57fe5b828a038a80151561164757fe5b868a600060048110151561165757fe5b60200201510908850989600160038110151561166f57fe5b6020020181815250508780151561168257fe5b8880151561168c57fe5b8388600160048110151561169c57fe5b60200201510989038a60016003811015156116b357fe5b6020020151088960016003811015156116c857fe5b602002018181525050878015156116db57fe5b888015156116e557fe5b8b60026003811015156116f457fe5b60200201518d600260038110151561170857fe5b602002015109860989600260038110151561171f57fe5b6020020181815250505b505050505050505092915050565b61173f6124dc565b60008060008060008060007ffffffffffffffffffffffffffffffffffffffffffffffffffffffffefffffc2f9650600089600260038110151561177e57fe5b6020020151141561178e576118e3565b88600060038110151561179d57fe5b602002015195508860016003811015156117b357fe5b60200201519450868015156117c457fe5b8586099350868015156117d357fe5b878015156117dd57fe5b8588096004099250868015156117ef57fe5b878015156117f957fe5b87880960030991508680151561180b57fe5b8780151561181557fe5b84850888038880151561182457fe5b8485090890508088600060038110151561183a57fe5b6020020181815250508680151561184d57fe5b8780151561185757fe5b8880151561186157fe5b86870960080988038880151561187357fe5b8980151561187d57fe5b848b03870885090888600160038110151561189457fe5b602002018181525050868015156118a757fe5b878015156118b157fe5b8a60026003811015156118c057fe5b602002015187096002098860026003811015156118d957fe5b6020020181815250505b50505050505050919050565b6118f76124dc565b6000611901612575565b611909612552565b6000806000806000808b600260038110151561192157fe5b60200201511415611976576060604051908101604052808b600060028110151561194757fe5b602002015181526020018b600160028110151561196057fe5b6020020151815260200160018152509850611da3565b60008a600160028110151561198757fe5b6020020151141561199a578a9850611da3565b7ffffffffffffffffffffffffffffffffffffffffffffffffffffffffefffffc2f9750878015156119c757fe5b8b60026003811015156119d657fe5b60200201518c60026003811015156119ea57fe5b6020020151098760006002811015156119ff57fe5b60200201818152505087801515611a1257fe5b876000600281101515611a2157fe5b60200201518c6002600381101515611a3557fe5b602002015109876001600281101515611a4a57fe5b6020020181815250506080604051908101604052808c6000600381101515611a6e57fe5b602002015181526020018c6001600381101515611a8757fe5b6020020151815260200189801515611a9b57fe5b896000600281101515611aaa57fe5b60200201518d6000600281101515611abe57fe5b602002015109815260200189801515611ad357fe5b896001600281101515611ae257fe5b60200201518d6001600281101515611af657fe5b6020020151098152509550856002600481101515611b1057fe5b6020020151866000600481101515611b2457fe5b60200201511415611bc057856003600481101515611b3e57fe5b6020020151866001600481101515611b5257fe5b6020020151141515611bb15760008b6000600381101515611b6f57fe5b60200201818152505060008b6001600381101515611b8957fe5b60200201818152505060008b6002600381101515611ba357fe5b602002018181525050611da3565b611bba8b611737565b50611da3565b87801515611bca57fe5b866000600481101515611bd957fe5b60200201518903876002600481101515611bef57fe5b602002015108945087801515611c0157fe5b866001600481101515611c1057fe5b60200201518903876003600481101515611c2657fe5b602002015108935087801515611c3857fe5b858609925087801515611c4757fe5b858409915087801515611c5657fe5b82890389801515611c6357fe5b86870908905087801515611c7357fe5b88801515611c7d57fe5b89801515611c8757fe5b85896000600481101515611c9757fe5b60200201510960020989038208905080896000600381101515611cb657fe5b60200201818152505087801515611cc957fe5b88801515611cd357fe5b828a038a801515611ce057fe5b868a6000600481101515611cf057fe5b602002015109088509896001600381101515611d0857fe5b60200201818152505087801515611d1b57fe5b88801515611d2557fe5b83886001600481101515611d3557fe5b60200201510989038a6001600381101515611d4c57fe5b602002015108896001600381101515611d6157fe5b60200201818152505087801515611d7457fe5b8b6002600381101515611d8357fe5b60200201518609896002600381101515611d9957fe5b6020020181815250505b505050505050505092915050565b80801515611dbb57fe5b82856000600381101515611dcb57fe5b602002015109846000600381101515611de057fe5b60200201818152505080801515611df357fe5b81801515611dfd57fe5b838509856001600381101515611e0f57fe5b602002015109846001600381101515611e2457fe5b6020020181815250506001846002600381101515611e3e57fe5b60200201818152505050505050565b60008060008060008060007ffffffffffffffffffffffffffffffffffffffffffffffffffffffffefffffc2f96506000886002600381101515611e8c57fe5b60200201511415611e9c57611ff1565b876000600381101515611eab57fe5b60200201519550876001600381101515611ec157fe5b6020020151945086801515611ed257fe5b858609935086801515611ee157fe5b87801515611eeb57fe5b858809600409925086801515611efd57fe5b87801515611f0757fe5b878809600309915086801515611f1957fe5b87801515611f2357fe5b848508880388801515611f3257fe5b84850908905080886000600381101515611f4857fe5b60200201818152505086801515611f5b57fe5b87801515611f6557fe5b88801515611f6f57fe5b868709600809880388801515611f8157fe5b89801515611f8b57fe5b848b038708850908886001600381101515611fa257fe5b60200201818152505086801515611fb557fe5b87801515611fbf57fe5b896002600381101515611fce57fe5b60200201518709600209886002600381101515611fe757fe5b6020020181815250505b5050505050505050565b6000612005612575565b61200d612552565b6000806000806000808a600160038110151561202557fe5b602002015114156120a75788600060028110151561203f57fe5b60200201518a600060038110151561205357fe5b60200201818152505088600160028110151561206b57fe5b60200201518a600160038110151561207f57fe5b60200201818152505060018a600260038110151561209957fe5b6020020181815250506124d0565b60008960016002811015156120b857fe5b602002015114156120c8576124d0565b7ffffffffffffffffffffffffffffffffffffffffffffffffffffffffefffffc2f9750878015156120f557fe5b8a600260038110151561210457fe5b60200201518b600260038110151561211857fe5b60200201510987600060028110151561212d57fe5b6020020181815250508780151561214057fe5b87600060028110151561214f57fe5b60200201518b600260038110151561216357fe5b60200201510987600160028110151561217857fe5b6020020181815250506080604051908101604052808b600060038110151561219c57fe5b602002015181526020018b60016003811015156121b557fe5b60200201518152602001898015156121c957fe5b8960006002811015156121d857fe5b60200201518c60006002811015156121ec57fe5b60200201510981526020018980151561220157fe5b89600160028110151561221057fe5b60200201518c600160028110151561222457fe5b602002015109815250955085600260048110151561223e57fe5b602002015186600060048110151561225257fe5b602002015114156122ed5785600360048110151561226c57fe5b602002015186600160048110151561228057fe5b60200201511415156122df5760008a600060038110151561229d57fe5b60200201818152505060008a60016003811015156122b757fe5b60200201818152505060008a60026003811015156122d157fe5b6020020181815250506124d0565b6122e88a611e4d565b6124d0565b878015156122f757fe5b86600060048110151561230657fe5b6020020151890387600260048110151561231c57fe5b60200201510894508780151561232e57fe5b86600160048110151561233d57fe5b6020020151890387600360048110151561235357fe5b60200201510893508780151561236557fe5b85860992508780151561237457fe5b85840991508780151561238357fe5b8289038980151561239057fe5b868709089050878015156123a057fe5b888015156123aa57fe5b898015156123b457fe5b858960006004811015156123c457fe5b602002015109600209890382089050808a60006003811015156123e357fe5b602002018181525050878015156123f657fe5b8880151561240057fe5b828a038a80151561240d57fe5b868a600060048110151561241d57fe5b6020020151090885098a600160038110151561243557fe5b6020020181815250508780151561244857fe5b8880151561245257fe5b8388600160048110151561246257fe5b60200201510989038b600160038110151561247957fe5b6020020151088a600160038110151561248e57fe5b602002018181525050878015156124a157fe5b8a60026003811015156124b057fe5b602002015186098a60026003811015156124c657fe5b6020020181815250505b50505050505050505050565b606060405190810160405280600390602082028038833980820191505090505090565b610300604051908101604052806008905b612518612597565b8152602001906001900390816125105790505090565b61020060405190810160405280601090602082028038833980820191505090505090565b608060405190810160405280600490602082028038833980820191505090505090565b6040805190810160405280600290602082028038833980820191505090505090565b6060604051908101604052806003906020820280388339808201915050905050905600a165627a7a72305820c4478f72d46ba71c9bd99634d7069822a899a34590e3be21826c051ef23d0e850029",
					"opcodes": "PUSH1 0x80 PUSH1 0x40 MSTORE CALLVALUE DUP1 ISZERO PUSH2 0x10 JUMPI PUSH1 0x0 DUP1 REVERT JUMPDEST POP PUSH2 0x25E6 DUP1 PUSH2 0x20 PUSH1 0x0 CODECOPY PUSH1 0x0 RETURN STOP PUSH1 0x80 PUSH1 0x40 MSTORE PUSH1 0x4 CALLDATASIZE LT PUSH2 0x41 JUMPI PUSH1 0x0 CALLDATALOAD PUSH29 0x100000000000000000000000000000000000000000000000000000000 SWAP1 DIV PUSH4 0xFFFFFFFF AND DUP1 PUSH4 0x19045A25 EQ PUSH2 0x46 JUMPI JUMPDEST PUSH1 0x0 DUP1 REVERT JUMPDEST CALLVALUE DUP1 ISZERO PUSH2 0x52 JUMPI PUSH1 0x0 DUP1 REVERT JUMPDEST POP PUSH2 0xBB PUSH1 0x4 DUP1 CALLDATASIZE SUB DUP2 ADD SWAP1 DUP1 DUP1 CALLDATALOAD PUSH1 0x0 NOT AND SWAP1 PUSH1 0x20 ADD SWAP1 SWAP3 SWAP2 SWAP1 DUP1 CALLDATALOAD SWAP1 PUSH1 0x20 ADD SWAP1 DUP3 ADD DUP1 CALLDATALOAD SWAP1 PUSH1 0x20 ADD SWAP1 DUP1 DUP1 PUSH1 0x1F ADD PUSH1 0x20 DUP1 SWAP2 DIV MUL PUSH1 0x20 ADD PUSH1 0x40 MLOAD SWAP1 DUP2 ADD PUSH1 0x40 MSTORE DUP1 SWAP4 SWAP3 SWAP2 SWAP1 DUP2 DUP2 MSTORE PUSH1 0x20 ADD DUP4 DUP4 DUP1 DUP3 DUP5 CALLDATACOPY DUP3 ADD SWAP2 POP POP POP POP POP POP SWAP2 SWAP3 SWAP2 SWAP3 SWAP1 POP POP POP PUSH2 0x136 JUMP JUMPDEST PUSH1 0x40 MLOAD DUP1 DUP1 PUSH1 0x20 ADD DUP3 DUP2 SUB DUP3 MSTORE DUP4 DUP2 DUP2 MLOAD DUP2 MSTORE PUSH1 0x20 ADD SWAP2 POP DUP1 MLOAD SWAP1 PUSH1 0x20 ADD SWAP1 DUP1 DUP4 DUP4 PUSH1 0x0 JUMPDEST DUP4 DUP2 LT ISZERO PUSH2 0xFB JUMPI DUP1 DUP3 ADD MLOAD DUP2 DUP5 ADD MSTORE PUSH1 0x20 DUP2 ADD SWAP1 POP PUSH2 0xE0 JUMP JUMPDEST POP POP POP POP SWAP1 POP SWAP1 DUP2 ADD SWAP1 PUSH1 0x1F AND DUP1 ISZERO PUSH2 0x128 JUMPI DUP1 DUP3 SUB DUP1 MLOAD PUSH1 0x1 DUP4 PUSH1 0x20 SUB PUSH2 0x100 EXP SUB NOT AND DUP2 MSTORE PUSH1 0x20 ADD SWAP2 POP JUMPDEST POP SWAP3 POP POP POP PUSH1 0x40 MLOAD DUP1 SWAP2 SUB SWAP1 RETURN JUMPDEST PUSH1 0x60 PUSH1 0x0 DUP1 PUSH1 0x0 PUSH1 0x41 DUP6 MLOAD EQ ISZERO ISZERO PUSH2 0x160 JUMPI PUSH1 0x20 PUSH1 0x40 MLOAD SWAP1 DUP2 ADD PUSH1 0x40 MSTORE DUP1 PUSH1 0x0 DUP2 MSTORE POP SWAP4 POP PUSH2 0x22C JUMP JUMPDEST PUSH1 0x20 DUP6 ADD MLOAD PUSH1 0x0 BYTE SWAP1 POP PUSH1 0x21 DUP6 ADD MLOAD SWAP3 POP PUSH1 0x41 DUP6 ADD MLOAD SWAP2 POP PUSH1 0x2 PUSH32 0xFFFFFFFFFFFFFFFFFFFFFFFFFFFFFFFEBAAEDCE6AF48A03BBFD25E8CD0364141 DUP2 ISZERO ISZERO PUSH2 0x1A4 JUMPI INVALID JUMPDEST DIV DUP3 PUSH1 0x1 SWAP1 DIV GT ISZERO PUSH2 0x1C8 JUMPI PUSH1 0x20 PUSH1 0x40 MLOAD SWAP1 DUP2 ADD PUSH1 0x40 MSTORE DUP1 PUSH1 0x0 DUP2 MSTORE POP SWAP4 POP PUSH2 0x22C JUMP JUMPDEST PUSH1 0x1B DUP2 PUSH1 0xFF AND EQ ISZERO DUP1 ISZERO PUSH2 0x1E0 JUMPI POP PUSH1 0x1C DUP2 PUSH1 0xFF AND EQ ISZERO JUMPDEST DUP1 ISZERO PUSH2 0x1F0 JUMPI POP PUSH1 0x1F DUP2 PUSH1 0xFF AND EQ ISZERO JUMPDEST DUP1 ISZERO PUSH2 0x200 JUMPI POP PUSH1 0x20 DUP2 PUSH1 0xFF AND EQ ISZERO JUMPDEST ISZERO PUSH2 0x21D JUMPI PUSH1 0x20 PUSH1 0x40 MLOAD SWAP1 DUP2 ADD PUSH1 0x40 MSTORE DUP1 PUSH1 0x0 DUP2 MSTORE POP SWAP4 POP PUSH2 0x22C JUMP JUMPDEST PUSH2 0x229 DUP7 DUP3 DUP6 DUP6 PUSH2 0x235 JUMP JUMPDEST SWAP4 POP JUMPDEST POP POP POP SWAP3 SWAP2 POP POP JUMP JUMPDEST PUSH1 0x60 PUSH1 0x0 DUP1 PUSH1 0x0 DUP1 PUSH1 0x0 DUP1 PUSH2 0x248 PUSH2 0x24DC JUMP JUMPDEST PUSH1 0x60 PUSH1 0x0 SWAP8 POP DUP11 PUSH1 0x1 SWAP1 DIV SWAP7 POP DUP10 PUSH1 0x1 SWAP1 DIV SWAP6 POP PUSH1 0x0 PUSH1 0x1 PUSH1 0x1B DUP15 SUB AND PUSH1 0xFF AND EQ ISZERO SWAP5 POP PUSH1 0x0 PUSH1 0x2 PUSH1 0x1B DUP15 SUB AND PUSH1 0xFF AND EQ ISZERO SWAP4 POP PUSH1 0x0 PUSH1 0x4 PUSH1 0x1B DUP15 SUB AND PUSH1 0xFF AND EQ ISZERO SWAP3 POP DUP3 ISZERO ISZERO PUSH2 0x2AB JUMPI PUSH1 0x20 PUSH1 0x40 MLOAD SWAP1 DUP2 ADD PUSH1 0x40 MSTORE DUP1 PUSH1 0x0 DUP2 MSTORE POP SWAP9 POP PUSH2 0x4FB JUMP JUMPDEST PUSH32 0xFFFFFFFFFFFFFFFFFFFFFFFFFFFFFFFEBAAEDCE6AF48A03BBFD25E8CD0364141 PUSH32 0xFFFFFFFFFFFFFFFFFFFFFFFFFFFFFFFFFFFFFFFFFFFFFFFFFFFFFFFEFFFFFC2F DUP2 ISZERO ISZERO PUSH2 0x2F6 JUMPI INVALID JUMPDEST MOD DUP8 LT ISZERO DUP1 ISZERO PUSH2 0x303 JUMPI POP DUP4 JUMPDEST ISZERO PUSH2 0x320 JUMPI PUSH1 0x20 PUSH1 0x40 MLOAD SWAP1 DUP2 ADD PUSH1 0x40 MSTORE DUP1 PUSH1 0x0 DUP2 MSTORE POP SWAP9 POP PUSH2 0x4FB JUMP JUMPDEST PUSH2 0x331 DUP14 PUSH1 0x1 SWAP1 DIV DUP9 DUP9 DUP9 DUP9 PUSH2 0x50B JUMP JUMPDEST SWAP2 POP PUSH1 0x0 DUP3 PUSH1 0x2 PUSH1 0x3 DUP2 LT ISZERO ISZERO PUSH2 0x344 JUMPI INVALID JUMPDEST PUSH1 0x20 MUL ADD MLOAD EQ ISZERO PUSH2 0x367 JUMPI PUSH1 0x20 PUSH1 0x40 MLOAD SWAP1 DUP2 ADD PUSH1 0x40 MSTORE DUP1 PUSH1 0x0 DUP2 MSTORE POP SWAP9 POP PUSH2 0x4FB JUMP JUMPDEST PUSH2 0x391 DUP3 PUSH32 0xFFFFFFFFFFFFFFFFFFFFFFFFFFFFFFFFFFFFFFFFFFFFFFFFFFFFFFFEFFFFFC2F PUSH2 0x74D JUMP JUMPDEST PUSH1 0x21 PUSH1 0x40 MLOAD SWAP1 DUP1 DUP3 MSTORE DUP1 PUSH1 0x1F ADD PUSH1 0x1F NOT AND PUSH1 0x20 ADD DUP3 ADD PUSH1 0x40 MSTORE DUP1 ISZERO PUSH2 0x3C5 JUMPI DUP2 PUSH1 0x20 ADD PUSH1 0x20 DUP3 MUL DUP1 CODESIZE DUP4 CODECOPY DUP1 DUP3 ADD SWAP2 POP POP SWAP1 POP JUMPDEST POP SWAP1 POP PUSH1 0x0 PUSH1 0x2 DUP4 PUSH1 0x1 PUSH1 0x3 DUP2 LT ISZERO ISZERO PUSH2 0x3DB JUMPI INVALID JUMPDEST PUSH1 0x20 MUL ADD MLOAD DUP2 ISZERO ISZERO PUSH2 0x3E9 JUMPI INVALID JUMPDEST MOD EQ PUSH2 0x3F6 JUMPI PUSH1 0x3 PUSH2 0x3F9 JUMP JUMPDEST PUSH1 0x2 JUMPDEST PUSH32 0x100000000000000000000000000000000000000000000000000000000000000 MUL DUP2 PUSH1 0x0 DUP2 MLOAD DUP2 LT ISZERO ISZERO PUSH2 0x42A JUMPI INVALID JUMPDEST SWAP1 PUSH1 0x20 ADD ADD SWAP1 PUSH31 0xFFFFFFFFFFFFFFFFFFFFFFFFFFFFFFFFFFFFFFFFFFFFFFFFFFFFFFFFFFFFFF NOT AND SWAP1 DUP2 PUSH1 0x0 BYTE SWAP1 MSTORE8 POP PUSH1 0x0 SWAP8 POP JUMPDEST PUSH1 0x20 DUP9 LT ISZERO PUSH2 0x4F7 JUMPI PUSH1 0xFF DUP9 PUSH1 0x8 MUL DUP4 PUSH1 0x0 PUSH1 0x3 DUP2 LT ISZERO ISZERO PUSH2 0x47D JUMPI INVALID JUMPDEST PUSH1 0x20 MUL ADD MLOAD SWAP1 PUSH1 0x2 EXP SWAP1 DIV AND PUSH32 0x100000000000000000000000000000000000000000000000000000000000000 MUL DUP2 DUP10 PUSH1 0x20 SUB DUP2 MLOAD DUP2 LT ISZERO ISZERO PUSH2 0x4BC JUMPI INVALID JUMPDEST SWAP1 PUSH1 0x20 ADD ADD SWAP1 PUSH31 0xFFFFFFFFFFFFFFFFFFFFFFFFFFFFFFFFFFFFFFFFFFFFFFFFFFFFFFFFFFFFFF NOT AND SWAP1 DUP2 PUSH1 0x0 BYTE SWAP1 MSTORE8 POP DUP8 PUSH1 0x1 ADD SWAP8 POP PUSH2 0x45F JUMP JUMPDEST DUP1 SWAP9 POP JUMPDEST POP POP POP POP POP POP POP POP SWAP5 SWAP4 POP POP POP POP JUMP JUMPDEST PUSH2 0x513 PUSH2 0x24DC JUMP JUMPDEST PUSH1 0x0 DUP1 PUSH1 0x0 DUP5 PUSH2 0x523 JUMPI DUP8 PUSH2 0x547 JUMP JUMPDEST PUSH32 0xFFFFFFFFFFFFFFFFFFFFFFFFFFFFFFFEBAAEDCE6AF48A03BBFD25E8CD0364141 DUP9 ADD JUMPDEST SWAP3 POP PUSH2 0x5D1 PUSH1 0x7 PUSH2 0x57A DUP6 PUSH1 0x3 PUSH32 0xFFFFFFFFFFFFFFFFFFFFFFFFFFFFFFFFFFFFFFFFFFFFFFFFFFFFFFFEFFFFFC2F PUSH2 0x81A JUMP JUMPDEST ADD PUSH1 0x1 PUSH1 0x4 PUSH32 0xFFFFFFFFFFFFFFFFFFFFFFFFFFFFFFFFFFFFFFFFFFFFFFFFFFFFFFFEFFFFFC2F DUP2 ISZERO ISZERO PUSH2 0x5A9 JUMPI INVALID JUMPDEST DIV ADD PUSH32 0xFFFFFFFFFFFFFFFFFFFFFFFFFFFFFFFFFFFFFFFFFFFFFFFFFFFFFFFEFFFFFC2F PUSH2 0x81A JUMP JUMPDEST SWAP2 POP PUSH1 0x1 PUSH1 0x2 DUP4 DUP2 ISZERO ISZERO PUSH2 0x5E1 JUMPI INVALID JUMPDEST MOD EQ ISZERO ISZERO DUP7 ISZERO ISZERO EQ ISZERO ISZERO PUSH2 0x615 JUMPI DUP2 PUSH32 0xFFFFFFFFFFFFFFFFFFFFFFFFFFFFFFFFFFFFFFFFFFFFFFFFFFFFFFFEFFFFFC2F SUB SWAP2 POP JUMPDEST PUSH2 0x63F DUP9 PUSH32 0xFFFFFFFFFFFFFFFFFFFFFFFFFFFFFFFEBAAEDCE6AF48A03BBFD25E8CD0364141 PUSH2 0x8D6 JUMP JUMPDEST SWAP1 POP PUSH2 0x73F PUSH2 0x6F0 PUSH32 0xFFFFFFFFFFFFFFFFFFFFFFFFFFFFFFFEBAAEDCE6AF48A03BBFD25E8CD0364141 DUP1 ISZERO ISZERO PUSH2 0x671 JUMPI INVALID JUMPDEST DUP4 DUP13 MULMOD PUSH32 0xFFFFFFFFFFFFFFFFFFFFFFFFFFFFFFFEBAAEDCE6AF48A03BBFD25E8CD0364141 SUB PUSH1 0x40 DUP1 MLOAD SWAP1 DUP2 ADD PUSH1 0x40 MSTORE DUP1 PUSH32 0x79BE667EF9DCBBAC55A06295CE870B07029BFCDB2DCE28D959F2815B16F81798 DUP2 MSTORE PUSH1 0x20 ADD PUSH32 0x483ADA7726A3C4655DA4FBFC0E1108A8FD17B448A68554199C47D08FFB10D4B8 DUP2 MSTORE POP PUSH2 0x982 JUMP JUMPDEST PUSH2 0x73A PUSH32 0xFFFFFFFFFFFFFFFFFFFFFFFFFFFFFFFEBAAEDCE6AF48A03BBFD25E8CD0364141 DUP1 ISZERO ISZERO PUSH2 0x71D JUMPI INVALID JUMPDEST DUP5 DUP12 MULMOD PUSH1 0x40 DUP1 MLOAD SWAP1 DUP2 ADD PUSH1 0x40 MSTORE DUP1 DUP9 DUP2 MSTORE PUSH1 0x20 ADD DUP8 DUP2 MSTORE POP PUSH2 0x982 JUMP JUMPDEST PUSH2 0x1211 JUMP JUMPDEST SWAP4 POP POP POP POP SWAP6 SWAP5 POP POP POP POP POP JUMP JUMPDEST PUSH1 0x0 DUP1 PUSH2 0x76D DUP5 PUSH1 0x2 PUSH1 0x3 DUP2 LT ISZERO ISZERO PUSH2 0x762 JUMPI INVALID JUMPDEST PUSH1 0x20 MUL ADD MLOAD DUP5 PUSH2 0x8D6 JUMP JUMPDEST SWAP2 POP DUP3 DUP1 ISZERO ISZERO PUSH2 0x779 JUMPI INVALID JUMPDEST DUP3 DUP4 MULMOD SWAP1 POP DUP3 DUP1 ISZERO ISZERO PUSH2 0x788 JUMPI INVALID JUMPDEST DUP2 DUP6 PUSH1 0x0 PUSH1 0x3 DUP2 LT ISZERO ISZERO PUSH2 0x798 JUMPI INVALID JUMPDEST PUSH1 0x20 MUL ADD MLOAD MULMOD DUP5 PUSH1 0x0 PUSH1 0x3 DUP2 LT ISZERO ISZERO PUSH2 0x7AD JUMPI INVALID JUMPDEST PUSH1 0x20 MUL ADD DUP2 DUP2 MSTORE POP POP DUP3 DUP1 ISZERO ISZERO PUSH2 0x7C0 JUMPI INVALID JUMPDEST DUP4 DUP1 ISZERO ISZERO PUSH2 0x7CA JUMPI INVALID JUMPDEST DUP3 DUP5 MULMOD DUP6 PUSH1 0x1 PUSH1 0x3 DUP2 LT ISZERO ISZERO PUSH2 0x7DC JUMPI INVALID JUMPDEST PUSH1 0x20 MUL ADD MLOAD MULMOD DUP5 PUSH1 0x1 PUSH1 0x3 DUP2 LT ISZERO ISZERO PUSH2 0x7F1 JUMPI INVALID JUMPDEST PUSH1 0x20 MUL ADD DUP2 DUP2 MSTORE POP POP PUSH1 0x1 DUP5 PUSH1 0x2 PUSH1 0x3 DUP2 LT ISZERO ISZERO PUSH2 0x80B JUMPI INVALID JUMPDEST PUSH1 0x20 MUL ADD DUP2 DUP2 MSTORE POP POP POP POP POP POP JUMP JUMPDEST PUSH1 0x0 DUP1 PUSH1 0x0 DUP6 EQ ISZERO PUSH2 0x82F JUMPI PUSH1 0x0 SWAP2 POP PUSH2 0x8CE JUMP JUMPDEST PUSH1 0x0 DUP5 EQ ISZERO PUSH2 0x841 JUMPI PUSH1 0x1 SWAP2 POP PUSH2 0x8CE JUMP JUMPDEST PUSH1 0x0 DUP4 EQ ISZERO PUSH2 0x84F JUMPI PUSH1 0x0 DUP1 REVERT JUMPDEST PUSH1 0x1 SWAP2 POP PUSH32 0x8000000000000000000000000000000000000000000000000000000000000000 SWAP1 POP JUMPDEST DUP1 ISZERO PUSH2 0x8CD JUMPI DUP3 DUP2 DUP6 AND ISZERO ISZERO DUP7 EXP DUP5 DUP5 DUP6 MULMOD MULMOD SWAP2 POP DUP3 PUSH1 0x2 DUP3 DIV DUP6 AND ISZERO ISZERO DUP7 EXP DUP5 DUP5 DUP6 MULMOD MULMOD SWAP2 POP DUP3 PUSH1 0x4 DUP3 DIV DUP6 AND ISZERO ISZERO DUP7 EXP DUP5 DUP5 DUP6 MULMOD MULMOD SWAP2 POP DUP3 PUSH1 0x8 DUP3 DIV DUP6 AND ISZERO ISZERO DUP7 EXP DUP5 DUP5 DUP6 MULMOD MULMOD SWAP2 POP PUSH1 0x10 DUP2 DIV SWAP1 POP PUSH2 0x877 JUMP JUMPDEST JUMPDEST POP SWAP4 SWAP3 POP POP POP JUMP JUMPDEST PUSH1 0x0 DUP1 PUSH1 0x0 DUP1 PUSH1 0x0 DUP1 PUSH1 0x0 DUP9 EQ DUP1 PUSH2 0x8ED JUMPI POP DUP7 DUP9 EQ JUMPDEST DUP1 PUSH2 0x8F8 JUMPI POP PUSH1 0x0 DUP8 EQ JUMPDEST ISZERO PUSH2 0x902 JUMPI PUSH1 0x0 DUP1 REVERT JUMPDEST DUP7 DUP9 GT ISZERO PUSH2 0x919 JUMPI DUP7 DUP9 DUP2 ISZERO ISZERO PUSH2 0x915 JUMPI INVALID JUMPDEST MOD SWAP8 POP JUMPDEST PUSH1 0x1 SWAP4 POP DUP7 SWAP3 POP DUP8 SWAP2 POP JUMPDEST PUSH1 0x0 DUP3 EQ ISZERO ISZERO PUSH2 0x95D JUMPI DUP2 DUP4 DUP2 ISZERO ISZERO PUSH2 0x939 JUMPI INVALID JUMPDEST DIV SWAP1 POP DUP4 DUP5 DUP3 MUL DUP7 SUB DUP4 DUP5 DUP5 MUL DUP7 SUB DUP1 SWAP6 POP DUP2 SWAP7 POP DUP3 SWAP8 POP DUP4 SWAP9 POP POP POP POP POP PUSH2 0x924 JUMP JUMPDEST PUSH1 0x0 DUP6 SLT ISZERO PUSH2 0x973 JUMPI DUP5 PUSH1 0x0 SUB DUP8 SUB SWAP6 POP PUSH2 0x977 JUMP JUMPDEST DUP5 SWAP6 POP JUMPDEST POP POP POP POP POP SWAP3 SWAP2 POP POP JUMP JUMPDEST PUSH2 0x98A PUSH2 0x24DC JUMP JUMPDEST PUSH1 0x0 DUP1 PUSH1 0x0 PUSH2 0x997 PUSH2 0x24FF JUMP JUMPDEST PUSH2 0x99F PUSH2 0x24DC JUMP JUMPDEST PUSH2 0x9A7 PUSH2 0x252E JUMP JUMPDEST PUSH1 0x0 DUP1 PUSH1 0x0 PUSH32 0xFFFFFFFFFFFFFFFFFFFFFFFFFFFFFFFFFFFFFFFFFFFFFFFFFFFFFFFEFFFFFC2F SWAP9 POP PUSH1 0x0 DUP13 EQ ISZERO PUSH2 0x9DD JUMPI PUSH2 0x1202 JUMP JUMPDEST PUSH1 0x0 PUSH1 0x40 MLOAD SWAP9 POP PUSH2 0x200 DUP10 ADD PUSH1 0x40 MSTORE JUMPDEST DUP13 ISZERO PUSH2 0xA26 JUMPI PUSH1 0x1 DUP14 AND ISZERO PUSH2 0xA15 JUMPI PUSH1 0x20 DUP14 MOD SWAP1 POP DUP1 DUP9 DUP11 ADD MSTORE8 PUSH1 0x20 PUSH1 0x10 DUP3 GT MUL DUP2 DUP15 SUB ADD SWAP13 POP JUMPDEST PUSH1 0x2 DUP14 DIV SWAP13 POP PUSH1 0x1 DUP9 ADD SWAP8 POP PUSH2 0x9ED JUMP JUMPDEST POP PUSH1 0x60 PUSH1 0x40 MLOAD SWAP1 DUP2 ADD PUSH1 0x40 MSTORE DUP1 DUP13 PUSH1 0x0 PUSH1 0x2 DUP2 LT ISZERO ISZERO PUSH2 0xA42 JUMPI INVALID JUMPDEST PUSH1 0x20 MUL ADD MLOAD DUP2 MSTORE PUSH1 0x20 ADD DUP13 PUSH1 0x1 PUSH1 0x2 DUP2 LT ISZERO ISZERO PUSH2 0xA5B JUMPI INVALID JUMPDEST PUSH1 0x20 MUL ADD MLOAD DUP2 MSTORE PUSH1 0x20 ADD PUSH1 0x1 DUP2 MSTORE POP DUP7 PUSH1 0x0 PUSH1 0x8 DUP2 LT ISZERO ISZERO PUSH2 0xA79 JUMPI INVALID JUMPDEST PUSH1 0x20 MUL ADD DUP2 SWAP1 MSTORE POP PUSH2 0xA9D DUP7 PUSH1 0x0 PUSH1 0x8 DUP2 LT ISZERO ISZERO PUSH2 0xA93 JUMPI INVALID JUMPDEST PUSH1 0x20 MUL ADD MLOAD PUSH2 0x1737 JUMP JUMPDEST SWAP5 POP PUSH2 0xAA9 DUP6 DUP13 PUSH2 0x18EF JUMP JUMPDEST DUP7 PUSH1 0x1 PUSH1 0x8 DUP2 LT ISZERO ISZERO PUSH2 0xAB8 JUMPI INVALID JUMPDEST PUSH1 0x20 MUL ADD DUP2 SWAP1 MSTORE POP PUSH2 0xADD DUP6 DUP8 PUSH1 0x1 PUSH1 0x8 DUP2 LT ISZERO ISZERO PUSH2 0xAD3 JUMPI INVALID JUMPDEST PUSH1 0x20 MUL ADD MLOAD PUSH2 0x1211 JUMP JUMPDEST DUP7 PUSH1 0x2 PUSH1 0x8 DUP2 LT ISZERO ISZERO PUSH2 0xAEC JUMPI INVALID JUMPDEST PUSH1 0x20 MUL ADD DUP2 SWAP1 MSTORE POP PUSH2 0xB11 DUP6 DUP8 PUSH1 0x2 PUSH1 0x8 DUP2 LT ISZERO ISZERO PUSH2 0xB07 JUMPI INVALID JUMPDEST PUSH1 0x20 MUL ADD MLOAD PUSH2 0x1211 JUMP JUMPDEST DUP7 PUSH1 0x3 PUSH1 0x8 DUP2 LT ISZERO ISZERO PUSH2 0xB20 JUMPI INVALID JUMPDEST PUSH1 0x20 MUL ADD DUP2 SWAP1 MSTORE POP PUSH2 0xB45 DUP6 DUP8 PUSH1 0x3 PUSH1 0x8 DUP2 LT ISZERO ISZERO PUSH2 0xB3B JUMPI INVALID JUMPDEST PUSH1 0x20 MUL ADD MLOAD PUSH2 0x1211 JUMP JUMPDEST DUP7 PUSH1 0x4 PUSH1 0x8 DUP2 LT ISZERO ISZERO PUSH2 0xB54 JUMPI INVALID JUMPDEST PUSH1 0x20 MUL ADD DUP2 SWAP1 MSTORE POP PUSH2 0xB79 DUP6 DUP8 PUSH1 0x4 PUSH1 0x8 DUP2 LT ISZERO ISZERO PUSH2 0xB6F JUMPI INVALID JUMPDEST PUSH1 0x20 MUL ADD MLOAD PUSH2 0x1211 JUMP JUMPDEST DUP7 PUSH1 0x5 PUSH1 0x8 DUP2 LT ISZERO ISZERO PUSH2 0xB88 JUMPI INVALID JUMPDEST PUSH1 0x20 MUL ADD DUP2 SWAP1 MSTORE POP PUSH2 0xBAD DUP6 DUP8 PUSH1 0x5 PUSH1 0x8 DUP2 LT ISZERO ISZERO PUSH2 0xBA3 JUMPI INVALID JUMPDEST PUSH1 0x20 MUL ADD MLOAD PUSH2 0x1211 JUMP JUMPDEST DUP7 PUSH1 0x6 PUSH1 0x8 DUP2 LT ISZERO ISZERO PUSH2 0xBBC JUMPI INVALID JUMPDEST PUSH1 0x20 MUL ADD DUP2 SWAP1 MSTORE POP PUSH2 0xBE1 DUP6 DUP8 PUSH1 0x6 PUSH1 0x8 DUP2 LT ISZERO ISZERO PUSH2 0xBD7 JUMPI INVALID JUMPDEST PUSH1 0x20 MUL ADD MLOAD PUSH2 0x1211 JUMP JUMPDEST DUP7 PUSH1 0x7 PUSH1 0x8 DUP2 LT ISZERO ISZERO PUSH2 0xBF0 JUMPI INVALID JUMPDEST PUSH1 0x20 MUL ADD DUP2 SWAP1 MSTORE POP DUP6 PUSH1 0x1 PUSH1 0x8 DUP2 LT ISZERO ISZERO PUSH2 0xC07 JUMPI INVALID JUMPDEST PUSH1 0x20 MUL ADD MLOAD PUSH1 0x2 PUSH1 0x3 DUP2 LT ISZERO ISZERO PUSH2 0xC1A JUMPI INVALID JUMPDEST PUSH1 0x20 MUL ADD MLOAD DUP5 PUSH1 0x0 PUSH1 0x10 DUP2 LT ISZERO ISZERO PUSH2 0xC2E JUMPI INVALID JUMPDEST PUSH1 0x20 MUL ADD DUP2 DUP2 MSTORE POP POP DUP9 DUP1 ISZERO ISZERO PUSH2 0xC41 JUMPI INVALID JUMPDEST DUP5 PUSH1 0x0 PUSH1 0x10 DUP2 LT ISZERO ISZERO PUSH2 0xC50 JUMPI INVALID JUMPDEST PUSH1 0x20 MUL ADD MLOAD DUP8 PUSH1 0x2 PUSH1 0x8 DUP2 LT ISZERO ISZERO PUSH2 0xC64 JUMPI INVALID JUMPDEST PUSH1 0x20 MUL ADD MLOAD PUSH1 0x2 PUSH1 0x3 DUP2 LT ISZERO ISZERO PUSH2 0xC77 JUMPI INVALID JUMPDEST PUSH1 0x20 MUL ADD MLOAD MULMOD DUP5 PUSH1 0x1 PUSH1 0x10 DUP2 LT ISZERO ISZERO PUSH2 0xC8C JUMPI INVALID JUMPDEST PUSH1 0x20 MUL ADD DUP2 DUP2 MSTORE POP POP DUP9 DUP1 ISZERO ISZERO PUSH2 0xC9F JUMPI INVALID JUMPDEST DUP5 PUSH1 0x1 PUSH1 0x10 DUP2 LT ISZERO ISZERO PUSH2 0xCAE JUMPI INVALID JUMPDEST PUSH1 0x20 MUL ADD MLOAD DUP8 PUSH1 0x3 PUSH1 0x8 DUP2 LT ISZERO ISZERO PUSH2 0xCC2 JUMPI INVALID JUMPDEST PUSH1 0x20 MUL ADD MLOAD PUSH1 0x2 PUSH1 0x3 DUP2 LT ISZERO ISZERO PUSH2 0xCD5 JUMPI INVALID JUMPDEST PUSH1 0x20 MUL ADD MLOAD MULMOD DUP5 PUSH1 0x2 PUSH1 0x10 DUP2 LT ISZERO ISZERO PUSH2 0xCEA JUMPI INVALID JUMPDEST PUSH1 0x20 MUL ADD DUP2 DUP2 MSTORE POP POP DUP9 DUP1 ISZERO ISZERO PUSH2 0xCFD JUMPI INVALID JUMPDEST DUP5 PUSH1 0x2 PUSH1 0x10 DUP2 LT ISZERO ISZERO PUSH2 0xD0C JUMPI INVALID JUMPDEST PUSH1 0x20 MUL ADD MLOAD DUP8 PUSH1 0x4 PUSH1 0x8 DUP2 LT ISZERO ISZERO PUSH2 0xD20 JUMPI INVALID JUMPDEST PUSH1 0x20 MUL ADD MLOAD PUSH1 0x2 PUSH1 0x3 DUP2 LT ISZERO ISZERO PUSH2 0xD33 JUMPI INVALID JUMPDEST PUSH1 0x20 MUL ADD MLOAD MULMOD DUP5 PUSH1 0x3 PUSH1 0x10 DUP2 LT ISZERO ISZERO PUSH2 0xD48 JUMPI INVALID JUMPDEST PUSH1 0x20 MUL ADD DUP2 DUP2 MSTORE POP POP DUP9 DUP1 ISZERO ISZERO PUSH2 0xD5B JUMPI INVALID JUMPDEST DUP5 PUSH1 0x3 PUSH1 0x10 DUP2 LT ISZERO ISZERO PUSH2 0xD6A JUMPI INVALID JUMPDEST PUSH1 0x20 MUL ADD MLOAD DUP8 PUSH1 0x5 PUSH1 0x8 DUP2 LT ISZERO ISZERO PUSH2 0xD7E JUMPI INVALID JUMPDEST PUSH1 0x20 MUL ADD MLOAD PUSH1 0x2 PUSH1 0x3 DUP2 LT ISZERO ISZERO PUSH2 0xD91 JUMPI INVALID JUMPDEST PUSH1 0x20 MUL ADD MLOAD MULMOD DUP5 PUSH1 0x4 PUSH1 0x10 DUP2 LT ISZERO ISZERO PUSH2 0xDA6 JUMPI INVALID JUMPDEST PUSH1 0x20 MUL ADD DUP2 DUP2 MSTORE POP POP DUP9 DUP1 ISZERO ISZERO PUSH2 0xDB9 JUMPI INVALID JUMPDEST DUP5 PUSH1 0x4 PUSH1 0x10 DUP2 LT ISZERO ISZERO PUSH2 0xDC8 JUMPI INVALID JUMPDEST PUSH1 0x20 MUL ADD MLOAD DUP8 PUSH1 0x6 PUSH1 0x8 DUP2 LT ISZERO ISZERO PUSH2 0xDDC JUMPI INVALID JUMPDEST PUSH1 0x20 MUL ADD MLOAD PUSH1 0x2 PUSH1 0x3 DUP2 LT ISZERO ISZERO PUSH2 0xDEF JUMPI INVALID JUMPDEST PUSH1 0x20 MUL ADD MLOAD MULMOD DUP5 PUSH1 0x5 PUSH1 0x10 DUP2 LT ISZERO ISZERO PUSH2 0xE04 JUMPI INVALID JUMPDEST PUSH1 0x20 MUL ADD DUP2 DUP2 MSTORE POP POP DUP9 DUP1 ISZERO ISZERO PUSH2 0xE17 JUMPI INVALID JUMPDEST DUP5 PUSH1 0x5 PUSH1 0x10 DUP2 LT ISZERO ISZERO PUSH2 0xE26 JUMPI INVALID JUMPDEST PUSH1 0x20 MUL ADD MLOAD DUP8 PUSH1 0x7 PUSH1 0x8 DUP2 LT ISZERO ISZERO PUSH2 0xE3A JUMPI INVALID JUMPDEST PUSH1 0x20 MUL ADD MLOAD PUSH1 0x2 PUSH1 0x3 DUP2 LT ISZERO ISZERO PUSH2 0xE4D JUMPI INVALID JUMPDEST PUSH1 0x20 MUL ADD MLOAD MULMOD DUP5 PUSH1 0x6 PUSH1 0x10 DUP2 LT ISZERO ISZERO PUSH2 0xE62 JUMPI INVALID JUMPDEST PUSH1 0x20 MUL ADD DUP2 DUP2 MSTORE POP POP PUSH2 0xE88 DUP5 PUSH1 0x6 PUSH1 0x10 DUP2 LT ISZERO ISZERO PUSH2 0xE7D JUMPI INVALID JUMPDEST PUSH1 0x20 MUL ADD MLOAD DUP11 PUSH2 0x8D6 JUMP JUMPDEST DUP5 PUSH1 0x7 PUSH1 0x10 DUP2 LT ISZERO ISZERO PUSH2 0xE97 JUMPI INVALID JUMPDEST PUSH1 0x20 MUL ADD DUP2 DUP2 MSTORE POP POP DUP4 PUSH1 0x7 PUSH1 0x10 DUP2 LT ISZERO ISZERO PUSH2 0xEAF JUMPI INVALID JUMPDEST PUSH1 0x20 MUL ADD MLOAD DUP5 PUSH1 0x8 PUSH1 0x10 DUP2 LT ISZERO ISZERO PUSH2 0xEC3 JUMPI INVALID JUMPDEST PUSH1 0x20 MUL ADD DUP2 DUP2 MSTORE POP POP DUP9 DUP1 ISZERO ISZERO PUSH2 0xED6 JUMPI INVALID JUMPDEST DUP5 PUSH1 0x8 PUSH1 0x10 DUP2 LT ISZERO ISZERO PUSH2 0xEE5 JUMPI INVALID JUMPDEST PUSH1 0x20 MUL ADD MLOAD DUP6 PUSH1 0x5 PUSH1 0x10 DUP2 LT ISZERO ISZERO PUSH2 0xEF9 JUMPI INVALID JUMPDEST PUSH1 0x20 MUL ADD MLOAD MULMOD DUP5 PUSH1 0xF PUSH1 0x10 DUP2 LT ISZERO ISZERO PUSH2 0xF0E JUMPI INVALID JUMPDEST PUSH1 0x20 MUL ADD DUP2 DUP2 MSTORE POP POP PUSH1 0x6 SWAP3 POP JUMPDEST PUSH1 0x2 DUP4 LT ISZERO ISZERO PUSH2 0xFE3 JUMPI DUP9 DUP1 ISZERO ISZERO PUSH2 0xF30 JUMPI INVALID JUMPDEST DUP5 PUSH1 0x8 PUSH1 0x10 DUP2 LT ISZERO ISZERO PUSH2 0xF3F JUMPI INVALID JUMPDEST PUSH1 0x20 MUL ADD MLOAD DUP8 PUSH1 0x1 DUP7 ADD PUSH1 0x8 DUP2 LT ISZERO ISZERO PUSH2 0xF55 JUMPI INVALID JUMPDEST PUSH1 0x20 MUL ADD MLOAD PUSH1 0x2 PUSH1 0x3 DUP2 LT ISZERO ISZERO PUSH2 0xF68 JUMPI INVALID JUMPDEST PUSH1 0x20 MUL ADD MLOAD MULMOD DUP5 PUSH1 0x8 PUSH1 0x10 DUP2 LT ISZERO ISZERO PUSH2 0xF7D JUMPI INVALID JUMPDEST PUSH1 0x20 MUL ADD DUP2 DUP2 MSTORE POP POP DUP9 DUP1 ISZERO ISZERO PUSH2 0xF90 JUMPI INVALID JUMPDEST DUP5 PUSH1 0x8 PUSH1 0x10 DUP2 LT ISZERO ISZERO PUSH2 0xF9F JUMPI INVALID JUMPDEST PUSH1 0x20 MUL ADD MLOAD DUP6 PUSH1 0x2 DUP7 SUB PUSH1 0x10 DUP2 LT ISZERO ISZERO PUSH2 0xFB5 JUMPI INVALID JUMPDEST PUSH1 0x20 MUL ADD MLOAD MULMOD DUP5 DUP5 PUSH1 0x8 ADD PUSH1 0x10 DUP2 LT ISZERO ISZERO PUSH2 0xFCC JUMPI INVALID JUMPDEST PUSH1 0x20 MUL ADD DUP2 DUP2 MSTORE POP POP DUP3 DUP1 PUSH1 0x1 SWAP1 SUB SWAP4 POP POP PUSH2 0xF1C JUMP JUMPDEST DUP9 DUP1 ISZERO ISZERO PUSH2 0xFED JUMPI INVALID JUMPDEST DUP5 PUSH1 0x8 PUSH1 0x10 DUP2 LT ISZERO ISZERO PUSH2 0xFFC JUMPI INVALID JUMPDEST PUSH1 0x20 MUL ADD MLOAD DUP8 PUSH1 0x2 PUSH1 0x8 DUP2 LT ISZERO ISZERO PUSH2 0x1010 JUMPI INVALID JUMPDEST PUSH1 0x20 MUL ADD MLOAD PUSH1 0x2 PUSH1 0x3 DUP2 LT ISZERO ISZERO PUSH2 0x1023 JUMPI INVALID JUMPDEST PUSH1 0x20 MUL ADD MLOAD MULMOD DUP5 PUSH1 0x9 PUSH1 0x10 DUP2 LT ISZERO ISZERO PUSH2 0x1038 JUMPI INVALID JUMPDEST PUSH1 0x20 MUL ADD DUP2 DUP2 MSTORE POP POP PUSH1 0x0 SWAP3 POP JUMPDEST PUSH1 0x7 DUP4 LT ISZERO PUSH2 0x10C8 JUMPI PUSH2 0x10BB DUP7 PUSH1 0x1 DUP6 ADD PUSH1 0x8 DUP2 LT ISZERO ISZERO PUSH2 0x1063 JUMPI INVALID JUMPDEST PUSH1 0x20 MUL ADD MLOAD DUP6 PUSH1 0x9 DUP7 ADD PUSH1 0x10 DUP2 LT ISZERO ISZERO PUSH2 0x1079 JUMPI INVALID JUMPDEST PUSH1 0x20 MUL ADD MLOAD DUP12 DUP1 ISZERO ISZERO PUSH2 0x1088 JUMPI INVALID JUMPDEST DUP8 PUSH1 0x9 DUP9 ADD PUSH1 0x10 DUP2 LT ISZERO ISZERO PUSH2 0x1099 JUMPI INVALID JUMPDEST PUSH1 0x20 MUL ADD MLOAD DUP9 PUSH1 0x9 DUP10 ADD PUSH1 0x10 DUP2 LT ISZERO ISZERO PUSH2 0x10AF JUMPI INVALID JUMPDEST PUSH1 0x20 MUL ADD MLOAD MULMOD DUP13 PUSH2 0x1DB1 JUMP JUMPDEST DUP3 DUP1 PUSH1 0x1 ADD SWAP4 POP POP PUSH2 0x1046 JUMP JUMPDEST JUMPDEST PUSH1 0x0 DUP8 GT ISZERO PUSH2 0x1201 JUMPI DUP7 DUP1 PUSH1 0x1 SWAP1 SUB SWAP8 POP POP DUP7 DUP9 ADD MLOAD PUSH1 0x0 BYTE SWAP2 POP PUSH2 0x10ED DUP11 PUSH2 0x1E4D JUMP JUMPDEST PUSH1 0x10 DUP3 GT ISZERO PUSH2 0x1177 JUMPI PUSH1 0x2 DUP3 PUSH1 0x1F SUB DUP2 ISZERO ISZERO PUSH2 0x1105 JUMPI INVALID JUMPDEST DIV SWAP1 POP PUSH2 0x1172 DUP11 PUSH1 0x40 DUP1 MLOAD SWAP1 DUP2 ADD PUSH1 0x40 MSTORE DUP1 DUP10 DUP6 PUSH1 0x8 DUP2 LT ISZERO ISZERO PUSH2 0x1125 JUMPI INVALID JUMPDEST PUSH1 0x20 MUL ADD MLOAD PUSH1 0x0 PUSH1 0x3 DUP2 LT ISZERO ISZERO PUSH2 0x1138 JUMPI INVALID JUMPDEST PUSH1 0x20 MUL ADD MLOAD DUP2 MSTORE PUSH1 0x20 ADD DUP10 DUP6 PUSH1 0x8 DUP2 LT ISZERO ISZERO PUSH2 0x1150 JUMPI INVALID JUMPDEST PUSH1 0x20 MUL ADD MLOAD PUSH1 0x1 PUSH1 0x3 DUP2 LT ISZERO ISZERO PUSH2 0x1163 JUMPI INVALID JUMPDEST PUSH1 0x20 MUL ADD MLOAD DUP14 SUB DUP2 MSTORE POP PUSH2 0x1FFB JUMP JUMPDEST PUSH2 0x11FC JUMP JUMPDEST PUSH1 0x0 DUP3 GT ISZERO PUSH2 0x11FB JUMPI PUSH1 0x2 PUSH1 0x1 DUP4 SUB DUP2 ISZERO ISZERO PUSH2 0x118F JUMPI INVALID JUMPDEST DIV SWAP1 POP PUSH2 0x11FA DUP11 PUSH1 0x40 DUP1 MLOAD SWAP1 DUP2 ADD PUSH1 0x40 MSTORE DUP1 DUP10 DUP6 PUSH1 0x8 DUP2 LT ISZERO ISZERO PUSH2 0x11AF JUMPI INVALID JUMPDEST PUSH1 0x20 MUL ADD MLOAD PUSH1 0x0 PUSH1 0x3 DUP2 LT ISZERO ISZERO PUSH2 0x11C2 JUMPI INVALID JUMPDEST PUSH1 0x20 MUL ADD MLOAD DUP2 MSTORE PUSH1 0x20 ADD DUP10 DUP6 PUSH1 0x8 DUP2 LT ISZERO ISZERO PUSH2 0x11DA JUMPI INVALID JUMPDEST PUSH1 0x20 MUL ADD MLOAD PUSH1 0x1 PUSH1 0x3 DUP2 LT ISZERO ISZERO PUSH2 0x11ED JUMPI INVALID JUMPDEST PUSH1 0x20 MUL ADD MLOAD DUP2 MSTORE POP PUSH2 0x1FFB JUMP JUMPDEST JUMPDEST JUMPDEST PUSH2 0x10C9 JUMP JUMPDEST JUMPDEST POP POP POP POP POP POP POP POP POP SWAP3 SWAP2 POP POP JUMP JUMPDEST PUSH2 0x1219 PUSH2 0x24DC JUMP JUMPDEST PUSH1 0x0 PUSH2 0x1223 PUSH2 0x2552 JUMP JUMPDEST PUSH2 0x122B PUSH2 0x2552 JUMP JUMPDEST PUSH1 0x0 DUP1 PUSH1 0x0 DUP1 PUSH1 0x0 DUP1 DUP12 PUSH1 0x2 PUSH1 0x3 DUP2 LT ISZERO ISZERO PUSH2 0x1243 JUMPI INVALID JUMPDEST PUSH1 0x20 MUL ADD MLOAD EQ ISZERO PUSH2 0x1256 JUMPI DUP10 SWAP9 POP PUSH2 0x1729 JUMP JUMPDEST PUSH1 0x0 DUP11 PUSH1 0x2 PUSH1 0x3 DUP2 LT ISZERO ISZERO PUSH2 0x1267 JUMPI INVALID JUMPDEST PUSH1 0x20 MUL ADD MLOAD EQ ISZERO PUSH2 0x127A JUMPI DUP11 SWAP9 POP PUSH2 0x1729 JUMP JUMPDEST PUSH32 0xFFFFFFFFFFFFFFFFFFFFFFFFFFFFFFFFFFFFFFFFFFFFFFFFFFFFFFFEFFFFFC2F SWAP8 POP DUP8 DUP1 ISZERO ISZERO PUSH2 0x12A7 JUMPI INVALID JUMPDEST DUP12 PUSH1 0x2 PUSH1 0x3 DUP2 LT ISZERO ISZERO PUSH2 0x12B6 JUMPI INVALID JUMPDEST PUSH1 0x20 MUL ADD MLOAD DUP13 PUSH1 0x2 PUSH1 0x3 DUP2 LT ISZERO ISZERO PUSH2 0x12CA JUMPI INVALID JUMPDEST PUSH1 0x20 MUL ADD MLOAD MULMOD DUP8 PUSH1 0x0 PUSH1 0x4 DUP2 LT ISZERO ISZERO PUSH2 0x12DF JUMPI INVALID JUMPDEST PUSH1 0x20 MUL ADD DUP2 DUP2 MSTORE POP POP DUP8 DUP1 ISZERO ISZERO PUSH2 0x12F2 JUMPI INVALID JUMPDEST DUP8 PUSH1 0x0 PUSH1 0x4 DUP2 LT ISZERO ISZERO PUSH2 0x1301 JUMPI INVALID JUMPDEST PUSH1 0x20 MUL ADD MLOAD DUP13 PUSH1 0x2 PUSH1 0x3 DUP2 LT ISZERO ISZERO PUSH2 0x1315 JUMPI INVALID JUMPDEST PUSH1 0x20 MUL ADD MLOAD MULMOD DUP8 PUSH1 0x1 PUSH1 0x4 DUP2 LT ISZERO ISZERO PUSH2 0x132A JUMPI INVALID JUMPDEST PUSH1 0x20 MUL ADD DUP2 DUP2 MSTORE POP POP DUP8 DUP1 ISZERO ISZERO PUSH2 0x133D JUMPI INVALID JUMPDEST DUP11 PUSH1 0x2 PUSH1 0x3 DUP2 LT ISZERO ISZERO PUSH2 0x134C JUMPI INVALID JUMPDEST PUSH1 0x20 MUL ADD MLOAD DUP12 PUSH1 0x2 PUSH1 0x3 DUP2 LT ISZERO ISZERO PUSH2 0x1360 JUMPI INVALID JUMPDEST PUSH1 0x20 MUL ADD MLOAD MULMOD DUP8 PUSH1 0x2 PUSH1 0x4 DUP2 LT ISZERO ISZERO PUSH2 0x1375 JUMPI INVALID JUMPDEST PUSH1 0x20 MUL ADD DUP2 DUP2 MSTORE POP POP DUP8 DUP1 ISZERO ISZERO PUSH2 0x1388 JUMPI INVALID JUMPDEST DUP8 PUSH1 0x2 PUSH1 0x4 DUP2 LT ISZERO ISZERO PUSH2 0x1397 JUMPI INVALID JUMPDEST PUSH1 0x20 MUL ADD MLOAD DUP12 PUSH1 0x2 PUSH1 0x3 DUP2 LT ISZERO ISZERO PUSH2 0x13AB JUMPI INVALID JUMPDEST PUSH1 0x20 MUL ADD MLOAD MULMOD DUP8 PUSH1 0x3 PUSH1 0x4 DUP2 LT ISZERO ISZERO PUSH2 0x13C0 JUMPI INVALID JUMPDEST PUSH1 0x20 MUL ADD DUP2 DUP2 MSTORE POP POP PUSH1 0x80 PUSH1 0x40 MLOAD SWAP1 DUP2 ADD PUSH1 0x40 MSTORE DUP1 DUP10 DUP1 ISZERO ISZERO PUSH2 0x13DF JUMPI INVALID JUMPDEST DUP10 PUSH1 0x2 PUSH1 0x4 DUP2 LT ISZERO ISZERO PUSH2 0x13EE JUMPI INVALID JUMPDEST PUSH1 0x20 MUL ADD MLOAD DUP15 PUSH1 0x0 PUSH1 0x3 DUP2 LT ISZERO ISZERO PUSH2 0x1402 JUMPI INVALID JUMPDEST PUSH1 0x20 MUL ADD MLOAD MULMOD DUP2 MSTORE PUSH1 0x20 ADD DUP10 DUP1 ISZERO ISZERO PUSH2 0x1417 JUMPI INVALID JUMPDEST DUP10 PUSH1 0x3 PUSH1 0x4 DUP2 LT ISZERO ISZERO PUSH2 0x1426 JUMPI INVALID JUMPDEST PUSH1 0x20 MUL ADD MLOAD DUP15 PUSH1 0x1 PUSH1 0x3 DUP2 LT ISZERO ISZERO PUSH2 0x143A JUMPI INVALID JUMPDEST PUSH1 0x20 MUL ADD MLOAD MULMOD DUP2 MSTORE PUSH1 0x20 ADD DUP10 DUP1 ISZERO ISZERO PUSH2 0x144F JUMPI INVALID JUMPDEST DUP10 PUSH1 0x0 PUSH1 0x4 DUP2 LT ISZERO ISZERO PUSH2 0x145E JUMPI INVALID JUMPDEST PUSH1 0x20 MUL ADD MLOAD DUP14 PUSH1 0x0 PUSH1 0x3 DUP2 LT ISZERO ISZERO PUSH2 0x1472 JUMPI INVALID JUMPDEST PUSH1 0x20 MUL ADD MLOAD MULMOD DUP2 MSTORE PUSH1 0x20 ADD DUP10 DUP1 ISZERO ISZERO PUSH2 0x1487 JUMPI INVALID JUMPDEST DUP10 PUSH1 0x1 PUSH1 0x4 DUP2 LT ISZERO ISZERO PUSH2 0x1496 JUMPI INVALID JUMPDEST PUSH1 0x20 MUL ADD MLOAD DUP14 PUSH1 0x1 PUSH1 0x3 DUP2 LT ISZERO ISZERO PUSH2 0x14AA JUMPI INVALID JUMPDEST PUSH1 0x20 MUL ADD MLOAD MULMOD DUP2 MSTORE POP SWAP6 POP DUP6 PUSH1 0x2 PUSH1 0x4 DUP2 LT ISZERO ISZERO PUSH2 0x14C4 JUMPI INVALID JUMPDEST PUSH1 0x20 MUL ADD MLOAD DUP7 PUSH1 0x0 PUSH1 0x4 DUP2 LT ISZERO ISZERO PUSH2 0x14D8 JUMPI INVALID JUMPDEST PUSH1 0x20 MUL ADD MLOAD EQ ISZERO PUSH2 0x1527 JUMPI DUP6 PUSH1 0x3 PUSH1 0x4 DUP2 LT ISZERO ISZERO PUSH2 0x14F2 JUMPI INVALID JUMPDEST PUSH1 0x20 MUL ADD MLOAD DUP7 PUSH1 0x1 PUSH1 0x4 DUP2 LT ISZERO ISZERO PUSH2 0x1506 JUMPI INVALID JUMPDEST PUSH1 0x20 MUL ADD MLOAD EQ ISZERO ISZERO PUSH2 0x1517 JUMPI PUSH2 0x1729 JUMP JUMPDEST PUSH2 0x1520 DUP12 PUSH2 0x1737 JUMP JUMPDEST SWAP9 POP PUSH2 0x1729 JUMP JUMPDEST DUP8 DUP1 ISZERO ISZERO PUSH2 0x1531 JUMPI INVALID JUMPDEST DUP7 PUSH1 0x0 PUSH1 0x4 DUP2 LT ISZERO ISZERO PUSH2 0x1540 JUMPI INVALID JUMPDEST PUSH1 0x20 MUL ADD MLOAD DUP10 SUB DUP8 PUSH1 0x2 PUSH1 0x4 DUP2 LT ISZERO ISZERO PUSH2 0x1556 JUMPI INVALID JUMPDEST PUSH1 0x20 MUL ADD MLOAD ADDMOD SWAP5 POP DUP8 DUP1 ISZERO ISZERO PUSH2 0x1568 JUMPI INVALID JUMPDEST DUP7 PUSH1 0x1 PUSH1 0x4 DUP2 LT ISZERO ISZERO PUSH2 0x1577 JUMPI INVALID JUMPDEST PUSH1 0x20 MUL ADD MLOAD DUP10 SUB DUP8 PUSH1 0x3 PUSH1 0x4 DUP2 LT ISZERO ISZERO PUSH2 0x158D JUMPI INVALID JUMPDEST PUSH1 0x20 MUL ADD MLOAD ADDMOD SWAP4 POP DUP8 DUP1 ISZERO ISZERO PUSH2 0x159F JUMPI INVALID JUMPDEST DUP6 DUP7 MULMOD SWAP3 POP DUP8 DUP1 ISZERO ISZERO PUSH2 0x15AE JUMPI INVALID JUMPDEST DUP6 DUP5 MULMOD SWAP2 POP DUP8 DUP1 ISZERO ISZERO PUSH2 0x15BD JUMPI INVALID JUMPDEST DUP3 DUP10 SUB DUP10 DUP1 ISZERO ISZERO PUSH2 0x15CA JUMPI INVALID JUMPDEST DUP7 DUP8 MULMOD ADDMOD SWAP1 POP DUP8 DUP1 ISZERO ISZERO PUSH2 0x15DA JUMPI INVALID JUMPDEST DUP9 DUP1 ISZERO ISZERO PUSH2 0x15E4 JUMPI INVALID JUMPDEST DUP10 DUP1 ISZERO ISZERO PUSH2 0x15EE JUMPI INVALID JUMPDEST DUP6 DUP10 PUSH1 0x0 PUSH1 0x4 DUP2 LT ISZERO ISZERO PUSH2 0x15FE JUMPI INVALID JUMPDEST PUSH1 0x20 MUL ADD MLOAD MULMOD PUSH1 0x2 MULMOD DUP10 SUB DUP3 ADDMOD SWAP1 POP DUP1 DUP10 PUSH1 0x0 PUSH1 0x3 DUP2 LT ISZERO ISZERO PUSH2 0x161D JUMPI INVALID JUMPDEST PUSH1 0x20 MUL ADD DUP2 DUP2 MSTORE POP POP DUP8 DUP1 ISZERO ISZERO PUSH2 0x1630 JUMPI INVALID JUMPDEST DUP9 DUP1 ISZERO ISZERO PUSH2 0x163A JUMPI INVALID JUMPDEST DUP3 DUP11 SUB DUP11 DUP1 ISZERO ISZERO PUSH2 0x1647 JUMPI INVALID JUMPDEST DUP7 DUP11 PUSH1 0x0 PUSH1 0x4 DUP2 LT ISZERO ISZERO PUSH2 0x1657 JUMPI INVALID JUMPDEST PUSH1 0x20 MUL ADD MLOAD MULMOD ADDMOD DUP6 MULMOD DUP10 PUSH1 0x1 PUSH1 0x3 DUP2 LT ISZERO ISZERO PUSH2 0x166F JUMPI INVALID JUMPDEST PUSH1 0x20 MUL ADD DUP2 DUP2 MSTORE POP POP DUP8 DUP1 ISZERO ISZERO PUSH2 0x1682 JUMPI INVALID JUMPDEST DUP9 DUP1 ISZERO ISZERO PUSH2 0x168C JUMPI INVALID JUMPDEST DUP4 DUP9 PUSH1 0x1 PUSH1 0x4 DUP2 LT ISZERO ISZERO PUSH2 0x169C JUMPI INVALID JUMPDEST PUSH1 0x20 MUL ADD MLOAD MULMOD DUP10 SUB DUP11 PUSH1 0x1 PUSH1 0x3 DUP2 LT ISZERO ISZERO PUSH2 0x16B3 JUMPI INVALID JUMPDEST PUSH1 0x20 MUL ADD MLOAD ADDMOD DUP10 PUSH1 0x1 PUSH1 0x3 DUP2 LT ISZERO ISZERO PUSH2 0x16C8 JUMPI INVALID JUMPDEST PUSH1 0x20 MUL ADD DUP2 DUP2 MSTORE POP POP DUP8 DUP1 ISZERO ISZERO PUSH2 0x16DB JUMPI INVALID JUMPDEST DUP9 DUP1 ISZERO ISZERO PUSH2 0x16E5 JUMPI INVALID JUMPDEST DUP12 PUSH1 0x2 PUSH1 0x3 DUP2 LT ISZERO ISZERO PUSH2 0x16F4 JUMPI INVALID JUMPDEST PUSH1 0x20 MUL ADD MLOAD DUP14 PUSH1 0x2 PUSH1 0x3 DUP2 LT ISZERO ISZERO PUSH2 0x1708 JUMPI INVALID JUMPDEST PUSH1 0x20 MUL ADD MLOAD MULMOD DUP7 MULMOD DUP10 PUSH1 0x2 PUSH1 0x3 DUP2 LT ISZERO ISZERO PUSH2 0x171F JUMPI INVALID JUMPDEST PUSH1 0x20 MUL ADD DUP2 DUP2 MSTORE POP POP JUMPDEST POP POP POP POP POP POP POP POP SWAP3 SWAP2 POP POP JUMP JUMPDEST PUSH2 0x173F PUSH2 0x24DC JUMP JUMPDEST PUSH1 0x0 DUP1 PUSH1 0x0 DUP1 PUSH1 0x0 DUP1 PUSH1 0x0 PUSH32 0xFFFFFFFFFFFFFFFFFFFFFFFFFFFFFFFFFFFFFFFFFFFFFFFFFFFFFFFEFFFFFC2F SWAP7 POP PUSH1 0x0 DUP10 PUSH1 0x2 PUSH1 0x3 DUP2 LT ISZERO ISZERO PUSH2 0x177E JUMPI INVALID JUMPDEST PUSH1 0x20 MUL ADD MLOAD EQ ISZERO PUSH2 0x178E JUMPI PUSH2 0x18E3 JUMP JUMPDEST DUP9 PUSH1 0x0 PUSH1 0x3 DUP2 LT ISZERO ISZERO PUSH2 0x179D JUMPI INVALID JUMPDEST PUSH1 0x20 MUL ADD MLOAD SWAP6 POP DUP9 PUSH1 0x1 PUSH1 0x3 DUP2 LT ISZERO ISZERO PUSH2 0x17B3 JUMPI INVALID JUMPDEST PUSH1 0x20 MUL ADD MLOAD SWAP5 POP DUP7 DUP1 ISZERO ISZERO PUSH2 0x17C4 JUMPI INVALID JUMPDEST DUP6 DUP7 MULMOD SWAP4 POP DUP7 DUP1 ISZERO ISZERO PUSH2 0x17D3 JUMPI INVALID JUMPDEST DUP8 DUP1 ISZERO ISZERO PUSH2 0x17DD JUMPI INVALID JUMPDEST DUP6 DUP9 MULMOD PUSH1 0x4 MULMOD SWAP3 POP DUP7 DUP1 ISZERO ISZERO PUSH2 0x17EF JUMPI INVALID JUMPDEST DUP8 DUP1 ISZERO ISZERO PUSH2 0x17F9 JUMPI INVALID JUMPDEST DUP8 DUP9 MULMOD PUSH1 0x3 MULMOD SWAP2 POP DUP7 DUP1 ISZERO ISZERO PUSH2 0x180B JUMPI INVALID JUMPDEST DUP8 DUP1 ISZERO ISZERO PUSH2 0x1815 JUMPI INVALID JUMPDEST DUP5 DUP6 ADDMOD DUP9 SUB DUP9 DUP1 ISZERO ISZERO PUSH2 0x1824 JUMPI INVALID JUMPDEST DUP5 DUP6 MULMOD ADDMOD SWAP1 POP DUP1 DUP9 PUSH1 0x0 PUSH1 0x3 DUP2 LT ISZERO ISZERO PUSH2 0x183A JUMPI INVALID JUMPDEST PUSH1 0x20 MUL ADD DUP2 DUP2 MSTORE POP POP DUP7 DUP1 ISZERO ISZERO PUSH2 0x184D JUMPI INVALID JUMPDEST DUP8 DUP1 ISZERO ISZERO PUSH2 0x1857 JUMPI INVALID JUMPDEST DUP9 DUP1 ISZERO ISZERO PUSH2 0x1861 JUMPI INVALID JUMPDEST DUP7 DUP8 MULMOD PUSH1 0x8 MULMOD DUP9 SUB DUP9 DUP1 ISZERO ISZERO PUSH2 0x1873 JUMPI INVALID JUMPDEST DUP10 DUP1 ISZERO ISZERO PUSH2 0x187D JUMPI INVALID JUMPDEST DUP5 DUP12 SUB DUP8 ADDMOD DUP6 MULMOD ADDMOD DUP9 PUSH1 0x1 PUSH1 0x3 DUP2 LT ISZERO ISZERO PUSH2 0x1894 JUMPI INVALID JUMPDEST PUSH1 0x20 MUL ADD DUP2 DUP2 MSTORE POP POP DUP7 DUP1 ISZERO ISZERO PUSH2 0x18A7 JUMPI INVALID JUMPDEST DUP8 DUP1 ISZERO ISZERO PUSH2 0x18B1 JUMPI INVALID JUMPDEST DUP11 PUSH1 0x2 PUSH1 0x3 DUP2 LT ISZERO ISZERO PUSH2 0x18C0 JUMPI INVALID JUMPDEST PUSH1 0x20 MUL ADD MLOAD DUP8 MULMOD PUSH1 0x2 MULMOD DUP9 PUSH1 0x2 PUSH1 0x3 DUP2 LT ISZERO ISZERO PUSH2 0x18D9 JUMPI INVALID JUMPDEST PUSH1 0x20 MUL ADD DUP2 DUP2 MSTORE POP POP JUMPDEST POP POP POP POP POP POP POP SWAP2 SWAP1 POP JUMP JUMPDEST PUSH2 0x18F7 PUSH2 0x24DC JUMP JUMPDEST PUSH1 0x0 PUSH2 0x1901 PUSH2 0x2575 JUMP JUMPDEST PUSH2 0x1909 PUSH2 0x2552 JUMP JUMPDEST PUSH1 0x0 DUP1 PUSH1 0x0 DUP1 PUSH1 0x0 DUP1 DUP12 PUSH1 0x2 PUSH1 0x3 DUP2 LT ISZERO ISZERO PUSH2 0x1921 JUMPI INVALID JUMPDEST PUSH1 0x20 MUL ADD MLOAD EQ ISZERO PUSH2 0x1976 JUMPI PUSH1 0x60 PUSH1 0x40 MLOAD SWAP1 DUP2 ADD PUSH1 0x40 MSTORE DUP1 DUP12 PUSH1 0x0 PUSH1 0x2 DUP2 LT ISZERO ISZERO PUSH2 0x1947 JUMPI INVALID JUMPDEST PUSH1 0x20 MUL ADD MLOAD DUP2 MSTORE PUSH1 0x20 ADD DUP12 PUSH1 0x1 PUSH1 0x2 DUP2 LT ISZERO ISZERO PUSH2 0x1960 JUMPI INVALID JUMPDEST PUSH1 0x20 MUL ADD MLOAD DUP2 MSTORE PUSH1 0x20 ADD PUSH1 0x1 DUP2 MSTORE POP SWAP9 POP PUSH2 0x1DA3 JUMP JUMPDEST PUSH1 0x0 DUP11 PUSH1 0x1 PUSH1 0x2 DUP2 LT ISZERO ISZERO PUSH2 0x1987 JUMPI INVALID JUMPDEST PUSH1 0x20 MUL ADD MLOAD EQ ISZERO PUSH2 0x199A JUMPI DUP11 SWAP9 POP PUSH2 0x1DA3 JUMP JUMPDEST PUSH32 0xFFFFFFFFFFFFFFFFFFFFFFFFFFFFFFFFFFFFFFFFFFFFFFFFFFFFFFFEFFFFFC2F SWAP8 POP DUP8 DUP1 ISZERO ISZERO PUSH2 0x19C7 JUMPI INVALID JUMPDEST DUP12 PUSH1 0x2 PUSH1 0x3 DUP2 LT ISZERO ISZERO PUSH2 0x19D6 JUMPI INVALID JUMPDEST PUSH1 0x20 MUL ADD MLOAD DUP13 PUSH1 0x2 PUSH1 0x3 DUP2 LT ISZERO ISZERO PUSH2 0x19EA JUMPI INVALID JUMPDEST PUSH1 0x20 MUL ADD MLOAD MULMOD DUP8 PUSH1 0x0 PUSH1 0x2 DUP2 LT ISZERO ISZERO PUSH2 0x19FF JUMPI INVALID JUMPDEST PUSH1 0x20 MUL ADD DUP2 DUP2 MSTORE POP POP DUP8 DUP1 ISZERO ISZERO PUSH2 0x1A12 JUMPI INVALID JUMPDEST DUP8 PUSH1 0x0 PUSH1 0x2 DUP2 LT ISZERO ISZERO PUSH2 0x1A21 JUMPI INVALID JUMPDEST PUSH1 0x20 MUL ADD MLOAD DUP13 PUSH1 0x2 PUSH1 0x3 DUP2 LT ISZERO ISZERO PUSH2 0x1A35 JUMPI INVALID JUMPDEST PUSH1 0x20 MUL ADD MLOAD MULMOD DUP8 PUSH1 0x1 PUSH1 0x2 DUP2 LT ISZERO ISZERO PUSH2 0x1A4A JUMPI INVALID JUMPDEST PUSH1 0x20 MUL ADD DUP2 DUP2 MSTORE POP POP PUSH1 0x80 PUSH1 0x40 MLOAD SWAP1 DUP2 ADD PUSH1 0x40 MSTORE DUP1 DUP13 PUSH1 0x0 PUSH1 0x3 DUP2 LT ISZERO ISZERO PUSH2 0x1A6E JUMPI INVALID JUMPDEST PUSH1 0x20 MUL ADD MLOAD DUP2 MSTORE PUSH1 0x20 ADD DUP13 PUSH1 0x1 PUSH1 0x3 DUP2 LT ISZERO ISZERO PUSH2 0x1A87 JUMPI INVALID JUMPDEST PUSH1 0x20 MUL ADD MLOAD DUP2 MSTORE PUSH1 0x20 ADD DUP10 DUP1 ISZERO ISZERO PUSH2 0x1A9B JUMPI INVALID JUMPDEST DUP10 PUSH1 0x0 PUSH1 0x2 DUP2 LT ISZERO ISZERO PUSH2 0x1AAA JUMPI INVALID JUMPDEST PUSH1 0x20 MUL ADD MLOAD DUP14 PUSH1 0x0 PUSH1 0x2 DUP2 LT ISZERO ISZERO PUSH2 0x1ABE JUMPI INVALID JUMPDEST PUSH1 0x20 MUL ADD MLOAD MULMOD DUP2 MSTORE PUSH1 0x20 ADD DUP10 DUP1 ISZERO ISZERO PUSH2 0x1AD3 JUMPI INVALID JUMPDEST DUP10 PUSH1 0x1 PUSH1 0x2 DUP2 LT ISZERO ISZERO PUSH2 0x1AE2 JUMPI INVALID JUMPDEST PUSH1 0x20 MUL ADD MLOAD DUP14 PUSH1 0x1 PUSH1 0x2 DUP2 LT ISZERO ISZERO PUSH2 0x1AF6 JUMPI INVALID JUMPDEST PUSH1 0x20 MUL ADD MLOAD MULMOD DUP2 MSTORE POP SWAP6 POP DUP6 PUSH1 0x2 PUSH1 0x4 DUP2 LT ISZERO ISZERO PUSH2 0x1B10 JUMPI INVALID JUMPDEST PUSH1 0x20 MUL ADD MLOAD DUP7 PUSH1 0x0 PUSH1 0x4 DUP2 LT ISZERO ISZERO PUSH2 0x1B24 JUMPI INVALID JUMPDEST PUSH1 0x20 MUL ADD MLOAD EQ ISZERO PUSH2 0x1BC0 JUMPI DUP6 PUSH1 0x3 PUSH1 0x4 DUP2 LT ISZERO ISZERO PUSH2 0x1B3E JUMPI INVALID JUMPDEST PUSH1 0x20 MUL ADD MLOAD DUP7 PUSH1 0x1 PUSH1 0x4 DUP2 LT ISZERO ISZERO PUSH2 0x1B52 JUMPI INVALID JUMPDEST PUSH1 0x20 MUL ADD MLOAD EQ ISZERO ISZERO PUSH2 0x1BB1 JUMPI PUSH1 0x0 DUP12 PUSH1 0x0 PUSH1 0x3 DUP2 LT ISZERO ISZERO PUSH2 0x1B6F JUMPI INVALID JUMPDEST PUSH1 0x20 MUL ADD DUP2 DUP2 MSTORE POP POP PUSH1 0x0 DUP12 PUSH1 0x1 PUSH1 0x3 DUP2 LT ISZERO ISZERO PUSH2 0x1B89 JUMPI INVALID JUMPDEST PUSH1 0x20 MUL ADD DUP2 DUP2 MSTORE POP POP PUSH1 0x0 DUP12 PUSH1 0x2 PUSH1 0x3 DUP2 LT ISZERO ISZERO PUSH2 0x1BA3 JUMPI INVALID JUMPDEST PUSH1 0x20 MUL ADD DUP2 DUP2 MSTORE POP POP PUSH2 0x1DA3 JUMP JUMPDEST PUSH2 0x1BBA DUP12 PUSH2 0x1737 JUMP JUMPDEST POP PUSH2 0x1DA3 JUMP JUMPDEST DUP8 DUP1 ISZERO ISZERO PUSH2 0x1BCA JUMPI INVALID JUMPDEST DUP7 PUSH1 0x0 PUSH1 0x4 DUP2 LT ISZERO ISZERO PUSH2 0x1BD9 JUMPI INVALID JUMPDEST PUSH1 0x20 MUL ADD MLOAD DUP10 SUB DUP8 PUSH1 0x2 PUSH1 0x4 DUP2 LT ISZERO ISZERO PUSH2 0x1BEF JUMPI INVALID JUMPDEST PUSH1 0x20 MUL ADD MLOAD ADDMOD SWAP5 POP DUP8 DUP1 ISZERO ISZERO PUSH2 0x1C01 JUMPI INVALID JUMPDEST DUP7 PUSH1 0x1 PUSH1 0x4 DUP2 LT ISZERO ISZERO PUSH2 0x1C10 JUMPI INVALID JUMPDEST PUSH1 0x20 MUL ADD MLOAD DUP10 SUB DUP8 PUSH1 0x3 PUSH1 0x4 DUP2 LT ISZERO ISZERO PUSH2 0x1C26 JUMPI INVALID JUMPDEST PUSH1 0x20 MUL ADD MLOAD ADDMOD SWAP4 POP DUP8 DUP1 ISZERO ISZERO PUSH2 0x1C38 JUMPI INVALID JUMPDEST DUP6 DUP7 MULMOD SWAP3 POP DUP8 DUP1 ISZERO ISZERO PUSH2 0x1C47 JUMPI INVALID JUMPDEST DUP6 DUP5 MULMOD SWAP2 POP DUP8 DUP1 ISZERO ISZERO PUSH2 0x1C56 JUMPI INVALID JUMPDEST DUP3 DUP10 SUB DUP10 DUP1 ISZERO ISZERO PUSH2 0x1C63 JUMPI INVALID JUMPDEST DUP7 DUP8 MULMOD ADDMOD SWAP1 POP DUP8 DUP1 ISZERO ISZERO PUSH2 0x1C73 JUMPI INVALID JUMPDEST DUP9 DUP1 ISZERO ISZERO PUSH2 0x1C7D JUMPI INVALID JUMPDEST DUP10 DUP1 ISZERO ISZERO PUSH2 0x1C87 JUMPI INVALID JUMPDEST DUP6 DUP10 PUSH1 0x0 PUSH1 0x4 DUP2 LT ISZERO ISZERO PUSH2 0x1C97 JUMPI INVALID JUMPDEST PUSH1 0x20 MUL ADD MLOAD MULMOD PUSH1 0x2 MULMOD DUP10 SUB DUP3 ADDMOD SWAP1 POP DUP1 DUP10 PUSH1 0x0 PUSH1 0x3 DUP2 LT ISZERO ISZERO PUSH2 0x1CB6 JUMPI INVALID JUMPDEST PUSH1 0x20 MUL ADD DUP2 DUP2 MSTORE POP POP DUP8 DUP1 ISZERO ISZERO PUSH2 0x1CC9 JUMPI INVALID JUMPDEST DUP9 DUP1 ISZERO ISZERO PUSH2 0x1CD3 JUMPI INVALID JUMPDEST DUP3 DUP11 SUB DUP11 DUP1 ISZERO ISZERO PUSH2 0x1CE0 JUMPI INVALID JUMPDEST DUP7 DUP11 PUSH1 0x0 PUSH1 0x4 DUP2 LT ISZERO ISZERO PUSH2 0x1CF0 JUMPI INVALID JUMPDEST PUSH1 0x20 MUL ADD MLOAD MULMOD ADDMOD DUP6 MULMOD DUP10 PUSH1 0x1 PUSH1 0x3 DUP2 LT ISZERO ISZERO PUSH2 0x1D08 JUMPI INVALID JUMPDEST PUSH1 0x20 MUL ADD DUP2 DUP2 MSTORE POP POP DUP8 DUP1 ISZERO ISZERO PUSH2 0x1D1B JUMPI INVALID JUMPDEST DUP9 DUP1 ISZERO ISZERO PUSH2 0x1D25 JUMPI INVALID JUMPDEST DUP4 DUP9 PUSH1 0x1 PUSH1 0x4 DUP2 LT ISZERO ISZERO PUSH2 0x1D35 JUMPI INVALID JUMPDEST PUSH1 0x20 MUL ADD MLOAD MULMOD DUP10 SUB DUP11 PUSH1 0x1 PUSH1 0x3 DUP2 LT ISZERO ISZERO PUSH2 0x1D4C JUMPI INVALID JUMPDEST PUSH1 0x20 MUL ADD MLOAD ADDMOD DUP10 PUSH1 0x1 PUSH1 0x3 DUP2 LT ISZERO ISZERO PUSH2 0x1D61 JUMPI INVALID JUMPDEST PUSH1 0x20 MUL ADD DUP2 DUP2 MSTORE POP POP DUP8 DUP1 ISZERO ISZERO PUSH2 0x1D74 JUMPI INVALID JUMPDEST DUP12 PUSH1 0x2 PUSH1 0x3 DUP2 LT ISZERO ISZERO PUSH2 0x1D83 JUMPI INVALID JUMPDEST PUSH1 0x20 MUL ADD MLOAD DUP7 MULMOD DUP10 PUSH1 0x2 PUSH1 0x3 DUP2 LT ISZERO ISZERO PUSH2 0x1D99 JUMPI INVALID JUMPDEST PUSH1 0x20 MUL ADD DUP2 DUP2 MSTORE POP POP JUMPDEST POP POP POP POP POP POP POP POP SWAP3 SWAP2 POP POP JUMP JUMPDEST DUP1 DUP1 ISZERO ISZERO PUSH2 0x1DBB JUMPI INVALID JUMPDEST DUP3 DUP6 PUSH1 0x0 PUSH1 0x3 DUP2 LT ISZERO ISZERO PUSH2 0x1DCB JUMPI INVALID JUMPDEST PUSH1 0x20 MUL ADD MLOAD MULMOD DUP5 PUSH1 0x0 PUSH1 0x3 DUP2 LT ISZERO ISZERO PUSH2 0x1DE0 JUMPI INVALID JUMPDEST PUSH1 0x20 MUL ADD DUP2 DUP2 MSTORE POP POP DUP1 DUP1 ISZERO ISZERO PUSH2 0x1DF3 JUMPI INVALID JUMPDEST DUP2 DUP1 ISZERO ISZERO PUSH2 0x1DFD JUMPI INVALID JUMPDEST DUP4 DUP6 MULMOD DUP6 PUSH1 0x1 PUSH1 0x3 DUP2 LT ISZERO ISZERO PUSH2 0x1E0F JUMPI INVALID JUMPDEST PUSH1 0x20 MUL ADD MLOAD MULMOD DUP5 PUSH1 0x1 PUSH1 0x3 DUP2 LT ISZERO ISZERO PUSH2 0x1E24 JUMPI INVALID JUMPDEST PUSH1 0x20 MUL ADD DUP2 DUP2 MSTORE POP POP PUSH1 0x1 DUP5 PUSH1 0x2 PUSH1 0x3 DUP2 LT ISZERO ISZERO PUSH2 0x1E3E JUMPI INVALID JUMPDEST PUSH1 0x20 MUL ADD DUP2 DUP2 MSTORE POP POP POP POP POP POP JUMP JUMPDEST PUSH1 0x0 DUP1 PUSH1 0x0 DUP1 PUSH1 0x0 DUP1 PUSH1 0x0 PUSH32 0xFFFFFFFFFFFFFFFFFFFFFFFFFFFFFFFFFFFFFFFFFFFFFFFFFFFFFFFEFFFFFC2F SWAP7 POP PUSH1 0x0 DUP9 PUSH1 0x2 PUSH1 0x3 DUP2 LT ISZERO ISZERO PUSH2 0x1E8C JUMPI INVALID JUMPDEST PUSH1 0x20 MUL ADD MLOAD EQ ISZERO PUSH2 0x1E9C JUMPI PUSH2 0x1FF1 JUMP JUMPDEST DUP8 PUSH1 0x0 PUSH1 0x3 DUP2 LT ISZERO ISZERO PUSH2 0x1EAB JUMPI INVALID JUMPDEST PUSH1 0x20 MUL ADD MLOAD SWAP6 POP DUP8 PUSH1 0x1 PUSH1 0x3 DUP2 LT ISZERO ISZERO PUSH2 0x1EC1 JUMPI INVALID JUMPDEST PUSH1 0x20 MUL ADD MLOAD SWAP5 POP DUP7 DUP1 ISZERO ISZERO PUSH2 0x1ED2 JUMPI INVALID JUMPDEST DUP6 DUP7 MULMOD SWAP4 POP DUP7 DUP1 ISZERO ISZERO PUSH2 0x1EE1 JUMPI INVALID JUMPDEST DUP8 DUP1 ISZERO ISZERO PUSH2 0x1EEB JUMPI INVALID JUMPDEST DUP6 DUP9 MULMOD PUSH1 0x4 MULMOD SWAP3 POP DUP7 DUP1 ISZERO ISZERO PUSH2 0x1EFD JUMPI INVALID JUMPDEST DUP8 DUP1 ISZERO ISZERO PUSH2 0x1F07 JUMPI INVALID JUMPDEST DUP8 DUP9 MULMOD PUSH1 0x3 MULMOD SWAP2 POP DUP7 DUP1 ISZERO ISZERO PUSH2 0x1F19 JUMPI INVALID JUMPDEST DUP8 DUP1 ISZERO ISZERO PUSH2 0x1F23 JUMPI INVALID JUMPDEST DUP5 DUP6 ADDMOD DUP9 SUB DUP9 DUP1 ISZERO ISZERO PUSH2 0x1F32 JUMPI INVALID JUMPDEST DUP5 DUP6 MULMOD ADDMOD SWAP1 POP DUP1 DUP9 PUSH1 0x0 PUSH1 0x3 DUP2 LT ISZERO ISZERO PUSH2 0x1F48 JUMPI INVALID JUMPDEST PUSH1 0x20 MUL ADD DUP2 DUP2 MSTORE POP POP DUP7 DUP1 ISZERO ISZERO PUSH2 0x1F5B JUMPI INVALID JUMPDEST DUP8 DUP1 ISZERO ISZERO PUSH2 0x1F65 JUMPI INVALID JUMPDEST DUP9 DUP1 ISZERO ISZERO PUSH2 0x1F6F JUMPI INVALID JUMPDEST DUP7 DUP8 MULMOD PUSH1 0x8 MULMOD DUP9 SUB DUP9 DUP1 ISZERO ISZERO PUSH2 0x1F81 JUMPI INVALID JUMPDEST DUP10 DUP1 ISZERO ISZERO PUSH2 0x1F8B JUMPI INVALID JUMPDEST DUP5 DUP12 SUB DUP8 ADDMOD DUP6 MULMOD ADDMOD DUP9 PUSH1 0x1 PUSH1 0x3 DUP2 LT ISZERO ISZERO PUSH2 0x1FA2 JUMPI INVALID JUMPDEST PUSH1 0x20 MUL ADD DUP2 DUP2 MSTORE POP POP DUP7 DUP1 ISZERO ISZERO PUSH2 0x1FB5 JUMPI INVALID JUMPDEST DUP8 DUP1 ISZERO ISZERO PUSH2 0x1FBF JUMPI INVALID JUMPDEST DUP10 PUSH1 0x2 PUSH1 0x3 DUP2 LT ISZERO ISZERO PUSH2 0x1FCE JUMPI INVALID JUMPDEST PUSH1 0x20 MUL ADD MLOAD DUP8 MULMOD PUSH1 0x2 MULMOD DUP9 PUSH1 0x2 PUSH1 0x3 DUP2 LT ISZERO ISZERO PUSH2 0x1FE7 JUMPI INVALID JUMPDEST PUSH1 0x20 MUL ADD DUP2 DUP2 MSTORE POP POP JUMPDEST POP POP POP POP POP POP POP POP JUMP JUMPDEST PUSH1 0x0 PUSH2 0x2005 PUSH2 0x2575 JUMP JUMPDEST PUSH2 0x200D PUSH2 0x2552 JUMP JUMPDEST PUSH1 0x0 DUP1 PUSH1 0x0 DUP1 PUSH1 0x0 DUP1 DUP11 PUSH1 0x1 PUSH1 0x3 DUP2 LT ISZERO ISZERO PUSH2 0x2025 JUMPI INVALID JUMPDEST PUSH1 0x20 MUL ADD MLOAD EQ ISZERO PUSH2 0x20A7 JUMPI DUP9 PUSH1 0x0 PUSH1 0x2 DUP2 LT ISZERO ISZERO PUSH2 0x203F JUMPI INVALID JUMPDEST PUSH1 0x20 MUL ADD MLOAD DUP11 PUSH1 0x0 PUSH1 0x3 DUP2 LT ISZERO ISZERO PUSH2 0x2053 JUMPI INVALID JUMPDEST PUSH1 0x20 MUL ADD DUP2 DUP2 MSTORE POP POP DUP9 PUSH1 0x1 PUSH1 0x2 DUP2 LT ISZERO ISZERO PUSH2 0x206B JUMPI INVALID JUMPDEST PUSH1 0x20 MUL ADD MLOAD DUP11 PUSH1 0x1 PUSH1 0x3 DUP2 LT ISZERO ISZERO PUSH2 0x207F JUMPI INVALID JUMPDEST PUSH1 0x20 MUL ADD DUP2 DUP2 MSTORE POP POP PUSH1 0x1 DUP11 PUSH1 0x2 PUSH1 0x3 DUP2 LT ISZERO ISZERO PUSH2 0x2099 JUMPI INVALID JUMPDEST PUSH1 0x20 MUL ADD DUP2 DUP2 MSTORE POP POP PUSH2 0x24D0 JUMP JUMPDEST PUSH1 0x0 DUP10 PUSH1 0x1 PUSH1 0x2 DUP2 LT ISZERO ISZERO PUSH2 0x20B8 JUMPI INVALID JUMPDEST PUSH1 0x20 MUL ADD MLOAD EQ ISZERO PUSH2 0x20C8 JUMPI PUSH2 0x24D0 JUMP JUMPDEST PUSH32 0xFFFFFFFFFFFFFFFFFFFFFFFFFFFFFFFFFFFFFFFFFFFFFFFFFFFFFFFEFFFFFC2F SWAP8 POP DUP8 DUP1 ISZERO ISZERO PUSH2 0x20F5 JUMPI INVALID JUMPDEST DUP11 PUSH1 0x2 PUSH1 0x3 DUP2 LT ISZERO ISZERO PUSH2 0x2104 JUMPI INVALID JUMPDEST PUSH1 0x20 MUL ADD MLOAD DUP12 PUSH1 0x2 PUSH1 0x3 DUP2 LT ISZERO ISZERO PUSH2 0x2118 JUMPI INVALID JUMPDEST PUSH1 0x20 MUL ADD MLOAD MULMOD DUP8 PUSH1 0x0 PUSH1 0x2 DUP2 LT ISZERO ISZERO PUSH2 0x212D JUMPI INVALID JUMPDEST PUSH1 0x20 MUL ADD DUP2 DUP2 MSTORE POP POP DUP8 DUP1 ISZERO ISZERO PUSH2 0x2140 JUMPI INVALID JUMPDEST DUP8 PUSH1 0x0 PUSH1 0x2 DUP2 LT ISZERO ISZERO PUSH2 0x214F JUMPI INVALID JUMPDEST PUSH1 0x20 MUL ADD MLOAD DUP12 PUSH1 0x2 PUSH1 0x3 DUP2 LT ISZERO ISZERO PUSH2 0x2163 JUMPI INVALID JUMPDEST PUSH1 0x20 MUL ADD MLOAD MULMOD DUP8 PUSH1 0x1 PUSH1 0x2 DUP2 LT ISZERO ISZERO PUSH2 0x2178 JUMPI INVALID JUMPDEST PUSH1 0x20 MUL ADD DUP2 DUP2 MSTORE POP POP PUSH1 0x80 PUSH1 0x40 MLOAD SWAP1 DUP2 ADD PUSH1 0x40 MSTORE DUP1 DUP12 PUSH1 0x0 PUSH1 0x3 DUP2 LT ISZERO ISZERO PUSH2 0x219C JUMPI INVALID JUMPDEST PUSH1 0x20 MUL ADD MLOAD DUP2 MSTORE PUSH1 0x20 ADD DUP12 PUSH1 0x1 PUSH1 0x3 DUP2 LT ISZERO ISZERO PUSH2 0x21B5 JUMPI INVALID JUMPDEST PUSH1 0x20 MUL ADD MLOAD DUP2 MSTORE PUSH1 0x20 ADD DUP10 DUP1 ISZERO ISZERO PUSH2 0x21C9 JUMPI INVALID JUMPDEST DUP10 PUSH1 0x0 PUSH1 0x2 DUP2 LT ISZERO ISZERO PUSH2 0x21D8 JUMPI INVALID JUMPDEST PUSH1 0x20 MUL ADD MLOAD DUP13 PUSH1 0x0 PUSH1 0x2 DUP2 LT ISZERO ISZERO PUSH2 0x21EC JUMPI INVALID JUMPDEST PUSH1 0x20 MUL ADD MLOAD MULMOD DUP2 MSTORE PUSH1 0x20 ADD DUP10 DUP1 ISZERO ISZERO PUSH2 0x2201 JUMPI INVALID JUMPDEST DUP10 PUSH1 0x1 PUSH1 0x2 DUP2 LT ISZERO ISZERO PUSH2 0x2210 JUMPI INVALID JUMPDEST PUSH1 0x20 MUL ADD MLOAD DUP13 PUSH1 0x1 PUSH1 0x2 DUP2 LT ISZERO ISZERO PUSH2 0x2224 JUMPI INVALID JUMPDEST PUSH1 0x20 MUL ADD MLOAD MULMOD DUP2 MSTORE POP SWAP6 POP DUP6 PUSH1 0x2 PUSH1 0x4 DUP2 LT ISZERO ISZERO PUSH2 0x223E JUMPI INVALID JUMPDEST PUSH1 0x20 MUL ADD MLOAD DUP7 PUSH1 0x0 PUSH1 0x4 DUP2 LT ISZERO ISZERO PUSH2 0x2252 JUMPI INVALID JUMPDEST PUSH1 0x20 MUL ADD MLOAD EQ ISZERO PUSH2 0x22ED JUMPI DUP6 PUSH1 0x3 PUSH1 0x4 DUP2 LT ISZERO ISZERO PUSH2 0x226C JUMPI INVALID JUMPDEST PUSH1 0x20 MUL ADD MLOAD DUP7 PUSH1 0x1 PUSH1 0x4 DUP2 LT ISZERO ISZERO PUSH2 0x2280 JUMPI INVALID JUMPDEST PUSH1 0x20 MUL ADD MLOAD EQ ISZERO ISZERO PUSH2 0x22DF JUMPI PUSH1 0x0 DUP11 PUSH1 0x0 PUSH1 0x3 DUP2 LT ISZERO ISZERO PUSH2 0x229D JUMPI INVALID JUMPDEST PUSH1 0x20 MUL ADD DUP2 DUP2 MSTORE POP POP PUSH1 0x0 DUP11 PUSH1 0x1 PUSH1 0x3 DUP2 LT ISZERO ISZERO PUSH2 0x22B7 JUMPI INVALID JUMPDEST PUSH1 0x20 MUL ADD DUP2 DUP2 MSTORE POP POP PUSH1 0x0 DUP11 PUSH1 0x2 PUSH1 0x3 DUP2 LT ISZERO ISZERO PUSH2 0x22D1 JUMPI INVALID JUMPDEST PUSH1 0x20 MUL ADD DUP2 DUP2 MSTORE POP POP PUSH2 0x24D0 JUMP JUMPDEST PUSH2 0x22E8 DUP11 PUSH2 0x1E4D JUMP JUMPDEST PUSH2 0x24D0 JUMP JUMPDEST DUP8 DUP1 ISZERO ISZERO PUSH2 0x22F7 JUMPI INVALID JUMPDEST DUP7 PUSH1 0x0 PUSH1 0x4 DUP2 LT ISZERO ISZERO PUSH2 0x2306 JUMPI INVALID JUMPDEST PUSH1 0x20 MUL ADD MLOAD DUP10 SUB DUP8 PUSH1 0x2 PUSH1 0x4 DUP2 LT ISZERO ISZERO PUSH2 0x231C JUMPI INVALID JUMPDEST PUSH1 0x20 MUL ADD MLOAD ADDMOD SWAP5 POP DUP8 DUP1 ISZERO ISZERO PUSH2 0x232E JUMPI INVALID JUMPDEST DUP7 PUSH1 0x1 PUSH1 0x4 DUP2 LT ISZERO ISZERO PUSH2 0x233D JUMPI INVALID JUMPDEST PUSH1 0x20 MUL ADD MLOAD DUP10 SUB DUP8 PUSH1 0x3 PUSH1 0x4 DUP2 LT ISZERO ISZERO PUSH2 0x2353 JUMPI INVALID JUMPDEST PUSH1 0x20 MUL ADD MLOAD ADDMOD SWAP4 POP DUP8 DUP1 ISZERO ISZERO PUSH2 0x2365 JUMPI INVALID JUMPDEST DUP6 DUP7 MULMOD SWAP3 POP DUP8 DUP1 ISZERO ISZERO PUSH2 0x2374 JUMPI INVALID JUMPDEST DUP6 DUP5 MULMOD SWAP2 POP DUP8 DUP1 ISZERO ISZERO PUSH2 0x2383 JUMPI INVALID JUMPDEST DUP3 DUP10 SUB DUP10 DUP1 ISZERO ISZERO PUSH2 0x2390 JUMPI INVALID JUMPDEST DUP7 DUP8 MULMOD ADDMOD SWAP1 POP DUP8 DUP1 ISZERO ISZERO PUSH2 0x23A0 JUMPI INVALID JUMPDEST DUP9 DUP1 ISZERO ISZERO PUSH2 0x23AA JUMPI INVALID JUMPDEST DUP10 DUP1 ISZERO ISZERO PUSH2 0x23B4 JUMPI INVALID JUMPDEST DUP6 DUP10 PUSH1 0x0 PUSH1 0x4 DUP2 LT ISZERO ISZERO PUSH2 0x23C4 JUMPI INVALID JUMPDEST PUSH1 0x20 MUL ADD MLOAD MULMOD PUSH1 0x2 MULMOD DUP10 SUB DUP3 ADDMOD SWAP1 POP DUP1 DUP11 PUSH1 0x0 PUSH1 0x3 DUP2 LT ISZERO ISZERO PUSH2 0x23E3 JUMPI INVALID JUMPDEST PUSH1 0x20 MUL ADD DUP2 DUP2 MSTORE POP POP DUP8 DUP1 ISZERO ISZERO PUSH2 0x23F6 JUMPI INVALID JUMPDEST DUP9 DUP1 ISZERO ISZERO PUSH2 0x2400 JUMPI INVALID JUMPDEST DUP3 DUP11 SUB DUP11 DUP1 ISZERO ISZERO PUSH2 0x240D JUMPI INVALID JUMPDEST DUP7 DUP11 PUSH1 0x0 PUSH1 0x4 DUP2 LT ISZERO ISZERO PUSH2 0x241D JUMPI INVALID JUMPDEST PUSH1 0x20 MUL ADD MLOAD MULMOD ADDMOD DUP6 MULMOD DUP11 PUSH1 0x1 PUSH1 0x3 DUP2 LT ISZERO ISZERO PUSH2 0x2435 JUMPI INVALID JUMPDEST PUSH1 0x20 MUL ADD DUP2 DUP2 MSTORE POP POP DUP8 DUP1 ISZERO ISZERO PUSH2 0x2448 JUMPI INVALID JUMPDEST DUP9 DUP1 ISZERO ISZERO PUSH2 0x2452 JUMPI INVALID JUMPDEST DUP4 DUP9 PUSH1 0x1 PUSH1 0x4 DUP2 LT ISZERO ISZERO PUSH2 0x2462 JUMPI INVALID JUMPDEST PUSH1 0x20 MUL ADD MLOAD MULMOD DUP10 SUB DUP12 PUSH1 0x1 PUSH1 0x3 DUP2 LT ISZERO ISZERO PUSH2 0x2479 JUMPI INVALID JUMPDEST PUSH1 0x20 MUL ADD MLOAD ADDMOD DUP11 PUSH1 0x1 PUSH1 0x3 DUP2 LT ISZERO ISZERO PUSH2 0x248E JUMPI INVALID JUMPDEST PUSH1 0x20 MUL ADD DUP2 DUP2 MSTORE POP POP DUP8 DUP1 ISZERO ISZERO PUSH2 0x24A1 JUMPI INVALID JUMPDEST DUP11 PUSH1 0x2 PUSH1 0x3 DUP2 LT ISZERO ISZERO PUSH2 0x24B0 JUMPI INVALID JUMPDEST PUSH1 0x20 MUL ADD MLOAD DUP7 MULMOD DUP11 PUSH1 0x2 PUSH1 0x3 DUP2 LT ISZERO ISZERO PUSH2 0x24C6 JUMPI INVALID JUMPDEST PUSH1 0x20 MUL ADD DUP2 DUP2 MSTORE POP POP JUMPDEST POP POP POP POP POP POP POP POP POP POP JUMP JUMPDEST PUSH1 0x60 PUSH1 0x40 MLOAD SWAP1 DUP2 ADD PUSH1 0x40 MSTORE DUP1 PUSH1 0x3 SWAP1 PUSH1 0x20 DUP3 MUL DUP1 CODESIZE DUP4 CODECOPY DUP1 DUP3 ADD SWAP2 POP POP SWAP1 POP POP SWAP1 JUMP JUMPDEST PUSH2 0x300 PUSH1 0x40 MLOAD SWAP1 DUP2 ADD PUSH1 0x40 MSTORE DUP1 PUSH1 0x8 SWAP1 JUMPDEST PUSH2 0x2518 PUSH2 0x2597 JUMP JUMPDEST DUP2 MSTORE PUSH1 0x20 ADD SWAP1 PUSH1 0x1 SWAP1 SUB SWAP1 DUP2 PUSH2 0x2510 JUMPI SWAP1 POP POP SWAP1 JUMP JUMPDEST PUSH2 0x200 PUSH1 0x40 MLOAD SWAP1 DUP2 ADD PUSH1 0x40 MSTORE DUP1 PUSH1 0x10 SWAP1 PUSH1 0x20 DUP3 MUL DUP1 CODESIZE DUP4 CODECOPY DUP1 DUP3 ADD SWAP2 POP POP SWAP1 POP POP SWAP1 JUMP JUMPDEST PUSH1 0x80 PUSH1 0x40 MLOAD SWAP1 DUP2 ADD PUSH1 0x40 MSTORE DUP1 PUSH1 0x4 SWAP1 PUSH1 0x20 DUP3 MUL DUP1 CODESIZE DUP4 CODECOPY DUP1 DUP3 ADD SWAP2 POP POP SWAP1 POP POP SWAP1 JUMP JUMPDEST PUSH1 0x40 DUP1 MLOAD SWAP1 DUP2 ADD PUSH1 0x40 MSTORE DUP1 PUSH1 0x2 SWAP1 PUSH1 0x20 DUP3 MUL DUP1 CODESIZE DUP4 CODECOPY DUP1 DUP3 ADD SWAP2 POP POP SWAP1 POP POP SWAP1 JUMP JUMPDEST PUSH1 0x60 PUSH1 0x40 MLOAD SWAP1 DUP2 ADD PUSH1 0x40 MSTORE DUP1 PUSH1 0x3 SWAP1 PUSH1 0x20 DUP3 MUL DUP1 CODESIZE DUP4 CODECOPY DUP1 DUP3 ADD SWAP2 POP POP SWAP1 POP POP SWAP1 JUMP STOP LOG1 PUSH6 0x627A7A723058 KECCAK256 0xc4 0x47 DUP16 PUSH19 0xD46BA71C9BD99634D7069822A899A34590E3BE 0x21 DUP3 PUSH13 0x51EF23D0E8500290000000000 "
				},
				"gasEstimates": {
					"creation": {
						"codeDepositCost": "1940400",
						"executionCost": "2055",
						"totalCost": "1942455"
					},
					"external": {
						"recover(bytes32,bytes)": "infinite"
					},
					"internal": {
						"_getPoint(uint256,uint256,uint256,bool,bool)": "infinite",
						"btc_ecrecover(bytes32,uint8,bytes32,bytes32)": "infinite"
					}
				},
				"methodIdentifiers": {
					"recover(bytes32,bytes)": "19045a25"
				}
			},
			"userdoc": {
				"methods": {}
			}
		}
	}
}