{
	"data": {
		"bytecode": {
			"linkReferences": {},
			"object": "608060405234801561001057600080fd5b506125e6806100206000396000f300608060405260043610610041576000357c0100000000000000000000000000000000000000000000000000000000900463ffffffff16806319045a2514610046575b600080fd5b34801561005257600080fd5b506100bb6004803603810190808035600019169060200190929190803590602001908201803590602001908080601f0160208091040260200160405190810160405280939291908181526020018383808284378201915050505050509192919290505050610136565b6040518080602001828103825283818151815260200191508051906020019080838360005b838110156100fb5780820151818401526020810190506100e0565b50505050905090810190601f1680156101285780820380516001836020036101000a031916815260200191505b509250505060405180910390f35b6060600080600060418551141515610160576020604051908101604052806000815250935061022c565b602085015160001a9050602185015192506041850151915060027ffffffffffffffffffffffffffffffffebaaedce6af48a03bbfd25e8cd03641418115156101a457fe5b04826001900411156101c8576020604051908101604052806000815250935061022c565b601b8160ff16141580156101e05750601c8160ff1614155b80156101f05750601f8160ff1614155b8015610200575060208160ff1614155b1561021d576020604051908101604052806000815250935061022c565b61022986828585610235565b93505b50505092915050565b60606000806000806000806102486124dc565b6060600097508a6001900496508960019004955060006001601b8e031660ff161415945060006002601b8e031660ff161415935060006004601b8e031660ff16141592508215156102ab57602060405190810160405280600081525098506104fb565b7ffffffffffffffffffffffffffffffffebaaedce6af48a03bbfd25e8cd03641417ffffffffffffffffffffffffffffffffffffffffffffffffffffffffefffffc2f8115156102f657fe5b0687101580156103035750835b1561032057602060405190810160405280600081525098506104fb565b6103318d600190048888888861050b565b9150600082600260038110151561034457fe5b6020020151141561036757602060405190810160405280600081525098506104fb565b610391827ffffffffffffffffffffffffffffffffffffffffffffffffffffffffefffffc2f61074d565b60216040519080825280601f01601f1916602001820160405280156103c55781602001602082028038833980820191505090505b509050600060028360016003811015156103db57fe5b60200201518115156103e957fe5b06146103f65760036103f9565b60025b7f01000000000000000000000000000000000000000000000000000000000000000281600081518110151561042a57fe5b9060200101907effffffffffffffffffffffffffffffffffffffffffffffffffffffffffffff1916908160001a905350600097505b60208810156104f75760ff8860080283600060038110151561047d57fe5b60200201519060020a9004167f01000000000000000000000000000000000000000000000000000000000000000281896020038151811015156104bc57fe5b9060200101907effffffffffffffffffffffffffffffffffffffffffffffffffffffffffffff1916908160001a90535087600101975061045f565b8098505b5050505050505050949350505050565b6105136124dc565b6000806000846105235787610547565b7ffffffffffffffffffffffffffffffffebaaedce6af48a03bbfd25e8cd036414188015b92506105d1600761057a8560037ffffffffffffffffffffffffffffffffffffffffffffffffffffffffefffffc2f61081a565b01600160047ffffffffffffffffffffffffffffffffffffffffffffffffffffffffefffffc2f8115156105a957fe5b04017ffffffffffffffffffffffffffffffffffffffffffffffffffffffffefffffc2f61081a565b915060016002838115156105e157fe5b0614151586151514151561061557817ffffffffffffffffffffffffffffffffffffffffffffffffffffffffefffffc2f0391505b61063f887ffffffffffffffffffffffffffffffffebaaedce6af48a03bbfd25e8cd03641416108d6565b905061073f6106f07ffffffffffffffffffffffffffffffffebaaedce6af48a03bbfd25e8cd036414180151561067157fe5b838c097ffffffffffffffffffffffffffffffffebaaedce6af48a03bbfd25e8cd03641410360408051908101604052807f79be667ef9dcbbac55a06295ce870b07029bfcdb2dce28d959f2815b16f8179881526020017f483ada7726a3c4655da4fbfc0e1108a8fd17b448a68554199c47d08ffb10d4b8815250610982565b61073a7ffffffffffffffffffffffffffffffffebaaedce6af48a03bbfd25e8cd036414180151561071d57fe5b848b09604080519081016040528088815260200187815250610982565b611211565b935050505095945050505050565b60008061076d84600260038110151561076257fe5b6020020151846108d6565b91508280151561077957fe5b82830990508280151561078857fe5b8185600060038110151561079857fe5b6020020151098460006003811015156107ad57fe5b602002018181525050828015156107c057fe5b838015156107ca57fe5b8284098560016003811015156107dc57fe5b6020020151098460016003811015156107f157fe5b602002018181525050600184600260038110151561080b57fe5b60200201818152505050505050565b600080600085141561082f57600091506108ce565b600084141561084157600191506108ce565b600083141561084f57600080fd5b600191507f800000000000000000000000000000000000000000000000000000000000000090505b80156108cd57828185161515860a84848509099150826002820485161515860a84848509099150826004820485161515860a84848509099150826008820485161515860a84848509099150601081049050610877565b5b509392505050565b60008060008060008060008814806108ed57508688145b806108f85750600087145b1561090257600080fd5b8688111561091957868881151561091557fe5b0697505b600193508692508791505b60008214151561095d57818381151561093957fe5b04905083848202860383848402860380955081965082975083985050505050610924565b6000851215610973578460000387039550610977565b8495505b505050505092915050565b61098a6124dc565b60008060006109976124ff565b61099f6124dc565b6109a761252e565b60008060007ffffffffffffffffffffffffffffffffffffffffffffffffffffffffefffffc2f985060008c14156109dd57611202565b6000604051985061020089016040525b8c15610a265760018d1615610a155760208d06905080888a015360206010821102818e03019c505b60028d049c506001880197506109ed565b506060604051908101604052808c6000600281101515610a4257fe5b602002015181526020018c6001600281101515610a5b57fe5b602002015181526020016001815250866000600881101515610a7957fe5b6020020181905250610a9d866000600881101515610a9357fe5b6020020151611737565b9450610aa9858c6118ef565b866001600881101515610ab857fe5b6020020181905250610add85876001600881101515610ad357fe5b6020020151611211565b866002600881101515610aec57fe5b6020020181905250610b1185876002600881101515610b0757fe5b6020020151611211565b866003600881101515610b2057fe5b6020020181905250610b4585876003600881101515610b3b57fe5b6020020151611211565b866004600881101515610b5457fe5b6020020181905250610b7985876004600881101515610b6f57fe5b6020020151611211565b866005600881101515610b8857fe5b6020020181905250610bad85876005600881101515610ba357fe5b6020020151611211565b866006600881101515610bbc57fe5b6020020181905250610be185876006600881101515610bd757fe5b6020020151611211565b866007600881101515610bf057fe5b6020020181905250856001600881101515610c0757fe5b60200201516002600381101515610c1a57fe5b6020020151846000601081101515610c2e57fe5b60200201818152505088801515610c4157fe5b846000601081101515610c5057fe5b6020020151876002600881101515610c6457fe5b60200201516002600381101515610c7757fe5b602002015109846001601081101515610c8c57fe5b60200201818152505088801515610c9f57fe5b846001601081101515610cae57fe5b6020020151876003600881101515610cc257fe5b60200201516002600381101515610cd557fe5b602002015109846002601081101515610cea57fe5b60200201818152505088801515610cfd57fe5b846002601081101515610d0c57fe5b6020020151876004600881101515610d2057fe5b60200201516002600381101515610d3357fe5b602002015109846003601081101515610d4857fe5b60200201818152505088801515610d5b57fe5b846003601081101515610d6a57fe5b6020020151876005600881101515610d7e57fe5b60200201516002600381101515610d9157fe5b602002015109846004601081101515610da657fe5b60200201818152505088801515610db957fe5b846004601081101515610dc857fe5b6020020151876006600881101515610ddc57fe5b60200201516002600381101515610def57fe5b602002015109846005601081101515610e0457fe5b60200201818152505088801515610e1757fe5b846005601081101515610e2657fe5b6020020151876007600881101515610e3a57fe5b60200201516002600381101515610e4d57fe5b602002015109846006601081101515610e6257fe5b602002018181525050610e88846006601081101515610e7d57fe5b60200201518a6108d6565b846007601081101515610e9757fe5b602002018181525050836007601081101515610eaf57fe5b6020020151846008601081101515610ec357fe5b60200201818152505088801515610ed657fe5b846008601081101515610ee557fe5b6020020151856005601081101515610ef957fe5b60200201510984600f601081101515610f0e57fe5b602002018181525050600692505b600283101515610fe35788801515610f3057fe5b846008601081101515610f3f57fe5b60200201518760018601600881101515610f5557fe5b60200201516002600381101515610f6857fe5b602002015109846008601081101515610f7d57fe5b60200201818152505088801515610f9057fe5b846008601081101515610f9f57fe5b60200201518560028603601081101515610fb557fe5b6020020151098484600801601081101515610fcc57fe5b602002018181525050828060019003935050610f1c565b88801515610fed57fe5b846008601081101515610ffc57fe5b602002015187600260088110151561101057fe5b6020020151600260038110151561102357fe5b60200201510984600960108110151561103857fe5b602002018181525050600092505b60078310156110c8576110bb866001850160088110151561106357fe5b6020020151856009860160108110151561107957fe5b60200201518b80151561108857fe5b876009880160108110151561109957fe5b602002015188600989016010811015156110af57fe5b6020020151098c611db1565b8280600101935050611046565b5b6000871115611201578680600190039750508688015160001a91506110ed8a611e4d565b601082111561117757600282601f0381151561110557fe5b0490506111728a6040805190810160405280898560088110151561112557fe5b6020020151600060038110151561113857fe5b60200201518152602001898560088110151561115057fe5b6020020151600160038110151561116357fe5b60200201518d03815250611ffb565b6111fc565b60008211156111fb5760026001830381151561118f57fe5b0490506111fa8a604080519081016040528089856008811015156111af57fe5b602002015160006003811015156111c257fe5b6020020151815260200189856008811015156111da57fe5b602002015160016003811015156111ed57fe5b6020020151815250611ffb565b5b5b6110c9565b5b50505050505050505092915050565b6112196124dc565b6000611223612552565b61122b612552565b6000806000806000808b600260038110151561124357fe5b6020020151141561125657899850611729565b60008a600260038110151561126757fe5b6020020151141561127a578a9850611729565b7ffffffffffffffffffffffffffffffffffffffffffffffffffffffffefffffc2f9750878015156112a757fe5b8b60026003811015156112b657fe5b60200201518c60026003811015156112ca57fe5b6020020151098760006004811015156112df57fe5b602002018181525050878015156112f257fe5b87600060048110151561130157fe5b60200201518c600260038110151561131557fe5b60200201510987600160048110151561132a57fe5b6020020181815250508780151561133d57fe5b8a600260038110151561134c57fe5b60200201518b600260038110151561136057fe5b60200201510987600260048110151561137557fe5b6020020181815250508780151561138857fe5b87600260048110151561139757fe5b60200201518b60026003811015156113ab57fe5b6020020151098760036004811015156113c057fe5b602002018181525050608060405190810160405280898015156113df57fe5b8960026004811015156113ee57fe5b60200201518e600060038110151561140257fe5b60200201510981526020018980151561141757fe5b89600360048110151561142657fe5b60200201518e600160038110151561143a57fe5b60200201510981526020018980151561144f57fe5b89600060048110151561145e57fe5b60200201518d600060038110151561147257fe5b60200201510981526020018980151561148757fe5b89600160048110151561149657fe5b60200201518d60016003811015156114aa57fe5b60200201510981525095508560026004811015156114c457fe5b60200201518660006004811015156114d857fe5b60200201511415611527578560036004811015156114f257fe5b602002015186600160048110151561150657fe5b602002015114151561151757611729565b6115208b611737565b9850611729565b8780151561153157fe5b86600060048110151561154057fe5b6020020151890387600260048110151561155657fe5b60200201510894508780151561156857fe5b86600160048110151561157757fe5b6020020151890387600360048110151561158d57fe5b60200201510893508780151561159f57fe5b8586099250878015156115ae57fe5b8584099150878015156115bd57fe5b828903898015156115ca57fe5b868709089050878015156115da57fe5b888015156115e457fe5b898015156115ee57fe5b858960006004811015156115fe57fe5b6020020151096002098903820890508089600060038110151561161d57fe5b6020020181815250508780151561163057fe5b8880151561163a57fe5b828a038a80151561164757fe5b868a600060048110151561165757fe5b60200201510908850989600160038110151561166f57fe5b6020020181815250508780151561168257fe5b8880151561168c57fe5b8388600160048110151561169c57fe5b60200201510989038a60016003811015156116b357fe5b6020020151088960016003811015156116c857fe5b602002018181525050878015156116db57fe5b888015156116e557fe5b8b60026003811015156116f457fe5b60200201518d600260038110151561170857fe5b602002015109860989600260038110151561171f57fe5b6020020181815250505b505050505050505092915050565b61173f6124dc565b60008060008060008060007ffffffffffffffffffffffffffffffffffffffffffffffffffffffffefffffc2f9650600089600260038110151561177e57fe5b6020020151141561178e576118e3565b88600060038110151561179d57fe5b602002015195508860016003811015156117b357fe5b60200201519450868015156117c457fe5b8586099350868015156117d357fe5b878015156117dd57fe5b8588096004099250868015156117ef57fe5b878015156117f957fe5b87880960030991508680151561180b57fe5b8780151561181557fe5b84850888038880151561182457fe5b8485090890508088600060038110151561183a57fe5b6020020181815250508680151561184d57fe5b8780151561185757fe5b8880151561186157fe5b86870960080988038880151561187357fe5b8980151561187d57fe5b848b03870885090888600160038110151561189457fe5b602002018181525050868015156118a757fe5b878015156118b157fe5b8a60026003811015156118c057fe5b602002015187096002098860026003811015156118d957fe5b6020020181815250505b50505050505050919050565b6118f76124dc565b6000611901612575565b611909612552565b6000806000806000808b600260038110151561192157fe5b60200201511415611976576060604051908101604052808b600060028110151561194757fe5b602002015181526020018b600160028110151561196057fe5b6020020151815260200160018152509850611da3565b60008a600160028110151561198757fe5b6020020151141561199a578a9850611da3565b7ffffffffffffffffffffffffffffffffffffffffffffffffffffffffefffffc2f9750878015156119c757fe5b8b60026003811015156119d657fe5b60200201518c60026003811015156119ea57fe5b6020020151098760006002811015156119ff57fe5b60200201818152505087801515611a1257fe5b876000600281101515611a2157fe5b60200201518c6002600381101515611a3557fe5b602002015109876001600281101515611a4a57fe5b6020020181815250506080604051908101604052808c6000600381101515611a6e57fe5b602002015181526020018c6001600381101515611a8757fe5b6020020151815260200189801515611a9b57fe5b896000600281101515611aaa57fe5b60200201518d6000600281101515611abe57fe5b602002015109815260200189801515611ad357fe5b896001600281101515611ae257fe5b60200201518d6001600281101515611af657fe5b6020020151098152509550856002600481101515611b1057fe5b6020020151866000600481101515611b2457fe5b60200201511415611bc057856003600481101515611b3e57fe5b6020020151866001600481101515611b5257fe5b6020020151141515611bb15760008b6000600381101515611b6f57fe5b60200201818152505060008b6001600381101515611b8957fe5b60200201818152505060008b6002600381101515611ba357fe5b602002018181525050611da3565b611bba8b611737565b50611da3565b87801515611bca57fe5b866000600481101515611bd957fe5b60200201518903876002600481101515611bef57fe5b602002015108945087801515611c0157fe5b866001600481101515611c1057fe5b60200201518903876003600481101515611c2657fe5b602002015108935087801515611c3857fe5b858609925087801515611c4757fe5b858409915087801515611c5657fe5b82890389801515611c6357fe5b86870908905087801515611c7357fe5b88801515611c7d57fe5b89801515611c8757fe5b85896000600481101515611c9757fe5b60200201510960020989038208905080896000600381101515611cb657fe5b60200201818152505087801515611cc957fe5b88801515611cd357fe5b828a038a801515611ce057fe5b868a6000600481101515611cf057fe5b602002015109088509896001600381101515611d0857fe5b60200201818152505087801515611d1b57fe5b88801515611d2557fe5b83886001600481101515611d3557fe5b60200201510989038a6001600381101515611d4c57fe5b602002015108896001600381101515611d6157fe5b60200201818152505087801515611d7457fe5b8b6002600381101515611d8357fe5b60200201518609896002600381101515611d9957fe5b6020020181815250505b505050505050505092915050565b80801515611dbb57fe5b82856000600381101515611dcb57fe5b602002015109846000600381101515611de057fe5b60200201818152505080801515611df357fe5b81801515611dfd57fe5b838509856001600381101515611e0f57fe5b602002015109846001600381101515611e2457fe5b6020020181815250506001846002600381101515611e3e57fe5b60200201818152505050505050565b60008060008060008060007ffffffffffffffffffffffffffffffffffffffffffffffffffffffffefffffc2f96506000886002600381101515611e8c57fe5b60200201511415611e9c57611ff1565b876000600381101515611eab57fe5b60200201519550876001600381101515611ec157fe5b6020020151945086801515611ed257fe5b858609935086801515611ee157fe5b87801515611eeb57fe5b858809600409925086801515611efd57fe5b87801515611f0757fe5b878809600309915086801515611f1957fe5b87801515611f2357fe5b848508880388801515611f3257fe5b84850908905080886000600381101515611f4857fe5b60200201818152505086801515611f5b57fe5b87801515611f6557fe5b88801515611f6f57fe5b868709600809880388801515611f8157fe5b89801515611f8b57fe5b848b038708850908886001600381101515611fa257fe5b60200201818152505086801515611fb557fe5b87801515611fbf57fe5b896002600381101515611fce57fe5b60200201518709600209886002600381101515611fe757fe5b6020020181815250505b5050505050505050565b6000612005612575565b61200d612552565b6000806000806000808a600160038110151561202557fe5b602002015114156120a75788600060028110151561203f57fe5b60200201518a600060038110151561205357fe5b60200201818152505088600160028110151561206b57fe5b60200201518a600160038110151561207f57fe5b60200201818152505060018a600260038110151561209957fe5b6020020181815250506124d0565b60008960016002811015156120b857fe5b602002015114156120c8576124d0565b7ffffffffffffffffffffffffffffffffffffffffffffffffffffffffefffffc2f9750878015156120f557fe5b8a600260038110151561210457fe5b60200201518b600260038110151561211857fe5b60200201510987600060028110151561212d57fe5b6020020181815250508780151561214057fe5b87600060028110151561214f57fe5b60200201518b600260038110151561216357fe5b60200201510987600160028110151561217857fe5b6020020181815250506080604051908101604052808b600060038110151561219c57fe5b602002015181526020018b60016003811015156121b557fe5b60200201518152602001898015156121c957fe5b8960006002811015156121d857fe5b60200201518c60006002811015156121ec57fe5b60200201510981526020018980151561220157fe5b89600160028110151561221057fe5b60200201518c600160028110151561222457fe5b602002015109815250955085600260048110151561223e57fe5b602002015186600060048110151561225257fe5b602002015114156122ed5785600360048110151561226c57fe5b602002015186600160048110151561228057fe5b60200201511415156122df5760008a600060038110151561229d57fe5b60200201818152505060008a60016003811015156122b757fe5b60200201818152505060008a60026003811015156122d157fe5b6020020181815250506124d0565b6122e88a611e4d565b6124d0565b878015156122f757fe5b86600060048110151561230657fe5b6020020151890387600260048110151561231c57fe5b60200201510894508780151561232e57fe5b86600160048110151561233d57fe5b6020020151890387600360048110151561235357fe5b60200201510893508780151561236557fe5b85860992508780151561237457fe5b85840991508780151561238357fe5b8289038980151561239057fe5b868709089050878015156123a057fe5b888015156123aa57fe5b898015156123b457fe5b858960006004811015156123c457fe5b602002015109600209890382089050808a60006003811015156123e357fe5b602002018181525050878015156123f657fe5b8880151561240057fe5b828a038a80151561240d57fe5b868a600060048110151561241d57fe5b6020020151090885098a600160038110151561243557fe5b6020020181815250508780151561244857fe5b8880151561245257fe5b8388600160048110151561246257fe5b60200201510989038b600160038110151561247957fe5b6020020151088a600160038110151561248e57fe5b602002018181525050878015156124a157fe5b8a60026003811015156124b057fe5b602002015186098a60026003811015156124c657fe5b6020020181815250505b50505050505050505050565b606060405190810160405280600390602082028038833980820191505090505090565b610300604051908101604052806008905b612518612597565b8152602001906001900390816125105790505090565b61020060405190810160405280601090602082028038833980820191505090505090565b608060405190810160405280600490602082028038833980820191505090505090565b6040805190810160405280600290602082028038833980820191505090505090565b6060604051908101604052806003906020820280388339808201915050905050905600a165627a7a72305820c4478f72d46ba71c9bd99634d7069822a899a34590e3be21826c051ef23d0e850029",
			"opcodes": "PUSH1 0x80 PUSH1 0x40 MSTORE CALLVALUE DUP1 ISZERO PUSH2 0x10 JUMPI PUSH1 0x0 DUP1 REVERT JUMPDEST POP PUSH2 0x25E6 DUP1 PUSH2 0x20 PUSH1 0x0 CODECOPY PUSH1 0x0 RETURN STOP PUSH1 0x80 PUSH1 0x40 MSTORE PUSH1 0x4 CALLDATASIZE LT PUSH2 0x41 JUMPI PUSH1 0x0 CALLDATALOAD PUSH29 0x100000000000000000000000000000000000000000000000000000000 SWAP1 DIV PUSH4 0xFFFFFFFF AND DUP1 PUSH4 0x19045A25 EQ PUSH2 0x46 JUMPI JUMPDEST PUSH1 0x0 DUP1 REVERT JUMPDEST CALLVALUE DUP1 ISZERO PUSH2 0x52 JUMPI PUSH1 0x0 DUP1 REVERT JUMPDEST POP PUSH2 0xBB PUSH1 0x4 DUP1 CALLDATASIZE SUB DUP2 ADD SWAP1 DUP1 DUP1 CALLDATALOAD PUSH1 0x0 NOT AND SWAP1 PUSH1 0x20 ADD SWAP1 SWAP3 SWAP2 SWAP1 DUP1 CALLDATALOAD SWAP1 PUSH1 0x20 ADD SWAP1 DUP3 ADD DUP1 CALLDATALOAD SWAP1 PUSH1 0x20 ADD SWAP1 DUP1 DUP1 PUSH1 0x1F ADD PUSH1 0x20 DUP1 SWAP2 DIV MUL PUSH1 0x20 ADD PUSH1 0x40 MLOAD SWAP1 DUP2 ADD PUSH1 0x40 MSTORE DUP1 SWAP4 SWAP3 SWAP2 SWAP1 DUP2 DUP2 MSTORE PUSH1 0x20 ADD DUP4 DUP4 DUP1 DUP3 DUP5 CALLDATACOPY DUP3 ADD SWAP2 POP POP POP POP POP POP SWAP2 SWAP3 SWAP2 SWAP3 SWAP1 POP POP POP PUSH2 0x136 JUMP JUMPDEST PUSH1 0x40 MLOAD DUP1 DUP1 PUSH1 0x20 ADD DUP3 DUP2 SUB DUP3 MSTORE DUP4 DUP2 DUP2 MLOAD DUP2 MSTORE PUSH1 0x20 ADD SWAP2 POP DUP1 MLOAD SWAP1 PUSH1 0x20 ADD SWAP1 DUP1 DUP4 DUP4 PUSH1 0x0 JUMPDEST DUP4 DUP2 LT ISZERO PUSH2 0xFB JUMPI DUP1 DUP3 ADD MLOAD DUP2 DUP5 ADD MSTORE PUSH1 0x20 DUP2 ADD SWAP1 POP PUSH2 0xE0 JUMP JUMPDEST POP POP POP POP SWAP1 POP SWAP1 DUP2 ADD SWAP1 PUSH1 0x1F AND DUP1 ISZERO PUSH2 0x128 JUMPI DUP1 DUP3 SUB DUP1 MLOAD PUSH1 0x1 DUP4 PUSH1 0x20 SUB PUSH2 0x100 EXP SUB NOT AND DUP2 MSTORE PUSH1 0x20 ADD SWAP2 POP JUMPDEST POP SWAP3 POP POP POP PUSH1 0x40 MLOAD DUP1 SWAP2 SUB SWAP1 RETURN JUMPDEST PUSH1 0x60 PUSH1 0x0 DUP1 PUSH1 0x0 PUSH1 0x41 DUP6 MLOAD EQ ISZERO ISZERO PUSH2 0x160 JUMPI PUSH1 0x20 PUSH1 0x40 MLOAD SWAP1 DUP2 ADD PUSH1 0x40 MSTORE DUP1 PUSH1 0x0 DUP2 MSTORE POP SWAP4 POP PUSH2 0x22C JUMP JUMPDEST PUSH1 0x20 DUP6 ADD MLOAD PUSH1 0x0 BYTE SWAP1 POP PUSH1 0x21 DUP6 ADD MLOAD SWAP3 POP PUSH1 0x41 DUP6 ADD MLOAD SWAP2 POP PUSH1 0x2 PUSH32 0xFFFFFFFFFFFFFFFFFFFFFFFFFFFFFFFEBAAEDCE6AF48A03BBFD25E8CD0364141 DUP2 ISZERO ISZERO PUSH2 0x1A4 JUMPI INVALID JUMPDEST DIV DUP3 PUSH1 0x1 SWAP1 DIV GT ISZERO PUSH2 0x1C8 JUMPI PUSH1 0x20 PUSH1 0x40 MLOAD SWAP1 DUP2 ADD PUSH1 0x40 MSTORE DUP1 PUSH1 0x0 DUP2 MSTORE POP SWAP4 POP PUSH2 0x22C JUMP JUMPDEST PUSH1 0x1B DUP2 PUSH1 0xFF AND EQ ISZERO DUP1 ISZERO PUSH2 0x1E0 JUMPI POP PUSH1 0x1C DUP2 PUSH1 0xFF AND EQ ISZERO JUMPDEST DUP1 ISZERO PUSH2 0x1F0 JUMPI POP PUSH1 0x1F DUP2 PUSH1 0xFF AND EQ ISZERO JUMPDEST DUP1 ISZERO PUSH2 0x200 JUMPI POP PUSH1 0x20 DUP2 PUSH1 0xFF AND EQ ISZERO JUMPDEST ISZERO PUSH2 0x21D JUMPI PUSH1 0x20 PUSH1 0x40 MLOAD SWAP1 DUP2 ADD PUSH1 0x40 MSTORE DUP1 PUSH1 0x0 DUP2 MSTORE POP SWAP4 POP PUSH2 0x22C JUMP JUMPDEST PUSH2 0x229 DUP7 DUP3 DUP6 DUP6 PUSH2 0x235 JUMP JUMPDEST SWAP4 POP JUMPDEST POP POP POP SWAP3 SWAP2 POP POP JUMP JUMPDEST PUSH1 0x60 PUSH1 0x0 DUP1 PUSH1 0x0 DUP1 PUSH1 0x0 DUP1 PUSH2 0x248 PUSH2 0x24DC JUMP JUMPDEST PUSH1 0x60 PUSH1 0x0 SWAP8 POP DUP11 PUSH1 0x1 SWAP1 DIV SWAP7 POP DUP10 PUSH1 0x1 SWAP1 DIV SWAP6 POP PUSH1 0x0 PUSH1 0x1 PUSH1 0x1B DUP15 SUB AND PUSH1 0xFF AND EQ ISZERO SWAP5 POP PUSH1 0x0 PUSH1 0x2 PUSH1 0x1B DUP15 SUB AND PUSH1 0xFF AND EQ ISZERO SWAP4 POP PUSH1 0x0 PUSH1 0x4 PUSH1 0x1B DUP15 SUB AND PUSH1 0xFF AND EQ ISZERO SWAP3 POP DUP3 ISZERO ISZERO PUSH2 0x2AB JUMPI PUSH1 0x20 PUSH1 0x40 MLOAD SWAP1 DUP2 ADD PUSH1 0x40 MSTORE DUP1 PUSH1 0x0 DUP2 MSTORE POP SWAP9 POP PUSH2 0x4FB JUMP JUMPDEST PUSH32 0xFFFFFFFFFFFFFFFFFFFFFFFFFFFFFFFEBAAEDCE6AF48A03BBFD25E8CD0364141 PUSH32 0xFFFFFFFFFFFFFFFFFFFFFFFFFFFFFFFFFFFFFFFFFFFFFFFFFFFFFFFEFFFFFC2F DUP2 ISZERO ISZERO PUSH2 0x2F6 JUMPI INVALID JUMPDEST MOD DUP8 LT ISZERO DUP1 ISZERO PUSH2 0x303 JUMPI POP DUP4 JUMPDEST ISZERO PUSH2 0x320 JUMPI PUSH1 0x20 PUSH1 0x40 MLOAD SWAP1 DUP2 ADD PUSH1 0x40 MSTORE DUP1 PUSH1 0x0 DUP2 MSTORE POP SWAP9 POP PUSH2 0x4FB JUMP JUMPDEST PUSH2 0x331 DUP14 PUSH1 0x1 SWAP1 DIV DUP9 DUP9 DUP9 DUP9 PUSH2 0x50B JUMP JUMPDEST SWAP2 POP PUSH1 0x0 DUP3 PUSH1 0x2 PUSH1 0x3 DUP2 LT ISZERO ISZERO PUSH2 0x344 JUMPI INVALID JUMPDEST PUSH1 0x20 MUL ADD MLOAD EQ ISZERO PUSH2 0x367 JUMPI PUSH1 0x20 PUSH1 0x40 MLOAD SWAP1 DUP2 ADD PUSH1 0x40 MSTORE DUP1 PUSH1 0x0 DUP2 MSTORE POP SWAP9 POP PUSH2 0x4FB JUMP JUMPDEST PUSH2 0x391 DUP3 PUSH32 0xFFFFFFFFFFFFFFFFFFFFFFFFFFFFFFFFFFFFFFFFFFFFFFFFFFFFFFFEFFFFFC2F PUSH2 0x74D JUMP JUMPDEST PUSH1 0x21 PUSH1 0x40 MLOAD SWAP1 DUP1 DUP3 MSTORE DUP1 PUSH1 0x1F ADD PUSH1 0x1F NOT AND PUSH1 0x20 ADD DUP3 ADD PUSH1 0x40 MSTORE DUP1 ISZERO PUSH2 0x3C5 JUMPI DUP2 PUSH1 0x20 ADD PUSH1 0x20 DUP3 MUL DUP1 CODESIZE DUP4 CODECOPY DUP1 DUP3 ADD SWAP2 POP POP SWAP1 POP JUMPDEST POP SWAP1 POP PUSH1 0x0 PUSH1 0x2 DUP4 PUSH1 0x1 PUSH1 0x3 DUP2 LT ISZERO ISZERO PUSH2 0x3DB JUMPI INVALID JUMPDEST PUSH1 0x20 MUL ADD MLOAD DUP2 ISZERO ISZERO PUSH2 0x3E9 JUMPI INVALID JUMPDEST MOD EQ PUSH2 0x3F6 JUMPI PUSH1 0x3 PUSH2 0x3F9 JUMP JUMPDEST PUSH1 0x2 JUMPDEST PUSH32 0x100000000000000000000000000000000000000000000000000000000000000 MUL DUP2 PUSH1 0x0 DUP2 MLOAD DUP2 LT ISZERO ISZERO PUSH2 0x42A JUMPI INVALID JUMPDEST SWAP1 PUSH1 0x20 ADD ADD SWAP1 PUSH31 0xFFFFFFFFFFFFFFFFFFFFFFFFFFFFFFFFFFFFFFFFFFFFFFFFFFFFFFFFFFFFFF NOT AND SWAP1 DUP2 PUSH1 0x0 BYTE SWAP1 MSTORE8 POP PUSH1 0x0 SWAP8 POP JUMPDEST PUSH1 0x20 DUP9 LT ISZERO PUSH2 0x4F7 JUMPI PUSH1 0xFF DUP9 PUSH1 0x8 MUL DUP4 PUSH1 0x0 PUSH1 0x3 DUP2 LT ISZERO ISZERO PUSH2 0x47D JUMPI INVALID JUMPDEST PUSH1 0x20 MUL ADD MLOAD SWAP1 PUSH1 0x2 EXP SWAP1 DIV AND PUSH32 0x100000000000000000000000000000000000000000000000000000000000000 MUL DUP2 DUP10 PUSH1 0x20 SUB DUP2 MLOAD DUP2 LT ISZERO ISZERO PUSH2 0x4BC JUMPI INVALID JUMPDEST SWAP1 PUSH1 0x20 ADD ADD SWAP1 PUSH31 0xFFFFFFFFFFFFFFFFFFFFFFFFFFFFFFFFFFFFFFFFFFFFFFFFFFFFFFFFFFFFFF NOT AND SWAP1 DUP2 PUSH1 0x0 BYTE SWAP1 MSTORE8 POP DUP8 PUSH1 0x1 ADD SWAP8 POP PUSH2 0x45F JUMP JUMPDEST DUP1 SWAP9 POP JUMPDEST POP POP POP POP POP POP POP POP SWAP5 SWAP4 POP POP POP POP JUMP JUMPDEST PUSH2 0x513 PUSH2 0x24DC JUMP JUMPDEST PUSH1 0x0 DUP1 PUSH1 0x0 DUP5 PUSH2 0x523 JUMPI DUP8 PUSH2 0x547 JUMP JUMPDEST PUSH32 0xFFFFFFFFFFFFFFFFFFFFFFFFFFFFFFFEBAAEDCE6AF48A03BBFD25E8CD0364141 DUP9 ADD JUMPDEST SWAP3 POP PUSH2 0x5D1 PUSH1 0x7 PUSH2 0x57A DUP6 PUSH1 0x3 PUSH32 0xFFFFFFFFFFFFFFFFFFFFFFFFFFFFFFFFFFFFFFFFFFFFFFFFFFFFFFFEFFFFFC2F PUSH2 0x81A JUMP JUMPDEST ADD PUSH1 0x1 PUSH1 0x4 PUSH32 0xFFFFFFFFFFFFFFFFFFFFFFFFFFFFFFFFFFFFFFFFFFFFFFFFFFFFFFFEFFFFFC2F DUP2 ISZERO ISZERO PUSH2 0x5A9 JUMPI INVALID JUMPDEST DIV ADD PUSH32 0xFFFFFFFFFFFFFFFFFFFFFFFFFFFFFFFFFFFFFFFFFFFFFFFFFFFFFFFEFFFFFC2F PUSH2 0x81A JUMP JUMPDEST SWAP2 POP PUSH1 0x1 PUSH1 0x2 DUP4 DUP2 ISZERO ISZERO PUSH2 0x5E1 JUMPI INVALID JUMPDEST MOD EQ ISZERO ISZERO DUP7 ISZERO ISZERO EQ ISZERO ISZERO PUSH2 0x615 JUMPI DUP2 PUSH32 0xFFFFFFFFFFFFFFFFFFFFFFFFFFFFFFFFFFFFFFFFFFFFFFFFFFFFFFFEFFFFFC2F SUB SWAP2 POP JUMPDEST PUSH2 0x63F DUP9 PUSH32 0xFFFFFFFFFFFFFFFFFFFFFFFFFFFFFFFEBAAEDCE6AF48A03BBFD25E8CD0364141 PUSH2 0x8D6 JUMP JUMPDEST SWAP1 POP PUSH2 0x73F PUSH2 0x6F0 PUSH32 0xFFFFFFFFFFFFFFFFFFFFFFFFFFFFFFFEBAAEDCE6AF48A03BBFD25E8CD0364141 DUP1 ISZERO ISZERO PUSH2 0x671 JUMPI INVALID JUMPDEST DUP4 DUP13 MULMOD PUSH32 0xFFFFFFFFFFFFFFFFFFFFFFFFFFFFFFFEBAAEDCE6AF48A03BBFD25E8CD0364141 SUB PUSH1 0x40 DUP1 MLOAD SWAP1 DUP2 ADD PUSH1 0x40 MSTORE DUP1 PUSH32 0x79BE667EF9DCBBAC55A06295CE870B07029BFCDB2DCE28D959F2815B16F81798 DUP2 MSTORE PUSH1 0x20 ADD PUSH32 0x483ADA7726A3C4655DA4FBFC0E1108A8FD17B448A68554199C47D08FFB10D4B8 DUP2 MSTORE POP PUSH2 0x982 JUMP JUMPDEST PUSH2 0x73A PUSH32 0xFFFFFFFFFFFFFFFFFFFFFFFFFFFFFFFEBAAEDCE6AF48A03BBFD25E8CD0364141 DUP1 ISZERO ISZERO PUSH2 0x71D JUMPI INVALID JUMPDEST DUP5 DUP12 MULMOD PUSH1 0x40 DUP1 MLOAD SWAP1 DUP2 ADD PUSH1 0x40 MSTORE DUP1 DUP9 DUP2 MSTORE PUSH1 0x20 ADD DUP8 DUP2 MSTORE POP PUSH2 0x982 JUMP JUMPDEST PUSH2 0x1211 JUMP JUMPDEST SWAP4 POP POP POP POP SWAP6 SWAP5 POP POP POP POP POP JUMP JUMPDEST PUSH1 0x0 DUP1 PUSH2 0x76D DUP5 PUSH1 0x2 PUSH1 0x3 DUP2 LT ISZERO ISZERO PUSH2 0x762 JUMPI INVALID JUMPDEST PUSH1 0x20 MUL ADD MLOAD DUP5 PUSH2 0x8D6 JUMP JUMPDEST SWAP2 POP DUP3 DUP1 ISZERO ISZERO PUSH2 0x779 JUMPI INVALID JUMPDEST DUP3 DUP4 MULMOD SWAP1 POP DUP3 DUP1 ISZERO ISZERO PUSH2 0x788 JUMPI INVALID JUMPDEST DUP2 DUP6 PUSH1 0x0 PUSH1 0x3 DUP2 LT ISZERO ISZERO PUSH2 0x798 JUMPI INVALID JUMPDEST PUSH1 0x20 MUL ADD MLOAD MULMOD DUP5 PUSH1 0x0 PUSH1 0x3 DUP2 LT ISZERO ISZERO PUSH2 0x7AD JUMPI INVALID JUMPDEST PUSH1 0x20 MUL ADD DUP2 DUP2 MSTORE POP POP DUP3 DUP1 ISZERO ISZERO PUSH2 0x7C0 JUMPI INVALID JUMPDEST DUP4 DUP1 ISZERO ISZERO PUSH2 0x7CA JUMPI INVALID JUMPDEST DUP3 DUP5 MULMOD DUP6 PUSH1 0x1 PUSH1 0x3 DUP2 LT ISZERO ISZERO PUSH2 0x7DC JUMPI INVALID JUMPDEST PUSH1 0x20 MUL ADD MLOAD MULMOD DUP5 PUSH1 0x1 PUSH1 0x3 DUP2 LT ISZERO ISZERO PUSH2 0x7F1 JUMPI INVALID JUMPDEST PUSH1 0x20 MUL ADD DUP2 DUP2 MSTORE POP POP PUSH1 0x1 DUP5 PUSH1 0x2 PUSH1 0x3 DUP2 LT ISZERO ISZERO PUSH2 0x80B JUMPI INVALID JUMPDEST PUSH1 0x20 MUL ADD DUP2 DUP2 MSTORE POP POP POP POP POP POP JUMP JUMPDEST PUSH1 0x0 DUP1 PUSH1 0x0 DUP6 EQ ISZERO PUSH2 0x82F JUMPI PUSH1 0x0 SWAP2 POP PUSH2 0x8CE JUMP JUMPDEST PUSH1 0x0 DUP5 EQ ISZERO PUSH2 0x841 JUMPI PUSH1 0x1 SWAP2 POP PUSH2 0x8CE JUMP JUMPDEST PUSH1 0x0 DUP4 EQ ISZERO PUSH2 0x84F JUMPI PUSH1 0x0 DUP1 REVERT JUMPDEST PUSH1 0x1 SWAP2 POP PUSH32 0x8000000000000000000000000000000000000000000000000000000000000000 SWAP1 POP JUMPDEST DUP1 ISZERO PUSH2 0x8CD JUMPI DUP3 DUP2 DUP6 AND ISZERO ISZERO DUP7 EXP DUP5 DUP5 DUP6 MULMOD MULMOD SWAP2 POP DUP3 PUSH1 0x2 DUP3 DIV DUP6 AND ISZERO ISZERO DUP7 EXP DUP5 DUP5 DUP6 MULMOD MULMOD SWAP2 POP DUP3 PUSH1 0x4 DUP3 DIV DUP6 AND ISZERO ISZERO DUP7 EXP DUP5 DUP5 DUP6 MULMOD MULMOD SWAP2 POP DUP3 PUSH1 0x8 DUP3 DIV DUP6 AND ISZERO ISZERO DUP7 EXP DUP5 DUP5 DUP6 MULMOD MULMOD SWAP2 POP PUSH1 0x10 DUP2 DIV SWAP1 POP PUSH2 0x877 JUMP JUMPDEST JUMPDEST POP SWAP4 SWAP3 POP POP POP JUMP JUMPDEST PUSH1 0x0 DUP1 PUSH1 0x0 DUP1 PUSH1 0x0 DUP1 PUSH1 0x0 DUP9 EQ DUP1 PUSH2 0x8ED JUMPI POP DUP7 DUP9 EQ JUMPDEST DUP1 PUSH2 0x8F8 JUMPI POP PUSH1 0x0 DUP8 EQ JUMPDEST ISZERO PUSH2 0x902 JUMPI PUSH1 0x0 DUP1 REVERT JUMPDEST DUP7 DUP9 GT ISZERO PUSH2 0x919 JUMPI DUP7 DUP9 DUP2 ISZERO ISZERO PUSH2 0x915 JUMPI INVALID JUMPDEST MOD SWAP8 POP JUMPDEST PUSH1 0x1 SWAP4 POP DUP7 SWAP3 POP DUP8 SWAP2 POP JUMPDEST PUSH1 0x0 DUP3 EQ ISZERO ISZERO PUSH2 0x95D JUMPI DUP2 DUP4 DUP2 ISZERO ISZERO PUSH2 0x939 JUMPI INVALID JUMPDEST DIV SWAP1 POP DUP4 DUP5 DUP3 MUL DUP7 SUB DUP4 DUP5 DUP5 MUL DUP7 SUB DUP1 SWAP6 POP DUP2 SWAP7 POP DUP3 SWAP8 POP DUP4 SWAP9 POP POP POP POP POP PUSH2 0x924 JUMP JUMPDEST PUSH1 0x0 DUP6 SLT ISZERO PUSH2 0x973 JUMPI DUP5 PUSH1 0x0 SUB DUP8 SUB SWAP6 POP PUSH2 0x977 JUMP JUMPDEST DUP5 SWAP6 POP JUMPDEST POP POP POP POP POP SWAP3 SWAP2 POP POP JUMP JUMPDEST PUSH2 0x98A PUSH2 0x24DC JUMP JUMPDEST PUSH1 0x0 DUP1 PUSH1 0x0 PUSH2 0x997 PUSH2 0x24FF JUMP JUMPDEST PUSH2 0x99F PUSH2 0x24DC JUMP JUMPDEST PUSH2 0x9A7 PUSH2 0x252E JUMP JUMPDEST PUSH1 0x0 DUP1 PUSH1 0x0 PUSH32 0xFFFFFFFFFFFFFFFFFFFFFFFFFFFFFFFFFFFFFFFFFFFFFFFFFFFFFFFEFFFFFC2F SWAP9 POP PUSH1 0x0 DUP13 EQ ISZERO PUSH2 0x9DD JUMPI PUSH2 0x1202 JUMP JUMPDEST PUSH1 0x0 PUSH1 0x40 MLOAD SWAP9 POP PUSH2 0x200 DUP10 ADD PUSH1 0x40 MSTORE JUMPDEST DUP13 ISZERO PUSH2 0xA26 JUMPI PUSH1 0x1 DUP14 AND ISZERO PUSH2 0xA15 JUMPI PUSH1 0x20 DUP14 MOD SWAP1 POP DUP1 DUP9 DUP11 ADD MSTORE8 PUSH1 0x20 PUSH1 0x10 DUP3 GT MUL DUP2 DUP15 SUB ADD SWAP13 POP JUMPDEST PUSH1 0x2 DUP14 DIV SWAP13 POP PUSH1 0x1 DUP9 ADD SWAP8 POP PUSH2 0x9ED JUMP JUMPDEST POP PUSH1 0x60 PUSH1 0x40 MLOAD SWAP1 DUP2 ADD PUSH1 0x40 MSTORE DUP1 DUP13 PUSH1 0x0 PUSH1 0x2 DUP2 LT ISZERO ISZERO PUSH2 0xA42 JUMPI INVALID JUMPDEST PUSH1 0x20 MUL ADD MLOAD DUP2 MSTORE PUSH1 0x20 ADD DUP13 PUSH1 0x1 PUSH1 0x2 DUP2 LT ISZERO ISZERO PUSH2 0xA5B JUMPI INVALID JUMPDEST PUSH1 0x20 MUL ADD MLOAD DUP2 MSTORE PUSH1 0x20 ADD PUSH1 0x1 DUP2 MSTORE POP DUP7 PUSH1 0x0 PUSH1 0x8 DUP2 LT ISZERO ISZERO PUSH2 0xA79 JUMPI INVALID JUMPDEST PUSH1 0x20 MUL ADD DUP2 SWAP1 MSTORE POP PUSH2 0xA9D DUP7 PUSH1 0x0 PUSH1 0x8 DUP2 LT ISZERO ISZERO PUSH2 0xA93 JUMPI INVALID JUMPDEST PUSH1 0x20 MUL ADD MLOAD PUSH2 0x1737 JUMP JUMPDEST SWAP5 POP PUSH2 0xAA9 DUP6 DUP13 PUSH2 0x18EF JUMP JUMPDEST DUP7 PUSH1 0x1 PUSH1 0x8 DUP2 LT ISZERO ISZERO PUSH2 0xAB8 JUMPI INVALID JUMPDEST PUSH1 0x20 MUL ADD DUP2 SWAP1 MSTORE POP PUSH2 0xADD DUP6 DUP8 PUSH1 0x1 PUSH1 0x8 DUP2 LT ISZERO ISZERO PUSH2 0xAD3 JUMPI INVALID JUMPDEST PUSH1 0x20 MUL ADD MLOAD PUSH2 0x1211 JUMP JUMPDEST DUP7 PUSH1 0x2 PUSH1 0x8 DUP2 LT ISZERO ISZERO PUSH2 0xAEC JUMPI INVALID JUMPDEST PUSH1 0x20 MUL ADD DUP2 SWAP1 MSTORE POP PUSH2 0xB11 DUP6 DUP8 PUSH1 0x2 PUSH1 0x8 DUP2 LT ISZERO ISZERO PUSH2 0xB07 JUMPI INVALID JUMPDEST PUSH1 0x20 MUL ADD MLOAD PUSH2 0x1211 JUMP JUMPDEST DUP7 PUSH1 0x3 PUSH1 0x8 DUP2 LT ISZERO ISZERO PUSH2 0xB20 JUMPI INVALID JUMPDEST PUSH1 0x20 MUL ADD DUP2 SWAP1 MSTORE POP PUSH2 0xB45 DUP6 DUP8 PUSH1 0x3 PUSH1 0x8 DUP2 LT ISZERO ISZERO PUSH2 0xB3B JUMPI INVALID JUMPDEST PUSH1 0x20 MUL ADD MLOAD PUSH2 0x1211 JUMP JUMPDEST DUP7 PUSH1 0x4 PUSH1 0x8 DUP2 LT ISZERO ISZERO PUSH2 0xB54 JUMPI INVALID JUMPDEST PUSH1 0x20 MUL ADD DUP2 SWAP1 MSTORE POP PUSH2 0xB79 DUP6 DUP8 PUSH1 0x4 PUSH1 0x8 DUP2 LT ISZERO ISZERO PUSH2 0xB6F JUMPI INVALID JUMPDEST PUSH1 0x20 MUL ADD MLOAD PUSH2 0x1211 JUMP JUMPDEST DUP7 PUSH1 0x5 PUSH1 0x8 DUP2 LT ISZERO ISZERO PUSH2 0xB88 JUMPI INVALID JUMPDEST PUSH1 0x20 MUL ADD DUP2 SWAP1 MSTORE POP PUSH2 0xBAD DUP6 DUP8 PUSH1 0x5 PUSH1 0x8 DUP2 LT ISZERO ISZERO PUSH2 0xBA3 JUMPI INVALID JUMPDEST PUSH1 0x20 MUL ADD MLOAD PUSH2 0x1211 JUMP JUMPDEST DUP7 PUSH1 0x6 PUSH1 0x8 DUP2 LT ISZERO ISZERO PUSH2 0xBBC JUMPI INVALID JUMPDEST PUSH1 0x20 MUL ADD DUP2 SWAP1 MSTORE POP PUSH2 0xBE1 DUP6 DUP8 PUSH1 0x6 PUSH1 0x8 DUP2 LT ISZERO ISZERO PUSH2 0xBD7 JUMPI INVALID JUMPDEST PUSH1 0x20 MUL ADD MLOAD PUSH2 0x1211 JUMP JUMPDEST DUP7 PUSH1 0x7 PUSH1 0x8 DUP2 LT ISZERO ISZERO PUSH2 0xBF0 JUMPI INVALID JUMPDEST PUSH1 0x20 MUL ADD DUP2 SWAP1 MSTORE POP DUP6 PUSH1 0x1 PUSH1 0x8 DUP2 LT ISZERO ISZERO PUSH2 0xC07 JUMPI INVALID JUMPDEST PUSH1 0x20 MUL ADD MLOAD PUSH1 0x2 PUSH1 0x3 DUP2 LT ISZERO ISZERO PUSH2 0xC1A JUMPI INVALID JUMPDEST PUSH1 0x20 MUL ADD MLOAD DUP5 PUSH1 0x0 PUSH1 0x10 DUP2 LT ISZERO ISZERO PUSH2 0xC2E JUMPI INVALID JUMPDEST PUSH1 0x20 MUL ADD DUP2 DUP2 MSTORE POP POP DUP9 DUP1 ISZERO ISZERO PUSH2 0xC41 JUMPI INVALID JUMPDEST DUP5 PUSH1 0x0 PUSH1 0x10 DUP2 LT ISZERO ISZERO PUSH2 0xC50 JUMPI INVALID JUMPDEST PUSH1 0x20 MUL ADD MLOAD DUP8 PUSH1 0x2 PUSH1 0x8 DUP2 LT ISZERO ISZERO PUSH2 0xC64 JUMPI INVALID JUMPDEST PUSH1 0x20 MUL ADD MLOAD PUSH1 0x2 PUSH1 0x3 DUP2 LT ISZERO ISZERO PUSH2 0xC77 JUMPI INVALID JUMPDEST PUSH1 0x20 MUL ADD MLOAD MULMOD DUP5 PUSH1 0x1 PUSH1 0x10 DUP2 LT ISZERO ISZERO PUSH2 0xC8C JUMPI INVALID JUMPDEST PUSH1 0x20 MUL ADD DUP2 DUP2 MSTORE POP POP DUP9 DUP1 ISZERO ISZERO PUSH2 0xC9F JUMPI INVALID JUMPDEST DUP5 PUSH1 0x1 PUSH1 0x10 DUP2 LT ISZERO ISZERO PUSH2 0xCAE JUMPI INVALID JUMPDEST PUSH1 0x20 MUL ADD MLOAD DUP8 PUSH1 0x3 PUSH1 0x8 DUP2 LT ISZERO ISZERO PUSH2 0xCC2 JUMPI INVALID JUMPDEST PUSH1 0x20 MUL ADD MLOAD PUSH1 0x2 PUSH1 0x3 DUP2 LT ISZERO ISZERO PUSH2 0xCD5 JUMPI INVALID JUMPDEST PUSH1 0x20 MUL ADD MLOAD MULMOD DUP5 PUSH1 0x2 PUSH1 0x10 DUP2 LT ISZERO ISZERO PUSH2 0xCEA JUMPI INVALID JUMPDEST PUSH1 0x20 MUL ADD DUP2 DUP2 MSTORE POP POP DUP9 DUP1 ISZERO ISZERO PUSH2 0xCFD JUMPI INVALID JUMPDEST DUP5 PUSH1 0x2 PUSH1 0x10 DUP2 LT ISZERO ISZERO PUSH2 0xD0C JUMPI INVALID JUMPDEST PUSH1 0x20 MUL ADD MLOAD DUP8 PUSH1 0x4 PUSH1 0x8 DUP2 LT ISZERO ISZERO PUSH2 0xD20 JUMPI INVALID JUMPDEST PUSH1 0x20 MUL ADD MLOAD PUSH1 0x2 PUSH1 0x3 DUP2 LT ISZERO ISZERO PUSH2 0xD33 JUMPI INVALID JUMPDEST PUSH1 0x20 MUL ADD MLOAD MULMOD DUP5 PUSH1 0x3 PUSH1 0x10 DUP2 LT ISZERO ISZERO PUSH2 0xD48 JUMPI INVALID JUMPDEST PUSH1 0x20 MUL ADD DUP2 DUP2 MSTORE POP POP DUP9 DUP1 ISZERO ISZERO PUSH2 0xD5B JUMPI INVALID JUMPDEST DUP5 PUSH1 0x3 PUSH1 0x10 DUP2 LT ISZERO ISZERO PUSH2 0xD6A JUMPI INVALID JUMPDEST PUSH1 0x20 MUL ADD MLOAD DUP8 PUSH1 0x5 PUSH1 0x8 DUP2 LT ISZERO ISZERO PUSH2 0xD7E JUMPI INVALID JUMPDEST PUSH1 0x20 MUL ADD MLOAD PUSH1 0x2 PUSH1 0x3 DUP2 LT ISZERO ISZERO PUSH2 0xD91 JUMPI INVALID JUMPDEST PUSH1 0x20 MUL ADD MLOAD MULMOD DUP5 PUSH1 0x4 PUSH1 0x10 DUP2 LT ISZERO ISZERO PUSH2 0xDA6 JUMPI INVALID JUMPDEST PUSH1 0x20 MUL ADD DUP2 DUP2 MSTORE POP POP DUP9 DUP1 ISZERO ISZERO PUSH2 0xDB9 JUMPI INVALID JUMPDEST DUP5 PUSH1 0x4 PUSH1 0x10 DUP2 LT ISZERO ISZERO PUSH2 0xDC8 JUMPI INVALID JUMPDEST PUSH1 0x20 MUL ADD MLOAD DUP8 PUSH1 0x6 PUSH1 0x8 DUP2 LT ISZERO ISZERO PUSH2 0xDDC JUMPI INVALID JUMPDEST PUSH1 0x20 MUL ADD MLOAD PUSH1 0x2 PUSH1 0x3 DUP2 LT ISZERO ISZERO PUSH2 0xDEF JUMPI INVALID JUMPDEST PUSH1 0x20 MUL ADD MLOAD MULMOD DUP5 PUSH1 0x5 PUSH1 0x10 DUP2 LT ISZERO ISZERO PUSH2 0xE04 JUMPI INVALID JUMPDEST PUSH1 0x20 MUL ADD DUP2 DUP2 MSTORE POP POP DUP9 DUP1 ISZERO ISZERO PUSH2 0xE17 JUMPI INVALID JUMPDEST DUP5 PUSH1 0x5 PUSH1 0x10 DUP2 LT ISZERO ISZERO PUSH2 0xE26 JUMPI INVALID JUMPDEST PUSH1 0x20 MUL ADD MLOAD DUP8 PUSH1 0x7 PUSH1 0x8 DUP2 LT ISZERO ISZERO PUSH2 0xE3A JUMPI INVALID JUMPDEST PUSH1 0x20 MUL ADD MLOAD PUSH1 0x2 PUSH1 0x3 DUP2 LT ISZERO ISZERO PUSH2 0xE4D JUMPI INVALID JUMPDEST PUSH1 0x20 MUL ADD MLOAD MULMOD DUP5 PUSH1 0x6 PUSH1 0x10 DUP2 LT ISZERO ISZERO PUSH2 0xE62 JUMPI INVALID JUMPDEST PUSH1 0x20 MUL ADD DUP2 DUP2 MSTORE POP POP PUSH2 0xE88 DUP5 PUSH1 0x6 PUSH1 0x10 DUP2 LT ISZERO ISZERO PUSH2 0xE7D JUMPI INVALID JUMPDEST PUSH1 0x20 MUL ADD MLOAD DUP11 PUSH2 0x8D6 JUMP JUMPDEST DUP5 PUSH1 0x7 PUSH1 0x10 DUP2 LT ISZERO ISZERO PUSH2 0xE97 JUMPI INVALID JUMPDEST PUSH1 0x20 MUL ADD DUP2 DUP2 MSTORE POP POP DUP4 PUSH1 0x7 PUSH1 0x10 DUP2 LT ISZERO ISZERO PUSH2 0xEAF JUMPI INVALID JUMPDEST PUSH1 0x20 MUL ADD MLOAD DUP5 PUSH1 0x8 PUSH1 0x10 DUP2 LT ISZERO ISZERO PUSH2 0xEC3 JUMPI INVALID JUMPDEST PUSH1 0x20 MUL ADD DUP2 DUP2 MSTORE POP POP DUP9 DUP1 ISZERO ISZERO PUSH2 0xED6 JUMPI INVALID JUMPDEST DUP5 PUSH1 0x8 PUSH1 0x10 DUP2 LT ISZERO ISZERO PUSH2 0xEE5 JUMPI INVALID JUMPDEST PUSH1 0x20 MUL ADD MLOAD DUP6 PUSH1 0x5 PUSH1 0x10 DUP2 LT ISZERO ISZERO PUSH2 0xEF9 JUMPI INVALID JUMPDEST PUSH1 0x20 MUL ADD MLOAD MULMOD DUP5 PUSH1 0xF PUSH1 0x10 DUP2 LT ISZERO ISZERO PUSH2 0xF0E JUMPI INVALID JUMPDEST PUSH1 0x20 MUL ADD DUP2 DUP2 MSTORE POP POP PUSH1 0x6 SWAP3 POP JUMPDEST PUSH1 0x2 DUP4 LT ISZERO ISZERO PUSH2 0xFE3 JUMPI DUP9 DUP1 ISZERO ISZERO PUSH2 0xF30 JUMPI INVALID JUMPDEST DUP5 PUSH1 0x8 PUSH1 0x10 DUP2 LT ISZERO ISZERO PUSH2 0xF3F JUMPI INVALID JUMPDEST PUSH1 0x20 MUL ADD MLOAD DUP8 PUSH1 0x1 DUP7 ADD PUSH1 0x8 DUP2 LT ISZERO ISZERO PUSH2 0xF55 JUMPI INVALID JUMPDEST PUSH1 0x20 MUL ADD MLOAD PUSH1 0x2 PUSH1 0x3 DUP2 LT ISZERO ISZERO PUSH2 0xF68 JUMPI INVALID JUMPDEST PUSH1 0x20 MUL ADD MLOAD MULMOD DUP5 PUSH1 0x8 PUSH1 0x10 DUP2 LT ISZERO ISZERO PUSH2 0xF7D JUMPI INVALID JUMPDEST PUSH1 0x20 MUL ADD DUP2 DUP2 MSTORE POP POP DUP9 DUP1 ISZERO ISZERO PUSH2 0xF90 JUMPI INVALID JUMPDEST DUP5 PUSH1 0x8 PUSH1 0x10 DUP2 LT ISZERO ISZERO PUSH2 0xF9F JUMPI INVALID JUMPDEST PUSH1 0x20 MUL ADD MLOAD DUP6 PUSH1 0x2 DUP7 SUB PUSH1 0x10 DUP2 LT ISZERO ISZERO PUSH2 0xFB5 JUMPI INVALID JUMPDEST PUSH1 0x20 MUL ADD MLOAD MULMOD DUP5 DUP5 PUSH1 0x8 ADD PUSH1 0x10 DUP2 LT ISZERO ISZERO PUSH2 0xFCC JUMPI INVALID JUMPDEST PUSH1 0x20 MUL ADD DUP2 DUP2 MSTORE POP POP DUP3 DUP1 PUSH1 0x1 SWAP1 SUB SWAP4 POP POP PUSH2 0xF1C JUMP JUMPDEST DUP9 DUP1 ISZERO ISZERO PUSH2 0xFED JUMPI INVALID JUMPDEST DUP5 PUSH1 0x8 PUSH1 0x10 DUP2 LT ISZERO ISZERO PUSH2 0xFFC JUMPI INVALID JUMPDEST PUSH1 0x20 MUL ADD MLOAD DUP8 PUSH1 0x2 PUSH1 0x8 DUP2 LT ISZERO ISZERO PUSH2 0x1010 JUMPI INVALID JUMPDEST PUSH1 0x20 MUL ADD MLOAD PUSH1 0x2 PUSH1 0x3 DUP2 LT ISZERO ISZERO PUSH2 0x1023 JUMPI INVALID JUMPDEST PUSH1 0x20 MUL ADD MLOAD MULMOD DUP5 PUSH1 0x9 PUSH1 0x10 DUP2 LT ISZERO ISZERO PUSH2 0x1038 JUMPI INVALID JUMPDEST PUSH1 0x20 MUL ADD DUP2 DUP2 MSTORE POP POP PUSH1 0x0 SWAP3 POP JUMPDEST PUSH1 0x7 DUP4 LT ISZERO PUSH2 0x10C8 JUMPI PUSH2 0x10BB DUP7 PUSH1 0x1 DUP6 ADD PUSH1 0x8 DUP2 LT ISZERO ISZERO PUSH2 0x1063 JUMPI INVALID JUMPDEST PUSH1 0x20 MUL ADD MLOAD DUP6 PUSH1 0x9 DUP7 ADD PUSH1 0x10 DUP2 LT ISZERO ISZERO PUSH2 0x1079 JUMPI INVALID JUMPDEST PUSH1 0x20 MUL ADD MLOAD DUP12 DUP1 ISZERO ISZERO PUSH2 0x1088 JUMPI INVALID JUMPDEST DUP8 PUSH1 0x9 DUP9 ADD PUSH1 0x10 DUP2 LT ISZERO ISZERO PUSH2 0x1099 JUMPI INVALID JUMPDEST PUSH1 0x20 MUL ADD MLOAD DUP9 PUSH1 0x9 DUP10 ADD PUSH1 0x10 DUP2 LT ISZERO ISZERO PUSH2 0x10AF JUMPI INVALID JUMPDEST PUSH1 0x20 MUL ADD MLOAD MULMOD DUP13 PUSH2 0x1DB1 JUMP JUMPDEST DUP3 DUP1 PUSH1 0x1 ADD SWAP4 POP POP PUSH2 0x1046 JUMP JUMPDEST JUMPDEST PUSH1 0x0 DUP8 GT ISZERO PUSH2 0x1201 JUMPI DUP7 DUP1 PUSH1 0x1 SWAP1 SUB SWAP8 POP POP DUP7 DUP9 ADD MLOAD PUSH1 0x0 BYTE SWAP2 POP PUSH2 0x10ED DUP11 PUSH2 0x1E4D JUMP JUMPDEST PUSH1 0x10 DUP3 GT ISZERO PUSH2 0x1177 JUMPI PUSH1 0x2 DUP3 PUSH1 0x1F SUB DUP2 ISZERO ISZERO PUSH2 0x1105 JUMPI INVALID JUMPDEST DIV SWAP1 POP PUSH2 0x1172 DUP11 PUSH1 0x40 DUP1 MLOAD SWAP1 DUP2 ADD PUSH1 0x40 MSTORE DUP1 DUP10 DUP6 PUSH1 0x8 DUP2 LT ISZERO ISZERO PUSH2 0x1125 JUMPI INVALID JUMPDEST PUSH1 0x20 MUL ADD MLOAD PUSH1 0x0 PUSH1 0x3 DUP2 LT ISZERO ISZERO PUSH2 0x1138 JUMPI INVALID JUMPDEST PUSH1 0x20 MUL ADD MLOAD DUP2 MSTORE PUSH1 0x20 ADD DUP10 DUP6 PUSH1 0x8 DUP2 LT ISZERO ISZERO PUSH2 0x1150 JUMPI INVALID JUMPDEST PUSH1 0x20 MUL ADD MLOAD PUSH1 0x1 PUSH1 0x3 DUP2 LT ISZERO ISZERO PUSH2 0x1163 JUMPI INVALID JUMPDEST PUSH1 0x20 MUL ADD MLOAD DUP14 SUB DUP2 MSTORE POP PUSH2 0x1FFB JUMP JUMPDEST PUSH2 0x11FC JUMP JUMPDEST PUSH1 0x0 DUP3 GT ISZERO PUSH2 0x11FB JUMPI PUSH1 0x2 PUSH1 0x1 DUP4 SUB DUP2 ISZERO ISZERO PUSH2 0x118F JUMPI INVALID JUMPDEST DIV SWAP1 POP PUSH2 0x11FA DUP11 PUSH1 0x40 DUP1 MLOAD SWAP1 DUP2 ADD PUSH1 0x40 MSTORE DUP1 DUP10 DUP6 PUSH1 0x8 DUP2 LT ISZERO ISZERO PUSH2 0x11AF JUMPI INVALID JUMPDEST PUSH1 0x20 MUL ADD MLOAD PUSH1 0x0 PUSH1 0x3 DUP2 LT ISZERO ISZERO PUSH2 0x11C2 JUMPI INVALID JUMPDEST PUSH1 0x20 MUL ADD MLOAD DUP2 MSTORE PUSH1 0x20 ADD DUP10 DUP6 PUSH1 0x8 DUP2 LT ISZERO ISZERO PUSH2 0x11DA JUMPI INVALID JUMPDEST PUSH1 0x20 MUL ADD MLOAD PUSH1 0x1 PUSH1 0x3 DUP2 LT ISZERO ISZERO PUSH2 0x11ED JUMPI INVALID JUMPDEST PUSH1 0x20 MUL ADD MLOAD DUP2 MSTORE POP PUSH2 0x1FFB JUMP JUMPDEST JUMPDEST JUMPDEST PUSH2 0x10C9 JUMP JUMPDEST JUMPDEST POP POP POP POP POP POP POP POP POP SWAP3 SWAP2 POP POP JUMP JUMPDEST PUSH2 0x1219 PUSH2 0x24DC JUMP JUMPDEST PUSH1 0x0 PUSH2 0x1223 PUSH2 0x2552 JUMP JUMPDEST PUSH2 0x122B PUSH2 0x2552 JUMP JUMPDEST PUSH1 0x0 DUP1 PUSH1 0x0 DUP1 PUSH1 0x0 DUP1 DUP12 PUSH1 0x2 PUSH1 0x3 DUP2 LT ISZERO ISZERO PUSH2 0x1243 JUMPI INVALID JUMPDEST PUSH1 0x20 MUL ADD MLOAD EQ ISZERO PUSH2 0x1256 JUMPI DUP10 SWAP9 POP PUSH2 0x1729 JUMP JUMPDEST PUSH1 0x0 DUP11 PUSH1 0x2 PUSH1 0x3 DUP2 LT ISZERO ISZERO PUSH2 0x1267 JUMPI INVALID JUMPDEST PUSH1 0x20 MUL ADD MLOAD EQ ISZERO PUSH2 0x127A JUMPI DUP11 SWAP9 POP PUSH2 0x1729 JUMP JUMPDEST PUSH32 0xFFFFFFFFFFFFFFFFFFFFFFFFFFFFFFFFFFFFFFFFFFFFFFFFFFFFFFFEFFFFFC2F SWAP8 POP DUP8 DUP1 ISZERO ISZERO PUSH2 0x12A7 JUMPI INVALID JUMPDEST DUP12 PUSH1 0x2 PUSH1 0x3 DUP2 LT ISZERO ISZERO PUSH2 0x12B6 JUMPI INVALID JUMPDEST PUSH1 0x20 MUL ADD MLOAD DUP13 PUSH1 0x2 PUSH1 0x3 DUP2 LT ISZERO ISZERO PUSH2 0x12CA JUMPI INVALID JUMPDEST PUSH1 0x20 MUL ADD MLOAD MULMOD DUP8 PUSH1 0x0 PUSH1 0x4 DUP2 LT ISZERO ISZERO PUSH2 0x12DF JUMPI INVALID JUMPDEST PUSH1 0x20 MUL ADD DUP2 DUP2 MSTORE POP POP DUP8 DUP1 ISZERO ISZERO PUSH2 0x12F2 JUMPI INVALID JUMPDEST DUP8 PUSH1 0x0 PUSH1 0x4 DUP2 LT ISZERO ISZERO PUSH2 0x1301 JUMPI INVALID JUMPDEST PUSH1 0x20 MUL ADD MLOAD DUP13 PUSH1 0x2 PUSH1 0x3 DUP2 LT ISZERO ISZERO PUSH2 0x1315 JUMPI INVALID JUMPDEST PUSH1 0x20 MUL ADD MLOAD MULMOD DUP8 PUSH1 0x1 PUSH1 0x4 DUP2 LT ISZERO ISZERO PUSH2 0x132A JUMPI INVALID JUMPDEST PUSH1 0x20 MUL ADD DUP2 DUP2 MSTORE POP POP DUP8 DUP1 ISZERO ISZERO PUSH2 0x133D JUMPI INVALID JUMPDEST DUP11 PUSH1 0x2 PUSH1 0x3 DUP2 LT ISZERO ISZERO PUSH2 0x134C JUMPI INVALID JUMPDEST PUSH1 0x20 MUL ADD MLOAD DUP12 PUSH1 0x2 PUSH1 0x3 DUP2 LT ISZERO ISZERO PUSH2 0x1360 JUMPI INVALID JUMPDEST PUSH1 0x20 MUL ADD MLOAD MULMOD DUP8 PUSH1 0x2 PUSH1 0x4 DUP2 LT ISZERO ISZERO PUSH2 0x1375 JUMPI INVALID JUMPDEST PUSH1 0x20 MUL ADD DUP2 DUP2 MSTORE POP POP DUP8 DUP1 ISZERO ISZERO PUSH2 0x1388 JUMPI INVALID JUMPDEST DUP8 PUSH1 0x2 PUSH1 0x4 DUP2 LT ISZERO ISZERO PUSH2 0x1397 JUMPI INVALID JUMPDEST PUSH1 0x20 MUL ADD MLOAD DUP12 PUSH1 0x2 PUSH1 0x3 DUP2 LT ISZERO ISZERO PUSH2 0x13AB JUMPI INVALID JUMPDEST PUSH1 0x20 MUL ADD MLOAD MULMOD DUP8 PUSH1 0x3 PUSH1 0x4 DUP2 LT ISZERO ISZERO PUSH2 0x13C0 JUMPI INVALID JUMPDEST PUSH1 0x20 MUL ADD DUP2 DUP2 MSTORE POP POP PUSH1 0x80 PUSH1 0x40 MLOAD SWAP1 DUP2 ADD PUSH1 0x40 MSTORE DUP1 DUP10 DUP1 ISZERO ISZERO PUSH2 0x13DF JUMPI INVALID JUMPDEST DUP10 PUSH1 0x2 PUSH1 0x4 DUP2 LT ISZERO ISZERO PUSH2 0x13EE JUMPI INVALID JUMPDEST PUSH1 0x20 MUL ADD MLOAD DUP15 PUSH1 0x0 PUSH1 0x3 DUP2 LT ISZERO ISZERO PUSH2 0x1402 JUMPI INVALID JUMPDEST PUSH1 0x20 MUL ADD MLOAD MULMOD DUP2 MSTORE PUSH1 0x20 ADD DUP10 DUP1 ISZERO ISZERO PUSH2 0x1417 JUMPI INVALID JUMPDEST DUP10 PUSH1 0x3 PUSH1 0x4 DUP2 LT ISZERO ISZERO PUSH2 0x1426 JUMPI INVALID JUMPDEST PUSH1 0x20 MUL ADD MLOAD DUP15 PUSH1 0x1 PUSH1 0x3 DUP2 LT ISZERO ISZERO PUSH2 0x143A JUMPI INVALID JUMPDEST PUSH1 0x20 MUL ADD MLOAD MULMOD DUP2 MSTORE PUSH1 0x20 ADD DUP10 DUP1 ISZERO ISZERO PUSH2 0x144F JUMPI INVALID JUMPDEST DUP10 PUSH1 0x0 PUSH1 0x4 DUP2 LT ISZERO ISZERO PUSH2 0x145E JUMPI INVALID JUMPDEST PUSH1 0x20 MUL ADD MLOAD DUP14 PUSH1 0x0 PUSH1 0x3 DUP2 LT ISZERO ISZERO PUSH2 0x1472 JUMPI INVALID JUMPDEST PUSH1 0x20 MUL ADD MLOAD MULMOD DUP2 MSTORE PUSH1 0x20 ADD DUP10 DUP1 ISZERO ISZERO PUSH2 0x1487 JUMPI INVALID JUMPDEST DUP10 PUSH1 0x1 PUSH1 0x4 DUP2 LT ISZERO ISZERO PUSH2 0x1496 JUMPI INVALID JUMPDEST PUSH1 0x20 MUL ADD MLOAD DUP14 PUSH1 0x1 PUSH1 0x3 DUP2 LT ISZERO ISZERO PUSH2 0x14AA JUMPI INVALID JUMPDEST PUSH1 0x20 MUL ADD MLOAD MULMOD DUP2 MSTORE POP SWAP6 POP DUP6 PUSH1 0x2 PUSH1 0x4 DUP2 LT ISZERO ISZERO PUSH2 0x14C4 JUMPI INVALID JUMPDEST PUSH1 0x20 MUL ADD MLOAD DUP7 PUSH1 0x0 PUSH1 0x4 DUP2 LT ISZERO ISZERO PUSH2 0x14D8 JUMPI INVALID JUMPDEST PUSH1 0x20 MUL ADD MLOAD EQ ISZERO PUSH2 0x1527 JUMPI DUP6 PUSH1 0x3 PUSH1 0x4 DUP2 LT ISZERO ISZERO PUSH2 0x14F2 JUMPI INVALID JUMPDEST PUSH1 0x20 MUL ADD MLOAD DUP7 PUSH1 0x1 PUSH1 0x4 DUP2 LT ISZERO ISZERO PUSH2 0x1506 JUMPI INVALID JUMPDEST PUSH1 0x20 MUL ADD MLOAD EQ ISZERO ISZERO PUSH2 0x1517 JUMPI PUSH2 0x1729 JUMP JUMPDEST PUSH2 0x1520 DUP12 PUSH2 0x1737 JUMP JUMPDEST SWAP9 POP PUSH2 0x1729 JUMP JUMPDEST DUP8 DUP1 ISZERO ISZERO PUSH2 0x1531 JUMPI INVALID JUMPDEST DUP7 PUSH1 0x0 PUSH1 0x4 DUP2 LT ISZERO ISZERO PUSH2 0x1540 JUMPI INVALID JUMPDEST PUSH1 0x20 MUL ADD MLOAD DUP10 SUB DUP8 PUSH1 0x2 PUSH1 0x4 DUP2 LT ISZERO ISZERO PUSH2 0x1556 JUMPI INVALID JUMPDEST PUSH1 0x20 MUL ADD MLOAD ADDMOD SWAP5 POP DUP8 DUP1 ISZERO ISZERO PUSH2 0x1568 JUMPI INVALID JUMPDEST DUP7 PUSH1 0x1 PUSH1 0x4 DUP2 LT ISZERO ISZERO PUSH2 0x1577 JUMPI INVALID JUMPDEST PUSH1 0x20 MUL ADD MLOAD DUP10 SUB DUP8 PUSH1 0x3 PUSH1 0x4 DUP2 LT ISZERO ISZERO PUSH2 0x158D JUMPI INVALID JUMPDEST PUSH1 0x20 MUL ADD MLOAD ADDMOD SWAP4 POP DUP8 DUP1 ISZERO ISZERO PUSH2 0x159F JUMPI INVALID JUMPDEST DUP6 DUP7 MULMOD SWAP3 POP DUP8 DUP1 ISZERO ISZERO PUSH2 0x15AE JUMPI INVALID JUMPDEST DUP6 DUP5 MULMOD SWAP2 POP DUP8 DUP1 ISZERO ISZERO PUSH2 0x15BD JUMPI INVALID JUMPDEST DUP3 DUP10 SUB DUP10 DUP1 ISZERO ISZERO PUSH2 0x15CA JUMPI INVALID JUMPDEST DUP7 DUP8 MULMOD ADDMOD SWAP1 POP DUP8 DUP1 ISZERO ISZERO PUSH2 0x15DA JUMPI INVALID JUMPDEST DUP9 DUP1 ISZERO ISZERO PUSH2 0x15E4 JUMPI INVALID JUMPDEST DUP10 DUP1 ISZERO ISZERO PUSH2 0x15EE JUMPI INVALID JUMPDEST DUP6 DUP10 PUSH1 0x0 PUSH1 0x4 DUP2 LT ISZERO ISZERO PUSH2 0x15FE JUMPI INVALID JUMPDEST PUSH1 0x20 MUL ADD MLOAD MULMOD PUSH1 0x2 MULMOD DUP10 SUB DUP3 ADDMOD SWAP1 POP DUP1 DUP10 PUSH1 0x0 PUSH1 0x3 DUP2 LT ISZERO ISZERO PUSH2 0x161D JUMPI INVALID JUMPDEST PUSH1 0x20 MUL ADD DUP2 DUP2 MSTORE POP POP DUP8 DUP1 ISZERO ISZERO PUSH2 0x1630 JUMPI INVALID JUMPDEST DUP9 DUP1 ISZERO ISZERO PUSH2 0x163A JUMPI INVALID JUMPDEST DUP3 DUP11 SUB DUP11 DUP1 ISZERO ISZERO PUSH2 0x1647 JUMPI INVALID JUMPDEST DUP7 DUP11 PUSH1 0x0 PUSH1 0x4 DUP2 LT ISZERO ISZERO PUSH2 0x1657 JUMPI INVALID JUMPDEST PUSH1 0x20 MUL ADD MLOAD MULMOD ADDMOD DUP6 MULMOD DUP10 PUSH1 0x1 PUSH1 0x3 DUP2 LT ISZERO ISZERO PUSH2 0x166F JUMPI INVALID JUMPDEST PUSH1 0x20 MUL ADD DUP2 DUP2 MSTORE POP POP DUP8 DUP1 ISZERO ISZERO PUSH2 0x1682 JUMPI INVALID JUMPDEST DUP9 DUP1 ISZERO ISZERO PUSH2 0x168C JUMPI INVALID JUMPDEST DUP4 DUP9 PUSH1 0x1 PUSH1 0x4 DUP2 LT ISZERO ISZERO PUSH2 0x169C JUMPI INVALID JUMPDEST PUSH1 0x20 MUL ADD MLOAD MULMOD DUP10 SUB DUP11 PUSH1 0x1 PUSH1 0x3 DUP2 LT ISZERO ISZERO PUSH2 0x16B3 JUMPI INVALID JUMPDEST PUSH1 0x20 MUL ADD MLOAD ADDMOD DUP10 PUSH1 0x1 PUSH1 0x3 DUP2 LT ISZERO ISZERO PUSH2 0x16C8 JUMPI INVALID JUMPDEST PUSH1 0x20 MUL ADD DUP2 DUP2 MSTORE POP POP DUP8 DUP1 ISZERO ISZERO PUSH2 0x16DB JUMPI INVALID JUMPDEST DUP9 DUP1 ISZERO ISZERO PUSH2 0x16E5 JUMPI INVALID JUMPDEST DUP12 PUSH1 0x2 PUSH1 0x3 DUP2 LT ISZERO ISZERO PUSH2 0x16F4 JUMPI INVALID JUMPDEST PUSH1 0x20 MUL ADD MLOAD DUP14 PUSH1 0x2 PUSH1 0x3 DUP2 LT ISZERO ISZERO PUSH2 0x1708 JUMPI INVALID JUMPDEST PUSH1 0x20 MUL ADD MLOAD MULMOD DUP7 MULMOD DUP10 PUSH1 0x2 PUSH1 0x3 DUP2 LT ISZERO ISZERO PUSH2 0x171F JUMPI INVALID JUMPDEST PUSH1 0x20 MUL ADD DUP2 DUP2 MSTORE POP POP JUMPDEST POP POP POP POP POP POP POP POP SWAP3 SWAP2 POP POP JUMP JUMPDEST PUSH2 0x173F PUSH2 0x24DC JUMP JUMPDEST PUSH1 0x0 DUP1 PUSH1 0x0 DUP1 PUSH1 0x0 DUP1 PUSH1 0x0 PUSH32 0xFFFFFFFFFFFFFFFFFFFFFFFFFFFFFFFFFFFFFFFFFFFFFFFFFFFFFFFEFFFFFC2F SWAP7 POP PUSH1 0x0 DUP10 PUSH1 0x2 PUSH1 0x3 DUP2 LT ISZERO ISZERO PUSH2 0x177E JUMPI INVALID JUMPDEST PUSH1 0x20 MUL ADD MLOAD EQ ISZERO PUSH2 0x178E JUMPI PUSH2 0x18E3 JUMP JUMPDEST DUP9 PUSH1 0x0 PUSH1 0x3 DUP2 LT ISZERO ISZERO PUSH2 0x179D JUMPI INVALID JUMPDEST PUSH1 0x20 MUL ADD MLOAD SWAP6 POP DUP9 PUSH1 0x1 PUSH1 0x3 DUP2 LT ISZERO ISZERO PUSH2 0x17B3 JUMPI INVALID JUMPDEST PUSH1 0x20 MUL ADD MLOAD SWAP5 POP DUP7 DUP1 ISZERO ISZERO PUSH2 0x17C4 JUMPI INVALID JUMPDEST DUP6 DUP7 MULMOD SWAP4 POP DUP7 DUP1 ISZERO ISZERO PUSH2 0x17D3 JUMPI INVALID JUMPDEST DUP8 DUP1 ISZERO ISZERO PUSH2 0x17DD JUMPI INVALID JUMPDEST DUP6 DUP9 MULMOD PUSH1 0x4 MULMOD SWAP3 POP DUP7 DUP1 ISZERO ISZERO PUSH2 0x17EF JUMPI INVALID JUMPDEST DUP8 DUP1 ISZERO ISZERO PUSH2 0x17F9 JUMPI INVALID JUMPDEST DUP8 DUP9 MULMOD PUSH1 0x3 MULMOD SWAP2 POP DUP7 DUP1 ISZERO ISZERO PUSH2 0x180B JUMPI INVALID JUMPDEST DUP8 DUP1 ISZERO ISZERO PUSH2 0x1815 JUMPI INVALID JUMPDEST DUP5 DUP6 ADDMOD DUP9 SUB DUP9 DUP1 ISZERO ISZERO PUSH2 0x1824 JUMPI INVALID JUMPDEST DUP5 DUP6 MULMOD ADDMOD SWAP1 POP DUP1 DUP9 PUSH1 0x0 PUSH1 0x3 DUP2 LT ISZERO ISZERO PUSH2 0x183A JUMPI INVALID JUMPDEST PUSH1 0x20 MUL ADD DUP2 DUP2 MSTORE POP POP DUP7 DUP1 ISZERO ISZERO PUSH2 0x184D JUMPI INVALID JUMPDEST DUP8 DUP1 ISZERO ISZERO PUSH2 0x1857 JUMPI INVALID JUMPDEST DUP9 DUP1 ISZERO ISZERO PUSH2 0x1861 JUMPI INVALID JUMPDEST DUP7 DUP8 MULMOD PUSH1 0x8 MULMOD DUP9 SUB DUP9 DUP1 ISZERO ISZERO PUSH2 0x1873 JUMPI INVALID JUMPDEST DUP10 DUP1 ISZERO ISZERO PUSH2 0x187D JUMPI INVALID JUMPDEST DUP5 DUP12 SUB DUP8 ADDMOD DUP6 MULMOD ADDMOD DUP9 PUSH1 0x1 PUSH1 0x3 DUP2 LT ISZERO ISZERO PUSH2 0x1894 JUMPI INVALID JUMPDEST PUSH1 0x20 MUL ADD DUP2 DUP2 MSTORE POP POP DUP7 DUP1 ISZERO ISZERO PUSH2 0x18A7 JUMPI INVALID JUMPDEST DUP8 DUP1 ISZERO ISZERO PUSH2 0x18B1 JUMPI INVALID JUMPDEST DUP11 PUSH1 0x2 PUSH1 0x3 DUP2 LT ISZERO ISZERO PUSH2 0x18C0 JUMPI INVALID JUMPDEST PUSH1 0x20 MUL ADD MLOAD DUP8 MULMOD PUSH1 0x2 MULMOD DUP9 PUSH1 0x2 PUSH1 0x3 DUP2 LT ISZERO ISZERO PUSH2 0x18D9 JUMPI INVALID JUMPDEST PUSH1 0x20 MUL ADD DUP2 DUP2 MSTORE POP POP JUMPDEST POP POP POP POP POP POP POP SWAP2 SWAP1 POP JUMP JUMPDEST PUSH2 0x18F7 PUSH2 0x24DC JUMP JUMPDEST PUSH1 0x0 PUSH2 0x1901 PUSH2 0x2575 JUMP JUMPDEST PUSH2 0x1909 PUSH2 0x2552 JUMP JUMPDEST PUSH1 0x0 DUP1 PUSH1 0x0 DUP1 PUSH1 0x0 DUP1 DUP12 PUSH1 0x2 PUSH1 0x3 DUP2 LT ISZERO ISZERO PUSH2 0x1921 JUMPI INVALID JUMPDEST PUSH1 0x20 MUL ADD MLOAD EQ ISZERO PUSH2 0x1976 JUMPI PUSH1 0x60 PUSH1 0x40 MLOAD SWAP1 DUP2 ADD PUSH1 0x40 MSTORE DUP1 DUP12 PUSH1 0x0 PUSH1 0x2 DUP2 LT ISZERO ISZERO PUSH2 0x1947 JUMPI INVALID JUMPDEST PUSH1 0x20 MUL ADD MLOAD DUP2 MSTORE PUSH1 0x20 ADD DUP12 PUSH1 0x1 PUSH1 0x2 DUP2 LT ISZERO ISZERO PUSH2 0x1960 JUMPI INVALID JUMPDEST PUSH1 0x20 MUL ADD MLOAD DUP2 MSTORE PUSH1 0x20 ADD PUSH1 0x1 DUP2 MSTORE POP SWAP9 POP PUSH2 0x1DA3 JUMP JUMPDEST PUSH1 0x0 DUP11 PUSH1 0x1 PUSH1 0x2 DUP2 LT ISZERO ISZERO PUSH2 0x1987 JUMPI INVALID JUMPDEST PUSH1 0x20 MUL ADD MLOAD EQ ISZERO PUSH2 0x199A JUMPI DUP11 SWAP9 POP PUSH2 0x1DA3 JUMP JUMPDEST PUSH32 0xFFFFFFFFFFFFFFFFFFFFFFFFFFFFFFFFFFFFFFFFFFFFFFFFFFFFFFFEFFFFFC2F SWAP8 POP DUP8 DUP1 ISZERO ISZERO PUSH2 0x19C7 JUMPI INVALID JUMPDEST DUP12 PUSH1 0x2 PUSH1 0x3 DUP2 LT ISZERO ISZERO PUSH2 0x19D6 JUMPI INVALID JUMPDEST PUSH1 0x20 MUL ADD MLOAD DUP13 PUSH1 0x2 PUSH1 0x3 DUP2 LT ISZERO ISZERO PUSH2 0x19EA JUMPI INVALID JUMPDEST PUSH1 0x20 MUL ADD MLOAD MULMOD DUP8 PUSH1 0x0 PUSH1 0x2 DUP2 LT ISZERO ISZERO PUSH2 0x19FF JUMPI INVALID JUMPDEST PUSH1 0x20 MUL ADD DUP2 DUP2 MSTORE POP POP DUP8 DUP1 ISZERO ISZERO PUSH2 0x1A12 JUMPI INVALID JUMPDEST DUP8 PUSH1 0x0 PUSH1 0x2 DUP2 LT ISZERO ISZERO PUSH2 0x1A21 JUMPI INVALID JUMPDEST PUSH1 0x20 MUL ADD MLOAD DUP13 PUSH1 0x2 PUSH1 0x3 DUP2 LT ISZERO ISZERO PUSH2 0x1A35 JUMPI INVALID JUMPDEST PUSH1 0x20 MUL ADD MLOAD MULMOD DUP8 PUSH1 0x1 PUSH1 0x2 DUP2 LT ISZERO ISZERO PUSH2 0x1A4A JUMPI INVALID JUMPDEST PUSH1 0x20 MUL ADD DUP2 DUP2 MSTORE POP POP PUSH1 0x80 PUSH1 0x40 MLOAD SWAP1 DUP2 ADD PUSH1 0x40 MSTORE DUP1 DUP13 PUSH1 0x0 PUSH1 0x3 DUP2 LT ISZERO ISZERO PUSH2 0x1A6E JUMPI INVALID JUMPDEST PUSH1 0x20 MUL ADD MLOAD DUP2 MSTORE PUSH1 0x20 ADD DUP13 PUSH1 0x1 PUSH1 0x3 DUP2 LT ISZERO ISZERO PUSH2 0x1A87 JUMPI INVALID JUMPDEST PUSH1 0x20 MUL ADD MLOAD DUP2 MSTORE PUSH1 0x20 ADD DUP10 DUP1 ISZERO ISZERO PUSH2 0x1A9B JUMPI INVALID JUMPDEST DUP10 PUSH1 0x0 PUSH1 0x2 DUP2 LT ISZERO ISZERO PUSH2 0x1AAA JUMPI INVALID JUMPDEST PUSH1 0x20 MUL ADD MLOAD DUP14 PUSH1 0x0 PUSH1 0x2 DUP2 LT ISZERO ISZERO PUSH2 0x1ABE JUMPI INVALID JUMPDEST PUSH1 0x20 MUL ADD MLOAD MULMOD DUP2 MSTORE PUSH1 0x20 ADD DUP10 DUP1 ISZERO ISZERO PUSH2 0x1AD3 JUMPI INVALID JUMPDEST DUP10 PUSH1 0x1 PUSH1 0x2 DUP2 LT ISZERO ISZERO PUSH2 0x1AE2 JUMPI INVALID JUMPDEST PUSH1 0x20 MUL ADD MLOAD DUP14 PUSH1 0x1 PUSH1 0x2 DUP2 LT ISZERO ISZERO PUSH2 0x1AF6 JUMPI INVALID JUMPDEST PUSH1 0x20 MUL ADD MLOAD MULMOD DUP2 MSTORE POP SWAP6 POP DUP6 PUSH1 0x2 PUSH1 0x4 DUP2 LT ISZERO ISZERO PUSH2 0x1B10 JUMPI INVALID JUMPDEST PUSH1 0x20 MUL ADD MLOAD DUP7 PUSH1 0x0 PUSH1 0x4 DUP2 LT ISZERO ISZERO PUSH2 0x1B24 JUMPI INVALID JUMPDEST PUSH1 0x20 MUL ADD MLOAD EQ ISZERO PUSH2 0x1BC0 JUMPI DUP6 PUSH1 0x3 PUSH1 0x4 DUP2 LT ISZERO ISZERO PUSH2 0x1B3E JUMPI INVALID JUMPDEST PUSH1 0x20 MUL ADD MLOAD DUP7 PUSH1 0x1 PUSH1 0x4 DUP2 LT ISZERO ISZERO PUSH2 0x1B52 JUMPI INVALID JUMPDEST PUSH1 0x20 MUL ADD MLOAD EQ ISZERO ISZERO PUSH2 0x1BB1 JUMPI PUSH1 0x0 DUP12 PUSH1 0x0 PUSH1 0x3 DUP2 LT ISZERO ISZERO PUSH2 0x1B6F JUMPI INVALID JUMPDEST PUSH1 0x20 MUL ADD DUP2 DUP2 MSTORE POP POP PUSH1 0x0 DUP12 PUSH1 0x1 PUSH1 0x3 DUP2 LT ISZERO ISZERO PUSH2 0x1B89 JUMPI INVALID JUMPDEST PUSH1 0x20 MUL ADD DUP2 DUP2 MSTORE POP POP PUSH1 0x0 DUP12 PUSH1 0x2 PUSH1 0x3 DUP2 LT ISZERO ISZERO PUSH2 0x1BA3 JUMPI INVALID JUMPDEST PUSH1 0x20 MUL ADD DUP2 DUP2 MSTORE POP POP PUSH2 0x1DA3 JUMP JUMPDEST PUSH2 0x1BBA DUP12 PUSH2 0x1737 JUMP JUMPDEST POP PUSH2 0x1DA3 JUMP JUMPDEST DUP8 DUP1 ISZERO ISZERO PUSH2 0x1BCA JUMPI INVALID JUMPDEST DUP7 PUSH1 0x0 PUSH1 0x4 DUP2 LT ISZERO ISZERO PUSH2 0x1BD9 JUMPI INVALID JUMPDEST PUSH1 0x20 MUL ADD MLOAD DUP10 SUB DUP8 PUSH1 0x2 PUSH1 0x4 DUP2 LT ISZERO ISZERO PUSH2 0x1BEF JUMPI INVALID JUMPDEST PUSH1 0x20 MUL ADD MLOAD ADDMOD SWAP5 POP DUP8 DUP1 ISZERO ISZERO PUSH2 0x1C01 JUMPI INVALID JUMPDEST DUP7 PUSH1 0x1 PUSH1 0x4 DUP2 LT ISZERO ISZERO PUSH2 0x1C10 JUMPI INVALID JUMPDEST PUSH1 0x20 MUL ADD MLOAD DUP10 SUB DUP8 PUSH1 0x3 PUSH1 0x4 DUP2 LT ISZERO ISZERO PUSH2 0x1C26 JUMPI INVALID JUMPDEST PUSH1 0x20 MUL ADD MLOAD ADDMOD SWAP4 POP DUP8 DUP1 ISZERO ISZERO PUSH2 0x1C38 JUMPI INVALID JUMPDEST DUP6 DUP7 MULMOD SWAP3 POP DUP8 DUP1 ISZERO ISZERO PUSH2 0x1C47 JUMPI INVALID JUMPDEST DUP6 DUP5 MULMOD SWAP2 POP DUP8 DUP1 ISZERO ISZERO PUSH2 0x1C56 JUMPI INVALID JUMPDEST DUP3 DUP10 SUB DUP10 DUP1 ISZERO ISZERO PUSH2 0x1C63 JUMPI INVALID JUMPDEST DUP7 DUP8 MULMOD ADDMOD SWAP1 POP DUP8 DUP1 ISZERO ISZERO PUSH2 0x1C73 JUMPI INVALID JUMPDEST DUP9 DUP1 ISZERO ISZERO PUSH2 0x1C7D JUMPI INVALID JUMPDEST DUP10 DUP1 ISZERO ISZERO PUSH2 0x1C87 JUMPI INVALID JUMPDEST DUP6 DUP10 PUSH1 0x0 PUSH1 0x4 DUP2 LT ISZERO ISZERO PUSH2 0x1C97 JUMPI INVALID JUMPDEST PUSH1 0x20 MUL ADD MLOAD MULMOD PUSH1 0x2 MULMOD DUP10 SUB DUP3 ADDMOD SWAP1 POP DUP1 DUP10 PUSH1 0x0 PUSH1 0x3 DUP2 LT ISZERO ISZERO PUSH2 0x1CB6 JUMPI INVALID JUMPDEST PUSH1 0x20 MUL ADD DUP2 DUP2 MSTORE POP POP DUP8 DUP1 ISZERO ISZERO PUSH2 0x1CC9 JUMPI INVALID JUMPDEST DUP9 DUP1 ISZERO ISZERO PUSH2 0x1CD3 JUMPI INVALID JUMPDEST DUP3 DUP11 SUB DUP11 DUP1 ISZERO ISZERO PUSH2 0x1CE0 JUMPI INVALID JUMPDEST DUP7 DUP11 PUSH1 0x0 PUSH1 0x4 DUP2 LT ISZERO ISZERO PUSH2 0x1CF0 JUMPI INVALID JUMPDEST PUSH1 0x20 MUL ADD MLOAD MULMOD ADDMOD DUP6 MULMOD DUP10 PUSH1 0x1 PUSH1 0x3 DUP2 LT ISZERO ISZERO PUSH2 0x1D08 JUMPI INVALID JUMPDEST PUSH1 0x20 MUL ADD DUP2 DUP2 MSTORE POP POP DUP8 DUP1 ISZERO ISZERO PUSH2 0x1D1B JUMPI INVALID JUMPDEST DUP9 DUP1 ISZERO ISZERO PUSH2 0x1D25 JUMPI INVALID JUMPDEST DUP4 DUP9 PUSH1 0x1 PUSH1 0x4 DUP2 LT ISZERO ISZERO PUSH2 0x1D35 JUMPI INVALID JUMPDEST PUSH1 0x20 MUL ADD MLOAD MULMOD DUP10 SUB DUP11 PUSH1 0x1 PUSH1 0x3 DUP2 LT ISZERO ISZERO PUSH2 0x1D4C JUMPI INVALID JUMPDEST PUSH1 0x20 MUL ADD MLOAD ADDMOD DUP10 PUSH1 0x1 PUSH1 0x3 DUP2 LT ISZERO ISZERO PUSH2 0x1D61 JUMPI INVALID JUMPDEST PUSH1 0x20 MUL ADD DUP2 DUP2 MSTORE POP POP DUP8 DUP1 ISZERO ISZERO PUSH2 0x1D74 JUMPI INVALID JUMPDEST DUP12 PUSH1 0x2 PUSH1 0x3 DUP2 LT ISZERO ISZERO PUSH2 0x1D83 JUMPI INVALID JUMPDEST PUSH1 0x20 MUL ADD MLOAD DUP7 MULMOD DUP10 PUSH1 0x2 PUSH1 0x3 DUP2 LT ISZERO ISZERO PUSH2 0x1D99 JUMPI INVALID JUMPDEST PUSH1 0x20 MUL ADD DUP2 DUP2 MSTORE POP POP JUMPDEST POP POP POP POP POP POP POP POP SWAP3 SWAP2 POP POP JUMP JUMPDEST DUP1 DUP1 ISZERO ISZERO PUSH2 0x1DBB JUMPI INVALID JUMPDEST DUP3 DUP6 PUSH1 0x0 PUSH1 0x3 DUP2 LT ISZERO ISZERO PUSH2 0x1DCB JUMPI INVALID JUMPDEST PUSH1 0x20 MUL ADD MLOAD MULMOD DUP5 PUSH1 0x0 PUSH1 0x3 DUP2 LT ISZERO ISZERO PUSH2 0x1DE0 JUMPI INVALID JUMPDEST PUSH1 0x20 MUL ADD DUP2 DUP2 MSTORE POP POP DUP1 DUP1 ISZERO ISZERO PUSH2 0x1DF3 JUMPI INVALID JUMPDEST DUP2 DUP1 ISZERO ISZERO PUSH2 0x1DFD JUMPI INVALID JUMPDEST DUP4 DUP6 MULMOD DUP6 PUSH1 0x1 PUSH1 0x3 DUP2 LT ISZERO ISZERO PUSH2 0x1E0F JUMPI INVALID JUMPDEST PUSH1 0x20 MUL ADD MLOAD MULMOD DUP5 PUSH1 0x1 PUSH1 0x3 DUP2 LT ISZERO ISZERO PUSH2 0x1E24 JUMPI INVALID JUMPDEST PUSH1 0x20 MUL ADD DUP2 DUP2 MSTORE POP POP PUSH1 0x1 DUP5 PUSH1 0x2 PUSH1 0x3 DUP2 LT ISZERO ISZERO PUSH2 0x1E3E JUMPI INVALID JUMPDEST PUSH1 0x20 MUL ADD DUP2 DUP2 MSTORE POP POP POP POP POP POP JUMP JUMPDEST PUSH1 0x0 DUP1 PUSH1 0x0 DUP1 PUSH1 0x0 DUP1 PUSH1 0x0 PUSH32 0xFFFFFFFFFFFFFFFFFFFFFFFFFFFFFFFFFFFFFFFFFFFFFFFFFFFFFFFEFFFFFC2F SWAP7 POP PUSH1 0x0 DUP9 PUSH1 0x2 PUSH1 0x3 DUP2 LT ISZERO ISZERO PUSH2 0x1E8C JUMPI INVALID JUMPDEST PUSH1 0x20 MUL ADD MLOAD EQ ISZERO PUSH2 0x1E9C JUMPI PUSH2 0x1FF1 JUMP JUMPDEST DUP8 PUSH1 0x0 PUSH1 0x3 DUP2 LT ISZERO ISZERO PUSH2 0x1EAB JUMPI INVALID JUMPDEST PUSH1 0x20 MUL ADD MLOAD SWAP6 POP DUP8 PUSH1 0x1 PUSH1 0x3 DUP2 LT ISZERO ISZERO PUSH2 0x1EC1 JUMPI INVALID JUMPDEST PUSH1 0x20 MUL ADD MLOAD SWAP5 POP DUP7 DUP1 ISZERO ISZERO PUSH2 0x1ED2 JUMPI INVALID JUMPDEST DUP6 DUP7 MULMOD SWAP4 POP DUP7 DUP1 ISZERO ISZERO PUSH2 0x1EE1 JUMPI INVALID JUMPDEST DUP8 DUP1 ISZERO ISZERO PUSH2 0x1EEB JUMPI INVALID JUMPDEST DUP6 DUP9 MULMOD PUSH1 0x4 MULMOD SWAP3 POP DUP7 DUP1 ISZERO ISZERO PUSH2 0x1EFD JUMPI INVALID JUMPDEST DUP8 DUP1 ISZERO ISZERO PUSH2 0x1F07 JUMPI INVALID JUMPDEST DUP8 DUP9 MULMOD PUSH1 0x3 MULMOD SWAP2 POP DUP7 DUP1 ISZERO ISZERO PUSH2 0x1F19 JUMPI INVALID JUMPDEST DUP8 DUP1 ISZERO ISZERO PUSH2 0x1F23 JUMPI INVALID JUMPDEST DUP5 DUP6 ADDMOD DUP9 SUB DUP9 DUP1 ISZERO ISZERO PUSH2 0x1F32 JUMPI INVALID JUMPDEST DUP5 DUP6 MULMOD ADDMOD SWAP1 POP DUP1 DUP9 PUSH1 0x0 PUSH1 0x3 DUP2 LT ISZERO ISZERO PUSH2 0x1F48 JUMPI INVALID JUMPDEST PUSH1 0x20 MUL ADD DUP2 DUP2 MSTORE POP POP DUP7 DUP1 ISZERO ISZERO PUSH2 0x1F5B JUMPI INVALID JUMPDEST DUP8 DUP1 ISZERO ISZERO PUSH2 0x1F65 JUMPI INVALID JUMPDEST DUP9 DUP1 ISZERO ISZERO PUSH2 0x1F6F JUMPI INVALID JUMPDEST DUP7 DUP8 MULMOD PUSH1 0x8 MULMOD DUP9 SUB DUP9 DUP1 ISZERO ISZERO PUSH2 0x1F81 JUMPI INVALID JUMPDEST DUP10 DUP1 ISZERO ISZERO PUSH2 0x1F8B JUMPI INVALID JUMPDEST DUP5 DUP12 SUB DUP8 ADDMOD DUP6 MULMOD ADDMOD DUP9 PUSH1 0x1 PUSH1 0x3 DUP2 LT ISZERO ISZERO PUSH2 0x1FA2 JUMPI INVALID JUMPDEST PUSH1 0x20 MUL ADD DUP2 DUP2 MSTORE POP POP DUP7 DUP1 ISZERO ISZERO PUSH2 0x1FB5 JUMPI INVALID JUMPDEST DUP8 DUP1 ISZERO ISZERO PUSH2 0x1FBF JUMPI INVALID JUMPDEST DUP10 PUSH1 0x2 PUSH1 0x3 DUP2 LT ISZERO ISZERO PUSH2 0x1FCE JUMPI INVALID JUMPDEST PUSH1 0x20 MUL ADD MLOAD DUP8 MULMOD PUSH1 0x2 MULMOD DUP9 PUSH1 0x2 PUSH1 0x3 DUP2 LT ISZERO ISZERO PUSH2 0x1FE7 JUMPI INVALID JUMPDEST PUSH1 0x20 MUL ADD DUP2 DUP2 MSTORE POP POP JUMPDEST POP POP POP POP POP POP POP POP JUMP JUMPDEST PUSH1 0x0 PUSH2 0x2005 PUSH2 0x2575 JUMP JUMPDEST PUSH2 0x200D PUSH2 0x2552 JUMP JUMPDEST PUSH1 0x0 DUP1 PUSH1 0x0 DUP1 PUSH1 0x0 DUP1 DUP11 PUSH1 0x1 PUSH1 0x3 DUP2 LT ISZERO ISZERO PUSH2 0x2025 JUMPI INVALID JUMPDEST PUSH1 0x20 MUL ADD MLOAD EQ ISZERO PUSH2 0x20A7 JUMPI DUP9 PUSH1 0x0 PUSH1 0x2 DUP2 LT ISZERO ISZERO PUSH2 0x203F JUMPI INVALID JUMPDEST PUSH1 0x20 MUL ADD MLOAD DUP11 PUSH1 0x0 PUSH1 0x3 DUP2 LT ISZERO ISZERO PUSH2 0x2053 JUMPI INVALID JUMPDEST PUSH1 0x20 MUL ADD DUP2 DUP2 MSTORE POP POP DUP9 PUSH1 0x1 PUSH1 0x2 DUP2 LT ISZERO ISZERO PUSH2 0x206B JUMPI INVALID JUMPDEST PUSH1 0x20 MUL ADD MLOAD DUP11 PUSH1 0x1 PUSH1 0x3 DUP2 LT ISZERO ISZERO PUSH2 0x207F JUMPI INVALID JUMPDEST PUSH1 0x20 MUL ADD DUP2 DUP2 MSTORE POP POP PUSH1 0x1 DUP11 PUSH1 0x2 PUSH1 0x3 DUP2 LT ISZERO ISZERO PUSH2 0x2099 JUMPI INVALID JUMPDEST PUSH1 0x20 MUL ADD DUP2 DUP2 MSTORE POP POP PUSH2 0x24D0 JUMP JUMPDEST PUSH1 0x0 DUP10 PUSH1 0x1 PUSH1 0x2 DUP2 LT ISZERO ISZERO PUSH2 0x20B8 JUMPI INVALID JUMPDEST PUSH1 0x20 MUL ADD MLOAD EQ ISZERO PUSH2 0x20C8 JUMPI PUSH2 0x24D0 JUMP JUMPDEST PUSH32 0xFFFFFFFFFFFFFFFFFFFFFFFFFFFFFFFFFFFFFFFFFFFFFFFFFFFFFFFEFFFFFC2F SWAP8 POP DUP8 DUP1 ISZERO ISZERO PUSH2 0x20F5 JUMPI INVALID JUMPDEST DUP11 PUSH1 0x2 PUSH1 0x3 DUP2 LT ISZERO ISZERO PUSH2 0x2104 JUMPI INVALID JUMPDEST PUSH1 0x20 MUL ADD MLOAD DUP12 PUSH1 0x2 PUSH1 0x3 DUP2 LT ISZERO ISZERO PUSH2 0x2118 JUMPI INVALID JUMPDEST PUSH1 0x20 MUL ADD MLOAD MULMOD DUP8 PUSH1 0x0 PUSH1 0x2 DUP2 LT ISZERO ISZERO PUSH2 0x212D JUMPI INVALID JUMPDEST PUSH1 0x20 MUL ADD DUP2 DUP2 MSTORE POP POP DUP8 DUP1 ISZERO ISZERO PUSH2 0x2140 JUMPI INVALID JUMPDEST DUP8 PUSH1 0x0 PUSH1 0x2 DUP2 LT ISZERO ISZERO PUSH2 0x214F JUMPI INVALID JUMPDEST PUSH1 0x20 MUL ADD MLOAD DUP12 PUSH1 0x2 PUSH1 0x3 DUP2 LT ISZERO ISZERO PUSH2 0x2163 JUMPI INVALID JUMPDEST PUSH1 0x20 MUL ADD MLOAD MULMOD DUP8 PUSH1 0x1 PUSH1 0x2 DUP2 LT ISZERO ISZERO PUSH2 0x2178 JUMPI INVALID JUMPDEST PUSH1 0x20 MUL ADD DUP2 DUP2 MSTORE POP POP PUSH1 0x80 PUSH1 0x40 MLOAD SWAP1 DUP2 ADD PUSH1 0x40 MSTORE DUP1 DUP12 PUSH1 0x0 PUSH1 0x3 DUP2 LT ISZERO ISZERO PUSH2 0x219C JUMPI INVALID JUMPDEST PUSH1 0x20 MUL ADD MLOAD DUP2 MSTORE PUSH1 0x20 ADD DUP12 PUSH1 0x1 PUSH1 0x3 DUP2 LT ISZERO ISZERO PUSH2 0x21B5 JUMPI INVALID JUMPDEST PUSH1 0x20 MUL ADD MLOAD DUP2 MSTORE PUSH1 0x20 ADD DUP10 DUP1 ISZERO ISZERO PUSH2 0x21C9 JUMPI INVALID JUMPDEST DUP10 PUSH1 0x0 PUSH1 0x2 DUP2 LT ISZERO ISZERO PUSH2 0x21D8 JUMPI INVALID JUMPDEST PUSH1 0x20 MUL ADD MLOAD DUP13 PUSH1 0x0 PUSH1 0x2 DUP2 LT ISZERO ISZERO PUSH2 0x21EC JUMPI INVALID JUMPDEST PUSH1 0x20 MUL ADD MLOAD MULMOD DUP2 MSTORE PUSH1 0x20 ADD DUP10 DUP1 ISZERO ISZERO PUSH2 0x2201 JUMPI INVALID JUMPDEST DUP10 PUSH1 0x1 PUSH1 0x2 DUP2 LT ISZERO ISZERO PUSH2 0x2210 JUMPI INVALID JUMPDEST PUSH1 0x20 MUL ADD MLOAD DUP13 PUSH1 0x1 PUSH1 0x2 DUP2 LT ISZERO ISZERO PUSH2 0x2224 JUMPI INVALID JUMPDEST PUSH1 0x20 MUL ADD MLOAD MULMOD DUP2 MSTORE POP SWAP6 POP DUP6 PUSH1 0x2 PUSH1 0x4 DUP2 LT ISZERO ISZERO PUSH2 0x223E JUMPI INVALID JUMPDEST PUSH1 0x20 MUL ADD MLOAD DUP7 PUSH1 0x0 PUSH1 0x4 DUP2 LT ISZERO ISZERO PUSH2 0x2252 JUMPI INVALID JUMPDEST PUSH1 0x20 MUL ADD MLOAD EQ ISZERO PUSH2 0x22ED JUMPI DUP6 PUSH1 0x3 PUSH1 0x4 DUP2 LT ISZERO ISZERO PUSH2 0x226C JUMPI INVALID JUMPDEST PUSH1 0x20 MUL ADD MLOAD DUP7 PUSH1 0x1 PUSH1 0x4 DUP2 LT ISZERO ISZERO PUSH2 0x2280 JUMPI INVALID JUMPDEST PUSH1 0x20 MUL ADD MLOAD EQ ISZERO ISZERO PUSH2 0x22DF JUMPI PUSH1 0x0 DUP11 PUSH1 0x0 PUSH1 0x3 DUP2 LT ISZERO ISZERO PUSH2 0x229D JUMPI INVALID JUMPDEST PUSH1 0x20 MUL ADD DUP2 DUP2 MSTORE POP POP PUSH1 0x0 DUP11 PUSH1 0x1 PUSH1 0x3 DUP2 LT ISZERO ISZERO PUSH2 0x22B7 JUMPI INVALID JUMPDEST PUSH1 0x20 MUL ADD DUP2 DUP2 MSTORE POP POP PUSH1 0x0 DUP11 PUSH1 0x2 PUSH1 0x3 DUP2 LT ISZERO ISZERO PUSH2 0x22D1 JUMPI INVALID JUMPDEST PUSH1 0x20 MUL ADD DUP2 DUP2 MSTORE POP POP PUSH2 0x24D0 JUMP JUMPDEST PUSH2 0x22E8 DUP11 PUSH2 0x1E4D JUMP JUMPDEST PUSH2 0x24D0 JUMP JUMPDEST DUP8 DUP1 ISZERO ISZERO PUSH2 0x22F7 JUMPI INVALID JUMPDEST DUP7 PUSH1 0x0 PUSH1 0x4 DUP2 LT ISZERO ISZERO PUSH2 0x2306 JUMPI INVALID JUMPDEST PUSH1 0x20 MUL ADD MLOAD DUP10 SUB DUP8 PUSH1 0x2 PUSH1 0x4 DUP2 LT ISZERO ISZERO PUSH2 0x231C JUMPI INVALID JUMPDEST PUSH1 0x20 MUL ADD MLOAD ADDMOD SWAP5 POP DUP8 DUP1 ISZERO ISZERO PUSH2 0x232E JUMPI INVALID JUMPDEST DUP7 PUSH1 0x1 PUSH1 0x4 DUP2 LT ISZERO ISZERO PUSH2 0x233D JUMPI INVALID JUMPDEST PUSH1 0x20 MUL ADD MLOAD DUP10 SUB DUP8 PUSH1 0x3 PUSH1 0x4 DUP2 LT ISZERO ISZERO PUSH2 0x2353 JUMPI INVALID JUMPDEST PUSH1 0x20 MUL ADD MLOAD ADDMOD SWAP4 POP DUP8 DUP1 ISZERO ISZERO PUSH2 0x2365 JUMPI INVALID JUMPDEST DUP6 DUP7 MULMOD SWAP3 POP DUP8 DUP1 ISZERO ISZERO PUSH2 0x2374 JUMPI INVALID JUMPDEST DUP6 DUP5 MULMOD SWAP2 POP DUP8 DUP1 ISZERO ISZERO PUSH2 0x2383 JUMPI INVALID JUMPDEST DUP3 DUP10 SUB DUP10 DUP1 ISZERO ISZERO PUSH2 0x2390 JUMPI INVALID JUMPDEST DUP7 DUP8 MULMOD ADDMOD SWAP1 POP DUP8 DUP1 ISZERO ISZERO PUSH2 0x23A0 JUMPI INVALID JUMPDEST DUP9 DUP1 ISZERO ISZERO PUSH2 0x23AA JUMPI INVALID JUMPDEST DUP10 DUP1 ISZERO ISZERO PUSH2 0x23B4 JUMPI INVALID JUMPDEST DUP6 DUP10 PUSH1 0x0 PUSH1 0x4 DUP2 LT ISZERO ISZERO PUSH2 0x23C4 JUMPI INVALID JUMPDEST PUSH1 0x20 MUL ADD MLOAD MULMOD PUSH1 0x2 MULMOD DUP10 SUB DUP3 ADDMOD SWAP1 POP DUP1 DUP11 PUSH1 0x0 PUSH1 0x3 DUP2 LT ISZERO ISZERO PUSH2 0x23E3 JUMPI INVALID JUMPDEST PUSH1 0x20 MUL ADD DUP2 DUP2 MSTORE POP POP DUP8 DUP1 ISZERO ISZERO PUSH2 0x23F6 JUMPI INVALID JUMPDEST DUP9 DUP1 ISZERO ISZERO PUSH2 0x2400 JUMPI INVALID JUMPDEST DUP3 DUP11 SUB DUP11 DUP1 ISZERO ISZERO PUSH2 0x240D JUMPI INVALID JUMPDEST DUP7 DUP11 PUSH1 0x0 PUSH1 0x4 DUP2 LT ISZERO ISZERO PUSH2 0x241D JUMPI INVALID JUMPDEST PUSH1 0x20 MUL ADD MLOAD MULMOD ADDMOD DUP6 MULMOD DUP11 PUSH1 0x1 PUSH1 0x3 DUP2 LT ISZERO ISZERO PUSH2 0x2435 JUMPI INVALID JUMPDEST PUSH1 0x20 MUL ADD DUP2 DUP2 MSTORE POP POP DUP8 DUP1 ISZERO ISZERO PUSH2 0x2448 JUMPI INVALID JUMPDEST DUP9 DUP1 ISZERO ISZERO PUSH2 0x2452 JUMPI INVALID JUMPDEST DUP4 DUP9 PUSH1 0x1 PUSH1 0x4 DUP2 LT ISZERO ISZERO PUSH2 0x2462 JUMPI INVALID JUMPDEST PUSH1 0x20 MUL ADD MLOAD MULMOD DUP10 SUB DUP12 PUSH1 0x1 PUSH1 0x3 DUP2 LT ISZERO ISZERO PUSH2 0x2479 JUMPI INVALID JUMPDEST PUSH1 0x20 MUL ADD MLOAD ADDMOD DUP11 PUSH1 0x1 PUSH1 0x3 DUP2 LT ISZERO ISZERO PUSH2 0x248E JUMPI INVALID JUMPDEST PUSH1 0x20 MUL ADD DUP2 DUP2 MSTORE POP POP DUP8 DUP1 ISZERO ISZERO PUSH2 0x24A1 JUMPI INVALID JUMPDEST DUP11 PUSH1 0x2 PUSH1 0x3 DUP2 LT ISZERO ISZERO PUSH2 0x24B0 JUMPI INVALID JUMPDEST PUSH1 0x20 MUL ADD MLOAD DUP7 MULMOD DUP11 PUSH1 0x2 PUSH1 0x3 DUP2 LT ISZERO ISZERO PUSH2 0x24C6 JUMPI INVALID JUMPDEST PUSH1 0x20 MUL ADD DUP2 DUP2 MSTORE POP POP JUMPDEST POP POP POP POP POP POP POP POP POP POP JUMP JUMPDEST PUSH1 0x60 PUSH1 0x40 MLOAD SWAP1 DUP2 ADD PUSH1 0x40 MSTORE DUP1 PUSH1 0x3 SWAP1 PUSH1 0x20 DUP3 MUL DUP1 CODESIZE DUP4 CODECOPY DUP1 DUP3 ADD SWAP2 POP POP SWAP1 POP POP SWAP1 JUMP JUMPDEST PUSH2 0x300 PUSH1 0x40 MLOAD SWAP1 DUP2 ADD PUSH1 0x40 MSTORE DUP1 PUSH1 0x8 SWAP1 JUMPDEST PUSH2 0x2518 PUSH2 0x2597 JUMP JUMPDEST DUP2 MSTORE PUSH1 0x20 ADD SWAP1 PUSH1 0x1 SWAP1 SUB SWAP1 DUP2 PUSH2 0x2510 JUMPI SWAP1 POP POP SWAP1 JUMP JUMPDEST PUSH2 0x200 PUSH1 0x40 MLOAD SWAP1 DUP2 ADD PUSH1 0x40 MSTORE DUP1 PUSH1 0x10 SWAP1 PUSH1 0x20 DUP3 MUL DUP1 CODESIZE DUP4 CODECOPY DUP1 DUP3 ADD SWAP2 POP POP SWAP1 POP POP SWAP1 JUMP JUMPDEST PUSH1 0x80 PUSH1 0x40 MLOAD SWAP1 DUP2 ADD PUSH1 0x40 MSTORE DUP1 PUSH1 0x4 SWAP1 PUSH1 0x20 DUP3 MUL DUP1 CODESIZE DUP4 CODECOPY DUP1 DUP3 ADD SWAP2 POP POP SWAP1 POP POP SWAP1 JUMP JUMPDEST PUSH1 0x40 DUP1 MLOAD SWAP1 DUP2 ADD PUSH1 0x40 MSTORE DUP1 PUSH1 0x2 SWAP1 PUSH1 0x20 DUP3 MUL DUP1 CODESIZE DUP4 CODECOPY DUP1 DUP3 ADD SWAP2 POP POP SWAP1 POP POP SWAP1 JUMP JUMPDEST PUSH1 0x60 PUSH1 0x40 MLOAD SWAP1 DUP2 ADD PUSH1 0x40 MSTORE DUP1 PUSH1 0x3 SWAP1 PUSH1 0x20 DUP3 MUL DUP1 CODESIZE DUP4 CODECOPY DUP1 DUP3 ADD SWAP2 POP POP SWAP1 POP POP SWAP1 JUMP STOP LOG1 PUSH6 0x627A7A723058 KECCAK256 0xc4 0x47 DUP16 PUSH19 0xD46BA71C9BD99634D7069822A899A34590E3BE 0x21 DUP3 PUSH13 0x51EF23D0E8500290000000000 "
		},
		"gasEstimates": {
			"creation": {
				"codeDepositCost": "1940400",
				"executionCost": "2055",
				"totalCost": "1942455"
			},
			"external": {
				"recover(bytes32,bytes)": "infinite"
			},
			"internal": {
				"_getPoint(uint256,uint256,uint256,bool,bool)": "infinite",
				"btc_ecrecover(bytes32,uint8,bytes32,bytes32)": "infinite"
			}
		},
		"methodIdentifiers": {
			"recover(bytes32,bytes)": "19045a25"
		}
	},
	"abi": [
		{
			"constant": true,
			"inputs": [
				{
					"name": "hash",
					"type": "bytes32"
				},
				{
					"name": "signature",
					"type": "bytes"
				}
			],
			"name": "recover",
			"outputs": [
				{
					"name": "",
					"type": "bytes"
				}
			],
			"payable": false,
			"stateMutability": "view",
			"type": "function"
		}
	]
}